{
	"Voting.sol": {
		"Platform": {
			"abi": [
				{
					"inputs": [],
					"name": "createPoll",
					"outputs": [],
					"stateMutability": "nonpayable",
					"type": "function"
				},
				{
					"inputs": [],
					"name": "getAllElections",
					"outputs": [
						{
							"internalType": "contract Election[]",
							"name": "",
							"type": "address[]"
						}
					],
					"stateMutability": "view",
					"type": "function"
				},
				{
					"inputs": [],
					"name": "getMyPolls",
					"outputs": [
						{
							"internalType": "address[]",
							"name": "",
							"type": "address[]"
						}
					],
					"stateMutability": "view",
					"type": "function"
				},
				{
					"inputs": [
						{
							"internalType": "address",
							"name": "id",
							"type": "address"
						}
					],
					"name": "getPollById",
					"outputs": [
						{
							"internalType": "contract Poll",
							"name": "",
							"type": "address"
						}
					],
					"stateMutability": "view",
					"type": "function"
				}
			],
			"devdoc": {
				"kind": "dev",
				"methods": {},
				"version": 1
			},
			"evm": {
				"assembly": "    /* \"Voting.sol\":72:916  contract Platform {\r... */\n  mstore(0x40, 0x80)\n  callvalue\n  dup1\n  iszero\n  tag_1\n  jumpi\n  0x00\n  dup1\n  revert\ntag_1:\n  pop\n  dataSize(sub_0)\n  dup1\n  dataOffset(sub_0)\n  0x00\n  codecopy\n  0x00\n  return\nstop\n\nsub_0: assembly {\n        /* \"Voting.sol\":72:916  contract Platform {\r... */\n      mstore(0x40, 0x80)\n      callvalue\n      dup1\n      iszero\n      tag_1\n      jumpi\n      0x00\n      dup1\n      revert\n    tag_1:\n      pop\n      jumpi(tag_2, lt(calldatasize, 0x04))\n      shr(0xe0, calldataload(0x00))\n      dup1\n      0x170b5add\n      eq\n      tag_3\n      jumpi\n      dup1\n      0x1d12173c\n      eq\n      tag_4\n      jumpi\n      dup1\n      0x39f14d17\n      eq\n      tag_5\n      jumpi\n      dup1\n      0x7fd5f268\n      eq\n      tag_6\n      jumpi\n    tag_2:\n      0x00\n      dup1\n      revert\n        /* \"Voting.sol\":512:654  function getMyPolls() external view returns (address[] memory) {\r... */\n    tag_3:\n      tag_7\n      tag_8\n      jump\t// in\n    tag_7:\n      mload(0x40)\n      tag_9\n      swap2\n      swap1\n      tag_10\n      jump\t// in\n    tag_9:\n      mload(0x40)\n      dup1\n      swap2\n      sub\n      swap1\n      return\n        /* \"Voting.sol\":345:504  function getPollById(address id) external view returns (Poll) {\r... */\n    tag_4:\n      tag_11\n      0x04\n      dup1\n      calldatasize\n      sub\n      dup2\n      add\n      swap1\n      tag_12\n      swap2\n      swap1\n      tag_13\n      jump\t// in\n    tag_12:\n      tag_14\n      jump\t// in\n    tag_11:\n      mload(0x40)\n      tag_15\n      swap2\n      swap1\n      tag_16\n      jump\t// in\n    tag_15:\n      mload(0x40)\n      dup1\n      swap2\n      sub\n      swap1\n      return\n        /* \"Voting.sol\":662:913  function createPoll() external {\r... */\n    tag_5:\n      tag_17\n      tag_18\n      jump\t// in\n    tag_17:\n      stop\n        /* \"Voting.sol\":233:337  function getAllElections() external view returns (Election[] memory) {\r... */\n    tag_6:\n      tag_19\n      tag_20\n      jump\t// in\n    tag_19:\n      mload(0x40)\n      tag_21\n      swap2\n      swap1\n      tag_22\n      jump\t// in\n    tag_21:\n      mload(0x40)\n      dup1\n      swap2\n      sub\n      swap1\n      return\n        /* \"Voting.sol\":512:654  function getMyPolls() external view returns (address[] memory) {\r... */\n    tag_8:\n        /* \"Voting.sol\":557:573  address[] memory */\n      0x60\n        /* \"Voting.sol\":586:598  address user */\n      0x00\n        /* \"Voting.sol\":601:611  msg.sender */\n      caller\n        /* \"Voting.sol\":586:611  address user = msg.sender */\n      swap1\n      pop\n        /* \"Voting.sol\":631:640  userPolls */\n      0x02\n        /* \"Voting.sol\":631:646  userPolls[user] */\n      0x00\n        /* \"Voting.sol\":641:645  user */\n      dup3\n        /* \"Voting.sol\":631:646  userPolls[user] */\n      0xffffffffffffffffffffffffffffffffffffffff\n      and\n      0xffffffffffffffffffffffffffffffffffffffff\n      and\n      dup2\n      mstore\n      0x20\n      add\n      swap1\n      dup2\n      mstore\n      0x20\n      add\n      0x00\n      keccak256\n        /* \"Voting.sol\":624:646  return userPolls[user] */\n      dup1\n      sload\n      dup1\n      0x20\n      mul\n      0x20\n      add\n      mload(0x40)\n      swap1\n      dup2\n      add\n      0x40\n      mstore\n      dup1\n      swap3\n      swap2\n      swap1\n      dup2\n      dup2\n      mstore\n      0x20\n      add\n      dup3\n      dup1\n      sload\n      dup1\n      iszero\n      tag_24\n      jumpi\n      0x20\n      mul\n      dup3\n      add\n      swap2\n      swap1\n      0x00\n      mstore\n      keccak256(0x00, 0x20)\n      swap1\n    tag_25:\n      dup2\n      0x00\n      swap1\n      sload\n      swap1\n      0x0100\n      exp\n      swap1\n      div\n      0xffffffffffffffffffffffffffffffffffffffff\n      and\n      0xffffffffffffffffffffffffffffffffffffffff\n      and\n      dup2\n      mstore\n      0x20\n      add\n      swap1\n      0x01\n      add\n      swap1\n      dup1\n      dup4\n      gt\n      tag_25\n      jumpi\n    tag_24:\n      pop\n      pop\n      pop\n      pop\n      pop\n      swap2\n      pop\n      pop\n        /* \"Voting.sol\":512:654  function getMyPolls() external view returns (address[] memory) {\r... */\n      swap1\n      jump\t// out\n        /* \"Voting.sol\":345:504  function getPollById(address id) external view returns (Poll) {\r... */\n    tag_14:\n        /* \"Voting.sol\":401:405  Poll */\n      0x00\n        /* \"Voting.sol\":460:461  0 */\n      dup1\n        /* \"Voting.sol\":426:462  polls[id].getAddress() != address(0) */\n      0xffffffffffffffffffffffffffffffffffffffff\n      and\n        /* \"Voting.sol\":426:431  polls */\n      0x01\n        /* \"Voting.sol\":426:435  polls[id] */\n      0x00\n        /* \"Voting.sol\":432:434  id */\n      dup5\n        /* \"Voting.sol\":426:435  polls[id] */\n      0xffffffffffffffffffffffffffffffffffffffff\n      and\n      0xffffffffffffffffffffffffffffffffffffffff\n      and\n      dup2\n      mstore\n      0x20\n      add\n      swap1\n      dup2\n      mstore\n      0x20\n      add\n      0x00\n      keccak256\n      0x00\n      swap1\n      sload\n      swap1\n      0x0100\n      exp\n      swap1\n      div\n      0xffffffffffffffffffffffffffffffffffffffff\n      and\n        /* \"Voting.sol\":426:446  polls[id].getAddress */\n      0xffffffffffffffffffffffffffffffffffffffff\n      and\n      0x38cc4831\n        /* \"Voting.sol\":426:448  polls[id].getAddress() */\n      mload(0x40)\n      dup2\n      0xffffffff\n      and\n      0xe0\n      shl\n      dup2\n      mstore\n      0x04\n      add\n      0x20\n      mload(0x40)\n      dup1\n      dup4\n      sub\n      dup2\n      dup7\n      dup1\n      extcodesize\n      iszero\n      dup1\n      iszero\n      tag_27\n      jumpi\n      0x00\n      dup1\n      revert\n    tag_27:\n      pop\n      gas\n      staticcall\n      iszero\n      dup1\n      iszero\n      tag_29\n      jumpi\n      returndatasize\n      0x00\n      dup1\n      returndatacopy\n      revert(0x00, returndatasize)\n    tag_29:\n      pop\n      pop\n      pop\n      pop\n      mload(0x40)\n      returndatasize\n      not(0x1f)\n      0x1f\n      dup3\n      add\n      and\n      dup3\n      add\n      dup1\n      0x40\n      mstore\n      pop\n      dup2\n      add\n      swap1\n      tag_30\n      swap2\n      swap1\n      tag_31\n      jump\t// in\n    tag_30:\n        /* \"Voting.sol\":426:462  polls[id].getAddress() != address(0) */\n      0xffffffffffffffffffffffffffffffffffffffff\n      and\n      eq\n      iszero\n        /* \"Voting.sol\":418:467  require(polls[id].getAddress() != address(0), \"\") */\n      tag_32\n      jumpi\n      mload(0x40)\n      0x08c379a000000000000000000000000000000000000000000000000000000000\n      dup2\n      mstore\n      0x04\n      add\n      tag_33\n      swap1\n      tag_34\n      jump\t// in\n    tag_33:\n      mload(0x40)\n      dup1\n      swap2\n      sub\n      swap1\n      revert\n    tag_32:\n        /* \"Voting.sol\":487:492  polls */\n      0x01\n        /* \"Voting.sol\":487:496  polls[id] */\n      0x00\n        /* \"Voting.sol\":493:495  id */\n      dup4\n        /* \"Voting.sol\":487:496  polls[id] */\n      0xffffffffffffffffffffffffffffffffffffffff\n      and\n      0xffffffffffffffffffffffffffffffffffffffff\n      and\n      dup2\n      mstore\n      0x20\n      add\n      swap1\n      dup2\n      mstore\n      0x20\n      add\n      0x00\n      keccak256\n      0x00\n      swap1\n      sload\n      swap1\n      0x0100\n      exp\n      swap1\n      div\n      0xffffffffffffffffffffffffffffffffffffffff\n      and\n        /* \"Voting.sol\":480:496  return polls[id] */\n      swap1\n      pop\n        /* \"Voting.sol\":345:504  function getPollById(address id) external view returns (Poll) {\r... */\n      swap2\n      swap1\n      pop\n      jump\t// out\n        /* \"Voting.sol\":662:913  function createPoll() external {\r... */\n    tag_18:\n        /* \"Voting.sol\":704:716  address user */\n      0x00\n        /* \"Voting.sol\":719:729  msg.sender */\n      caller\n        /* \"Voting.sol\":704:729  address user = msg.sender */\n      swap1\n      pop\n        /* \"Voting.sol\":742:751  Poll poll */\n      0x00\n        /* \"Voting.sol\":763:767  user */\n      dup2\n        /* \"Voting.sol\":754:768  new Poll(user) */\n      mload(0x40)\n      tag_36\n      swap1\n      tag_37\n      jump\t// in\n    tag_36:\n      tag_38\n      swap2\n      swap1\n      tag_39\n      jump\t// in\n    tag_38:\n      mload(0x40)\n      dup1\n      swap2\n      sub\n      swap1\n      0x00\n      create\n      dup1\n      iszero\n      dup1\n      iszero\n      tag_40\n      jumpi\n      returndatasize\n      0x00\n      dup1\n      returndatacopy\n      revert(0x00, returndatasize)\n    tag_40:\n      pop\n        /* \"Voting.sol\":742:768  Poll poll = new Poll(user) */\n      swap1\n      pop\n        /* \"Voting.sol\":781:801  address poll_address */\n      0x00\n        /* \"Voting.sol\":804:808  poll */\n      dup2\n        /* \"Voting.sol\":804:819  poll.getAddress */\n      0xffffffffffffffffffffffffffffffffffffffff\n      and\n      0x38cc4831\n        /* \"Voting.sol\":804:821  poll.getAddress() */\n      mload(0x40)\n      dup2\n      0xffffffff\n      and\n      0xe0\n      shl\n      dup2\n      mstore\n      0x04\n      add\n      0x20\n      mload(0x40)\n      dup1\n      dup4\n      sub\n      dup2\n      dup7\n      dup1\n      extcodesize\n      iszero\n      dup1\n      iszero\n      tag_41\n      jumpi\n      0x00\n      dup1\n      revert\n    tag_41:\n      pop\n      gas\n      staticcall\n      iszero\n      dup1\n      iszero\n      tag_43\n      jumpi\n      returndatasize\n      0x00\n      dup1\n      returndatacopy\n      revert(0x00, returndatasize)\n    tag_43:\n      pop\n      pop\n      pop\n      pop\n      mload(0x40)\n      returndatasize\n      not(0x1f)\n      0x1f\n      dup3\n      add\n      and\n      dup3\n      add\n      dup1\n      0x40\n      mstore\n      pop\n      dup2\n      add\n      swap1\n      tag_44\n      swap2\n      swap1\n      tag_31\n      jump\t// in\n    tag_44:\n        /* \"Voting.sol\":781:821  address poll_address = poll.getAddress() */\n      swap1\n      pop\n        /* \"Voting.sol\":854:858  poll */\n      dup2\n        /* \"Voting.sol\":832:837  polls */\n      0x01\n        /* \"Voting.sol\":832:851  polls[poll_address] */\n      0x00\n        /* \"Voting.sol\":838:850  poll_address */\n      dup4\n        /* \"Voting.sol\":832:851  polls[poll_address] */\n      0xffffffffffffffffffffffffffffffffffffffff\n      and\n      0xffffffffffffffffffffffffffffffffffffffff\n      and\n      dup2\n      mstore\n      0x20\n      add\n      swap1\n      dup2\n      mstore\n      0x20\n      add\n      0x00\n      keccak256\n      0x00\n        /* \"Voting.sol\":832:858  polls[poll_address] = poll */\n      0x0100\n      exp\n      dup2\n      sload\n      dup2\n      0xffffffffffffffffffffffffffffffffffffffff\n      mul\n      not\n      and\n      swap1\n      dup4\n      0xffffffffffffffffffffffffffffffffffffffff\n      and\n      mul\n      or\n      swap1\n      sstore\n      pop\n        /* \"Voting.sol\":871:880  userPolls */\n      0x02\n        /* \"Voting.sol\":871:886  userPolls[user] */\n      0x00\n        /* \"Voting.sol\":881:885  user */\n      dup5\n        /* \"Voting.sol\":871:886  userPolls[user] */\n      0xffffffffffffffffffffffffffffffffffffffff\n      and\n      0xffffffffffffffffffffffffffffffffffffffff\n      and\n      dup2\n      mstore\n      0x20\n      add\n      swap1\n      dup2\n      mstore\n      0x20\n      add\n      0x00\n      keccak256\n        /* \"Voting.sol\":892:904  poll_address */\n      dup2\n        /* \"Voting.sol\":871:905  userPolls[user].push(poll_address) */\n      swap1\n      dup1\n      0x01\n      dup2\n      sload\n      add\n      dup1\n      dup3\n      sstore\n      dup1\n      swap2\n      pop\n      pop\n      0x01\n      swap1\n      sub\n      swap1\n      0x00\n      mstore\n      keccak256(0x00, 0x20)\n      add\n      0x00\n      swap1\n      swap2\n      swap1\n      swap2\n      swap1\n      swap2\n      0x0100\n      exp\n      dup2\n      sload\n      dup2\n      0xffffffffffffffffffffffffffffffffffffffff\n      mul\n      not\n      and\n      swap1\n      dup4\n      0xffffffffffffffffffffffffffffffffffffffff\n      and\n      mul\n      or\n      swap1\n      sstore\n      pop\n        /* \"Voting.sol\":693:913  {\r... */\n      pop\n      pop\n      pop\n        /* \"Voting.sol\":662:913  function createPoll() external {\r... */\n      jump\t// out\n        /* \"Voting.sol\":233:337  function getAllElections() external view returns (Election[] memory) {\r... */\n    tag_20:\n        /* \"Voting.sol\":283:300  Election[] memory */\n      0x60\n        /* \"Voting.sol\":320:329  elections */\n      0x00\n        /* \"Voting.sol\":313:329  return elections */\n      dup1\n      sload\n      dup1\n      0x20\n      mul\n      0x20\n      add\n      mload(0x40)\n      swap1\n      dup2\n      add\n      0x40\n      mstore\n      dup1\n      swap3\n      swap2\n      swap1\n      dup2\n      dup2\n      mstore\n      0x20\n      add\n      dup3\n      dup1\n      sload\n      dup1\n      iszero\n      tag_47\n      jumpi\n      0x20\n      mul\n      dup3\n      add\n      swap2\n      swap1\n      0x00\n      mstore\n      keccak256(0x00, 0x20)\n      swap1\n    tag_48:\n      dup2\n      0x00\n      swap1\n      sload\n      swap1\n      0x0100\n      exp\n      swap1\n      div\n      0xffffffffffffffffffffffffffffffffffffffff\n      and\n      0xffffffffffffffffffffffffffffffffffffffff\n      and\n      dup2\n      mstore\n      0x20\n      add\n      swap1\n      0x01\n      add\n      swap1\n      dup1\n      dup4\n      gt\n      tag_48\n      jumpi\n    tag_47:\n      pop\n      pop\n      pop\n      pop\n      pop\n      swap1\n      pop\n        /* \"Voting.sol\":233:337  function getAllElections() external view returns (Election[] memory) {\r... */\n      swap1\n      jump\t// out\n    tag_37:\n      dataSize(sub_0)\n      dup1\n      dataOffset(sub_0)\n      dup4\n      codecopy\n      add\n      swap1\n      jump\t// out\n        /* \"#utility.yul\":7:146   */\n    tag_50:\n        /* \"#utility.yul\":53:58   */\n      0x00\n        /* \"#utility.yul\":91:97   */\n      dup2\n        /* \"#utility.yul\":78:98   */\n      calldataload\n        /* \"#utility.yul\":69:98   */\n      swap1\n      pop\n        /* \"#utility.yul\":107:140   */\n      tag_52\n        /* \"#utility.yul\":134:139   */\n      dup2\n        /* \"#utility.yul\":107:140   */\n      tag_53\n      jump\t// in\n    tag_52:\n        /* \"#utility.yul\":7:146   */\n      swap3\n      swap2\n      pop\n      pop\n      jump\t// out\n        /* \"#utility.yul\":152:295   */\n    tag_54:\n        /* \"#utility.yul\":209:214   */\n      0x00\n        /* \"#utility.yul\":240:246   */\n      dup2\n        /* \"#utility.yul\":234:247   */\n      mload\n        /* \"#utility.yul\":225:247   */\n      swap1\n      pop\n        /* \"#utility.yul\":256:289   */\n      tag_56\n        /* \"#utility.yul\":283:288   */\n      dup2\n        /* \"#utility.yul\":256:289   */\n      tag_53\n      jump\t// in\n    tag_56:\n        /* \"#utility.yul\":152:295   */\n      swap3\n      swap2\n      pop\n      pop\n      jump\t// out\n        /* \"#utility.yul\":301:630   */\n    tag_13:\n        /* \"#utility.yul\":360:366   */\n      0x00\n        /* \"#utility.yul\":409:411   */\n      0x20\n        /* \"#utility.yul\":397:406   */\n      dup3\n        /* \"#utility.yul\":388:395   */\n      dup5\n        /* \"#utility.yul\":384:407   */\n      sub\n        /* \"#utility.yul\":380:412   */\n      slt\n        /* \"#utility.yul\":377:496   */\n      iszero\n      tag_58\n      jumpi\n        /* \"#utility.yul\":415:494   */\n      tag_59\n      tag_60\n      jump\t// in\n    tag_59:\n        /* \"#utility.yul\":377:496   */\n    tag_58:\n        /* \"#utility.yul\":535:536   */\n      0x00\n        /* \"#utility.yul\":560:613   */\n      tag_61\n        /* \"#utility.yul\":605:612   */\n      dup5\n        /* \"#utility.yul\":596:602   */\n      dup3\n        /* \"#utility.yul\":585:594   */\n      dup6\n        /* \"#utility.yul\":581:603   */\n      add\n        /* \"#utility.yul\":560:613   */\n      tag_50\n      jump\t// in\n    tag_61:\n        /* \"#utility.yul\":550:613   */\n      swap2\n      pop\n        /* \"#utility.yul\":506:623   */\n      pop\n        /* \"#utility.yul\":301:630   */\n      swap3\n      swap2\n      pop\n      pop\n      jump\t// out\n        /* \"#utility.yul\":636:987   */\n    tag_31:\n        /* \"#utility.yul\":706:712   */\n      0x00\n        /* \"#utility.yul\":755:757   */\n      0x20\n        /* \"#utility.yul\":743:752   */\n      dup3\n        /* \"#utility.yul\":734:741   */\n      dup5\n        /* \"#utility.yul\":730:753   */\n      sub\n        /* \"#utility.yul\":726:758   */\n      slt\n        /* \"#utility.yul\":723:842   */\n      iszero\n      tag_63\n      jumpi\n        /* \"#utility.yul\":761:840   */\n      tag_64\n      tag_60\n      jump\t// in\n    tag_64:\n        /* \"#utility.yul\":723:842   */\n    tag_63:\n        /* \"#utility.yul\":881:882   */\n      0x00\n        /* \"#utility.yul\":906:970   */\n      tag_65\n        /* \"#utility.yul\":962:969   */\n      dup5\n        /* \"#utility.yul\":953:959   */\n      dup3\n        /* \"#utility.yul\":942:951   */\n      dup6\n        /* \"#utility.yul\":938:960   */\n      add\n        /* \"#utility.yul\":906:970   */\n      tag_54\n      jump\t// in\n    tag_65:\n        /* \"#utility.yul\":896:970   */\n      swap2\n      pop\n        /* \"#utility.yul\":852:980   */\n      pop\n        /* \"#utility.yul\":636:987   */\n      swap3\n      swap2\n      pop\n      pop\n      jump\t// out\n        /* \"#utility.yul\":993:1172   */\n    tag_66:\n        /* \"#utility.yul\":1062:1072   */\n      0x00\n        /* \"#utility.yul\":1083:1129   */\n      tag_68\n        /* \"#utility.yul\":1125:1128   */\n      dup4\n        /* \"#utility.yul\":1117:1123   */\n      dup4\n        /* \"#utility.yul\":1083:1129   */\n      tag_69\n      jump\t// in\n    tag_68:\n        /* \"#utility.yul\":1161:1165   */\n      0x20\n        /* \"#utility.yul\":1156:1159   */\n      dup4\n        /* \"#utility.yul\":1152:1166   */\n      add\n        /* \"#utility.yul\":1138:1166   */\n      swap1\n      pop\n        /* \"#utility.yul\":993:1172   */\n      swap3\n      swap2\n      pop\n      pop\n      jump\t// out\n        /* \"#utility.yul\":1178:1389   */\n    tag_70:\n        /* \"#utility.yul\":1263:1273   */\n      0x00\n        /* \"#utility.yul\":1284:1346   */\n      tag_72\n        /* \"#utility.yul\":1342:1345   */\n      dup4\n        /* \"#utility.yul\":1334:1340   */\n      dup4\n        /* \"#utility.yul\":1284:1346   */\n      tag_73\n      jump\t// in\n    tag_72:\n        /* \"#utility.yul\":1378:1382   */\n      0x20\n        /* \"#utility.yul\":1373:1376   */\n      dup4\n        /* \"#utility.yul\":1369:1383   */\n      add\n        /* \"#utility.yul\":1355:1383   */\n      swap1\n      pop\n        /* \"#utility.yul\":1178:1389   */\n      swap3\n      swap2\n      pop\n      pop\n      jump\t// out\n        /* \"#utility.yul\":1395:1503   */\n    tag_69:\n        /* \"#utility.yul\":1472:1496   */\n      tag_75\n        /* \"#utility.yul\":1490:1495   */\n      dup2\n        /* \"#utility.yul\":1472:1496   */\n      tag_76\n      jump\t// in\n    tag_75:\n        /* \"#utility.yul\":1467:1470   */\n      dup3\n        /* \"#utility.yul\":1460:1497   */\n      mstore\n        /* \"#utility.yul\":1395:1503   */\n      pop\n      pop\n      jump\t// out\n        /* \"#utility.yul\":1509:1627   */\n    tag_77:\n        /* \"#utility.yul\":1596:1620   */\n      tag_79\n        /* \"#utility.yul\":1614:1619   */\n      dup2\n        /* \"#utility.yul\":1596:1620   */\n      tag_76\n      jump\t// in\n    tag_79:\n        /* \"#utility.yul\":1591:1594   */\n      dup3\n        /* \"#utility.yul\":1584:1621   */\n      mstore\n        /* \"#utility.yul\":1509:1627   */\n      pop\n      pop\n      jump\t// out\n        /* \"#utility.yul\":1663:2395   */\n    tag_80:\n        /* \"#utility.yul\":1782:1785   */\n      0x00\n        /* \"#utility.yul\":1811:1865   */\n      tag_82\n        /* \"#utility.yul\":1859:1864   */\n      dup3\n        /* \"#utility.yul\":1811:1865   */\n      tag_83\n      jump\t// in\n    tag_82:\n        /* \"#utility.yul\":1881:1967   */\n      tag_84\n        /* \"#utility.yul\":1960:1966   */\n      dup2\n        /* \"#utility.yul\":1955:1958   */\n      dup6\n        /* \"#utility.yul\":1881:1967   */\n      tag_85\n      jump\t// in\n    tag_84:\n        /* \"#utility.yul\":1874:1967   */\n      swap4\n      pop\n        /* \"#utility.yul\":1991:2047   */\n      tag_86\n        /* \"#utility.yul\":2041:2046   */\n      dup4\n        /* \"#utility.yul\":1991:2047   */\n      tag_87\n      jump\t// in\n    tag_86:\n        /* \"#utility.yul\":2070:2077   */\n      dup1\n        /* \"#utility.yul\":2101:2102   */\n      0x00\n        /* \"#utility.yul\":2086:2370   */\n    tag_88:\n        /* \"#utility.yul\":2111:2117   */\n      dup4\n        /* \"#utility.yul\":2108:2109   */\n      dup2\n        /* \"#utility.yul\":2105:2118   */\n      lt\n        /* \"#utility.yul\":2086:2370   */\n      iszero\n      tag_90\n      jumpi\n        /* \"#utility.yul\":2187:2193   */\n      dup2\n        /* \"#utility.yul\":2181:2194   */\n      mload\n        /* \"#utility.yul\":2214:2277   */\n      tag_91\n        /* \"#utility.yul\":2273:2276   */\n      dup9\n        /* \"#utility.yul\":2258:2271   */\n      dup3\n        /* \"#utility.yul\":2214:2277   */\n      tag_66\n      jump\t// in\n    tag_91:\n        /* \"#utility.yul\":2207:2277   */\n      swap8\n      pop\n        /* \"#utility.yul\":2300:2360   */\n      tag_92\n        /* \"#utility.yul\":2353:2359   */\n      dup4\n        /* \"#utility.yul\":2300:2360   */\n      tag_93\n      jump\t// in\n    tag_92:\n        /* \"#utility.yul\":2290:2360   */\n      swap3\n      pop\n        /* \"#utility.yul\":2146:2370   */\n      pop\n        /* \"#utility.yul\":2133:2134   */\n      0x01\n        /* \"#utility.yul\":2130:2131   */\n      dup2\n        /* \"#utility.yul\":2126:2135   */\n      add\n        /* \"#utility.yul\":2121:2135   */\n      swap1\n      pop\n        /* \"#utility.yul\":2086:2370   */\n      jump(tag_88)\n    tag_90:\n        /* \"#utility.yul\":2090:2104   */\n      pop\n        /* \"#utility.yul\":2386:2389   */\n      dup6\n        /* \"#utility.yul\":2379:2389   */\n      swap4\n      pop\n        /* \"#utility.yul\":1787:2395   */\n      pop\n      pop\n      pop\n        /* \"#utility.yul\":1663:2395   */\n      swap3\n      swap2\n      pop\n      pop\n      jump\t// out\n        /* \"#utility.yul\":2441:3253   */\n    tag_94:\n        /* \"#utility.yul\":2576:2579   */\n      0x00\n        /* \"#utility.yul\":2605:2675   */\n      tag_96\n        /* \"#utility.yul\":2669:2674   */\n      dup3\n        /* \"#utility.yul\":2605:2675   */\n      tag_97\n      jump\t// in\n    tag_96:\n        /* \"#utility.yul\":2691:2777   */\n      tag_98\n        /* \"#utility.yul\":2770:2776   */\n      dup2\n        /* \"#utility.yul\":2765:2768   */\n      dup6\n        /* \"#utility.yul\":2691:2777   */\n      tag_85\n      jump\t// in\n    tag_98:\n        /* \"#utility.yul\":2684:2777   */\n      swap4\n      pop\n        /* \"#utility.yul\":2801:2873   */\n      tag_99\n        /* \"#utility.yul\":2867:2872   */\n      dup4\n        /* \"#utility.yul\":2801:2873   */\n      tag_100\n      jump\t// in\n    tag_99:\n        /* \"#utility.yul\":2896:2903   */\n      dup1\n        /* \"#utility.yul\":2927:2928   */\n      0x00\n        /* \"#utility.yul\":2912:3228   */\n    tag_101:\n        /* \"#utility.yul\":2937:2943   */\n      dup4\n        /* \"#utility.yul\":2934:2935   */\n      dup2\n        /* \"#utility.yul\":2931:2944   */\n      lt\n        /* \"#utility.yul\":2912:3228   */\n      iszero\n      tag_103\n      jumpi\n        /* \"#utility.yul\":3013:3019   */\n      dup2\n        /* \"#utility.yul\":3007:3020   */\n      mload\n        /* \"#utility.yul\":3040:3119   */\n      tag_104\n        /* \"#utility.yul\":3115:3118   */\n      dup9\n        /* \"#utility.yul\":3100:3113   */\n      dup3\n        /* \"#utility.yul\":3040:3119   */\n      tag_70\n      jump\t// in\n    tag_104:\n        /* \"#utility.yul\":3033:3119   */\n      swap8\n      pop\n        /* \"#utility.yul\":3142:3218   */\n      tag_105\n        /* \"#utility.yul\":3211:3217   */\n      dup4\n        /* \"#utility.yul\":3142:3218   */\n      tag_106\n      jump\t// in\n    tag_105:\n        /* \"#utility.yul\":3132:3218   */\n      swap3\n      pop\n        /* \"#utility.yul\":2972:3228   */\n      pop\n        /* \"#utility.yul\":2959:2960   */\n      0x01\n        /* \"#utility.yul\":2956:2957   */\n      dup2\n        /* \"#utility.yul\":2952:2961   */\n      add\n        /* \"#utility.yul\":2947:2961   */\n      swap1\n      pop\n        /* \"#utility.yul\":2912:3228   */\n      jump(tag_101)\n    tag_103:\n        /* \"#utility.yul\":2916:2930   */\n      pop\n        /* \"#utility.yul\":3244:3247   */\n      dup6\n        /* \"#utility.yul\":3237:3247   */\n      swap4\n      pop\n        /* \"#utility.yul\":2581:3253   */\n      pop\n      pop\n      pop\n        /* \"#utility.yul\":2441:3253   */\n      swap3\n      swap2\n      pop\n      pop\n      jump\t// out\n        /* \"#utility.yul\":3259:3412   */\n    tag_73:\n        /* \"#utility.yul\":3352:3405   */\n      tag_108\n        /* \"#utility.yul\":3399:3404   */\n      dup2\n        /* \"#utility.yul\":3352:3405   */\n      tag_109\n      jump\t// in\n    tag_108:\n        /* \"#utility.yul\":3347:3350   */\n      dup3\n        /* \"#utility.yul\":3340:3406   */\n      mstore\n        /* \"#utility.yul\":3259:3412   */\n      pop\n      pop\n      jump\t// out\n        /* \"#utility.yul\":3418:3573   */\n    tag_110:\n        /* \"#utility.yul\":3517:3566   */\n      tag_112\n        /* \"#utility.yul\":3560:3565   */\n      dup2\n        /* \"#utility.yul\":3517:3566   */\n      tag_113\n      jump\t// in\n    tag_112:\n        /* \"#utility.yul\":3512:3515   */\n      dup3\n        /* \"#utility.yul\":3505:3567   */\n      mstore\n        /* \"#utility.yul\":3418:3573   */\n      pop\n      pop\n      jump\t// out\n        /* \"#utility.yul\":3579:3943   */\n    tag_114:\n        /* \"#utility.yul\":3721:3724   */\n      0x00\n        /* \"#utility.yul\":3742:3808   */\n      tag_116\n        /* \"#utility.yul\":3806:3807   */\n      0x00\n        /* \"#utility.yul\":3801:3804   */\n      dup4\n        /* \"#utility.yul\":3742:3808   */\n      tag_117\n      jump\t// in\n    tag_116:\n        /* \"#utility.yul\":3735:3808   */\n      swap2\n      pop\n        /* \"#utility.yul\":3817:3910   */\n      tag_118\n        /* \"#utility.yul\":3906:3909   */\n      dup3\n        /* \"#utility.yul\":3817:3910   */\n      tag_119\n      jump\t// in\n    tag_118:\n        /* \"#utility.yul\":3935:3936   */\n      0x00\n        /* \"#utility.yul\":3930:3933   */\n      dup3\n        /* \"#utility.yul\":3926:3937   */\n      add\n        /* \"#utility.yul\":3919:3937   */\n      swap1\n      pop\n        /* \"#utility.yul\":3579:3943   */\n      swap2\n      swap1\n      pop\n      jump\t// out\n        /* \"#utility.yul\":3949:4171   */\n    tag_39:\n        /* \"#utility.yul\":4042:4046   */\n      0x00\n        /* \"#utility.yul\":4080:4082   */\n      0x20\n        /* \"#utility.yul\":4069:4078   */\n      dup3\n        /* \"#utility.yul\":4065:4083   */\n      add\n        /* \"#utility.yul\":4057:4083   */\n      swap1\n      pop\n        /* \"#utility.yul\":4093:4164   */\n      tag_121\n        /* \"#utility.yul\":4161:4162   */\n      0x00\n        /* \"#utility.yul\":4150:4159   */\n      dup4\n        /* \"#utility.yul\":4146:4163   */\n      add\n        /* \"#utility.yul\":4137:4143   */\n      dup5\n        /* \"#utility.yul\":4093:4164   */\n      tag_77\n      jump\t// in\n    tag_121:\n        /* \"#utility.yul\":3949:4171   */\n      swap3\n      swap2\n      pop\n      pop\n      jump\t// out\n        /* \"#utility.yul\":4177:4550   */\n    tag_10:\n        /* \"#utility.yul\":4320:4324   */\n      0x00\n        /* \"#utility.yul\":4358:4360   */\n      0x20\n        /* \"#utility.yul\":4347:4356   */\n      dup3\n        /* \"#utility.yul\":4343:4361   */\n      add\n        /* \"#utility.yul\":4335:4361   */\n      swap1\n      pop\n        /* \"#utility.yul\":4407:4416   */\n      dup2\n        /* \"#utility.yul\":4401:4405   */\n      dup2\n        /* \"#utility.yul\":4397:4417   */\n      sub\n        /* \"#utility.yul\":4393:4394   */\n      0x00\n        /* \"#utility.yul\":4382:4391   */\n      dup4\n        /* \"#utility.yul\":4378:4395   */\n      add\n        /* \"#utility.yul\":4371:4418   */\n      mstore\n        /* \"#utility.yul\":4435:4543   */\n      tag_123\n        /* \"#utility.yul\":4538:4542   */\n      dup2\n        /* \"#utility.yul\":4529:4535   */\n      dup5\n        /* \"#utility.yul\":4435:4543   */\n      tag_80\n      jump\t// in\n    tag_123:\n        /* \"#utility.yul\":4427:4543   */\n      swap1\n      pop\n        /* \"#utility.yul\":4177:4550   */\n      swap3\n      swap2\n      pop\n      pop\n      jump\t// out\n        /* \"#utility.yul\":4556:4961   */\n    tag_22:\n        /* \"#utility.yul\":4715:4719   */\n      0x00\n        /* \"#utility.yul\":4753:4755   */\n      0x20\n        /* \"#utility.yul\":4742:4751   */\n      dup3\n        /* \"#utility.yul\":4738:4756   */\n      add\n        /* \"#utility.yul\":4730:4756   */\n      swap1\n      pop\n        /* \"#utility.yul\":4802:4811   */\n      dup2\n        /* \"#utility.yul\":4796:4800   */\n      dup2\n        /* \"#utility.yul\":4792:4812   */\n      sub\n        /* \"#utility.yul\":4788:4789   */\n      0x00\n        /* \"#utility.yul\":4777:4786   */\n      dup4\n        /* \"#utility.yul\":4773:4790   */\n      add\n        /* \"#utility.yul\":4766:4813   */\n      mstore\n        /* \"#utility.yul\":4830:4954   */\n      tag_125\n        /* \"#utility.yul\":4949:4953   */\n      dup2\n        /* \"#utility.yul\":4940:4946   */\n      dup5\n        /* \"#utility.yul\":4830:4954   */\n      tag_94\n      jump\t// in\n    tag_125:\n        /* \"#utility.yul\":4822:4954   */\n      swap1\n      pop\n        /* \"#utility.yul\":4556:4961   */\n      swap3\n      swap2\n      pop\n      pop\n      jump\t// out\n        /* \"#utility.yul\":4967:5213   */\n    tag_16:\n        /* \"#utility.yul\":5072:5076   */\n      0x00\n        /* \"#utility.yul\":5110:5112   */\n      0x20\n        /* \"#utility.yul\":5099:5108   */\n      dup3\n        /* \"#utility.yul\":5095:5113   */\n      add\n        /* \"#utility.yul\":5087:5113   */\n      swap1\n      pop\n        /* \"#utility.yul\":5123:5206   */\n      tag_127\n        /* \"#utility.yul\":5203:5204   */\n      0x00\n        /* \"#utility.yul\":5192:5201   */\n      dup4\n        /* \"#utility.yul\":5188:5205   */\n      add\n        /* \"#utility.yul\":5179:5185   */\n      dup5\n        /* \"#utility.yul\":5123:5206   */\n      tag_110\n      jump\t// in\n    tag_127:\n        /* \"#utility.yul\":4967:5213   */\n      swap3\n      swap2\n      pop\n      pop\n      jump\t// out\n        /* \"#utility.yul\":5219:5638   */\n    tag_34:\n        /* \"#utility.yul\":5385:5389   */\n      0x00\n        /* \"#utility.yul\":5423:5425   */\n      0x20\n        /* \"#utility.yul\":5412:5421   */\n      dup3\n        /* \"#utility.yul\":5408:5426   */\n      add\n        /* \"#utility.yul\":5400:5426   */\n      swap1\n      pop\n        /* \"#utility.yul\":5472:5481   */\n      dup2\n        /* \"#utility.yul\":5466:5470   */\n      dup2\n        /* \"#utility.yul\":5462:5482   */\n      sub\n        /* \"#utility.yul\":5458:5459   */\n      0x00\n        /* \"#utility.yul\":5447:5456   */\n      dup4\n        /* \"#utility.yul\":5443:5460   */\n      add\n        /* \"#utility.yul\":5436:5483   */\n      mstore\n        /* \"#utility.yul\":5500:5631   */\n      tag_129\n        /* \"#utility.yul\":5626:5630   */\n      dup2\n        /* \"#utility.yul\":5500:5631   */\n      tag_114\n      jump\t// in\n    tag_129:\n        /* \"#utility.yul\":5492:5631   */\n      swap1\n      pop\n        /* \"#utility.yul\":5219:5638   */\n      swap2\n      swap1\n      pop\n      jump\t// out\n        /* \"#utility.yul\":5725:5857   */\n    tag_87:\n        /* \"#utility.yul\":5792:5796   */\n      0x00\n        /* \"#utility.yul\":5815:5818   */\n      dup2\n        /* \"#utility.yul\":5807:5818   */\n      swap1\n      pop\n        /* \"#utility.yul\":5845:5849   */\n      0x20\n        /* \"#utility.yul\":5840:5843   */\n      dup3\n        /* \"#utility.yul\":5836:5850   */\n      add\n        /* \"#utility.yul\":5828:5850   */\n      swap1\n      pop\n        /* \"#utility.yul\":5725:5857   */\n      swap2\n      swap1\n      pop\n      jump\t// out\n        /* \"#utility.yul\":5863:6011   */\n    tag_100:\n        /* \"#utility.yul\":5946:5950   */\n      0x00\n        /* \"#utility.yul\":5969:5972   */\n      dup2\n        /* \"#utility.yul\":5961:5972   */\n      swap1\n      pop\n        /* \"#utility.yul\":5999:6003   */\n      0x20\n        /* \"#utility.yul\":5994:5997   */\n      dup3\n        /* \"#utility.yul\":5990:6004   */\n      add\n        /* \"#utility.yul\":5982:6004   */\n      swap1\n      pop\n        /* \"#utility.yul\":5863:6011   */\n      swap2\n      swap1\n      pop\n      jump\t// out\n        /* \"#utility.yul\":6017:6131   */\n    tag_83:\n        /* \"#utility.yul\":6084:6090   */\n      0x00\n        /* \"#utility.yul\":6118:6123   */\n      dup2\n        /* \"#utility.yul\":6112:6124   */\n      mload\n        /* \"#utility.yul\":6102:6124   */\n      swap1\n      pop\n        /* \"#utility.yul\":6017:6131   */\n      swap2\n      swap1\n      pop\n      jump\t// out\n        /* \"#utility.yul\":6137:6267   */\n    tag_97:\n        /* \"#utility.yul\":6220:6226   */\n      0x00\n        /* \"#utility.yul\":6254:6259   */\n      dup2\n        /* \"#utility.yul\":6248:6260   */\n      mload\n        /* \"#utility.yul\":6238:6260   */\n      swap1\n      pop\n        /* \"#utility.yul\":6137:6267   */\n      swap2\n      swap1\n      pop\n      jump\t// out\n        /* \"#utility.yul\":6273:6386   */\n    tag_93:\n        /* \"#utility.yul\":6343:6347   */\n      0x00\n        /* \"#utility.yul\":6375:6379   */\n      0x20\n        /* \"#utility.yul\":6370:6373   */\n      dup3\n        /* \"#utility.yul\":6366:6380   */\n      add\n        /* \"#utility.yul\":6358:6380   */\n      swap1\n      pop\n        /* \"#utility.yul\":6273:6386   */\n      swap2\n      swap1\n      pop\n      jump\t// out\n        /* \"#utility.yul\":6392:6521   */\n    tag_106:\n        /* \"#utility.yul\":6478:6482   */\n      0x00\n        /* \"#utility.yul\":6510:6514   */\n      0x20\n        /* \"#utility.yul\":6505:6508   */\n      dup3\n        /* \"#utility.yul\":6501:6515   */\n      add\n        /* \"#utility.yul\":6493:6515   */\n      swap1\n      pop\n        /* \"#utility.yul\":6392:6521   */\n      swap2\n      swap1\n      pop\n      jump\t// out\n        /* \"#utility.yul\":6527:6711   */\n    tag_85:\n        /* \"#utility.yul\":6626:6637   */\n      0x00\n        /* \"#utility.yul\":6660:6666   */\n      dup3\n        /* \"#utility.yul\":6655:6658   */\n      dup3\n        /* \"#utility.yul\":6648:6667   */\n      mstore\n        /* \"#utility.yul\":6700:6704   */\n      0x20\n        /* \"#utility.yul\":6695:6698   */\n      dup3\n        /* \"#utility.yul\":6691:6705   */\n      add\n        /* \"#utility.yul\":6676:6705   */\n      swap1\n      pop\n        /* \"#utility.yul\":6527:6711   */\n      swap3\n      swap2\n      pop\n      pop\n      jump\t// out\n        /* \"#utility.yul\":6717:6886   */\n    tag_117:\n        /* \"#utility.yul\":6801:6812   */\n      0x00\n        /* \"#utility.yul\":6835:6841   */\n      dup3\n        /* \"#utility.yul\":6830:6833   */\n      dup3\n        /* \"#utility.yul\":6823:6842   */\n      mstore\n        /* \"#utility.yul\":6875:6879   */\n      0x20\n        /* \"#utility.yul\":6870:6873   */\n      dup3\n        /* \"#utility.yul\":6866:6880   */\n      add\n        /* \"#utility.yul\":6851:6880   */\n      swap1\n      pop\n        /* \"#utility.yul\":6717:6886   */\n      swap3\n      swap2\n      pop\n      pop\n      jump\t// out\n        /* \"#utility.yul\":6892:6988   */\n    tag_76:\n        /* \"#utility.yul\":6929:6936   */\n      0x00\n        /* \"#utility.yul\":6958:6982   */\n      tag_141\n        /* \"#utility.yul\":6976:6981   */\n      dup3\n        /* \"#utility.yul\":6958:6982   */\n      tag_142\n      jump\t// in\n    tag_141:\n        /* \"#utility.yul\":6947:6982   */\n      swap1\n      pop\n        /* \"#utility.yul\":6892:6988   */\n      swap2\n      swap1\n      pop\n      jump\t// out\n        /* \"#utility.yul\":6994:7120   */\n    tag_142:\n        /* \"#utility.yul\":7031:7038   */\n      0x00\n        /* \"#utility.yul\":7071:7113   */\n      0xffffffffffffffffffffffffffffffffffffffff\n        /* \"#utility.yul\":7064:7069   */\n      dup3\n        /* \"#utility.yul\":7060:7114   */\n      and\n        /* \"#utility.yul\":7049:7114   */\n      swap1\n      pop\n        /* \"#utility.yul\":6994:7120   */\n      swap2\n      swap1\n      pop\n      jump\t// out\n        /* \"#utility.yul\":7126:7268   */\n    tag_109:\n        /* \"#utility.yul\":7192:7201   */\n      0x00\n        /* \"#utility.yul\":7225:7262   */\n      tag_145\n        /* \"#utility.yul\":7256:7261   */\n      dup3\n        /* \"#utility.yul\":7225:7262   */\n      tag_146\n      jump\t// in\n    tag_145:\n        /* \"#utility.yul\":7212:7262   */\n      swap1\n      pop\n        /* \"#utility.yul\":7126:7268   */\n      swap2\n      swap1\n      pop\n      jump\t// out\n        /* \"#utility.yul\":7274:7412   */\n    tag_113:\n        /* \"#utility.yul\":7336:7345   */\n      0x00\n        /* \"#utility.yul\":7369:7406   */\n      tag_148\n        /* \"#utility.yul\":7400:7405   */\n      dup3\n        /* \"#utility.yul\":7369:7406   */\n      tag_146\n      jump\t// in\n    tag_148:\n        /* \"#utility.yul\":7356:7406   */\n      swap1\n      pop\n        /* \"#utility.yul\":7274:7412   */\n      swap2\n      swap1\n      pop\n      jump\t// out\n        /* \"#utility.yul\":7418:7544   */\n    tag_146:\n        /* \"#utility.yul\":7468:7477   */\n      0x00\n        /* \"#utility.yul\":7501:7538   */\n      tag_150\n        /* \"#utility.yul\":7532:7537   */\n      dup3\n        /* \"#utility.yul\":7501:7538   */\n      tag_151\n      jump\t// in\n    tag_150:\n        /* \"#utility.yul\":7488:7538   */\n      swap1\n      pop\n        /* \"#utility.yul\":7418:7544   */\n      swap2\n      swap1\n      pop\n      jump\t// out\n        /* \"#utility.yul\":7550:7663   */\n    tag_151:\n        /* \"#utility.yul\":7600:7609   */\n      0x00\n        /* \"#utility.yul\":7633:7657   */\n      tag_153\n        /* \"#utility.yul\":7651:7656   */\n      dup3\n        /* \"#utility.yul\":7633:7657   */\n      tag_142\n      jump\t// in\n    tag_153:\n        /* \"#utility.yul\":7620:7657   */\n      swap1\n      pop\n        /* \"#utility.yul\":7550:7663   */\n      swap2\n      swap1\n      pop\n      jump\t// out\n        /* \"#utility.yul\":7792:7909   */\n    tag_60:\n        /* \"#utility.yul\":7901:7902   */\n      0x00\n        /* \"#utility.yul\":7898:7899   */\n      dup1\n        /* \"#utility.yul\":7891:7903   */\n      revert\n        /* \"#utility.yul\":7915:8029   */\n    tag_119:\n      pop\n      jump\t// out\n        /* \"#utility.yul\":8035:8157   */\n    tag_53:\n        /* \"#utility.yul\":8108:8132   */\n      tag_159\n        /* \"#utility.yul\":8126:8131   */\n      dup2\n        /* \"#utility.yul\":8108:8132   */\n      tag_76\n      jump\t// in\n    tag_159:\n        /* \"#utility.yul\":8101:8106   */\n      dup2\n        /* \"#utility.yul\":8098:8133   */\n      eq\n        /* \"#utility.yul\":8088:8151   */\n      tag_160\n      jumpi\n        /* \"#utility.yul\":8147:8148   */\n      0x00\n        /* \"#utility.yul\":8144:8145   */\n      dup1\n        /* \"#utility.yul\":8137:8149   */\n      revert\n        /* \"#utility.yul\":8088:8151   */\n    tag_160:\n        /* \"#utility.yul\":8035:8157   */\n      pop\n      jump\t// out\n    stop\n\n    sub_0: assembly {\n            /* \"Voting.sol\":2568:2889  contract Poll {\r... */\n          mstore(0x40, 0x80)\n            /* \"Voting.sol\":2665:2792  constructor(address _creator) {\r... */\n          callvalue\n          dup1\n          iszero\n          tag_1\n          jumpi\n          0x00\n          dup1\n          revert\n        tag_1:\n          pop\n          mload(0x40)\n          sub(codesize, bytecodeSize)\n          dup1\n          bytecodeSize\n          dup4\n          codecopy\n          dup2\n          dup2\n          add\n          0x40\n          mstore\n          dup2\n          add\n          swap1\n          tag_2\n          swap2\n          swap1\n          tag_3\n          jump\t// in\n        tag_2:\n            /* \"Voting.sol\":2716:2724  _creator */\n          dup1\n            /* \"Voting.sol\":2706:2713  creator */\n          0x00\n          dup1\n            /* \"Voting.sol\":2706:2724  creator = _creator */\n          0x0100\n          exp\n          dup2\n          sload\n          dup2\n          0xffffffffffffffffffffffffffffffffffffffff\n          mul\n          not\n          and\n          swap1\n          dup4\n          0xffffffffffffffffffffffffffffffffffffffff\n          and\n          mul\n          or\n          swap1\n          sstore\n          pop\n            /* \"Voting.sol\":2754:2758  this */\n          address\n            /* \"Voting.sol\":2735:2743  _address */\n          0x01\n          0x00\n            /* \"Voting.sol\":2735:2759  _address = address(this) */\n          0x0100\n          exp\n          dup2\n          sload\n          dup2\n          0xffffffffffffffffffffffffffffffffffffffff\n          mul\n          not\n          and\n          swap1\n          dup4\n          0xffffffffffffffffffffffffffffffffffffffff\n          and\n          mul\n          or\n          swap1\n          sstore\n          pop\n            /* \"Voting.sol\":2770:2784  random = \"Hey\" */\n          mload(0x40)\n          dup1\n          0x40\n          add\n          0x40\n          mstore\n          dup1\n          0x03\n          dup2\n          mstore\n          0x20\n          add\n          0x4865790000000000000000000000000000000000000000000000000000000000\n          dup2\n          mstore\n          pop\n            /* \"Voting.sol\":2770:2776  random */\n          0x02\n            /* \"Voting.sol\":2770:2784  random = \"Hey\" */\n          swap1\n          dup1\n          mload\n          swap1\n          0x20\n          add\n          swap1\n          tag_6\n          swap3\n          swap2\n          swap1\n          tag_7\n          jump\t// in\n        tag_6:\n          pop\n            /* \"Voting.sol\":2665:2792  constructor(address _creator) {\r... */\n          pop\n            /* \"Voting.sol\":2568:2889  contract Poll {\r... */\n          jump(tag_8)\n        tag_7:\n          dup3\n          dup1\n          sload\n          tag_9\n          swap1\n          tag_10\n          jump\t// in\n        tag_9:\n          swap1\n          0x00\n          mstore\n          keccak256(0x00, 0x20)\n          swap1\n          0x1f\n          add\n          0x20\n          swap1\n          div\n          dup2\n          add\n          swap3\n          dup3\n          tag_12\n          jumpi\n          0x00\n          dup6\n          sstore\n          jump(tag_11)\n        tag_12:\n          dup3\n          0x1f\n          lt\n          tag_13\n          jumpi\n          dup1\n          mload\n          not(0xff)\n          and\n          dup4\n          dup1\n          add\n          or\n          dup6\n          sstore\n          jump(tag_11)\n        tag_13:\n          dup3\n          dup1\n          add\n          0x01\n          add\n          dup6\n          sstore\n          dup3\n          iszero\n          tag_11\n          jumpi\n          swap2\n          dup3\n          add\n        tag_14:\n          dup3\n          dup2\n          gt\n          iszero\n          tag_15\n          jumpi\n          dup3\n          mload\n          dup3\n          sstore\n          swap2\n          0x20\n          add\n          swap2\n          swap1\n          0x01\n          add\n          swap1\n          jump(tag_14)\n        tag_15:\n        tag_11:\n          pop\n          swap1\n          pop\n          tag_16\n          swap2\n          swap1\n          tag_17\n          jump\t// in\n        tag_16:\n          pop\n          swap1\n          jump\t// out\n        tag_17:\n        tag_18:\n          dup1\n          dup3\n          gt\n          iszero\n          tag_19\n          jumpi\n          0x00\n          dup2\n          0x00\n          swap1\n          sstore\n          pop\n          0x01\n          add\n          jump(tag_18)\n        tag_19:\n          pop\n          swap1\n          jump\t// out\n            /* \"#utility.yul\":7:150   */\n        tag_21:\n            /* \"#utility.yul\":64:69   */\n          0x00\n            /* \"#utility.yul\":95:101   */\n          dup2\n            /* \"#utility.yul\":89:102   */\n          mload\n            /* \"#utility.yul\":80:102   */\n          swap1\n          pop\n            /* \"#utility.yul\":111:144   */\n          tag_23\n            /* \"#utility.yul\":138:143   */\n          dup2\n            /* \"#utility.yul\":111:144   */\n          tag_24\n          jump\t// in\n        tag_23:\n            /* \"#utility.yul\":7:150   */\n          swap3\n          swap2\n          pop\n          pop\n          jump\t// out\n            /* \"#utility.yul\":156:507   */\n        tag_3:\n            /* \"#utility.yul\":226:232   */\n          0x00\n            /* \"#utility.yul\":275:277   */\n          0x20\n            /* \"#utility.yul\":263:272   */\n          dup3\n            /* \"#utility.yul\":254:261   */\n          dup5\n            /* \"#utility.yul\":250:273   */\n          sub\n            /* \"#utility.yul\":246:278   */\n          slt\n            /* \"#utility.yul\":243:362   */\n          iszero\n          tag_26\n          jumpi\n            /* \"#utility.yul\":281:360   */\n          tag_27\n          tag_28\n          jump\t// in\n        tag_27:\n            /* \"#utility.yul\":243:362   */\n        tag_26:\n            /* \"#utility.yul\":401:402   */\n          0x00\n            /* \"#utility.yul\":426:490   */\n          tag_29\n            /* \"#utility.yul\":482:489   */\n          dup5\n            /* \"#utility.yul\":473:479   */\n          dup3\n            /* \"#utility.yul\":462:471   */\n          dup6\n            /* \"#utility.yul\":458:480   */\n          add\n            /* \"#utility.yul\":426:490   */\n          tag_21\n          jump\t// in\n        tag_29:\n            /* \"#utility.yul\":416:490   */\n          swap2\n          pop\n            /* \"#utility.yul\":372:500   */\n          pop\n            /* \"#utility.yul\":156:507   */\n          swap3\n          swap2\n          pop\n          pop\n          jump\t// out\n            /* \"#utility.yul\":594:690   */\n        tag_32:\n            /* \"#utility.yul\":631:638   */\n          0x00\n            /* \"#utility.yul\":660:684   */\n          tag_34\n            /* \"#utility.yul\":678:683   */\n          dup3\n            /* \"#utility.yul\":660:684   */\n          tag_35\n          jump\t// in\n        tag_34:\n            /* \"#utility.yul\":649:684   */\n          swap1\n          pop\n            /* \"#utility.yul\":594:690   */\n          swap2\n          swap1\n          pop\n          jump\t// out\n            /* \"#utility.yul\":696:822   */\n        tag_35:\n            /* \"#utility.yul\":733:740   */\n          0x00\n            /* \"#utility.yul\":773:815   */\n          0xffffffffffffffffffffffffffffffffffffffff\n            /* \"#utility.yul\":766:771   */\n          dup3\n            /* \"#utility.yul\":762:816   */\n          and\n            /* \"#utility.yul\":751:816   */\n          swap1\n          pop\n            /* \"#utility.yul\":696:822   */\n          swap2\n          swap1\n          pop\n          jump\t// out\n            /* \"#utility.yul\":828:1148   */\n        tag_10:\n            /* \"#utility.yul\":872:878   */\n          0x00\n            /* \"#utility.yul\":909:910   */\n          0x02\n            /* \"#utility.yul\":903:907   */\n          dup3\n            /* \"#utility.yul\":899:911   */\n          div\n            /* \"#utility.yul\":889:911   */\n          swap1\n          pop\n            /* \"#utility.yul\":956:957   */\n          0x01\n            /* \"#utility.yul\":950:954   */\n          dup3\n            /* \"#utility.yul\":946:958   */\n          and\n            /* \"#utility.yul\":977:995   */\n          dup1\n            /* \"#utility.yul\":967:1048   */\n          tag_38\n          jumpi\n            /* \"#utility.yul\":1033:1037   */\n          0x7f\n            /* \"#utility.yul\":1025:1031   */\n          dup3\n            /* \"#utility.yul\":1021:1038   */\n          and\n            /* \"#utility.yul\":1011:1038   */\n          swap2\n          pop\n            /* \"#utility.yul\":967:1048   */\n        tag_38:\n            /* \"#utility.yul\":1095:1097   */\n          0x20\n            /* \"#utility.yul\":1087:1093   */\n          dup3\n            /* \"#utility.yul\":1084:1098   */\n          lt\n            /* \"#utility.yul\":1064:1082   */\n          dup2\n            /* \"#utility.yul\":1061:1099   */\n          eq\n            /* \"#utility.yul\":1058:1142   */\n          iszero\n          tag_39\n          jumpi\n            /* \"#utility.yul\":1114:1132   */\n          tag_40\n          tag_41\n          jump\t// in\n        tag_40:\n            /* \"#utility.yul\":1058:1142   */\n        tag_39:\n            /* \"#utility.yul\":879:1148   */\n          pop\n            /* \"#utility.yul\":828:1148   */\n          swap2\n          swap1\n          pop\n          jump\t// out\n            /* \"#utility.yul\":1154:1334   */\n        tag_41:\n            /* \"#utility.yul\":1202:1279   */\n          0x4e487b7100000000000000000000000000000000000000000000000000000000\n            /* \"#utility.yul\":1199:1200   */\n          0x00\n            /* \"#utility.yul\":1192:1280   */\n          mstore\n            /* \"#utility.yul\":1299:1303   */\n          0x22\n            /* \"#utility.yul\":1296:1297   */\n          0x04\n            /* \"#utility.yul\":1289:1304   */\n          mstore\n            /* \"#utility.yul\":1323:1327   */\n          0x24\n            /* \"#utility.yul\":1320:1321   */\n          0x00\n            /* \"#utility.yul\":1313:1328   */\n          revert\n            /* \"#utility.yul\":1463:1580   */\n        tag_28:\n            /* \"#utility.yul\":1572:1573   */\n          0x00\n            /* \"#utility.yul\":1569:1570   */\n          dup1\n            /* \"#utility.yul\":1562:1574   */\n          revert\n            /* \"#utility.yul\":1586:1708   */\n        tag_24:\n            /* \"#utility.yul\":1659:1683   */\n          tag_47\n            /* \"#utility.yul\":1677:1682   */\n          dup2\n            /* \"#utility.yul\":1659:1683   */\n          tag_32\n          jump\t// in\n        tag_47:\n            /* \"#utility.yul\":1652:1657   */\n          dup2\n            /* \"#utility.yul\":1649:1684   */\n          eq\n            /* \"#utility.yul\":1639:1702   */\n          tag_48\n          jumpi\n            /* \"#utility.yul\":1698:1699   */\n          0x00\n            /* \"#utility.yul\":1695:1696   */\n          dup1\n            /* \"#utility.yul\":1688:1700   */\n          revert\n            /* \"#utility.yul\":1639:1702   */\n        tag_48:\n            /* \"#utility.yul\":1586:1708   */\n          pop\n          jump\t// out\n            /* \"Voting.sol\":2568:2889  contract Poll {\r... */\n        tag_8:\n          dataSize(sub_0)\n          dup1\n          dataOffset(sub_0)\n          0x00\n          codecopy\n          0x00\n          return\n        stop\n\n        sub_0: assembly {\n                /* \"Voting.sol\":2568:2889  contract Poll {\r... */\n              mstore(0x40, 0x80)\n              callvalue\n              dup1\n              iszero\n              tag_1\n              jumpi\n              0x00\n              dup1\n              revert\n            tag_1:\n              pop\n              jumpi(tag_2, lt(calldatasize, 0x04))\n              shr(0xe0, calldataload(0x00))\n              dup1\n              0x38cc4831\n              eq\n              tag_3\n              jumpi\n              dup1\n              0x5ec01e4d\n              eq\n              tag_4\n              jumpi\n            tag_2:\n              0x00\n              dup1\n              revert\n                /* \"Voting.sol\":2800:2886  function getAddress() public view returns (address) {\r... */\n            tag_3:\n              tag_5\n              tag_6\n              jump\t// in\n            tag_5:\n              mload(0x40)\n              tag_7\n              swap2\n              swap1\n              tag_8\n              jump\t// in\n            tag_7:\n              mload(0x40)\n              dup1\n              swap2\n              sub\n              swap1\n              return\n                /* \"Voting.sol\":2636:2656  string public random */\n            tag_4:\n              tag_9\n              tag_10\n              jump\t// in\n            tag_9:\n              mload(0x40)\n              tag_11\n              swap2\n              swap1\n              tag_12\n              jump\t// in\n            tag_11:\n              mload(0x40)\n              dup1\n              swap2\n              sub\n              swap1\n              return\n                /* \"Voting.sol\":2800:2886  function getAddress() public view returns (address) {\r... */\n            tag_6:\n                /* \"Voting.sol\":2843:2850  address */\n              0x00\n                /* \"Voting.sol\":2870:2878  _address */\n              0x01\n              0x00\n              swap1\n              sload\n              swap1\n              0x0100\n              exp\n              swap1\n              div\n              0xffffffffffffffffffffffffffffffffffffffff\n              and\n                /* \"Voting.sol\":2863:2878  return _address */\n              swap1\n              pop\n                /* \"Voting.sol\":2800:2886  function getAddress() public view returns (address) {\r... */\n              swap1\n              jump\t// out\n                /* \"Voting.sol\":2636:2656  string public random */\n            tag_10:\n              0x02\n              dup1\n              sload\n              tag_14\n              swap1\n              tag_15\n              jump\t// in\n            tag_14:\n              dup1\n              0x1f\n              add\n              0x20\n              dup1\n              swap2\n              div\n              mul\n              0x20\n              add\n              mload(0x40)\n              swap1\n              dup2\n              add\n              0x40\n              mstore\n              dup1\n              swap3\n              swap2\n              swap1\n              dup2\n              dup2\n              mstore\n              0x20\n              add\n              dup3\n              dup1\n              sload\n              tag_16\n              swap1\n              tag_15\n              jump\t// in\n            tag_16:\n              dup1\n              iszero\n              tag_17\n              jumpi\n              dup1\n              0x1f\n              lt\n              tag_18\n              jumpi\n              0x0100\n              dup1\n              dup4\n              sload\n              div\n              mul\n              dup4\n              mstore\n              swap2\n              0x20\n              add\n              swap2\n              jump(tag_17)\n            tag_18:\n              dup3\n              add\n              swap2\n              swap1\n              0x00\n              mstore\n              keccak256(0x00, 0x20)\n              swap1\n            tag_19:\n              dup2\n              sload\n              dup2\n              mstore\n              swap1\n              0x01\n              add\n              swap1\n              0x20\n              add\n              dup1\n              dup4\n              gt\n              tag_19\n              jumpi\n              dup3\n              swap1\n              sub\n              0x1f\n              and\n              dup3\n              add\n              swap2\n            tag_17:\n              pop\n              pop\n              pop\n              pop\n              pop\n              dup2\n              jump\t// out\n                /* \"#utility.yul\":7:125   */\n            tag_21:\n                /* \"#utility.yul\":94:118   */\n              tag_23\n                /* \"#utility.yul\":112:117   */\n              dup2\n                /* \"#utility.yul\":94:118   */\n              tag_24\n              jump\t// in\n            tag_23:\n                /* \"#utility.yul\":89:92   */\n              dup3\n                /* \"#utility.yul\":82:119   */\n              mstore\n                /* \"#utility.yul\":7:125   */\n              pop\n              pop\n              jump\t// out\n                /* \"#utility.yul\":131:495   */\n            tag_25:\n                /* \"#utility.yul\":219:222   */\n              0x00\n                /* \"#utility.yul\":247:286   */\n              tag_27\n                /* \"#utility.yul\":280:285   */\n              dup3\n                /* \"#utility.yul\":247:286   */\n              tag_28\n              jump\t// in\n            tag_27:\n                /* \"#utility.yul\":302:373   */\n              tag_29\n                /* \"#utility.yul\":366:372   */\n              dup2\n                /* \"#utility.yul\":361:364   */\n              dup6\n                /* \"#utility.yul\":302:373   */\n              tag_30\n              jump\t// in\n            tag_29:\n                /* \"#utility.yul\":295:373   */\n              swap4\n              pop\n                /* \"#utility.yul\":382:434   */\n              tag_31\n                /* \"#utility.yul\":427:433   */\n              dup2\n                /* \"#utility.yul\":422:425   */\n              dup6\n                /* \"#utility.yul\":415:419   */\n              0x20\n                /* \"#utility.yul\":408:413   */\n              dup7\n                /* \"#utility.yul\":404:420   */\n              add\n                /* \"#utility.yul\":382:434   */\n              tag_32\n              jump\t// in\n            tag_31:\n                /* \"#utility.yul\":459:488   */\n              tag_33\n                /* \"#utility.yul\":481:487   */\n              dup2\n                /* \"#utility.yul\":459:488   */\n              tag_34\n              jump\t// in\n            tag_33:\n                /* \"#utility.yul\":454:457   */\n              dup5\n                /* \"#utility.yul\":450:489   */\n              add\n                /* \"#utility.yul\":443:489   */\n              swap2\n              pop\n                /* \"#utility.yul\":223:495   */\n              pop\n                /* \"#utility.yul\":131:495   */\n              swap3\n              swap2\n              pop\n              pop\n              jump\t// out\n                /* \"#utility.yul\":501:723   */\n            tag_8:\n                /* \"#utility.yul\":594:598   */\n              0x00\n                /* \"#utility.yul\":632:634   */\n              0x20\n                /* \"#utility.yul\":621:630   */\n              dup3\n                /* \"#utility.yul\":617:635   */\n              add\n                /* \"#utility.yul\":609:635   */\n              swap1\n              pop\n                /* \"#utility.yul\":645:716   */\n              tag_36\n                /* \"#utility.yul\":713:714   */\n              0x00\n                /* \"#utility.yul\":702:711   */\n              dup4\n                /* \"#utility.yul\":698:715   */\n              add\n                /* \"#utility.yul\":689:695   */\n              dup5\n                /* \"#utility.yul\":645:716   */\n              tag_21\n              jump\t// in\n            tag_36:\n                /* \"#utility.yul\":501:723   */\n              swap3\n              swap2\n              pop\n              pop\n              jump\t// out\n                /* \"#utility.yul\":729:1042   */\n            tag_12:\n                /* \"#utility.yul\":842:846   */\n              0x00\n                /* \"#utility.yul\":880:882   */\n              0x20\n                /* \"#utility.yul\":869:878   */\n              dup3\n                /* \"#utility.yul\":865:883   */\n              add\n                /* \"#utility.yul\":857:883   */\n              swap1\n              pop\n                /* \"#utility.yul\":929:938   */\n              dup2\n                /* \"#utility.yul\":923:927   */\n              dup2\n                /* \"#utility.yul\":919:939   */\n              sub\n                /* \"#utility.yul\":915:916   */\n              0x00\n                /* \"#utility.yul\":904:913   */\n              dup4\n                /* \"#utility.yul\":900:917   */\n              add\n                /* \"#utility.yul\":893:940   */\n              mstore\n                /* \"#utility.yul\":957:1035   */\n              tag_38\n                /* \"#utility.yul\":1030:1034   */\n              dup2\n                /* \"#utility.yul\":1021:1027   */\n              dup5\n                /* \"#utility.yul\":957:1035   */\n              tag_25\n              jump\t// in\n            tag_38:\n                /* \"#utility.yul\":949:1035   */\n              swap1\n              pop\n                /* \"#utility.yul\":729:1042   */\n              swap3\n              swap2\n              pop\n              pop\n              jump\t// out\n                /* \"#utility.yul\":1048:1147   */\n            tag_28:\n                /* \"#utility.yul\":1100:1106   */\n              0x00\n                /* \"#utility.yul\":1134:1139   */\n              dup2\n                /* \"#utility.yul\":1128:1140   */\n              mload\n                /* \"#utility.yul\":1118:1140   */\n              swap1\n              pop\n                /* \"#utility.yul\":1048:1147   */\n              swap2\n              swap1\n              pop\n              jump\t// out\n                /* \"#utility.yul\":1153:1322   */\n            tag_30:\n                /* \"#utility.yul\":1237:1248   */\n              0x00\n                /* \"#utility.yul\":1271:1277   */\n              dup3\n                /* \"#utility.yul\":1266:1269   */\n              dup3\n                /* \"#utility.yul\":1259:1278   */\n              mstore\n                /* \"#utility.yul\":1311:1315   */\n              0x20\n                /* \"#utility.yul\":1306:1309   */\n              dup3\n                /* \"#utility.yul\":1302:1316   */\n              add\n                /* \"#utility.yul\":1287:1316   */\n              swap1\n              pop\n                /* \"#utility.yul\":1153:1322   */\n              swap3\n              swap2\n              pop\n              pop\n              jump\t// out\n                /* \"#utility.yul\":1328:1424   */\n            tag_24:\n                /* \"#utility.yul\":1365:1372   */\n              0x00\n                /* \"#utility.yul\":1394:1418   */\n              tag_42\n                /* \"#utility.yul\":1412:1417   */\n              dup3\n                /* \"#utility.yul\":1394:1418   */\n              tag_43\n              jump\t// in\n            tag_42:\n                /* \"#utility.yul\":1383:1418   */\n              swap1\n              pop\n                /* \"#utility.yul\":1328:1424   */\n              swap2\n              swap1\n              pop\n              jump\t// out\n                /* \"#utility.yul\":1430:1556   */\n            tag_43:\n                /* \"#utility.yul\":1467:1474   */\n              0x00\n                /* \"#utility.yul\":1507:1549   */\n              0xffffffffffffffffffffffffffffffffffffffff\n                /* \"#utility.yul\":1500:1505   */\n              dup3\n                /* \"#utility.yul\":1496:1550   */\n              and\n                /* \"#utility.yul\":1485:1550   */\n              swap1\n              pop\n                /* \"#utility.yul\":1430:1556   */\n              swap2\n              swap1\n              pop\n              jump\t// out\n                /* \"#utility.yul\":1562:1869   */\n            tag_32:\n                /* \"#utility.yul\":1630:1631   */\n              0x00\n                /* \"#utility.yul\":1640:1753   */\n            tag_46:\n                /* \"#utility.yul\":1654:1660   */\n              dup4\n                /* \"#utility.yul\":1651:1652   */\n              dup2\n                /* \"#utility.yul\":1648:1661   */\n              lt\n                /* \"#utility.yul\":1640:1753   */\n              iszero\n              tag_48\n              jumpi\n                /* \"#utility.yul\":1739:1740   */\n              dup1\n                /* \"#utility.yul\":1734:1737   */\n              dup3\n                /* \"#utility.yul\":1730:1741   */\n              add\n                /* \"#utility.yul\":1724:1742   */\n              mload\n                /* \"#utility.yul\":1720:1721   */\n              dup2\n                /* \"#utility.yul\":1715:1718   */\n              dup5\n                /* \"#utility.yul\":1711:1722   */\n              add\n                /* \"#utility.yul\":1704:1743   */\n              mstore\n                /* \"#utility.yul\":1676:1678   */\n              0x20\n                /* \"#utility.yul\":1673:1674   */\n              dup2\n                /* \"#utility.yul\":1669:1679   */\n              add\n                /* \"#utility.yul\":1664:1679   */\n              swap1\n              pop\n                /* \"#utility.yul\":1640:1753   */\n              jump(tag_46)\n            tag_48:\n                /* \"#utility.yul\":1771:1777   */\n              dup4\n                /* \"#utility.yul\":1768:1769   */\n              dup2\n                /* \"#utility.yul\":1765:1778   */\n              gt\n                /* \"#utility.yul\":1762:1863   */\n              iszero\n              tag_49\n              jumpi\n                /* \"#utility.yul\":1851:1852   */\n              0x00\n                /* \"#utility.yul\":1842:1848   */\n              dup5\n                /* \"#utility.yul\":1837:1840   */\n              dup5\n                /* \"#utility.yul\":1833:1849   */\n              add\n                /* \"#utility.yul\":1826:1853   */\n              mstore\n                /* \"#utility.yul\":1762:1863   */\n            tag_49:\n                /* \"#utility.yul\":1611:1869   */\n              pop\n                /* \"#utility.yul\":1562:1869   */\n              pop\n              pop\n              pop\n              jump\t// out\n                /* \"#utility.yul\":1875:2195   */\n            tag_15:\n                /* \"#utility.yul\":1919:1925   */\n              0x00\n                /* \"#utility.yul\":1956:1957   */\n              0x02\n                /* \"#utility.yul\":1950:1954   */\n              dup3\n                /* \"#utility.yul\":1946:1958   */\n              div\n                /* \"#utility.yul\":1936:1958   */\n              swap1\n              pop\n                /* \"#utility.yul\":2003:2004   */\n              0x01\n                /* \"#utility.yul\":1997:2001   */\n              dup3\n                /* \"#utility.yul\":1993:2005   */\n              and\n                /* \"#utility.yul\":2024:2042   */\n              dup1\n                /* \"#utility.yul\":2014:2095   */\n              tag_51\n              jumpi\n                /* \"#utility.yul\":2080:2084   */\n              0x7f\n                /* \"#utility.yul\":2072:2078   */\n              dup3\n                /* \"#utility.yul\":2068:2085   */\n              and\n                /* \"#utility.yul\":2058:2085   */\n              swap2\n              pop\n                /* \"#utility.yul\":2014:2095   */\n            tag_51:\n                /* \"#utility.yul\":2142:2144   */\n              0x20\n                /* \"#utility.yul\":2134:2140   */\n              dup3\n                /* \"#utility.yul\":2131:2145   */\n              lt\n                /* \"#utility.yul\":2111:2129   */\n              dup2\n                /* \"#utility.yul\":2108:2146   */\n              eq\n                /* \"#utility.yul\":2105:2189   */\n              iszero\n              tag_52\n              jumpi\n                /* \"#utility.yul\":2161:2179   */\n              tag_53\n              tag_54\n              jump\t// in\n            tag_53:\n                /* \"#utility.yul\":2105:2189   */\n            tag_52:\n                /* \"#utility.yul\":1926:2195   */\n              pop\n                /* \"#utility.yul\":1875:2195   */\n              swap2\n              swap1\n              pop\n              jump\t// out\n                /* \"#utility.yul\":2201:2381   */\n            tag_54:\n                /* \"#utility.yul\":2249:2326   */\n              0x4e487b7100000000000000000000000000000000000000000000000000000000\n                /* \"#utility.yul\":2246:2247   */\n              0x00\n                /* \"#utility.yul\":2239:2327   */\n              mstore\n                /* \"#utility.yul\":2346:2350   */\n              0x22\n                /* \"#utility.yul\":2343:2344   */\n              0x04\n                /* \"#utility.yul\":2336:2351   */\n              mstore\n                /* \"#utility.yul\":2370:2374   */\n              0x24\n                /* \"#utility.yul\":2367:2368   */\n              0x00\n                /* \"#utility.yul\":2360:2375   */\n              revert\n                /* \"#utility.yul\":2387:2489   */\n            tag_34:\n                /* \"#utility.yul\":2428:2434   */\n              0x00\n                /* \"#utility.yul\":2479:2481   */\n              0x1f\n                /* \"#utility.yul\":2475:2482   */\n              not\n                /* \"#utility.yul\":2470:2472   */\n              0x1f\n                /* \"#utility.yul\":2463:2468   */\n              dup4\n                /* \"#utility.yul\":2459:2473   */\n              add\n                /* \"#utility.yul\":2455:2483   */\n              and\n                /* \"#utility.yul\":2445:2483   */\n              swap1\n              pop\n                /* \"#utility.yul\":2387:2489   */\n              swap2\n              swap1\n              pop\n              jump\t// out\n\n            auxdata: 0xa2646970667358221220c43bb380d83ebcc178a1c65f8a968304788eafa4c4342aa7ce592b9356f3e89f64736f6c63430008070033\n        }\n    }\n\n    auxdata: 0xa2646970667358221220c55a6304a07b025dfac75a10e4bd15ac2846d48c2fab74998bc1fe22ee02676664736f6c63430008070033\n}\n",
				"bytecode": {
					"linkReferences": {},
					"object": "608060405234801561001057600080fd5b50610f70806100206000396000f3fe60806040523480156200001157600080fd5b5060043610620000525760003560e01c8063170b5add14620000575780631d12173c146200007957806339f14d1714620000af5780637fd5f26814620000bb575b600080fd5b62000061620000dd565b60405162000070919062000816565b60405180910390f35b62000097600480360381019062000091919062000622565b620001b0565b604051620000a691906200085e565b60405180910390f35b620000b96200036b565b005b620000c562000556565b604051620000d491906200083a565b60405180910390f35b60606000339050600260008273ffffffffffffffffffffffffffffffffffffffff1673ffffffffffffffffffffffffffffffffffffffff168152602001908152602001600020805480602002602001604051908101604052809291908181526020018280548015620001a557602002820191906000526020600020905b8160009054906101000a900473ffffffffffffffffffffffffffffffffffffffff1673ffffffffffffffffffffffffffffffffffffffff16815260200190600101908083116200015a575b505050505091505090565b60008073ffffffffffffffffffffffffffffffffffffffff16600160008473ffffffffffffffffffffffffffffffffffffffff1673ffffffffffffffffffffffffffffffffffffffff16815260200190815260200160002060009054906101000a900473ffffffffffffffffffffffffffffffffffffffff1673ffffffffffffffffffffffffffffffffffffffff166338cc48316040518163ffffffff1660e01b815260040160206040518083038186803b1580156200026f57600080fd5b505afa15801562000284573d6000803e3d6000fd5b505050506040513d601f19601f82011682018060405250810190620002aa919062000654565b73ffffffffffffffffffffffffffffffffffffffff16141562000304576040517f08c379a0000000000000000000000000000000000000000000000000000000008152600401620002fb906200087b565b60405180910390fd5b600160008373ffffffffffffffffffffffffffffffffffffffff1673ffffffffffffffffffffffffffffffffffffffff16815260200190815260200160002060009054906101000a900473ffffffffffffffffffffffffffffffffffffffff169050919050565b60003390506000816040516200038190620005e6565b6200038d9190620007f9565b604051809103906000f080158015620003aa573d6000803e3d6000fd5b50905060008173ffffffffffffffffffffffffffffffffffffffff166338cc48316040518163ffffffff1660e01b815260040160206040518083038186803b158015620003f657600080fd5b505afa1580156200040b573d6000803e3d6000fd5b505050506040513d601f19601f8201168201806040525081019062000431919062000654565b905081600160008373ffffffffffffffffffffffffffffffffffffffff1673ffffffffffffffffffffffffffffffffffffffff16815260200190815260200160002060006101000a81548173ffffffffffffffffffffffffffffffffffffffff021916908373ffffffffffffffffffffffffffffffffffffffff160217905550600260008473ffffffffffffffffffffffffffffffffffffffff1673ffffffffffffffffffffffffffffffffffffffff168152602001908152602001600020819080600181540180825580915050600190039060005260206000200160009091909190916101000a81548173ffffffffffffffffffffffffffffffffffffffff021916908373ffffffffffffffffffffffffffffffffffffffff160217905550505050565b60606000805480602002602001604051908101604052809291908181526020018280548015620005dc57602002820191906000526020600020905b8160009054906101000a900473ffffffffffffffffffffffffffffffffffffffff1673ffffffffffffffffffffffffffffffffffffffff168152602001906001019080831162000591575b5050505050905090565b61058580620009b683390190565b60008135905062000605816200099b565b92915050565b6000815190506200061c816200099b565b92915050565b6000602082840312156200063b576200063a62000993565b5b60006200064b84828501620005f4565b91505092915050565b6000602082840312156200066d576200066c62000993565b5b60006200067d848285016200060b565b91505092915050565b6000620006948383620006ba565b60208301905092915050565b6000620006ae8383620007b0565b60208301905092915050565b620006c5816200090f565b82525050565b620006d6816200090f565b82525050565b6000620006e982620008bd565b620006f58185620008ed565b935062000702836200089d565b8060005b83811015620007395781516200071d888262000686565b97506200072a83620008d3565b92505060018101905062000706565b5085935050505092915050565b60006200075382620008c8565b6200075f8185620008ed565b93506200076c83620008ad565b8060005b83811015620007a3578151620007878882620006a0565b97506200079483620008e0565b92505060018101905062000770565b5085935050505092915050565b620007bb8162000943565b82525050565b620007cc8162000957565b82525050565b6000620007e1600083620008fe565b9150620007ee8262000998565b600082019050919050565b6000602082019050620008106000830184620006cb565b92915050565b60006020820190508181036000830152620008328184620006dc565b905092915050565b6000602082019050818103600083015262000856818462000746565b905092915050565b6000602082019050620008756000830184620007c1565b92915050565b600060208201905081810360008301526200089681620007d2565b9050919050565b6000819050602082019050919050565b6000819050602082019050919050565b600081519050919050565b600081519050919050565b6000602082019050919050565b6000602082019050919050565b600082825260208201905092915050565b600082825260208201905092915050565b60006200091c8262000923565b9050919050565b600073ffffffffffffffffffffffffffffffffffffffff82169050919050565b600062000950826200096b565b9050919050565b600062000964826200096b565b9050919050565b600062000978826200097f565b9050919050565b60006200098c8262000923565b9050919050565b600080fd5b50565b620009a6816200090f565b8114620009b257600080fd5b5056fe608060405234801561001057600080fd5b50604051610585380380610585833981810160405281019061003291906101bd565b806000806101000a81548173ffffffffffffffffffffffffffffffffffffffff021916908373ffffffffffffffffffffffffffffffffffffffff16021790555030600160006101000a81548173ffffffffffffffffffffffffffffffffffffffff021916908373ffffffffffffffffffffffffffffffffffffffff1602179055506040518060400160405280600381526020017f4865790000000000000000000000000000000000000000000000000000000000815250600290805190602001906100fe929190610105565b5050610299565b8280546101119061021c565b90600052602060002090601f016020900481019282610133576000855561017a565b82601f1061014c57805160ff191683800117855561017a565b8280016001018555821561017a579182015b8281111561017957825182559160200191906001019061015e565b5b509050610187919061018b565b5090565b5b808211156101a457600081600090555060010161018c565b5090565b6000815190506101b781610282565b92915050565b6000602082840312156101d3576101d261027d565b5b60006101e1848285016101a8565b91505092915050565b60006101f5826101fc565b9050919050565b600073ffffffffffffffffffffffffffffffffffffffff82169050919050565b6000600282049050600182168061023457607f821691505b602082108114156102485761024761024e565b5b50919050565b7f4e487b7100000000000000000000000000000000000000000000000000000000600052602260045260246000fd5b600080fd5b61028b816101ea565b811461029657600080fd5b50565b6102dd806102a86000396000f3fe608060405234801561001057600080fd5b50600436106100365760003560e01c806338cc48311461003b5780635ec01e4d14610059575b600080fd5b610043610077565b6040516100509190610177565b60405180910390f35b6100616100a1565b60405161006e9190610192565b60405180910390f35b6000600160009054906101000a900473ffffffffffffffffffffffffffffffffffffffff16905090565b600280546100ae90610235565b80601f01602080910402602001604051908101604052809291908181526020018280546100da90610235565b80156101275780601f106100fc57610100808354040283529160200191610127565b820191906000526020600020905b81548152906001019060200180831161010a57829003601f168201915b505050505081565b610138816101d0565b82525050565b6000610149826101b4565b61015381856101bf565b9350610163818560208601610202565b61016c81610296565b840191505092915050565b600060208201905061018c600083018461012f565b92915050565b600060208201905081810360008301526101ac818461013e565b905092915050565b600081519050919050565b600082825260208201905092915050565b60006101db826101e2565b9050919050565b600073ffffffffffffffffffffffffffffffffffffffff82169050919050565b60005b83811015610220578082015181840152602081019050610205565b8381111561022f576000848401525b50505050565b6000600282049050600182168061024d57607f821691505b6020821081141561026157610260610267565b5b50919050565b7f4e487b7100000000000000000000000000000000000000000000000000000000600052602260045260246000fd5b6000601f19601f830116905091905056fea2646970667358221220c43bb380d83ebcc178a1c65f8a968304788eafa4c4342aa7ce592b9356f3e89f64736f6c63430008070033a2646970667358221220c55a6304a07b025dfac75a10e4bd15ac2846d48c2fab74998bc1fe22ee02676664736f6c63430008070033",
					"opcodes": "PUSH1 0x80 PUSH1 0x40 MSTORE CALLVALUE DUP1 ISZERO PUSH2 0x10 JUMPI PUSH1 0x0 DUP1 REVERT JUMPDEST POP PUSH2 0xF70 DUP1 PUSH2 0x20 PUSH1 0x0 CODECOPY PUSH1 0x0 RETURN INVALID PUSH1 0x80 PUSH1 0x40 MSTORE CALLVALUE DUP1 ISZERO PUSH3 0x11 JUMPI PUSH1 0x0 DUP1 REVERT JUMPDEST POP PUSH1 0x4 CALLDATASIZE LT PUSH3 0x52 JUMPI PUSH1 0x0 CALLDATALOAD PUSH1 0xE0 SHR DUP1 PUSH4 0x170B5ADD EQ PUSH3 0x57 JUMPI DUP1 PUSH4 0x1D12173C EQ PUSH3 0x79 JUMPI DUP1 PUSH4 0x39F14D17 EQ PUSH3 0xAF JUMPI DUP1 PUSH4 0x7FD5F268 EQ PUSH3 0xBB JUMPI JUMPDEST PUSH1 0x0 DUP1 REVERT JUMPDEST PUSH3 0x61 PUSH3 0xDD JUMP JUMPDEST PUSH1 0x40 MLOAD PUSH3 0x70 SWAP2 SWAP1 PUSH3 0x816 JUMP JUMPDEST PUSH1 0x40 MLOAD DUP1 SWAP2 SUB SWAP1 RETURN JUMPDEST PUSH3 0x97 PUSH1 0x4 DUP1 CALLDATASIZE SUB DUP2 ADD SWAP1 PUSH3 0x91 SWAP2 SWAP1 PUSH3 0x622 JUMP JUMPDEST PUSH3 0x1B0 JUMP JUMPDEST PUSH1 0x40 MLOAD PUSH3 0xA6 SWAP2 SWAP1 PUSH3 0x85E JUMP JUMPDEST PUSH1 0x40 MLOAD DUP1 SWAP2 SUB SWAP1 RETURN JUMPDEST PUSH3 0xB9 PUSH3 0x36B JUMP JUMPDEST STOP JUMPDEST PUSH3 0xC5 PUSH3 0x556 JUMP JUMPDEST PUSH1 0x40 MLOAD PUSH3 0xD4 SWAP2 SWAP1 PUSH3 0x83A JUMP JUMPDEST PUSH1 0x40 MLOAD DUP1 SWAP2 SUB SWAP1 RETURN JUMPDEST PUSH1 0x60 PUSH1 0x0 CALLER SWAP1 POP PUSH1 0x2 PUSH1 0x0 DUP3 PUSH20 0xFFFFFFFFFFFFFFFFFFFFFFFFFFFFFFFFFFFFFFFF AND PUSH20 0xFFFFFFFFFFFFFFFFFFFFFFFFFFFFFFFFFFFFFFFF AND DUP2 MSTORE PUSH1 0x20 ADD SWAP1 DUP2 MSTORE PUSH1 0x20 ADD PUSH1 0x0 KECCAK256 DUP1 SLOAD DUP1 PUSH1 0x20 MUL PUSH1 0x20 ADD PUSH1 0x40 MLOAD SWAP1 DUP2 ADD PUSH1 0x40 MSTORE DUP1 SWAP3 SWAP2 SWAP1 DUP2 DUP2 MSTORE PUSH1 0x20 ADD DUP3 DUP1 SLOAD DUP1 ISZERO PUSH3 0x1A5 JUMPI PUSH1 0x20 MUL DUP3 ADD SWAP2 SWAP1 PUSH1 0x0 MSTORE PUSH1 0x20 PUSH1 0x0 KECCAK256 SWAP1 JUMPDEST DUP2 PUSH1 0x0 SWAP1 SLOAD SWAP1 PUSH2 0x100 EXP SWAP1 DIV PUSH20 0xFFFFFFFFFFFFFFFFFFFFFFFFFFFFFFFFFFFFFFFF AND PUSH20 0xFFFFFFFFFFFFFFFFFFFFFFFFFFFFFFFFFFFFFFFF AND DUP2 MSTORE PUSH1 0x20 ADD SWAP1 PUSH1 0x1 ADD SWAP1 DUP1 DUP4 GT PUSH3 0x15A JUMPI JUMPDEST POP POP POP POP POP SWAP2 POP POP SWAP1 JUMP JUMPDEST PUSH1 0x0 DUP1 PUSH20 0xFFFFFFFFFFFFFFFFFFFFFFFFFFFFFFFFFFFFFFFF AND PUSH1 0x1 PUSH1 0x0 DUP5 PUSH20 0xFFFFFFFFFFFFFFFFFFFFFFFFFFFFFFFFFFFFFFFF AND PUSH20 0xFFFFFFFFFFFFFFFFFFFFFFFFFFFFFFFFFFFFFFFF AND DUP2 MSTORE PUSH1 0x20 ADD SWAP1 DUP2 MSTORE PUSH1 0x20 ADD PUSH1 0x0 KECCAK256 PUSH1 0x0 SWAP1 SLOAD SWAP1 PUSH2 0x100 EXP SWAP1 DIV PUSH20 0xFFFFFFFFFFFFFFFFFFFFFFFFFFFFFFFFFFFFFFFF AND PUSH20 0xFFFFFFFFFFFFFFFFFFFFFFFFFFFFFFFFFFFFFFFF AND PUSH4 0x38CC4831 PUSH1 0x40 MLOAD DUP2 PUSH4 0xFFFFFFFF AND PUSH1 0xE0 SHL DUP2 MSTORE PUSH1 0x4 ADD PUSH1 0x20 PUSH1 0x40 MLOAD DUP1 DUP4 SUB DUP2 DUP7 DUP1 EXTCODESIZE ISZERO DUP1 ISZERO PUSH3 0x26F JUMPI PUSH1 0x0 DUP1 REVERT JUMPDEST POP GAS STATICCALL ISZERO DUP1 ISZERO PUSH3 0x284 JUMPI RETURNDATASIZE PUSH1 0x0 DUP1 RETURNDATACOPY RETURNDATASIZE PUSH1 0x0 REVERT JUMPDEST POP POP POP POP PUSH1 0x40 MLOAD RETURNDATASIZE PUSH1 0x1F NOT PUSH1 0x1F DUP3 ADD AND DUP3 ADD DUP1 PUSH1 0x40 MSTORE POP DUP2 ADD SWAP1 PUSH3 0x2AA SWAP2 SWAP1 PUSH3 0x654 JUMP JUMPDEST PUSH20 0xFFFFFFFFFFFFFFFFFFFFFFFFFFFFFFFFFFFFFFFF AND EQ ISZERO PUSH3 0x304 JUMPI PUSH1 0x40 MLOAD PUSH32 0x8C379A000000000000000000000000000000000000000000000000000000000 DUP2 MSTORE PUSH1 0x4 ADD PUSH3 0x2FB SWAP1 PUSH3 0x87B JUMP JUMPDEST PUSH1 0x40 MLOAD DUP1 SWAP2 SUB SWAP1 REVERT JUMPDEST PUSH1 0x1 PUSH1 0x0 DUP4 PUSH20 0xFFFFFFFFFFFFFFFFFFFFFFFFFFFFFFFFFFFFFFFF AND PUSH20 0xFFFFFFFFFFFFFFFFFFFFFFFFFFFFFFFFFFFFFFFF AND DUP2 MSTORE PUSH1 0x20 ADD SWAP1 DUP2 MSTORE PUSH1 0x20 ADD PUSH1 0x0 KECCAK256 PUSH1 0x0 SWAP1 SLOAD SWAP1 PUSH2 0x100 EXP SWAP1 DIV PUSH20 0xFFFFFFFFFFFFFFFFFFFFFFFFFFFFFFFFFFFFFFFF AND SWAP1 POP SWAP2 SWAP1 POP JUMP JUMPDEST PUSH1 0x0 CALLER SWAP1 POP PUSH1 0x0 DUP2 PUSH1 0x40 MLOAD PUSH3 0x381 SWAP1 PUSH3 0x5E6 JUMP JUMPDEST PUSH3 0x38D SWAP2 SWAP1 PUSH3 0x7F9 JUMP JUMPDEST PUSH1 0x40 MLOAD DUP1 SWAP2 SUB SWAP1 PUSH1 0x0 CREATE DUP1 ISZERO DUP1 ISZERO PUSH3 0x3AA JUMPI RETURNDATASIZE PUSH1 0x0 DUP1 RETURNDATACOPY RETURNDATASIZE PUSH1 0x0 REVERT JUMPDEST POP SWAP1 POP PUSH1 0x0 DUP2 PUSH20 0xFFFFFFFFFFFFFFFFFFFFFFFFFFFFFFFFFFFFFFFF AND PUSH4 0x38CC4831 PUSH1 0x40 MLOAD DUP2 PUSH4 0xFFFFFFFF AND PUSH1 0xE0 SHL DUP2 MSTORE PUSH1 0x4 ADD PUSH1 0x20 PUSH1 0x40 MLOAD DUP1 DUP4 SUB DUP2 DUP7 DUP1 EXTCODESIZE ISZERO DUP1 ISZERO PUSH3 0x3F6 JUMPI PUSH1 0x0 DUP1 REVERT JUMPDEST POP GAS STATICCALL ISZERO DUP1 ISZERO PUSH3 0x40B JUMPI RETURNDATASIZE PUSH1 0x0 DUP1 RETURNDATACOPY RETURNDATASIZE PUSH1 0x0 REVERT JUMPDEST POP POP POP POP PUSH1 0x40 MLOAD RETURNDATASIZE PUSH1 0x1F NOT PUSH1 0x1F DUP3 ADD AND DUP3 ADD DUP1 PUSH1 0x40 MSTORE POP DUP2 ADD SWAP1 PUSH3 0x431 SWAP2 SWAP1 PUSH3 0x654 JUMP JUMPDEST SWAP1 POP DUP2 PUSH1 0x1 PUSH1 0x0 DUP4 PUSH20 0xFFFFFFFFFFFFFFFFFFFFFFFFFFFFFFFFFFFFFFFF AND PUSH20 0xFFFFFFFFFFFFFFFFFFFFFFFFFFFFFFFFFFFFFFFF AND DUP2 MSTORE PUSH1 0x20 ADD SWAP1 DUP2 MSTORE PUSH1 0x20 ADD PUSH1 0x0 KECCAK256 PUSH1 0x0 PUSH2 0x100 EXP DUP2 SLOAD DUP2 PUSH20 0xFFFFFFFFFFFFFFFFFFFFFFFFFFFFFFFFFFFFFFFF MUL NOT AND SWAP1 DUP4 PUSH20 0xFFFFFFFFFFFFFFFFFFFFFFFFFFFFFFFFFFFFFFFF AND MUL OR SWAP1 SSTORE POP PUSH1 0x2 PUSH1 0x0 DUP5 PUSH20 0xFFFFFFFFFFFFFFFFFFFFFFFFFFFFFFFFFFFFFFFF AND PUSH20 0xFFFFFFFFFFFFFFFFFFFFFFFFFFFFFFFFFFFFFFFF AND DUP2 MSTORE PUSH1 0x20 ADD SWAP1 DUP2 MSTORE PUSH1 0x20 ADD PUSH1 0x0 KECCAK256 DUP2 SWAP1 DUP1 PUSH1 0x1 DUP2 SLOAD ADD DUP1 DUP3 SSTORE DUP1 SWAP2 POP POP PUSH1 0x1 SWAP1 SUB SWAP1 PUSH1 0x0 MSTORE PUSH1 0x20 PUSH1 0x0 KECCAK256 ADD PUSH1 0x0 SWAP1 SWAP2 SWAP1 SWAP2 SWAP1 SWAP2 PUSH2 0x100 EXP DUP2 SLOAD DUP2 PUSH20 0xFFFFFFFFFFFFFFFFFFFFFFFFFFFFFFFFFFFFFFFF MUL NOT AND SWAP1 DUP4 PUSH20 0xFFFFFFFFFFFFFFFFFFFFFFFFFFFFFFFFFFFFFFFF AND MUL OR SWAP1 SSTORE POP POP POP POP JUMP JUMPDEST PUSH1 0x60 PUSH1 0x0 DUP1 SLOAD DUP1 PUSH1 0x20 MUL PUSH1 0x20 ADD PUSH1 0x40 MLOAD SWAP1 DUP2 ADD PUSH1 0x40 MSTORE DUP1 SWAP3 SWAP2 SWAP1 DUP2 DUP2 MSTORE PUSH1 0x20 ADD DUP3 DUP1 SLOAD DUP1 ISZERO PUSH3 0x5DC JUMPI PUSH1 0x20 MUL DUP3 ADD SWAP2 SWAP1 PUSH1 0x0 MSTORE PUSH1 0x20 PUSH1 0x0 KECCAK256 SWAP1 JUMPDEST DUP2 PUSH1 0x0 SWAP1 SLOAD SWAP1 PUSH2 0x100 EXP SWAP1 DIV PUSH20 0xFFFFFFFFFFFFFFFFFFFFFFFFFFFFFFFFFFFFFFFF AND PUSH20 0xFFFFFFFFFFFFFFFFFFFFFFFFFFFFFFFFFFFFFFFF AND DUP2 MSTORE PUSH1 0x20 ADD SWAP1 PUSH1 0x1 ADD SWAP1 DUP1 DUP4 GT PUSH3 0x591 JUMPI JUMPDEST POP POP POP POP POP SWAP1 POP SWAP1 JUMP JUMPDEST PUSH2 0x585 DUP1 PUSH3 0x9B6 DUP4 CODECOPY ADD SWAP1 JUMP JUMPDEST PUSH1 0x0 DUP2 CALLDATALOAD SWAP1 POP PUSH3 0x605 DUP2 PUSH3 0x99B JUMP JUMPDEST SWAP3 SWAP2 POP POP JUMP JUMPDEST PUSH1 0x0 DUP2 MLOAD SWAP1 POP PUSH3 0x61C DUP2 PUSH3 0x99B JUMP JUMPDEST SWAP3 SWAP2 POP POP JUMP JUMPDEST PUSH1 0x0 PUSH1 0x20 DUP3 DUP5 SUB SLT ISZERO PUSH3 0x63B JUMPI PUSH3 0x63A PUSH3 0x993 JUMP JUMPDEST JUMPDEST PUSH1 0x0 PUSH3 0x64B DUP5 DUP3 DUP6 ADD PUSH3 0x5F4 JUMP JUMPDEST SWAP2 POP POP SWAP3 SWAP2 POP POP JUMP JUMPDEST PUSH1 0x0 PUSH1 0x20 DUP3 DUP5 SUB SLT ISZERO PUSH3 0x66D JUMPI PUSH3 0x66C PUSH3 0x993 JUMP JUMPDEST JUMPDEST PUSH1 0x0 PUSH3 0x67D DUP5 DUP3 DUP6 ADD PUSH3 0x60B JUMP JUMPDEST SWAP2 POP POP SWAP3 SWAP2 POP POP JUMP JUMPDEST PUSH1 0x0 PUSH3 0x694 DUP4 DUP4 PUSH3 0x6BA JUMP JUMPDEST PUSH1 0x20 DUP4 ADD SWAP1 POP SWAP3 SWAP2 POP POP JUMP JUMPDEST PUSH1 0x0 PUSH3 0x6AE DUP4 DUP4 PUSH3 0x7B0 JUMP JUMPDEST PUSH1 0x20 DUP4 ADD SWAP1 POP SWAP3 SWAP2 POP POP JUMP JUMPDEST PUSH3 0x6C5 DUP2 PUSH3 0x90F JUMP JUMPDEST DUP3 MSTORE POP POP JUMP JUMPDEST PUSH3 0x6D6 DUP2 PUSH3 0x90F JUMP JUMPDEST DUP3 MSTORE POP POP JUMP JUMPDEST PUSH1 0x0 PUSH3 0x6E9 DUP3 PUSH3 0x8BD JUMP JUMPDEST PUSH3 0x6F5 DUP2 DUP6 PUSH3 0x8ED JUMP JUMPDEST SWAP4 POP PUSH3 0x702 DUP4 PUSH3 0x89D JUMP JUMPDEST DUP1 PUSH1 0x0 JUMPDEST DUP4 DUP2 LT ISZERO PUSH3 0x739 JUMPI DUP2 MLOAD PUSH3 0x71D DUP9 DUP3 PUSH3 0x686 JUMP JUMPDEST SWAP8 POP PUSH3 0x72A DUP4 PUSH3 0x8D3 JUMP JUMPDEST SWAP3 POP POP PUSH1 0x1 DUP2 ADD SWAP1 POP PUSH3 0x706 JUMP JUMPDEST POP DUP6 SWAP4 POP POP POP POP SWAP3 SWAP2 POP POP JUMP JUMPDEST PUSH1 0x0 PUSH3 0x753 DUP3 PUSH3 0x8C8 JUMP JUMPDEST PUSH3 0x75F DUP2 DUP6 PUSH3 0x8ED JUMP JUMPDEST SWAP4 POP PUSH3 0x76C DUP4 PUSH3 0x8AD JUMP JUMPDEST DUP1 PUSH1 0x0 JUMPDEST DUP4 DUP2 LT ISZERO PUSH3 0x7A3 JUMPI DUP2 MLOAD PUSH3 0x787 DUP9 DUP3 PUSH3 0x6A0 JUMP JUMPDEST SWAP8 POP PUSH3 0x794 DUP4 PUSH3 0x8E0 JUMP JUMPDEST SWAP3 POP POP PUSH1 0x1 DUP2 ADD SWAP1 POP PUSH3 0x770 JUMP JUMPDEST POP DUP6 SWAP4 POP POP POP POP SWAP3 SWAP2 POP POP JUMP JUMPDEST PUSH3 0x7BB DUP2 PUSH3 0x943 JUMP JUMPDEST DUP3 MSTORE POP POP JUMP JUMPDEST PUSH3 0x7CC DUP2 PUSH3 0x957 JUMP JUMPDEST DUP3 MSTORE POP POP JUMP JUMPDEST PUSH1 0x0 PUSH3 0x7E1 PUSH1 0x0 DUP4 PUSH3 0x8FE JUMP JUMPDEST SWAP2 POP PUSH3 0x7EE DUP3 PUSH3 0x998 JUMP JUMPDEST PUSH1 0x0 DUP3 ADD SWAP1 POP SWAP2 SWAP1 POP JUMP JUMPDEST PUSH1 0x0 PUSH1 0x20 DUP3 ADD SWAP1 POP PUSH3 0x810 PUSH1 0x0 DUP4 ADD DUP5 PUSH3 0x6CB JUMP JUMPDEST SWAP3 SWAP2 POP POP JUMP JUMPDEST PUSH1 0x0 PUSH1 0x20 DUP3 ADD SWAP1 POP DUP2 DUP2 SUB PUSH1 0x0 DUP4 ADD MSTORE PUSH3 0x832 DUP2 DUP5 PUSH3 0x6DC JUMP JUMPDEST SWAP1 POP SWAP3 SWAP2 POP POP JUMP JUMPDEST PUSH1 0x0 PUSH1 0x20 DUP3 ADD SWAP1 POP DUP2 DUP2 SUB PUSH1 0x0 DUP4 ADD MSTORE PUSH3 0x856 DUP2 DUP5 PUSH3 0x746 JUMP JUMPDEST SWAP1 POP SWAP3 SWAP2 POP POP JUMP JUMPDEST PUSH1 0x0 PUSH1 0x20 DUP3 ADD SWAP1 POP PUSH3 0x875 PUSH1 0x0 DUP4 ADD DUP5 PUSH3 0x7C1 JUMP JUMPDEST SWAP3 SWAP2 POP POP JUMP JUMPDEST PUSH1 0x0 PUSH1 0x20 DUP3 ADD SWAP1 POP DUP2 DUP2 SUB PUSH1 0x0 DUP4 ADD MSTORE PUSH3 0x896 DUP2 PUSH3 0x7D2 JUMP JUMPDEST SWAP1 POP SWAP2 SWAP1 POP JUMP JUMPDEST PUSH1 0x0 DUP2 SWAP1 POP PUSH1 0x20 DUP3 ADD SWAP1 POP SWAP2 SWAP1 POP JUMP JUMPDEST PUSH1 0x0 DUP2 SWAP1 POP PUSH1 0x20 DUP3 ADD SWAP1 POP SWAP2 SWAP1 POP JUMP JUMPDEST PUSH1 0x0 DUP2 MLOAD SWAP1 POP SWAP2 SWAP1 POP JUMP JUMPDEST PUSH1 0x0 DUP2 MLOAD SWAP1 POP SWAP2 SWAP1 POP JUMP JUMPDEST PUSH1 0x0 PUSH1 0x20 DUP3 ADD SWAP1 POP SWAP2 SWAP1 POP JUMP JUMPDEST PUSH1 0x0 PUSH1 0x20 DUP3 ADD SWAP1 POP SWAP2 SWAP1 POP JUMP JUMPDEST PUSH1 0x0 DUP3 DUP3 MSTORE PUSH1 0x20 DUP3 ADD SWAP1 POP SWAP3 SWAP2 POP POP JUMP JUMPDEST PUSH1 0x0 DUP3 DUP3 MSTORE PUSH1 0x20 DUP3 ADD SWAP1 POP SWAP3 SWAP2 POP POP JUMP JUMPDEST PUSH1 0x0 PUSH3 0x91C DUP3 PUSH3 0x923 JUMP JUMPDEST SWAP1 POP SWAP2 SWAP1 POP JUMP JUMPDEST PUSH1 0x0 PUSH20 0xFFFFFFFFFFFFFFFFFFFFFFFFFFFFFFFFFFFFFFFF DUP3 AND SWAP1 POP SWAP2 SWAP1 POP JUMP JUMPDEST PUSH1 0x0 PUSH3 0x950 DUP3 PUSH3 0x96B JUMP JUMPDEST SWAP1 POP SWAP2 SWAP1 POP JUMP JUMPDEST PUSH1 0x0 PUSH3 0x964 DUP3 PUSH3 0x96B JUMP JUMPDEST SWAP1 POP SWAP2 SWAP1 POP JUMP JUMPDEST PUSH1 0x0 PUSH3 0x978 DUP3 PUSH3 0x97F JUMP JUMPDEST SWAP1 POP SWAP2 SWAP1 POP JUMP JUMPDEST PUSH1 0x0 PUSH3 0x98C DUP3 PUSH3 0x923 JUMP JUMPDEST SWAP1 POP SWAP2 SWAP1 POP JUMP JUMPDEST PUSH1 0x0 DUP1 REVERT JUMPDEST POP JUMP JUMPDEST PUSH3 0x9A6 DUP2 PUSH3 0x90F JUMP JUMPDEST DUP2 EQ PUSH3 0x9B2 JUMPI PUSH1 0x0 DUP1 REVERT JUMPDEST POP JUMP INVALID PUSH1 0x80 PUSH1 0x40 MSTORE CALLVALUE DUP1 ISZERO PUSH2 0x10 JUMPI PUSH1 0x0 DUP1 REVERT JUMPDEST POP PUSH1 0x40 MLOAD PUSH2 0x585 CODESIZE SUB DUP1 PUSH2 0x585 DUP4 CODECOPY DUP2 DUP2 ADD PUSH1 0x40 MSTORE DUP2 ADD SWAP1 PUSH2 0x32 SWAP2 SWAP1 PUSH2 0x1BD JUMP JUMPDEST DUP1 PUSH1 0x0 DUP1 PUSH2 0x100 EXP DUP2 SLOAD DUP2 PUSH20 0xFFFFFFFFFFFFFFFFFFFFFFFFFFFFFFFFFFFFFFFF MUL NOT AND SWAP1 DUP4 PUSH20 0xFFFFFFFFFFFFFFFFFFFFFFFFFFFFFFFFFFFFFFFF AND MUL OR SWAP1 SSTORE POP ADDRESS PUSH1 0x1 PUSH1 0x0 PUSH2 0x100 EXP DUP2 SLOAD DUP2 PUSH20 0xFFFFFFFFFFFFFFFFFFFFFFFFFFFFFFFFFFFFFFFF MUL NOT AND SWAP1 DUP4 PUSH20 0xFFFFFFFFFFFFFFFFFFFFFFFFFFFFFFFFFFFFFFFF AND MUL OR SWAP1 SSTORE POP PUSH1 0x40 MLOAD DUP1 PUSH1 0x40 ADD PUSH1 0x40 MSTORE DUP1 PUSH1 0x3 DUP2 MSTORE PUSH1 0x20 ADD PUSH32 0x4865790000000000000000000000000000000000000000000000000000000000 DUP2 MSTORE POP PUSH1 0x2 SWAP1 DUP1 MLOAD SWAP1 PUSH1 0x20 ADD SWAP1 PUSH2 0xFE SWAP3 SWAP2 SWAP1 PUSH2 0x105 JUMP JUMPDEST POP POP PUSH2 0x299 JUMP JUMPDEST DUP3 DUP1 SLOAD PUSH2 0x111 SWAP1 PUSH2 0x21C JUMP JUMPDEST SWAP1 PUSH1 0x0 MSTORE PUSH1 0x20 PUSH1 0x0 KECCAK256 SWAP1 PUSH1 0x1F ADD PUSH1 0x20 SWAP1 DIV DUP2 ADD SWAP3 DUP3 PUSH2 0x133 JUMPI PUSH1 0x0 DUP6 SSTORE PUSH2 0x17A JUMP JUMPDEST DUP3 PUSH1 0x1F LT PUSH2 0x14C JUMPI DUP1 MLOAD PUSH1 0xFF NOT AND DUP4 DUP1 ADD OR DUP6 SSTORE PUSH2 0x17A JUMP JUMPDEST DUP3 DUP1 ADD PUSH1 0x1 ADD DUP6 SSTORE DUP3 ISZERO PUSH2 0x17A JUMPI SWAP2 DUP3 ADD JUMPDEST DUP3 DUP2 GT ISZERO PUSH2 0x179 JUMPI DUP3 MLOAD DUP3 SSTORE SWAP2 PUSH1 0x20 ADD SWAP2 SWAP1 PUSH1 0x1 ADD SWAP1 PUSH2 0x15E JUMP JUMPDEST JUMPDEST POP SWAP1 POP PUSH2 0x187 SWAP2 SWAP1 PUSH2 0x18B JUMP JUMPDEST POP SWAP1 JUMP JUMPDEST JUMPDEST DUP1 DUP3 GT ISZERO PUSH2 0x1A4 JUMPI PUSH1 0x0 DUP2 PUSH1 0x0 SWAP1 SSTORE POP PUSH1 0x1 ADD PUSH2 0x18C JUMP JUMPDEST POP SWAP1 JUMP JUMPDEST PUSH1 0x0 DUP2 MLOAD SWAP1 POP PUSH2 0x1B7 DUP2 PUSH2 0x282 JUMP JUMPDEST SWAP3 SWAP2 POP POP JUMP JUMPDEST PUSH1 0x0 PUSH1 0x20 DUP3 DUP5 SUB SLT ISZERO PUSH2 0x1D3 JUMPI PUSH2 0x1D2 PUSH2 0x27D JUMP JUMPDEST JUMPDEST PUSH1 0x0 PUSH2 0x1E1 DUP5 DUP3 DUP6 ADD PUSH2 0x1A8 JUMP JUMPDEST SWAP2 POP POP SWAP3 SWAP2 POP POP JUMP JUMPDEST PUSH1 0x0 PUSH2 0x1F5 DUP3 PUSH2 0x1FC JUMP JUMPDEST SWAP1 POP SWAP2 SWAP1 POP JUMP JUMPDEST PUSH1 0x0 PUSH20 0xFFFFFFFFFFFFFFFFFFFFFFFFFFFFFFFFFFFFFFFF DUP3 AND SWAP1 POP SWAP2 SWAP1 POP JUMP JUMPDEST PUSH1 0x0 PUSH1 0x2 DUP3 DIV SWAP1 POP PUSH1 0x1 DUP3 AND DUP1 PUSH2 0x234 JUMPI PUSH1 0x7F DUP3 AND SWAP2 POP JUMPDEST PUSH1 0x20 DUP3 LT DUP2 EQ ISZERO PUSH2 0x248 JUMPI PUSH2 0x247 PUSH2 0x24E JUMP JUMPDEST JUMPDEST POP SWAP2 SWAP1 POP JUMP JUMPDEST PUSH32 0x4E487B7100000000000000000000000000000000000000000000000000000000 PUSH1 0x0 MSTORE PUSH1 0x22 PUSH1 0x4 MSTORE PUSH1 0x24 PUSH1 0x0 REVERT JUMPDEST PUSH1 0x0 DUP1 REVERT JUMPDEST PUSH2 0x28B DUP2 PUSH2 0x1EA JUMP JUMPDEST DUP2 EQ PUSH2 0x296 JUMPI PUSH1 0x0 DUP1 REVERT JUMPDEST POP JUMP JUMPDEST PUSH2 0x2DD DUP1 PUSH2 0x2A8 PUSH1 0x0 CODECOPY PUSH1 0x0 RETURN INVALID PUSH1 0x80 PUSH1 0x40 MSTORE CALLVALUE DUP1 ISZERO PUSH2 0x10 JUMPI PUSH1 0x0 DUP1 REVERT JUMPDEST POP PUSH1 0x4 CALLDATASIZE LT PUSH2 0x36 JUMPI PUSH1 0x0 CALLDATALOAD PUSH1 0xE0 SHR DUP1 PUSH4 0x38CC4831 EQ PUSH2 0x3B JUMPI DUP1 PUSH4 0x5EC01E4D EQ PUSH2 0x59 JUMPI JUMPDEST PUSH1 0x0 DUP1 REVERT JUMPDEST PUSH2 0x43 PUSH2 0x77 JUMP JUMPDEST PUSH1 0x40 MLOAD PUSH2 0x50 SWAP2 SWAP1 PUSH2 0x177 JUMP JUMPDEST PUSH1 0x40 MLOAD DUP1 SWAP2 SUB SWAP1 RETURN JUMPDEST PUSH2 0x61 PUSH2 0xA1 JUMP JUMPDEST PUSH1 0x40 MLOAD PUSH2 0x6E SWAP2 SWAP1 PUSH2 0x192 JUMP JUMPDEST PUSH1 0x40 MLOAD DUP1 SWAP2 SUB SWAP1 RETURN JUMPDEST PUSH1 0x0 PUSH1 0x1 PUSH1 0x0 SWAP1 SLOAD SWAP1 PUSH2 0x100 EXP SWAP1 DIV PUSH20 0xFFFFFFFFFFFFFFFFFFFFFFFFFFFFFFFFFFFFFFFF AND SWAP1 POP SWAP1 JUMP JUMPDEST PUSH1 0x2 DUP1 SLOAD PUSH2 0xAE SWAP1 PUSH2 0x235 JUMP JUMPDEST DUP1 PUSH1 0x1F ADD PUSH1 0x20 DUP1 SWAP2 DIV MUL PUSH1 0x20 ADD PUSH1 0x40 MLOAD SWAP1 DUP2 ADD PUSH1 0x40 MSTORE DUP1 SWAP3 SWAP2 SWAP1 DUP2 DUP2 MSTORE PUSH1 0x20 ADD DUP3 DUP1 SLOAD PUSH2 0xDA SWAP1 PUSH2 0x235 JUMP JUMPDEST DUP1 ISZERO PUSH2 0x127 JUMPI DUP1 PUSH1 0x1F LT PUSH2 0xFC JUMPI PUSH2 0x100 DUP1 DUP4 SLOAD DIV MUL DUP4 MSTORE SWAP2 PUSH1 0x20 ADD SWAP2 PUSH2 0x127 JUMP JUMPDEST DUP3 ADD SWAP2 SWAP1 PUSH1 0x0 MSTORE PUSH1 0x20 PUSH1 0x0 KECCAK256 SWAP1 JUMPDEST DUP2 SLOAD DUP2 MSTORE SWAP1 PUSH1 0x1 ADD SWAP1 PUSH1 0x20 ADD DUP1 DUP4 GT PUSH2 0x10A JUMPI DUP3 SWAP1 SUB PUSH1 0x1F AND DUP3 ADD SWAP2 JUMPDEST POP POP POP POP POP DUP2 JUMP JUMPDEST PUSH2 0x138 DUP2 PUSH2 0x1D0 JUMP JUMPDEST DUP3 MSTORE POP POP JUMP JUMPDEST PUSH1 0x0 PUSH2 0x149 DUP3 PUSH2 0x1B4 JUMP JUMPDEST PUSH2 0x153 DUP2 DUP6 PUSH2 0x1BF JUMP JUMPDEST SWAP4 POP PUSH2 0x163 DUP2 DUP6 PUSH1 0x20 DUP7 ADD PUSH2 0x202 JUMP JUMPDEST PUSH2 0x16C DUP2 PUSH2 0x296 JUMP JUMPDEST DUP5 ADD SWAP2 POP POP SWAP3 SWAP2 POP POP JUMP JUMPDEST PUSH1 0x0 PUSH1 0x20 DUP3 ADD SWAP1 POP PUSH2 0x18C PUSH1 0x0 DUP4 ADD DUP5 PUSH2 0x12F JUMP JUMPDEST SWAP3 SWAP2 POP POP JUMP JUMPDEST PUSH1 0x0 PUSH1 0x20 DUP3 ADD SWAP1 POP DUP2 DUP2 SUB PUSH1 0x0 DUP4 ADD MSTORE PUSH2 0x1AC DUP2 DUP5 PUSH2 0x13E JUMP JUMPDEST SWAP1 POP SWAP3 SWAP2 POP POP JUMP JUMPDEST PUSH1 0x0 DUP2 MLOAD SWAP1 POP SWAP2 SWAP1 POP JUMP JUMPDEST PUSH1 0x0 DUP3 DUP3 MSTORE PUSH1 0x20 DUP3 ADD SWAP1 POP SWAP3 SWAP2 POP POP JUMP JUMPDEST PUSH1 0x0 PUSH2 0x1DB DUP3 PUSH2 0x1E2 JUMP JUMPDEST SWAP1 POP SWAP2 SWAP1 POP JUMP JUMPDEST PUSH1 0x0 PUSH20 0xFFFFFFFFFFFFFFFFFFFFFFFFFFFFFFFFFFFFFFFF DUP3 AND SWAP1 POP SWAP2 SWAP1 POP JUMP JUMPDEST PUSH1 0x0 JUMPDEST DUP4 DUP2 LT ISZERO PUSH2 0x220 JUMPI DUP1 DUP3 ADD MLOAD DUP2 DUP5 ADD MSTORE PUSH1 0x20 DUP2 ADD SWAP1 POP PUSH2 0x205 JUMP JUMPDEST DUP4 DUP2 GT ISZERO PUSH2 0x22F JUMPI PUSH1 0x0 DUP5 DUP5 ADD MSTORE JUMPDEST POP POP POP POP JUMP JUMPDEST PUSH1 0x0 PUSH1 0x2 DUP3 DIV SWAP1 POP PUSH1 0x1 DUP3 AND DUP1 PUSH2 0x24D JUMPI PUSH1 0x7F DUP3 AND SWAP2 POP JUMPDEST PUSH1 0x20 DUP3 LT DUP2 EQ ISZERO PUSH2 0x261 JUMPI PUSH2 0x260 PUSH2 0x267 JUMP JUMPDEST JUMPDEST POP SWAP2 SWAP1 POP JUMP JUMPDEST PUSH32 0x4E487B7100000000000000000000000000000000000000000000000000000000 PUSH1 0x0 MSTORE PUSH1 0x22 PUSH1 0x4 MSTORE PUSH1 0x24 PUSH1 0x0 REVERT JUMPDEST PUSH1 0x0 PUSH1 0x1F NOT PUSH1 0x1F DUP4 ADD AND SWAP1 POP SWAP2 SWAP1 POP JUMP INVALID LOG2 PUSH5 0x6970667358 0x22 SLT KECCAK256 0xC4 EXTCODESIZE 0xB3 DUP1 0xD8 RETURNDATACOPY 0xBC 0xC1 PUSH25 0xA1C65F8A968304788EAFA4C4342AA7CE592B9356F3E89F6473 PUSH16 0x6C63430008070033A264697066735822 SLT KECCAK256 0xC5 GAS PUSH4 0x4A07B02 0x5D STATICCALL 0xC7 GAS LT 0xE4 0xBD ISZERO 0xAC 0x28 CHAINID 0xD4 DUP13 0x2F 0xAB PUSH21 0x998BC1FE22EE02676664736F6C6343000807003300 "
				},
				"gasEstimates": {
					"creation": {
						"codeDepositCost": "790400",
						"executionCost": "825",
						"totalCost": "791225"
					},
					"external": {
						"createPoll()": "infinite",
						"getAllElections()": "infinite",
						"getMyPolls()": "infinite",
						"getPollById(address)": "infinite"
					}
				},
				"methodIdentifiers": {
					"createPoll()": "39f14d17",
					"getAllElections()": "7fd5f268",
					"getMyPolls()": "170b5add",
					"getPollById(address)": "1d12173c"
				}
			},
			"storageLayout": {
				"storage": [
					{
						"astId": 5,
						"contract": "Voting.sol:Platform",
						"label": "elections",
						"offset": 0,
						"slot": "0",
						"type": "t_array(t_contract(Election)289)dyn_storage"
					},
					{
						"astId": 10,
						"contract": "Voting.sol:Platform",
						"label": "polls",
						"offset": 0,
						"slot": "1",
						"type": "t_mapping(t_address,t_contract(Poll)325)"
					},
					{
						"astId": 15,
						"contract": "Voting.sol:Platform",
						"label": "userPolls",
						"offset": 0,
						"slot": "2",
						"type": "t_mapping(t_address,t_array(t_address)dyn_storage)"
					}
				],
				"types": {
					"t_address": {
						"encoding": "inplace",
						"label": "address",
						"numberOfBytes": "20"
					},
					"t_array(t_address)dyn_storage": {
						"base": "t_address",
						"encoding": "dynamic_array",
						"label": "address[]",
						"numberOfBytes": "32"
					},
					"t_array(t_contract(Election)289)dyn_storage": {
						"base": "t_contract(Election)289",
						"encoding": "dynamic_array",
						"label": "contract Election[]",
						"numberOfBytes": "32"
					},
					"t_contract(Election)289": {
						"encoding": "inplace",
						"label": "contract Election",
						"numberOfBytes": "20"
					},
					"t_contract(Poll)325": {
						"encoding": "inplace",
						"label": "contract Poll",
						"numberOfBytes": "20"
					},
					"t_mapping(t_address,t_array(t_address)dyn_storage)": {
						"encoding": "mapping",
						"key": "t_address",
						"label": "mapping(address => address[])",
						"numberOfBytes": "32",
						"value": "t_array(t_address)dyn_storage"
					},
					"t_mapping(t_address,t_contract(Poll)325)": {
						"encoding": "mapping",
						"key": "t_address",
						"label": "mapping(address => contract Poll)",
						"numberOfBytes": "32",
						"value": "t_contract(Poll)325"
					}
				}
			},
			"userdoc": {
				"kind": "user",
				"methods": {},
				"version": 1
			}
		}
	}
}