{
	"Voting.sol": {
		"Platform": {
			"abi": [
				{
					"inputs": [],
					"name": "createPoll",
					"outputs": [],
					"stateMutability": "nonpayable",
					"type": "function"
				},
				{
					"inputs": [],
					"name": "getAllElections",
					"outputs": [
						{
							"internalType": "contract Election[]",
							"name": "",
							"type": "address[]"
						}
					],
					"stateMutability": "view",
					"type": "function"
				},
				{
					"inputs": [],
					"name": "getMyPolls",
					"outputs": [
						{
							"internalType": "uint256[]",
							"name": "",
							"type": "uint256[]"
						}
					],
					"stateMutability": "view",
					"type": "function"
				}
			],
			"devdoc": {
				"kind": "dev",
				"methods": {},
				"version": 1
			},
			"evm": {
				"assembly": "    /* \"Voting.sol\":72:666  contract Platform {\r... */\n  mstore(0x40, 0x80)\n  callvalue\n  dup1\n  iszero\n  tag_1\n  jumpi\n  0x00\n  dup1\n  revert\ntag_1:\n  pop\n  dataSize(sub_0)\n  dup1\n  dataOffset(sub_0)\n  0x00\n  codecopy\n  0x00\n  return\nstop\n\nsub_0: assembly {\n        /* \"Voting.sol\":72:666  contract Platform {\r... */\n      mstore(0x40, 0x80)\n      callvalue\n      dup1\n      iszero\n      tag_1\n      jumpi\n      0x00\n      dup1\n      revert\n    tag_1:\n      pop\n      jumpi(tag_2, lt(calldatasize, 0x04))\n      shr(0xe0, calldataload(0x00))\n      dup1\n      0x170b5add\n      eq\n      tag_3\n      jumpi\n      dup1\n      0x39f14d17\n      eq\n      tag_4\n      jumpi\n      dup1\n      0x7fd5f268\n      eq\n      tag_5\n      jumpi\n    tag_2:\n      0x00\n      dup1\n      revert\n        /* \"Voting.sol\":328:467  function getMyPolls() external view returns (uint[] memory) {\r... */\n    tag_3:\n      tag_6\n      tag_7\n      jump\t// in\n    tag_6:\n      mload(0x40)\n      tag_8\n      swap2\n      swap1\n      tag_9\n      jump\t// in\n    tag_8:\n      mload(0x40)\n      dup1\n      swap2\n      sub\n      swap1\n      return\n        /* \"Voting.sol\":475:663  function createPoll() external {\r... */\n    tag_4:\n      tag_10\n      tag_11\n      jump\t// in\n    tag_10:\n      stop\n        /* \"Voting.sol\":214:318  function getAllElections() external view returns (Election[] memory) {\r... */\n    tag_5:\n      tag_12\n      tag_13\n      jump\t// in\n    tag_12:\n      mload(0x40)\n      tag_14\n      swap2\n      swap1\n      tag_15\n      jump\t// in\n    tag_14:\n      mload(0x40)\n      dup1\n      swap2\n      sub\n      swap1\n      return\n        /* \"Voting.sol\":328:467  function getMyPolls() external view returns (uint[] memory) {\r... */\n    tag_7:\n        /* \"Voting.sol\":373:386  uint[] memory */\n      0x60\n        /* \"Voting.sol\":399:411  address user */\n      0x00\n        /* \"Voting.sol\":414:424  msg.sender */\n      caller\n        /* \"Voting.sol\":399:424  address user = msg.sender */\n      swap1\n      pop\n        /* \"Voting.sol\":444:453  userPolls */\n      0x02\n        /* \"Voting.sol\":444:459  userPolls[user] */\n      0x00\n        /* \"Voting.sol\":454:458  user */\n      dup3\n        /* \"Voting.sol\":444:459  userPolls[user] */\n      0xffffffffffffffffffffffffffffffffffffffff\n      and\n      0xffffffffffffffffffffffffffffffffffffffff\n      and\n      dup2\n      mstore\n      0x20\n      add\n      swap1\n      dup2\n      mstore\n      0x20\n      add\n      0x00\n      keccak256\n        /* \"Voting.sol\":437:459  return userPolls[user] */\n      dup1\n      sload\n      dup1\n      0x20\n      mul\n      0x20\n      add\n      mload(0x40)\n      swap1\n      dup2\n      add\n      0x40\n      mstore\n      dup1\n      swap3\n      swap2\n      swap1\n      dup2\n      dup2\n      mstore\n      0x20\n      add\n      dup3\n      dup1\n      sload\n      dup1\n      iszero\n      tag_17\n      jumpi\n      0x20\n      mul\n      dup3\n      add\n      swap2\n      swap1\n      0x00\n      mstore\n      keccak256(0x00, 0x20)\n      swap1\n    tag_18:\n      dup2\n      sload\n      dup2\n      mstore\n      0x20\n      add\n      swap1\n      0x01\n      add\n      swap1\n      dup1\n      dup4\n      gt\n      tag_18\n      jumpi\n    tag_17:\n      pop\n      pop\n      pop\n      pop\n      pop\n      swap2\n      pop\n      pop\n        /* \"Voting.sol\":328:467  function getMyPolls() external view returns (uint[] memory) {\r... */\n      swap1\n      jump\t// out\n        /* \"Voting.sol\":475:663  function createPoll() external {\r... */\n    tag_11:\n        /* \"Voting.sol\":517:529  address user */\n      0x00\n        /* \"Voting.sol\":532:542  msg.sender */\n      caller\n        /* \"Voting.sol\":517:542  address user = msg.sender */\n      swap1\n      pop\n        /* \"Voting.sol\":555:564  Poll poll */\n      0x00\n        /* \"Voting.sol\":576:580  user */\n      dup2\n        /* \"Voting.sol\":567:581  new Poll(user) */\n      mload(0x40)\n      tag_20\n      swap1\n      tag_21\n      jump\t// in\n    tag_20:\n      tag_22\n      swap2\n      swap1\n      tag_23\n      jump\t// in\n    tag_22:\n      mload(0x40)\n      dup1\n      swap2\n      sub\n      swap1\n      0x00\n      create\n      dup1\n      iszero\n      dup1\n      iszero\n      tag_24\n      jumpi\n      returndatasize\n      0x00\n      dup1\n      returndatacopy\n      revert(0x00, returndatasize)\n    tag_24:\n      pop\n        /* \"Voting.sol\":555:581  Poll poll = new Poll(user) */\n      swap1\n      pop\n        /* \"Voting.sol\":592:597  polls */\n      0x01\n        /* \"Voting.sol\":603:607  poll */\n      dup2\n        /* \"Voting.sol\":592:608  polls.push(poll) */\n      swap1\n      dup1\n      0x01\n      dup2\n      sload\n      add\n      dup1\n      dup3\n      sstore\n      dup1\n      swap2\n      pop\n      pop\n      0x01\n      swap1\n      sub\n      swap1\n      0x00\n      mstore\n      keccak256(0x00, 0x20)\n      add\n      0x00\n      swap1\n      swap2\n      swap1\n      swap2\n      swap1\n      swap2\n      0x0100\n      exp\n      dup2\n      sload\n      dup2\n      0xffffffffffffffffffffffffffffffffffffffff\n      mul\n      not\n      and\n      swap1\n      dup4\n      0xffffffffffffffffffffffffffffffffffffffff\n      and\n      mul\n      or\n      swap1\n      sstore\n      pop\n        /* \"Voting.sol\":621:630  userPolls */\n      0x02\n        /* \"Voting.sol\":621:636  userPolls[user] */\n      0x00\n        /* \"Voting.sol\":631:635  user */\n      dup4\n        /* \"Voting.sol\":621:636  userPolls[user] */\n      0xffffffffffffffffffffffffffffffffffffffff\n      and\n      0xffffffffffffffffffffffffffffffffffffffff\n      and\n      dup2\n      mstore\n      0x20\n      add\n      swap1\n      dup2\n      mstore\n      0x20\n      add\n      0x00\n      keccak256\n        /* \"Voting.sol\":642:647  polls */\n      0x01\n        /* \"Voting.sol\":642:654  polls.length */\n      dup1\n      sload\n      swap1\n      pop\n        /* \"Voting.sol\":621:655  userPolls[user].push(polls.length) */\n      swap1\n      dup1\n      0x01\n      dup2\n      sload\n      add\n      dup1\n      dup3\n      sstore\n      dup1\n      swap2\n      pop\n      pop\n      0x01\n      swap1\n      sub\n      swap1\n      0x00\n      mstore\n      keccak256(0x00, 0x20)\n      add\n      0x00\n      swap1\n      swap2\n      swap1\n      swap2\n      swap1\n      swap2\n      pop\n      sstore\n        /* \"Voting.sol\":506:663  {\r... */\n      pop\n      pop\n        /* \"Voting.sol\":475:663  function createPoll() external {\r... */\n      jump\t// out\n        /* \"Voting.sol\":214:318  function getAllElections() external view returns (Election[] memory) {\r... */\n    tag_13:\n        /* \"Voting.sol\":264:281  Election[] memory */\n      0x60\n        /* \"Voting.sol\":301:310  elections */\n      0x00\n        /* \"Voting.sol\":294:310  return elections */\n      dup1\n      sload\n      dup1\n      0x20\n      mul\n      0x20\n      add\n      mload(0x40)\n      swap1\n      dup2\n      add\n      0x40\n      mstore\n      dup1\n      swap3\n      swap2\n      swap1\n      dup2\n      dup2\n      mstore\n      0x20\n      add\n      dup3\n      dup1\n      sload\n      dup1\n      iszero\n      tag_28\n      jumpi\n      0x20\n      mul\n      dup3\n      add\n      swap2\n      swap1\n      0x00\n      mstore\n      keccak256(0x00, 0x20)\n      swap1\n    tag_29:\n      dup2\n      0x00\n      swap1\n      sload\n      swap1\n      0x0100\n      exp\n      swap1\n      div\n      0xffffffffffffffffffffffffffffffffffffffff\n      and\n      0xffffffffffffffffffffffffffffffffffffffff\n      and\n      dup2\n      mstore\n      0x20\n      add\n      swap1\n      0x01\n      add\n      swap1\n      dup1\n      dup4\n      gt\n      tag_29\n      jumpi\n    tag_28:\n      pop\n      pop\n      pop\n      pop\n      pop\n      swap1\n      pop\n        /* \"Voting.sol\":214:318  function getAllElections() external view returns (Election[] memory) {\r... */\n      swap1\n      jump\t// out\n    tag_21:\n      dataSize(sub_0)\n      dup1\n      dataOffset(sub_0)\n      dup4\n      codecopy\n      add\n      swap1\n      jump\t// out\n        /* \"#utility.yul\":7:218   */\n    tag_31:\n        /* \"#utility.yul\":92:102   */\n      0x00\n        /* \"#utility.yul\":113:175   */\n      tag_33\n        /* \"#utility.yul\":171:174   */\n      dup4\n        /* \"#utility.yul\":163:169   */\n      dup4\n        /* \"#utility.yul\":113:175   */\n      tag_34\n      jump\t// in\n    tag_33:\n        /* \"#utility.yul\":207:211   */\n      0x20\n        /* \"#utility.yul\":202:205   */\n      dup4\n        /* \"#utility.yul\":198:212   */\n      add\n        /* \"#utility.yul\":184:212   */\n      swap1\n      pop\n        /* \"#utility.yul\":7:218   */\n      swap3\n      swap2\n      pop\n      pop\n      jump\t// out\n        /* \"#utility.yul\":224:403   */\n    tag_35:\n        /* \"#utility.yul\":293:303   */\n      0x00\n        /* \"#utility.yul\":314:360   */\n      tag_37\n        /* \"#utility.yul\":356:359   */\n      dup4\n        /* \"#utility.yul\":348:354   */\n      dup4\n        /* \"#utility.yul\":314:360   */\n      tag_38\n      jump\t// in\n    tag_37:\n        /* \"#utility.yul\":392:396   */\n      0x20\n        /* \"#utility.yul\":387:390   */\n      dup4\n        /* \"#utility.yul\":383:397   */\n      add\n        /* \"#utility.yul\":369:397   */\n      swap1\n      pop\n        /* \"#utility.yul\":224:403   */\n      swap3\n      swap2\n      pop\n      pop\n      jump\t// out\n        /* \"#utility.yul\":409:527   */\n    tag_39:\n        /* \"#utility.yul\":496:520   */\n      tag_41\n        /* \"#utility.yul\":514:519   */\n      dup2\n        /* \"#utility.yul\":496:520   */\n      tag_42\n      jump\t// in\n    tag_41:\n        /* \"#utility.yul\":491:494   */\n      dup3\n        /* \"#utility.yul\":484:521   */\n      mstore\n        /* \"#utility.yul\":409:527   */\n      pop\n      pop\n      jump\t// out\n        /* \"#utility.yul\":573:1385   */\n    tag_43:\n        /* \"#utility.yul\":708:711   */\n      0x00\n        /* \"#utility.yul\":737:807   */\n      tag_45\n        /* \"#utility.yul\":801:806   */\n      dup3\n        /* \"#utility.yul\":737:807   */\n      tag_46\n      jump\t// in\n    tag_45:\n        /* \"#utility.yul\":823:909   */\n      tag_47\n        /* \"#utility.yul\":902:908   */\n      dup2\n        /* \"#utility.yul\":897:900   */\n      dup6\n        /* \"#utility.yul\":823:909   */\n      tag_48\n      jump\t// in\n    tag_47:\n        /* \"#utility.yul\":816:909   */\n      swap4\n      pop\n        /* \"#utility.yul\":933:1005   */\n      tag_49\n        /* \"#utility.yul\":999:1004   */\n      dup4\n        /* \"#utility.yul\":933:1005   */\n      tag_50\n      jump\t// in\n    tag_49:\n        /* \"#utility.yul\":1028:1035   */\n      dup1\n        /* \"#utility.yul\":1059:1060   */\n      0x00\n        /* \"#utility.yul\":1044:1360   */\n    tag_51:\n        /* \"#utility.yul\":1069:1075   */\n      dup4\n        /* \"#utility.yul\":1066:1067   */\n      dup2\n        /* \"#utility.yul\":1063:1076   */\n      lt\n        /* \"#utility.yul\":1044:1360   */\n      iszero\n      tag_53\n      jumpi\n        /* \"#utility.yul\":1145:1151   */\n      dup2\n        /* \"#utility.yul\":1139:1152   */\n      mload\n        /* \"#utility.yul\":1172:1251   */\n      tag_54\n        /* \"#utility.yul\":1247:1250   */\n      dup9\n        /* \"#utility.yul\":1232:1245   */\n      dup3\n        /* \"#utility.yul\":1172:1251   */\n      tag_31\n      jump\t// in\n    tag_54:\n        /* \"#utility.yul\":1165:1251   */\n      swap8\n      pop\n        /* \"#utility.yul\":1274:1350   */\n      tag_55\n        /* \"#utility.yul\":1343:1349   */\n      dup4\n        /* \"#utility.yul\":1274:1350   */\n      tag_56\n      jump\t// in\n    tag_55:\n        /* \"#utility.yul\":1264:1350   */\n      swap3\n      pop\n        /* \"#utility.yul\":1104:1360   */\n      pop\n        /* \"#utility.yul\":1091:1092   */\n      0x01\n        /* \"#utility.yul\":1088:1089   */\n      dup2\n        /* \"#utility.yul\":1084:1093   */\n      add\n        /* \"#utility.yul\":1079:1093   */\n      swap1\n      pop\n        /* \"#utility.yul\":1044:1360   */\n      jump(tag_51)\n    tag_53:\n        /* \"#utility.yul\":1048:1062   */\n      pop\n        /* \"#utility.yul\":1376:1379   */\n      dup6\n        /* \"#utility.yul\":1369:1379   */\n      swap4\n      pop\n        /* \"#utility.yul\":713:1385   */\n      pop\n      pop\n      pop\n        /* \"#utility.yul\":573:1385   */\n      swap3\n      swap2\n      pop\n      pop\n      jump\t// out\n        /* \"#utility.yul\":1421:2153   */\n    tag_57:\n        /* \"#utility.yul\":1540:1543   */\n      0x00\n        /* \"#utility.yul\":1569:1623   */\n      tag_59\n        /* \"#utility.yul\":1617:1622   */\n      dup3\n        /* \"#utility.yul\":1569:1623   */\n      tag_60\n      jump\t// in\n    tag_59:\n        /* \"#utility.yul\":1639:1725   */\n      tag_61\n        /* \"#utility.yul\":1718:1724   */\n      dup2\n        /* \"#utility.yul\":1713:1716   */\n      dup6\n        /* \"#utility.yul\":1639:1725   */\n      tag_62\n      jump\t// in\n    tag_61:\n        /* \"#utility.yul\":1632:1725   */\n      swap4\n      pop\n        /* \"#utility.yul\":1749:1805   */\n      tag_63\n        /* \"#utility.yul\":1799:1804   */\n      dup4\n        /* \"#utility.yul\":1749:1805   */\n      tag_64\n      jump\t// in\n    tag_63:\n        /* \"#utility.yul\":1828:1835   */\n      dup1\n        /* \"#utility.yul\":1859:1860   */\n      0x00\n        /* \"#utility.yul\":1844:2128   */\n    tag_65:\n        /* \"#utility.yul\":1869:1875   */\n      dup4\n        /* \"#utility.yul\":1866:1867   */\n      dup2\n        /* \"#utility.yul\":1863:1876   */\n      lt\n        /* \"#utility.yul\":1844:2128   */\n      iszero\n      tag_67\n      jumpi\n        /* \"#utility.yul\":1945:1951   */\n      dup2\n        /* \"#utility.yul\":1939:1952   */\n      mload\n        /* \"#utility.yul\":1972:2035   */\n      tag_68\n        /* \"#utility.yul\":2031:2034   */\n      dup9\n        /* \"#utility.yul\":2016:2029   */\n      dup3\n        /* \"#utility.yul\":1972:2035   */\n      tag_35\n      jump\t// in\n    tag_68:\n        /* \"#utility.yul\":1965:2035   */\n      swap8\n      pop\n        /* \"#utility.yul\":2058:2118   */\n      tag_69\n        /* \"#utility.yul\":2111:2117   */\n      dup4\n        /* \"#utility.yul\":2058:2118   */\n      tag_70\n      jump\t// in\n    tag_69:\n        /* \"#utility.yul\":2048:2118   */\n      swap3\n      pop\n        /* \"#utility.yul\":1904:2128   */\n      pop\n        /* \"#utility.yul\":1891:1892   */\n      0x01\n        /* \"#utility.yul\":1888:1889   */\n      dup2\n        /* \"#utility.yul\":1884:1893   */\n      add\n        /* \"#utility.yul\":1879:1893   */\n      swap1\n      pop\n        /* \"#utility.yul\":1844:2128   */\n      jump(tag_65)\n    tag_67:\n        /* \"#utility.yul\":1848:1862   */\n      pop\n        /* \"#utility.yul\":2144:2147   */\n      dup6\n        /* \"#utility.yul\":2137:2147   */\n      swap4\n      pop\n        /* \"#utility.yul\":1545:2153   */\n      pop\n      pop\n      pop\n        /* \"#utility.yul\":1421:2153   */\n      swap3\n      swap2\n      pop\n      pop\n      jump\t// out\n        /* \"#utility.yul\":2159:2312   */\n    tag_34:\n        /* \"#utility.yul\":2252:2305   */\n      tag_72\n        /* \"#utility.yul\":2299:2304   */\n      dup2\n        /* \"#utility.yul\":2252:2305   */\n      tag_73\n      jump\t// in\n    tag_72:\n        /* \"#utility.yul\":2247:2250   */\n      dup3\n        /* \"#utility.yul\":2240:2306   */\n      mstore\n        /* \"#utility.yul\":2159:2312   */\n      pop\n      pop\n      jump\t// out\n        /* \"#utility.yul\":2318:2426   */\n    tag_38:\n        /* \"#utility.yul\":2395:2419   */\n      tag_75\n        /* \"#utility.yul\":2413:2418   */\n      dup2\n        /* \"#utility.yul\":2395:2419   */\n      tag_76\n      jump\t// in\n    tag_75:\n        /* \"#utility.yul\":2390:2393   */\n      dup3\n        /* \"#utility.yul\":2383:2420   */\n      mstore\n        /* \"#utility.yul\":2318:2426   */\n      pop\n      pop\n      jump\t// out\n        /* \"#utility.yul\":2432:2654   */\n    tag_23:\n        /* \"#utility.yul\":2525:2529   */\n      0x00\n        /* \"#utility.yul\":2563:2565   */\n      0x20\n        /* \"#utility.yul\":2552:2561   */\n      dup3\n        /* \"#utility.yul\":2548:2566   */\n      add\n        /* \"#utility.yul\":2540:2566   */\n      swap1\n      pop\n        /* \"#utility.yul\":2576:2647   */\n      tag_78\n        /* \"#utility.yul\":2644:2645   */\n      0x00\n        /* \"#utility.yul\":2633:2642   */\n      dup4\n        /* \"#utility.yul\":2629:2646   */\n      add\n        /* \"#utility.yul\":2620:2626   */\n      dup5\n        /* \"#utility.yul\":2576:2647   */\n      tag_39\n      jump\t// in\n    tag_78:\n        /* \"#utility.yul\":2432:2654   */\n      swap3\n      swap2\n      pop\n      pop\n      jump\t// out\n        /* \"#utility.yul\":2660:3065   */\n    tag_15:\n        /* \"#utility.yul\":2819:2823   */\n      0x00\n        /* \"#utility.yul\":2857:2859   */\n      0x20\n        /* \"#utility.yul\":2846:2855   */\n      dup3\n        /* \"#utility.yul\":2842:2860   */\n      add\n        /* \"#utility.yul\":2834:2860   */\n      swap1\n      pop\n        /* \"#utility.yul\":2906:2915   */\n      dup2\n        /* \"#utility.yul\":2900:2904   */\n      dup2\n        /* \"#utility.yul\":2896:2916   */\n      sub\n        /* \"#utility.yul\":2892:2893   */\n      0x00\n        /* \"#utility.yul\":2881:2890   */\n      dup4\n        /* \"#utility.yul\":2877:2894   */\n      add\n        /* \"#utility.yul\":2870:2917   */\n      mstore\n        /* \"#utility.yul\":2934:3058   */\n      tag_80\n        /* \"#utility.yul\":3053:3057   */\n      dup2\n        /* \"#utility.yul\":3044:3050   */\n      dup5\n        /* \"#utility.yul\":2934:3058   */\n      tag_43\n      jump\t// in\n    tag_80:\n        /* \"#utility.yul\":2926:3058   */\n      swap1\n      pop\n        /* \"#utility.yul\":2660:3065   */\n      swap3\n      swap2\n      pop\n      pop\n      jump\t// out\n        /* \"#utility.yul\":3071:3444   */\n    tag_9:\n        /* \"#utility.yul\":3214:3218   */\n      0x00\n        /* \"#utility.yul\":3252:3254   */\n      0x20\n        /* \"#utility.yul\":3241:3250   */\n      dup3\n        /* \"#utility.yul\":3237:3255   */\n      add\n        /* \"#utility.yul\":3229:3255   */\n      swap1\n      pop\n        /* \"#utility.yul\":3301:3310   */\n      dup2\n        /* \"#utility.yul\":3295:3299   */\n      dup2\n        /* \"#utility.yul\":3291:3311   */\n      sub\n        /* \"#utility.yul\":3287:3288   */\n      0x00\n        /* \"#utility.yul\":3276:3285   */\n      dup4\n        /* \"#utility.yul\":3272:3289   */\n      add\n        /* \"#utility.yul\":3265:3312   */\n      mstore\n        /* \"#utility.yul\":3329:3437   */\n      tag_82\n        /* \"#utility.yul\":3432:3436   */\n      dup2\n        /* \"#utility.yul\":3423:3429   */\n      dup5\n        /* \"#utility.yul\":3329:3437   */\n      tag_57\n      jump\t// in\n    tag_82:\n        /* \"#utility.yul\":3321:3437   */\n      swap1\n      pop\n        /* \"#utility.yul\":3071:3444   */\n      swap3\n      swap2\n      pop\n      pop\n      jump\t// out\n        /* \"#utility.yul\":3450:3598   */\n    tag_50:\n        /* \"#utility.yul\":3533:3537   */\n      0x00\n        /* \"#utility.yul\":3556:3559   */\n      dup2\n        /* \"#utility.yul\":3548:3559   */\n      swap1\n      pop\n        /* \"#utility.yul\":3586:3590   */\n      0x20\n        /* \"#utility.yul\":3581:3584   */\n      dup3\n        /* \"#utility.yul\":3577:3591   */\n      add\n        /* \"#utility.yul\":3569:3591   */\n      swap1\n      pop\n        /* \"#utility.yul\":3450:3598   */\n      swap2\n      swap1\n      pop\n      jump\t// out\n        /* \"#utility.yul\":3604:3736   */\n    tag_64:\n        /* \"#utility.yul\":3671:3675   */\n      0x00\n        /* \"#utility.yul\":3694:3697   */\n      dup2\n        /* \"#utility.yul\":3686:3697   */\n      swap1\n      pop\n        /* \"#utility.yul\":3724:3728   */\n      0x20\n        /* \"#utility.yul\":3719:3722   */\n      dup3\n        /* \"#utility.yul\":3715:3729   */\n      add\n        /* \"#utility.yul\":3707:3729   */\n      swap1\n      pop\n        /* \"#utility.yul\":3604:3736   */\n      swap2\n      swap1\n      pop\n      jump\t// out\n        /* \"#utility.yul\":3742:3872   */\n    tag_46:\n        /* \"#utility.yul\":3825:3831   */\n      0x00\n        /* \"#utility.yul\":3859:3864   */\n      dup2\n        /* \"#utility.yul\":3853:3865   */\n      mload\n        /* \"#utility.yul\":3843:3865   */\n      swap1\n      pop\n        /* \"#utility.yul\":3742:3872   */\n      swap2\n      swap1\n      pop\n      jump\t// out\n        /* \"#utility.yul\":3878:3992   */\n    tag_60:\n        /* \"#utility.yul\":3945:3951   */\n      0x00\n        /* \"#utility.yul\":3979:3984   */\n      dup2\n        /* \"#utility.yul\":3973:3985   */\n      mload\n        /* \"#utility.yul\":3963:3985   */\n      swap1\n      pop\n        /* \"#utility.yul\":3878:3992   */\n      swap2\n      swap1\n      pop\n      jump\t// out\n        /* \"#utility.yul\":3998:4127   */\n    tag_56:\n        /* \"#utility.yul\":4084:4088   */\n      0x00\n        /* \"#utility.yul\":4116:4120   */\n      0x20\n        /* \"#utility.yul\":4111:4114   */\n      dup3\n        /* \"#utility.yul\":4107:4121   */\n      add\n        /* \"#utility.yul\":4099:4121   */\n      swap1\n      pop\n        /* \"#utility.yul\":3998:4127   */\n      swap2\n      swap1\n      pop\n      jump\t// out\n        /* \"#utility.yul\":4133:4246   */\n    tag_70:\n        /* \"#utility.yul\":4203:4207   */\n      0x00\n        /* \"#utility.yul\":4235:4239   */\n      0x20\n        /* \"#utility.yul\":4230:4233   */\n      dup3\n        /* \"#utility.yul\":4226:4240   */\n      add\n        /* \"#utility.yul\":4218:4240   */\n      swap1\n      pop\n        /* \"#utility.yul\":4133:4246   */\n      swap2\n      swap1\n      pop\n      jump\t// out\n        /* \"#utility.yul\":4252:4436   */\n    tag_48:\n        /* \"#utility.yul\":4351:4362   */\n      0x00\n        /* \"#utility.yul\":4385:4391   */\n      dup3\n        /* \"#utility.yul\":4380:4383   */\n      dup3\n        /* \"#utility.yul\":4373:4392   */\n      mstore\n        /* \"#utility.yul\":4425:4429   */\n      0x20\n        /* \"#utility.yul\":4420:4423   */\n      dup3\n        /* \"#utility.yul\":4416:4430   */\n      add\n        /* \"#utility.yul\":4401:4430   */\n      swap1\n      pop\n        /* \"#utility.yul\":4252:4436   */\n      swap3\n      swap2\n      pop\n      pop\n      jump\t// out\n        /* \"#utility.yul\":4442:4626   */\n    tag_62:\n        /* \"#utility.yul\":4541:4552   */\n      0x00\n        /* \"#utility.yul\":4575:4581   */\n      dup3\n        /* \"#utility.yul\":4570:4573   */\n      dup3\n        /* \"#utility.yul\":4563:4582   */\n      mstore\n        /* \"#utility.yul\":4615:4619   */\n      0x20\n        /* \"#utility.yul\":4610:4613   */\n      dup3\n        /* \"#utility.yul\":4606:4620   */\n      add\n        /* \"#utility.yul\":4591:4620   */\n      swap1\n      pop\n        /* \"#utility.yul\":4442:4626   */\n      swap3\n      swap2\n      pop\n      pop\n      jump\t// out\n        /* \"#utility.yul\":4632:4728   */\n    tag_42:\n        /* \"#utility.yul\":4669:4676   */\n      0x00\n        /* \"#utility.yul\":4698:4722   */\n      tag_92\n        /* \"#utility.yul\":4716:4721   */\n      dup3\n        /* \"#utility.yul\":4698:4722   */\n      tag_93\n      jump\t// in\n    tag_92:\n        /* \"#utility.yul\":4687:4722   */\n      swap1\n      pop\n        /* \"#utility.yul\":4632:4728   */\n      swap2\n      swap1\n      pop\n      jump\t// out\n        /* \"#utility.yul\":4734:4860   */\n    tag_93:\n        /* \"#utility.yul\":4771:4778   */\n      0x00\n        /* \"#utility.yul\":4811:4853   */\n      0xffffffffffffffffffffffffffffffffffffffff\n        /* \"#utility.yul\":4804:4809   */\n      dup3\n        /* \"#utility.yul\":4800:4854   */\n      and\n        /* \"#utility.yul\":4789:4854   */\n      swap1\n      pop\n        /* \"#utility.yul\":4734:4860   */\n      swap2\n      swap1\n      pop\n      jump\t// out\n        /* \"#utility.yul\":4866:4943   */\n    tag_76:\n        /* \"#utility.yul\":4903:4910   */\n      0x00\n        /* \"#utility.yul\":4932:4937   */\n      dup2\n        /* \"#utility.yul\":4921:4937   */\n      swap1\n      pop\n        /* \"#utility.yul\":4866:4943   */\n      swap2\n      swap1\n      pop\n      jump\t// out\n        /* \"#utility.yul\":4949:5091   */\n    tag_73:\n        /* \"#utility.yul\":5015:5024   */\n      0x00\n        /* \"#utility.yul\":5048:5085   */\n      tag_97\n        /* \"#utility.yul\":5079:5084   */\n      dup3\n        /* \"#utility.yul\":5048:5085   */\n      tag_98\n      jump\t// in\n    tag_97:\n        /* \"#utility.yul\":5035:5085   */\n      swap1\n      pop\n        /* \"#utility.yul\":4949:5091   */\n      swap2\n      swap1\n      pop\n      jump\t// out\n        /* \"#utility.yul\":5097:5223   */\n    tag_98:\n        /* \"#utility.yul\":5147:5156   */\n      0x00\n        /* \"#utility.yul\":5180:5217   */\n      tag_100\n        /* \"#utility.yul\":5211:5216   */\n      dup3\n        /* \"#utility.yul\":5180:5217   */\n      tag_101\n      jump\t// in\n    tag_100:\n        /* \"#utility.yul\":5167:5217   */\n      swap1\n      pop\n        /* \"#utility.yul\":5097:5223   */\n      swap2\n      swap1\n      pop\n      jump\t// out\n        /* \"#utility.yul\":5229:5342   */\n    tag_101:\n        /* \"#utility.yul\":5279:5288   */\n      0x00\n        /* \"#utility.yul\":5312:5336   */\n      tag_103\n        /* \"#utility.yul\":5330:5335   */\n      dup3\n        /* \"#utility.yul\":5312:5336   */\n      tag_93\n      jump\t// in\n    tag_103:\n        /* \"#utility.yul\":5299:5336   */\n      swap1\n      pop\n        /* \"#utility.yul\":5229:5342   */\n      swap2\n      swap1\n      pop\n      jump\t// out\n    stop\n\n    sub_0: assembly {\n            /* \"Voting.sol\":2318:2440  contract Poll {\r... */\n          mstore(0x40, 0x80)\n            /* \"Voting.sol\":2370:2437  constructor(address _creator) {\r... */\n          callvalue\n          dup1\n          iszero\n          tag_1\n          jumpi\n          0x00\n          dup1\n          revert\n        tag_1:\n          pop\n          mload(0x40)\n          sub(codesize, bytecodeSize)\n          dup1\n          bytecodeSize\n          dup4\n          codecopy\n          dup2\n          dup2\n          add\n          0x40\n          mstore\n          dup2\n          add\n          swap1\n          tag_2\n          swap2\n          swap1\n          tag_3\n          jump\t// in\n        tag_2:\n            /* \"Voting.sol\":2421:2429  _creator */\n          dup1\n            /* \"Voting.sol\":2411:2418  creator */\n          0x00\n          dup1\n            /* \"Voting.sol\":2411:2429  creator = _creator */\n          0x0100\n          exp\n          dup2\n          sload\n          dup2\n          0xffffffffffffffffffffffffffffffffffffffff\n          mul\n          not\n          and\n          swap1\n          dup4\n          0xffffffffffffffffffffffffffffffffffffffff\n          and\n          mul\n          or\n          swap1\n          sstore\n          pop\n            /* \"Voting.sol\":2370:2437  constructor(address _creator) {\r... */\n          pop\n            /* \"Voting.sol\":2318:2440  contract Poll {\r... */\n          jump(tag_6)\n            /* \"#utility.yul\":7:150   */\n        tag_8:\n            /* \"#utility.yul\":64:69   */\n          0x00\n            /* \"#utility.yul\":95:101   */\n          dup2\n            /* \"#utility.yul\":89:102   */\n          mload\n            /* \"#utility.yul\":80:102   */\n          swap1\n          pop\n            /* \"#utility.yul\":111:144   */\n          tag_10\n            /* \"#utility.yul\":138:143   */\n          dup2\n            /* \"#utility.yul\":111:144   */\n          tag_11\n          jump\t// in\n        tag_10:\n            /* \"#utility.yul\":7:150   */\n          swap3\n          swap2\n          pop\n          pop\n          jump\t// out\n            /* \"#utility.yul\":156:507   */\n        tag_3:\n            /* \"#utility.yul\":226:232   */\n          0x00\n            /* \"#utility.yul\":275:277   */\n          0x20\n            /* \"#utility.yul\":263:272   */\n          dup3\n            /* \"#utility.yul\":254:261   */\n          dup5\n            /* \"#utility.yul\":250:273   */\n          sub\n            /* \"#utility.yul\":246:278   */\n          slt\n            /* \"#utility.yul\":243:362   */\n          iszero\n          tag_13\n          jumpi\n            /* \"#utility.yul\":281:360   */\n          tag_14\n          tag_15\n          jump\t// in\n        tag_14:\n            /* \"#utility.yul\":243:362   */\n        tag_13:\n            /* \"#utility.yul\":401:402   */\n          0x00\n            /* \"#utility.yul\":426:490   */\n          tag_16\n            /* \"#utility.yul\":482:489   */\n          dup5\n            /* \"#utility.yul\":473:479   */\n          dup3\n            /* \"#utility.yul\":462:471   */\n          dup6\n            /* \"#utility.yul\":458:480   */\n          add\n            /* \"#utility.yul\":426:490   */\n          tag_8\n          jump\t// in\n        tag_16:\n            /* \"#utility.yul\":416:490   */\n          swap2\n          pop\n            /* \"#utility.yul\":372:500   */\n          pop\n            /* \"#utility.yul\":156:507   */\n          swap3\n          swap2\n          pop\n          pop\n          jump\t// out\n            /* \"#utility.yul\":594:690   */\n        tag_19:\n            /* \"#utility.yul\":631:638   */\n          0x00\n            /* \"#utility.yul\":660:684   */\n          tag_21\n            /* \"#utility.yul\":678:683   */\n          dup3\n            /* \"#utility.yul\":660:684   */\n          tag_22\n          jump\t// in\n        tag_21:\n            /* \"#utility.yul\":649:684   */\n          swap1\n          pop\n            /* \"#utility.yul\":594:690   */\n          swap2\n          swap1\n          pop\n          jump\t// out\n            /* \"#utility.yul\":696:822   */\n        tag_22:\n            /* \"#utility.yul\":733:740   */\n          0x00\n            /* \"#utility.yul\":773:815   */\n          0xffffffffffffffffffffffffffffffffffffffff\n            /* \"#utility.yul\":766:771   */\n          dup3\n            /* \"#utility.yul\":762:816   */\n          and\n            /* \"#utility.yul\":751:816   */\n          swap1\n          pop\n            /* \"#utility.yul\":696:822   */\n          swap2\n          swap1\n          pop\n          jump\t// out\n            /* \"#utility.yul\":951:1068   */\n        tag_15:\n            /* \"#utility.yul\":1060:1061   */\n          0x00\n            /* \"#utility.yul\":1057:1058   */\n          dup1\n            /* \"#utility.yul\":1050:1062   */\n          revert\n            /* \"#utility.yul\":1074:1196   */\n        tag_11:\n            /* \"#utility.yul\":1147:1171   */\n          tag_28\n            /* \"#utility.yul\":1165:1170   */\n          dup2\n            /* \"#utility.yul\":1147:1171   */\n          tag_19\n          jump\t// in\n        tag_28:\n            /* \"#utility.yul\":1140:1145   */\n          dup2\n            /* \"#utility.yul\":1137:1172   */\n          eq\n            /* \"#utility.yul\":1127:1190   */\n          tag_29\n          jumpi\n            /* \"#utility.yul\":1186:1187   */\n          0x00\n            /* \"#utility.yul\":1183:1184   */\n          dup1\n            /* \"#utility.yul\":1176:1188   */\n          revert\n            /* \"#utility.yul\":1127:1190   */\n        tag_29:\n            /* \"#utility.yul\":1074:1196   */\n          pop\n          jump\t// out\n            /* \"Voting.sol\":2318:2440  contract Poll {\r... */\n        tag_6:\n          dataSize(sub_0)\n          dup1\n          dataOffset(sub_0)\n          0x00\n          codecopy\n          0x00\n          return\n        stop\n\n        sub_0: assembly {\n                /* \"Voting.sol\":2318:2440  contract Poll {\r... */\n              mstore(0x40, 0x80)\n              callvalue\n              dup1\n              iszero\n              tag_1\n              jumpi\n              0x00\n              dup1\n              revert\n            tag_1:\n              pop\n              jumpi(tag_2, lt(calldatasize, 0x04))\n              shr(0xe0, calldataload(0x00))\n              dup1\n              0x02d05d3f\n              eq\n              tag_3\n              jumpi\n            tag_2:\n              0x00\n              dup1\n              revert\n                /* \"Voting.sol\":2339:2361  address public creator */\n            tag_3:\n              tag_4\n              tag_5\n              jump\t// in\n            tag_4:\n              mload(0x40)\n              tag_6\n              swap2\n              swap1\n              tag_7\n              jump\t// in\n            tag_6:\n              mload(0x40)\n              dup1\n              swap2\n              sub\n              swap1\n              return\n            tag_5:\n              0x00\n              dup1\n              sload\n              swap1\n              0x0100\n              exp\n              swap1\n              div\n              0xffffffffffffffffffffffffffffffffffffffff\n              and\n              dup2\n              jump\t// out\n                /* \"#utility.yul\":7:125   */\n            tag_9:\n                /* \"#utility.yul\":94:118   */\n              tag_11\n                /* \"#utility.yul\":112:117   */\n              dup2\n                /* \"#utility.yul\":94:118   */\n              tag_12\n              jump\t// in\n            tag_11:\n                /* \"#utility.yul\":89:92   */\n              dup3\n                /* \"#utility.yul\":82:119   */\n              mstore\n                /* \"#utility.yul\":7:125   */\n              pop\n              pop\n              jump\t// out\n                /* \"#utility.yul\":131:353   */\n            tag_7:\n                /* \"#utility.yul\":224:228   */\n              0x00\n                /* \"#utility.yul\":262:264   */\n              0x20\n                /* \"#utility.yul\":251:260   */\n              dup3\n                /* \"#utility.yul\":247:265   */\n              add\n                /* \"#utility.yul\":239:265   */\n              swap1\n              pop\n                /* \"#utility.yul\":275:346   */\n              tag_14\n                /* \"#utility.yul\":343:344   */\n              0x00\n                /* \"#utility.yul\":332:341   */\n              dup4\n                /* \"#utility.yul\":328:345   */\n              add\n                /* \"#utility.yul\":319:325   */\n              dup5\n                /* \"#utility.yul\":275:346   */\n              tag_9\n              jump\t// in\n            tag_14:\n                /* \"#utility.yul\":131:353   */\n              swap3\n              swap2\n              pop\n              pop\n              jump\t// out\n                /* \"#utility.yul\":359:455   */\n            tag_12:\n                /* \"#utility.yul\":396:403   */\n              0x00\n                /* \"#utility.yul\":425:449   */\n              tag_16\n                /* \"#utility.yul\":443:448   */\n              dup3\n                /* \"#utility.yul\":425:449   */\n              tag_17\n              jump\t// in\n            tag_16:\n                /* \"#utility.yul\":414:449   */\n              swap1\n              pop\n                /* \"#utility.yul\":359:455   */\n              swap2\n              swap1\n              pop\n              jump\t// out\n                /* \"#utility.yul\":461:587   */\n            tag_17:\n                /* \"#utility.yul\":498:505   */\n              0x00\n                /* \"#utility.yul\":538:580   */\n              0xffffffffffffffffffffffffffffffffffffffff\n                /* \"#utility.yul\":531:536   */\n              dup3\n                /* \"#utility.yul\":527:581   */\n              and\n                /* \"#utility.yul\":516:581   */\n              swap1\n              pop\n                /* \"#utility.yul\":461:587   */\n              swap2\n              swap1\n              pop\n              jump\t// out\n\n            auxdata: 0xa2646970667358221220f68b5849bac0752fcea61e9937ae405c7cf162c99625f6b3520c4b15f6a65aca64736f6c63430008070033\n        }\n    }\n\n    auxdata: 0xa264697066735822122010834659bb1f5cd4019a0646439ad47f615d5f83081f3f65aade53b3f5c2d34c64736f6c63430008070033\n}\n",
				"bytecode": {
					"linkReferences": {},
					"object": "608060405234801561001057600080fd5b50610770806100206000396000f3fe608060405234801561001057600080fd5b50600436106100415760003560e01c8063170b5add1461004657806339f14d17146100645780637fd5f2681461006e575b600080fd5b61004e61008c565b60405161005b9190610427565b60405180910390f35b61006c610127565b005b610076610236565b6040516100839190610405565b60405180910390f35b60606000339050600260008273ffffffffffffffffffffffffffffffffffffffff1673ffffffffffffffffffffffffffffffffffffffff16815260200190815260200160002080548060200260200160405190810160405280929190818152602001828054801561011c57602002820191906000526020600020905b815481526020019060010190808311610108575b505050505091505090565b600033905060008160405161013b906102c4565b61014591906103ea565b604051809103906000f080158015610161573d6000803e3d6000fd5b5090506001819080600181540180825580915050600190039060005260206000200160009091909190916101000a81548173ffffffffffffffffffffffffffffffffffffffff021916908373ffffffffffffffffffffffffffffffffffffffff160217905550600260008373ffffffffffffffffffffffffffffffffffffffff1673ffffffffffffffffffffffffffffffffffffffff16815260200190815260200160002060018054905090806001815401808255809150506001900390600052602060002001600090919091909150555050565b606060008054806020026020016040519081016040528092919081815260200182805480156102ba57602002820191906000526020600020905b8160009054906101000a900473ffffffffffffffffffffffffffffffffffffffff1673ffffffffffffffffffffffffffffffffffffffff1681526020019060010190808311610270575b5050505050905090565b61020d8061052e83390190565b60006102dd83836103cc565b60208301905092915050565b60006102f583836103db565b60208301905092915050565b61030a816104bb565b82525050565b600061031b82610469565b6103258185610499565b935061033083610449565b8060005b8381101561036157815161034888826102d1565b97506103538361047f565b925050600181019050610334565b5085935050505092915050565b600061037982610474565b61038381856104aa565b935061038e83610459565b8060005b838110156103bf5781516103a688826102e9565b97506103b18361048c565b925050600181019050610392565b5085935050505092915050565b6103d5816104f7565b82525050565b6103e4816104ed565b82525050565b60006020820190506103ff6000830184610301565b92915050565b6000602082019050818103600083015261041f8184610310565b905092915050565b60006020820190508181036000830152610441818461036e565b905092915050565b6000819050602082019050919050565b6000819050602082019050919050565b600081519050919050565b600081519050919050565b6000602082019050919050565b6000602082019050919050565b600082825260208201905092915050565b600082825260208201905092915050565b60006104c6826104cd565b9050919050565b600073ffffffffffffffffffffffffffffffffffffffff82169050919050565b6000819050919050565b600061050282610509565b9050919050565b60006105148261051b565b9050919050565b6000610526826104cd565b905091905056fe608060405234801561001057600080fd5b5060405161020d38038061020d8339818101604052810190610032919061008d565b806000806101000a81548173ffffffffffffffffffffffffffffffffffffffff021916908373ffffffffffffffffffffffffffffffffffffffff16021790555050610108565b600081519050610087816100f1565b92915050565b6000602082840312156100a3576100a26100ec565b5b60006100b184828501610078565b91505092915050565b60006100c5826100cc565b9050919050565b600073ffffffffffffffffffffffffffffffffffffffff82169050919050565b600080fd5b6100fa816100ba565b811461010557600080fd5b50565b60f7806101166000396000f3fe6080604052348015600f57600080fd5b506004361060285760003560e01c806302d05d3f14602d575b600080fd5b60336047565b604051603e91906078565b60405180910390f35b60008054906101000a900473ffffffffffffffffffffffffffffffffffffffff1681565b6072816091565b82525050565b6000602082019050608b6000830184606b565b92915050565b6000609a8260a1565b9050919050565b600073ffffffffffffffffffffffffffffffffffffffff8216905091905056fea2646970667358221220f68b5849bac0752fcea61e9937ae405c7cf162c99625f6b3520c4b15f6a65aca64736f6c63430008070033a264697066735822122010834659bb1f5cd4019a0646439ad47f615d5f83081f3f65aade53b3f5c2d34c64736f6c63430008070033",
					"opcodes": "PUSH1 0x80 PUSH1 0x40 MSTORE CALLVALUE DUP1 ISZERO PUSH2 0x10 JUMPI PUSH1 0x0 DUP1 REVERT JUMPDEST POP PUSH2 0x770 DUP1 PUSH2 0x20 PUSH1 0x0 CODECOPY PUSH1 0x0 RETURN INVALID PUSH1 0x80 PUSH1 0x40 MSTORE CALLVALUE DUP1 ISZERO PUSH2 0x10 JUMPI PUSH1 0x0 DUP1 REVERT JUMPDEST POP PUSH1 0x4 CALLDATASIZE LT PUSH2 0x41 JUMPI PUSH1 0x0 CALLDATALOAD PUSH1 0xE0 SHR DUP1 PUSH4 0x170B5ADD EQ PUSH2 0x46 JUMPI DUP1 PUSH4 0x39F14D17 EQ PUSH2 0x64 JUMPI DUP1 PUSH4 0x7FD5F268 EQ PUSH2 0x6E JUMPI JUMPDEST PUSH1 0x0 DUP1 REVERT JUMPDEST PUSH2 0x4E PUSH2 0x8C JUMP JUMPDEST PUSH1 0x40 MLOAD PUSH2 0x5B SWAP2 SWAP1 PUSH2 0x427 JUMP JUMPDEST PUSH1 0x40 MLOAD DUP1 SWAP2 SUB SWAP1 RETURN JUMPDEST PUSH2 0x6C PUSH2 0x127 JUMP JUMPDEST STOP JUMPDEST PUSH2 0x76 PUSH2 0x236 JUMP JUMPDEST PUSH1 0x40 MLOAD PUSH2 0x83 SWAP2 SWAP1 PUSH2 0x405 JUMP JUMPDEST PUSH1 0x40 MLOAD DUP1 SWAP2 SUB SWAP1 RETURN JUMPDEST PUSH1 0x60 PUSH1 0x0 CALLER SWAP1 POP PUSH1 0x2 PUSH1 0x0 DUP3 PUSH20 0xFFFFFFFFFFFFFFFFFFFFFFFFFFFFFFFFFFFFFFFF AND PUSH20 0xFFFFFFFFFFFFFFFFFFFFFFFFFFFFFFFFFFFFFFFF AND DUP2 MSTORE PUSH1 0x20 ADD SWAP1 DUP2 MSTORE PUSH1 0x20 ADD PUSH1 0x0 KECCAK256 DUP1 SLOAD DUP1 PUSH1 0x20 MUL PUSH1 0x20 ADD PUSH1 0x40 MLOAD SWAP1 DUP2 ADD PUSH1 0x40 MSTORE DUP1 SWAP3 SWAP2 SWAP1 DUP2 DUP2 MSTORE PUSH1 0x20 ADD DUP3 DUP1 SLOAD DUP1 ISZERO PUSH2 0x11C JUMPI PUSH1 0x20 MUL DUP3 ADD SWAP2 SWAP1 PUSH1 0x0 MSTORE PUSH1 0x20 PUSH1 0x0 KECCAK256 SWAP1 JUMPDEST DUP2 SLOAD DUP2 MSTORE PUSH1 0x20 ADD SWAP1 PUSH1 0x1 ADD SWAP1 DUP1 DUP4 GT PUSH2 0x108 JUMPI JUMPDEST POP POP POP POP POP SWAP2 POP POP SWAP1 JUMP JUMPDEST PUSH1 0x0 CALLER SWAP1 POP PUSH1 0x0 DUP2 PUSH1 0x40 MLOAD PUSH2 0x13B SWAP1 PUSH2 0x2C4 JUMP JUMPDEST PUSH2 0x145 SWAP2 SWAP1 PUSH2 0x3EA JUMP JUMPDEST PUSH1 0x40 MLOAD DUP1 SWAP2 SUB SWAP1 PUSH1 0x0 CREATE DUP1 ISZERO DUP1 ISZERO PUSH2 0x161 JUMPI RETURNDATASIZE PUSH1 0x0 DUP1 RETURNDATACOPY RETURNDATASIZE PUSH1 0x0 REVERT JUMPDEST POP SWAP1 POP PUSH1 0x1 DUP2 SWAP1 DUP1 PUSH1 0x1 DUP2 SLOAD ADD DUP1 DUP3 SSTORE DUP1 SWAP2 POP POP PUSH1 0x1 SWAP1 SUB SWAP1 PUSH1 0x0 MSTORE PUSH1 0x20 PUSH1 0x0 KECCAK256 ADD PUSH1 0x0 SWAP1 SWAP2 SWAP1 SWAP2 SWAP1 SWAP2 PUSH2 0x100 EXP DUP2 SLOAD DUP2 PUSH20 0xFFFFFFFFFFFFFFFFFFFFFFFFFFFFFFFFFFFFFFFF MUL NOT AND SWAP1 DUP4 PUSH20 0xFFFFFFFFFFFFFFFFFFFFFFFFFFFFFFFFFFFFFFFF AND MUL OR SWAP1 SSTORE POP PUSH1 0x2 PUSH1 0x0 DUP4 PUSH20 0xFFFFFFFFFFFFFFFFFFFFFFFFFFFFFFFFFFFFFFFF AND PUSH20 0xFFFFFFFFFFFFFFFFFFFFFFFFFFFFFFFFFFFFFFFF AND DUP2 MSTORE PUSH1 0x20 ADD SWAP1 DUP2 MSTORE PUSH1 0x20 ADD PUSH1 0x0 KECCAK256 PUSH1 0x1 DUP1 SLOAD SWAP1 POP SWAP1 DUP1 PUSH1 0x1 DUP2 SLOAD ADD DUP1 DUP3 SSTORE DUP1 SWAP2 POP POP PUSH1 0x1 SWAP1 SUB SWAP1 PUSH1 0x0 MSTORE PUSH1 0x20 PUSH1 0x0 KECCAK256 ADD PUSH1 0x0 SWAP1 SWAP2 SWAP1 SWAP2 SWAP1 SWAP2 POP SSTORE POP POP JUMP JUMPDEST PUSH1 0x60 PUSH1 0x0 DUP1 SLOAD DUP1 PUSH1 0x20 MUL PUSH1 0x20 ADD PUSH1 0x40 MLOAD SWAP1 DUP2 ADD PUSH1 0x40 MSTORE DUP1 SWAP3 SWAP2 SWAP1 DUP2 DUP2 MSTORE PUSH1 0x20 ADD DUP3 DUP1 SLOAD DUP1 ISZERO PUSH2 0x2BA JUMPI PUSH1 0x20 MUL DUP3 ADD SWAP2 SWAP1 PUSH1 0x0 MSTORE PUSH1 0x20 PUSH1 0x0 KECCAK256 SWAP1 JUMPDEST DUP2 PUSH1 0x0 SWAP1 SLOAD SWAP1 PUSH2 0x100 EXP SWAP1 DIV PUSH20 0xFFFFFFFFFFFFFFFFFFFFFFFFFFFFFFFFFFFFFFFF AND PUSH20 0xFFFFFFFFFFFFFFFFFFFFFFFFFFFFFFFFFFFFFFFF AND DUP2 MSTORE PUSH1 0x20 ADD SWAP1 PUSH1 0x1 ADD SWAP1 DUP1 DUP4 GT PUSH2 0x270 JUMPI JUMPDEST POP POP POP POP POP SWAP1 POP SWAP1 JUMP JUMPDEST PUSH2 0x20D DUP1 PUSH2 0x52E DUP4 CODECOPY ADD SWAP1 JUMP JUMPDEST PUSH1 0x0 PUSH2 0x2DD DUP4 DUP4 PUSH2 0x3CC JUMP JUMPDEST PUSH1 0x20 DUP4 ADD SWAP1 POP SWAP3 SWAP2 POP POP JUMP JUMPDEST PUSH1 0x0 PUSH2 0x2F5 DUP4 DUP4 PUSH2 0x3DB JUMP JUMPDEST PUSH1 0x20 DUP4 ADD SWAP1 POP SWAP3 SWAP2 POP POP JUMP JUMPDEST PUSH2 0x30A DUP2 PUSH2 0x4BB JUMP JUMPDEST DUP3 MSTORE POP POP JUMP JUMPDEST PUSH1 0x0 PUSH2 0x31B DUP3 PUSH2 0x469 JUMP JUMPDEST PUSH2 0x325 DUP2 DUP6 PUSH2 0x499 JUMP JUMPDEST SWAP4 POP PUSH2 0x330 DUP4 PUSH2 0x449 JUMP JUMPDEST DUP1 PUSH1 0x0 JUMPDEST DUP4 DUP2 LT ISZERO PUSH2 0x361 JUMPI DUP2 MLOAD PUSH2 0x348 DUP9 DUP3 PUSH2 0x2D1 JUMP JUMPDEST SWAP8 POP PUSH2 0x353 DUP4 PUSH2 0x47F JUMP JUMPDEST SWAP3 POP POP PUSH1 0x1 DUP2 ADD SWAP1 POP PUSH2 0x334 JUMP JUMPDEST POP DUP6 SWAP4 POP POP POP POP SWAP3 SWAP2 POP POP JUMP JUMPDEST PUSH1 0x0 PUSH2 0x379 DUP3 PUSH2 0x474 JUMP JUMPDEST PUSH2 0x383 DUP2 DUP6 PUSH2 0x4AA JUMP JUMPDEST SWAP4 POP PUSH2 0x38E DUP4 PUSH2 0x459 JUMP JUMPDEST DUP1 PUSH1 0x0 JUMPDEST DUP4 DUP2 LT ISZERO PUSH2 0x3BF JUMPI DUP2 MLOAD PUSH2 0x3A6 DUP9 DUP3 PUSH2 0x2E9 JUMP JUMPDEST SWAP8 POP PUSH2 0x3B1 DUP4 PUSH2 0x48C JUMP JUMPDEST SWAP3 POP POP PUSH1 0x1 DUP2 ADD SWAP1 POP PUSH2 0x392 JUMP JUMPDEST POP DUP6 SWAP4 POP POP POP POP SWAP3 SWAP2 POP POP JUMP JUMPDEST PUSH2 0x3D5 DUP2 PUSH2 0x4F7 JUMP JUMPDEST DUP3 MSTORE POP POP JUMP JUMPDEST PUSH2 0x3E4 DUP2 PUSH2 0x4ED JUMP JUMPDEST DUP3 MSTORE POP POP JUMP JUMPDEST PUSH1 0x0 PUSH1 0x20 DUP3 ADD SWAP1 POP PUSH2 0x3FF PUSH1 0x0 DUP4 ADD DUP5 PUSH2 0x301 JUMP JUMPDEST SWAP3 SWAP2 POP POP JUMP JUMPDEST PUSH1 0x0 PUSH1 0x20 DUP3 ADD SWAP1 POP DUP2 DUP2 SUB PUSH1 0x0 DUP4 ADD MSTORE PUSH2 0x41F DUP2 DUP5 PUSH2 0x310 JUMP JUMPDEST SWAP1 POP SWAP3 SWAP2 POP POP JUMP JUMPDEST PUSH1 0x0 PUSH1 0x20 DUP3 ADD SWAP1 POP DUP2 DUP2 SUB PUSH1 0x0 DUP4 ADD MSTORE PUSH2 0x441 DUP2 DUP5 PUSH2 0x36E JUMP JUMPDEST SWAP1 POP SWAP3 SWAP2 POP POP JUMP JUMPDEST PUSH1 0x0 DUP2 SWAP1 POP PUSH1 0x20 DUP3 ADD SWAP1 POP SWAP2 SWAP1 POP JUMP JUMPDEST PUSH1 0x0 DUP2 SWAP1 POP PUSH1 0x20 DUP3 ADD SWAP1 POP SWAP2 SWAP1 POP JUMP JUMPDEST PUSH1 0x0 DUP2 MLOAD SWAP1 POP SWAP2 SWAP1 POP JUMP JUMPDEST PUSH1 0x0 DUP2 MLOAD SWAP1 POP SWAP2 SWAP1 POP JUMP JUMPDEST PUSH1 0x0 PUSH1 0x20 DUP3 ADD SWAP1 POP SWAP2 SWAP1 POP JUMP JUMPDEST PUSH1 0x0 PUSH1 0x20 DUP3 ADD SWAP1 POP SWAP2 SWAP1 POP JUMP JUMPDEST PUSH1 0x0 DUP3 DUP3 MSTORE PUSH1 0x20 DUP3 ADD SWAP1 POP SWAP3 SWAP2 POP POP JUMP JUMPDEST PUSH1 0x0 DUP3 DUP3 MSTORE PUSH1 0x20 DUP3 ADD SWAP1 POP SWAP3 SWAP2 POP POP JUMP JUMPDEST PUSH1 0x0 PUSH2 0x4C6 DUP3 PUSH2 0x4CD JUMP JUMPDEST SWAP1 POP SWAP2 SWAP1 POP JUMP JUMPDEST PUSH1 0x0 PUSH20 0xFFFFFFFFFFFFFFFFFFFFFFFFFFFFFFFFFFFFFFFF DUP3 AND SWAP1 POP SWAP2 SWAP1 POP JUMP JUMPDEST PUSH1 0x0 DUP2 SWAP1 POP SWAP2 SWAP1 POP JUMP JUMPDEST PUSH1 0x0 PUSH2 0x502 DUP3 PUSH2 0x509 JUMP JUMPDEST SWAP1 POP SWAP2 SWAP1 POP JUMP JUMPDEST PUSH1 0x0 PUSH2 0x514 DUP3 PUSH2 0x51B JUMP JUMPDEST SWAP1 POP SWAP2 SWAP1 POP JUMP JUMPDEST PUSH1 0x0 PUSH2 0x526 DUP3 PUSH2 0x4CD JUMP JUMPDEST SWAP1 POP SWAP2 SWAP1 POP JUMP INVALID PUSH1 0x80 PUSH1 0x40 MSTORE CALLVALUE DUP1 ISZERO PUSH2 0x10 JUMPI PUSH1 0x0 DUP1 REVERT JUMPDEST POP PUSH1 0x40 MLOAD PUSH2 0x20D CODESIZE SUB DUP1 PUSH2 0x20D DUP4 CODECOPY DUP2 DUP2 ADD PUSH1 0x40 MSTORE DUP2 ADD SWAP1 PUSH2 0x32 SWAP2 SWAP1 PUSH2 0x8D JUMP JUMPDEST DUP1 PUSH1 0x0 DUP1 PUSH2 0x100 EXP DUP2 SLOAD DUP2 PUSH20 0xFFFFFFFFFFFFFFFFFFFFFFFFFFFFFFFFFFFFFFFF MUL NOT AND SWAP1 DUP4 PUSH20 0xFFFFFFFFFFFFFFFFFFFFFFFFFFFFFFFFFFFFFFFF AND MUL OR SWAP1 SSTORE POP POP PUSH2 0x108 JUMP JUMPDEST PUSH1 0x0 DUP2 MLOAD SWAP1 POP PUSH2 0x87 DUP2 PUSH2 0xF1 JUMP JUMPDEST SWAP3 SWAP2 POP POP JUMP JUMPDEST PUSH1 0x0 PUSH1 0x20 DUP3 DUP5 SUB SLT ISZERO PUSH2 0xA3 JUMPI PUSH2 0xA2 PUSH2 0xEC JUMP JUMPDEST JUMPDEST PUSH1 0x0 PUSH2 0xB1 DUP5 DUP3 DUP6 ADD PUSH2 0x78 JUMP JUMPDEST SWAP2 POP POP SWAP3 SWAP2 POP POP JUMP JUMPDEST PUSH1 0x0 PUSH2 0xC5 DUP3 PUSH2 0xCC JUMP JUMPDEST SWAP1 POP SWAP2 SWAP1 POP JUMP JUMPDEST PUSH1 0x0 PUSH20 0xFFFFFFFFFFFFFFFFFFFFFFFFFFFFFFFFFFFFFFFF DUP3 AND SWAP1 POP SWAP2 SWAP1 POP JUMP JUMPDEST PUSH1 0x0 DUP1 REVERT JUMPDEST PUSH2 0xFA DUP2 PUSH2 0xBA JUMP JUMPDEST DUP2 EQ PUSH2 0x105 JUMPI PUSH1 0x0 DUP1 REVERT JUMPDEST POP JUMP JUMPDEST PUSH1 0xF7 DUP1 PUSH2 0x116 PUSH1 0x0 CODECOPY PUSH1 0x0 RETURN INVALID PUSH1 0x80 PUSH1 0x40 MSTORE CALLVALUE DUP1 ISZERO PUSH1 0xF JUMPI PUSH1 0x0 DUP1 REVERT JUMPDEST POP PUSH1 0x4 CALLDATASIZE LT PUSH1 0x28 JUMPI PUSH1 0x0 CALLDATALOAD PUSH1 0xE0 SHR DUP1 PUSH4 0x2D05D3F EQ PUSH1 0x2D JUMPI JUMPDEST PUSH1 0x0 DUP1 REVERT JUMPDEST PUSH1 0x33 PUSH1 0x47 JUMP JUMPDEST PUSH1 0x40 MLOAD PUSH1 0x3E SWAP2 SWAP1 PUSH1 0x78 JUMP JUMPDEST PUSH1 0x40 MLOAD DUP1 SWAP2 SUB SWAP1 RETURN JUMPDEST PUSH1 0x0 DUP1 SLOAD SWAP1 PUSH2 0x100 EXP SWAP1 DIV PUSH20 0xFFFFFFFFFFFFFFFFFFFFFFFFFFFFFFFFFFFFFFFF AND DUP2 JUMP JUMPDEST PUSH1 0x72 DUP2 PUSH1 0x91 JUMP JUMPDEST DUP3 MSTORE POP POP JUMP JUMPDEST PUSH1 0x0 PUSH1 0x20 DUP3 ADD SWAP1 POP PUSH1 0x8B PUSH1 0x0 DUP4 ADD DUP5 PUSH1 0x6B JUMP JUMPDEST SWAP3 SWAP2 POP POP JUMP JUMPDEST PUSH1 0x0 PUSH1 0x9A DUP3 PUSH1 0xA1 JUMP JUMPDEST SWAP1 POP SWAP2 SWAP1 POP JUMP JUMPDEST PUSH1 0x0 PUSH20 0xFFFFFFFFFFFFFFFFFFFFFFFFFFFFFFFFFFFFFFFF DUP3 AND SWAP1 POP SWAP2 SWAP1 POP JUMP INVALID LOG2 PUSH5 0x6970667358 0x22 SLT KECCAK256 0xF6 DUP12 PC 0x49 0xBA 0xC0 PUSH22 0x2FCEA61E9937AE405C7CF162C99625F6B3520C4B15F6 0xA6 GAS 0xCA PUSH5 0x736F6C6343 STOP ADDMOD SMOD STOP CALLER LOG2 PUSH5 0x6970667358 0x22 SLT KECCAK256 LT DUP4 CHAINID MSIZE 0xBB 0x1F 0x5C 0xD4 ADD SWAP11 MOD CHAINID NUMBER SWAP11 0xD4 PUSH32 0x615D5F83081F3F65AADE53B3F5C2D34C64736F6C634300080700330000000000 "
				},
				"gasEstimates": {
					"creation": {
						"codeDepositCost": "380800",
						"executionCost": "418",
						"totalCost": "381218"
					},
					"external": {
						"createPoll()": "infinite",
						"getAllElections()": "infinite",
						"getMyPolls()": "infinite"
					}
				},
				"methodIdentifiers": {
					"createPoll()": "39f14d17",
					"getAllElections()": "7fd5f268",
					"getMyPolls()": "170b5add"
				}
			},
			"storageLayout": {
				"storage": [
					{
						"astId": 5,
						"contract": "Voting.sol:Platform",
						"label": "elections",
						"offset": 0,
						"slot": "0",
						"type": "t_array(t_contract(Election)256)dyn_storage"
					},
					{
						"astId": 9,
						"contract": "Voting.sol:Platform",
						"label": "polls",
						"offset": 0,
						"slot": "1",
						"type": "t_array(t_contract(Poll)269)dyn_storage"
					},
					{
						"astId": 14,
						"contract": "Voting.sol:Platform",
						"label": "userPolls",
						"offset": 0,
						"slot": "2",
						"type": "t_mapping(t_address,t_array(t_uint256)dyn_storage)"
					}
				],
				"types": {
					"t_address": {
						"encoding": "inplace",
						"label": "address",
						"numberOfBytes": "20"
					},
					"t_array(t_contract(Election)256)dyn_storage": {
						"base": "t_contract(Election)256",
						"encoding": "dynamic_array",
						"label": "contract Election[]",
						"numberOfBytes": "32"
					},
					"t_array(t_contract(Poll)269)dyn_storage": {
						"base": "t_contract(Poll)269",
						"encoding": "dynamic_array",
						"label": "contract Poll[]",
						"numberOfBytes": "32"
					},
					"t_array(t_uint256)dyn_storage": {
						"base": "t_uint256",
						"encoding": "dynamic_array",
						"label": "uint256[]",
						"numberOfBytes": "32"
					},
					"t_contract(Election)256": {
						"encoding": "inplace",
						"label": "contract Election",
						"numberOfBytes": "20"
					},
					"t_contract(Poll)269": {
						"encoding": "inplace",
						"label": "contract Poll",
						"numberOfBytes": "20"
					},
					"t_mapping(t_address,t_array(t_uint256)dyn_storage)": {
						"encoding": "mapping",
						"key": "t_address",
						"label": "mapping(address => uint256[])",
						"numberOfBytes": "32",
						"value": "t_array(t_uint256)dyn_storage"
					},
					"t_uint256": {
						"encoding": "inplace",
						"label": "uint256",
						"numberOfBytes": "32"
					}
				}
			},
			"userdoc": {
				"kind": "user",
				"methods": {},
				"version": 1
			}
		}
	}
}