{
	"Voting.sol": {
		"Poll": {
			"abi": [
				{
					"inputs": [
						{
							"internalType": "address",
							"name": "_creator",
							"type": "address"
						}
					],
					"stateMutability": "nonpayable",
					"type": "constructor"
				},
				{
					"anonymous": false,
					"inputs": [
						{
							"indexed": true,
							"internalType": "address",
							"name": "voterAddress",
							"type": "address"
						},
						{
							"indexed": false,
							"internalType": "string",
							"name": "name",
							"type": "string"
						},
						{
							"indexed": false,
							"internalType": "uint256",
							"name": "votes",
							"type": "uint256"
						}
					],
					"name": "LogVote",
					"type": "event"
				},
				{
					"anonymous": false,
					"inputs": [
						{
							"indexed": true,
							"internalType": "address",
							"name": "pollAddress",
							"type": "address"
						},
						{
							"indexed": false,
							"internalType": "string",
							"name": "optionName",
							"type": "string"
						}
					],
					"name": "OptionAdded",
					"type": "event"
				},
				{
					"inputs": [
						{
							"internalType": "string",
							"name": "optionName",
							"type": "string"
						}
					],
					"name": "addOption",
					"outputs": [],
					"stateMutability": "nonpayable",
					"type": "function"
				},
				{
					"inputs": [],
					"name": "creator",
					"outputs": [
						{
							"internalType": "address",
							"name": "",
							"type": "address"
						}
					],
					"stateMutability": "view",
					"type": "function"
				},
				{
					"inputs": [],
					"name": "getAddress",
					"outputs": [
						{
							"internalType": "address",
							"name": "",
							"type": "address"
						}
					],
					"stateMutability": "view",
					"type": "function"
				},
				{
					"inputs": [],
					"name": "getAllOptions",
					"outputs": [
						{
							"components": [
								{
									"internalType": "string",
									"name": "name",
									"type": "string"
								},
								{
									"internalType": "uint256",
									"name": "voteCount",
									"type": "uint256"
								}
							],
							"internalType": "struct Poll.Option[]",
							"name": "",
							"type": "tuple[]"
						}
					],
					"stateMutability": "view",
					"type": "function"
				},
				{
					"inputs": [
						{
							"internalType": "address",
							"name": "",
							"type": "address"
						}
					],
					"name": "hasVoted",
					"outputs": [
						{
							"internalType": "bool",
							"name": "",
							"type": "bool"
						}
					],
					"stateMutability": "view",
					"type": "function"
				},
				{
					"inputs": [
						{
							"internalType": "uint256",
							"name": "",
							"type": "uint256"
						}
					],
					"name": "options",
					"outputs": [
						{
							"internalType": "string",
							"name": "name",
							"type": "string"
						},
						{
							"internalType": "uint256",
							"name": "voteCount",
							"type": "uint256"
						}
					],
					"stateMutability": "view",
					"type": "function"
				},
				{
					"inputs": [
						{
							"internalType": "uint256",
							"name": "option",
							"type": "uint256"
						}
					],
					"name": "vote",
					"outputs": [],
					"stateMutability": "nonpayable",
					"type": "function"
				}
			],
			"devdoc": {
				"kind": "dev",
				"methods": {},
				"version": 1
			},
			"evm": {
				"assembly": "    /* \"Voting.sol\":2606:4007  contract Poll {\r... */\n  mstore(0x40, 0x80)\n    /* \"Voting.sol\":2840:2942  constructor(address _creator) {\r... */\n  callvalue\n  dup1\n  iszero\n  tag_1\n  jumpi\n  0x00\n  dup1\n  revert\ntag_1:\n  pop\n  mload(0x40)\n  sub(codesize, bytecodeSize)\n  dup1\n  bytecodeSize\n  dup4\n  codecopy\n  dup2\n  dup2\n  add\n  0x40\n  mstore\n  dup2\n  add\n  swap1\n  tag_2\n  swap2\n  swap1\n  tag_3\n  jump\t// in\ntag_2:\n    /* \"Voting.sol\":2891:2899  _creator */\n  dup1\n    /* \"Voting.sol\":2881:2888  creator */\n  0x00\n  dup1\n    /* \"Voting.sol\":2881:2899  creator = _creator */\n  0x0100\n  exp\n  dup2\n  sload\n  dup2\n  0xffffffffffffffffffffffffffffffffffffffff\n  mul\n  not\n  and\n  swap1\n  dup4\n  0xffffffffffffffffffffffffffffffffffffffff\n  and\n  mul\n  or\n  swap1\n  sstore\n  pop\n    /* \"Voting.sol\":2929:2933  this */\n  address\n    /* \"Voting.sol\":2910:2918  _address */\n  0x01\n  0x00\n    /* \"Voting.sol\":2910:2934  _address = address(this) */\n  0x0100\n  exp\n  dup2\n  sload\n  dup2\n  0xffffffffffffffffffffffffffffffffffffffff\n  mul\n  not\n  and\n  swap1\n  dup4\n  0xffffffffffffffffffffffffffffffffffffffff\n  and\n  mul\n  or\n  swap1\n  sstore\n  pop\n    /* \"Voting.sol\":2840:2942  constructor(address _creator) {\r... */\n  pop\n    /* \"Voting.sol\":2606:4007  contract Poll {\r... */\n  jump(tag_6)\n    /* \"#utility.yul\":7:150   */\ntag_8:\n    /* \"#utility.yul\":64:69   */\n  0x00\n    /* \"#utility.yul\":95:101   */\n  dup2\n    /* \"#utility.yul\":89:102   */\n  mload\n    /* \"#utility.yul\":80:102   */\n  swap1\n  pop\n    /* \"#utility.yul\":111:144   */\n  tag_10\n    /* \"#utility.yul\":138:143   */\n  dup2\n    /* \"#utility.yul\":111:144   */\n  tag_11\n  jump\t// in\ntag_10:\n    /* \"#utility.yul\":7:150   */\n  swap3\n  swap2\n  pop\n  pop\n  jump\t// out\n    /* \"#utility.yul\":156:507   */\ntag_3:\n    /* \"#utility.yul\":226:232   */\n  0x00\n    /* \"#utility.yul\":275:277   */\n  0x20\n    /* \"#utility.yul\":263:272   */\n  dup3\n    /* \"#utility.yul\":254:261   */\n  dup5\n    /* \"#utility.yul\":250:273   */\n  sub\n    /* \"#utility.yul\":246:278   */\n  slt\n    /* \"#utility.yul\":243:362   */\n  iszero\n  tag_13\n  jumpi\n    /* \"#utility.yul\":281:360   */\n  tag_14\n  tag_15\n  jump\t// in\ntag_14:\n    /* \"#utility.yul\":243:362   */\ntag_13:\n    /* \"#utility.yul\":401:402   */\n  0x00\n    /* \"#utility.yul\":426:490   */\n  tag_16\n    /* \"#utility.yul\":482:489   */\n  dup5\n    /* \"#utility.yul\":473:479   */\n  dup3\n    /* \"#utility.yul\":462:471   */\n  dup6\n    /* \"#utility.yul\":458:480   */\n  add\n    /* \"#utility.yul\":426:490   */\n  tag_8\n  jump\t// in\ntag_16:\n    /* \"#utility.yul\":416:490   */\n  swap2\n  pop\n    /* \"#utility.yul\":372:500   */\n  pop\n    /* \"#utility.yul\":156:507   */\n  swap3\n  swap2\n  pop\n  pop\n  jump\t// out\n    /* \"#utility.yul\":594:690   */\ntag_19:\n    /* \"#utility.yul\":631:638   */\n  0x00\n    /* \"#utility.yul\":660:684   */\n  tag_21\n    /* \"#utility.yul\":678:683   */\n  dup3\n    /* \"#utility.yul\":660:684   */\n  tag_22\n  jump\t// in\ntag_21:\n    /* \"#utility.yul\":649:684   */\n  swap1\n  pop\n    /* \"#utility.yul\":594:690   */\n  swap2\n  swap1\n  pop\n  jump\t// out\n    /* \"#utility.yul\":696:822   */\ntag_22:\n    /* \"#utility.yul\":733:740   */\n  0x00\n    /* \"#utility.yul\":773:815   */\n  0xffffffffffffffffffffffffffffffffffffffff\n    /* \"#utility.yul\":766:771   */\n  dup3\n    /* \"#utility.yul\":762:816   */\n  and\n    /* \"#utility.yul\":751:816   */\n  swap1\n  pop\n    /* \"#utility.yul\":696:822   */\n  swap2\n  swap1\n  pop\n  jump\t// out\n    /* \"#utility.yul\":951:1068   */\ntag_15:\n    /* \"#utility.yul\":1060:1061   */\n  0x00\n    /* \"#utility.yul\":1057:1058   */\n  dup1\n    /* \"#utility.yul\":1050:1062   */\n  revert\n    /* \"#utility.yul\":1074:1196   */\ntag_11:\n    /* \"#utility.yul\":1147:1171   */\n  tag_28\n    /* \"#utility.yul\":1165:1170   */\n  dup2\n    /* \"#utility.yul\":1147:1171   */\n  tag_19\n  jump\t// in\ntag_28:\n    /* \"#utility.yul\":1140:1145   */\n  dup2\n    /* \"#utility.yul\":1137:1172   */\n  eq\n    /* \"#utility.yul\":1127:1190   */\n  tag_29\n  jumpi\n    /* \"#utility.yul\":1186:1187   */\n  0x00\n    /* \"#utility.yul\":1183:1184   */\n  dup1\n    /* \"#utility.yul\":1176:1188   */\n  revert\n    /* \"#utility.yul\":1127:1190   */\ntag_29:\n    /* \"#utility.yul\":1074:1196   */\n  pop\n  jump\t// out\n    /* \"Voting.sol\":2606:4007  contract Poll {\r... */\ntag_6:\n  dataSize(sub_0)\n  dup1\n  dataOffset(sub_0)\n  0x00\n  codecopy\n  0x00\n  return\nstop\n\nsub_0: assembly {\n        /* \"Voting.sol\":2606:4007  contract Poll {\r... */\n      mstore(0x40, 0x80)\n      callvalue\n      dup1\n      iszero\n      tag_1\n      jumpi\n      0x00\n      dup1\n      revert\n    tag_1:\n      pop\n      jumpi(tag_2, lt(calldatasize, 0x04))\n      shr(0xe0, calldataload(0x00))\n      dup1\n      0x38cc4831\n      gt\n      tag_10\n      jumpi\n      dup1\n      0x38cc4831\n      eq\n      tag_6\n      jumpi\n      dup1\n      0x409e2205\n      eq\n      tag_7\n      jumpi\n      dup1\n      0x4b4b0d37\n      eq\n      tag_8\n      jumpi\n      dup1\n      0xedc550dc\n      eq\n      tag_9\n      jumpi\n      jump(tag_2)\n    tag_10:\n      dup1\n      0x0121b93f\n      eq\n      tag_3\n      jumpi\n      dup1\n      0x02d05d3f\n      eq\n      tag_4\n      jumpi\n      dup1\n      0x09eef43e\n      eq\n      tag_5\n      jumpi\n    tag_2:\n      0x00\n      dup1\n      revert\n        /* \"Voting.sol\":3556:3804  function vote(uint256 option) public hasNotVoted {\r... */\n    tag_3:\n      tag_11\n      0x04\n      dup1\n      calldatasize\n      sub\n      dup2\n      add\n      swap1\n      tag_12\n      swap2\n      swap1\n      tag_13\n      jump\t// in\n    tag_12:\n      tag_14\n      jump\t// in\n    tag_11:\n      stop\n        /* \"Voting.sol\":2707:2729  address public creator */\n    tag_4:\n      tag_15\n      tag_16\n      jump\t// in\n    tag_15:\n      mload(0x40)\n      tag_17\n      swap2\n      swap1\n      tag_18\n      jump\t// in\n    tag_17:\n      mload(0x40)\n      dup1\n      swap2\n      sub\n      swap1\n      return\n        /* \"Voting.sol\":2791:2831  mapping(address => bool) public hasVoted */\n    tag_5:\n      tag_19\n      0x04\n      dup1\n      calldatasize\n      sub\n      dup2\n      add\n      swap1\n      tag_20\n      swap2\n      swap1\n      tag_21\n      jump\t// in\n    tag_20:\n      tag_22\n      jump\t// in\n    tag_19:\n      mload(0x40)\n      tag_23\n      swap2\n      swap1\n      tag_24\n      jump\t// in\n    tag_23:\n      mload(0x40)\n      dup1\n      swap2\n      sub\n      swap1\n      return\n        /* \"Voting.sol\":3916:4004  function getAddress() external view returns (address) {\r... */\n    tag_6:\n      tag_25\n      tag_26\n      jump\t// in\n    tag_25:\n      mload(0x40)\n      tag_27\n      swap2\n      swap1\n      tag_18\n      jump\t// in\n    tag_27:\n      mload(0x40)\n      dup1\n      swap2\n      sub\n      swap1\n      return\n        /* \"Voting.sol\":2761:2784  Option[] public options */\n    tag_7:\n      tag_28\n      0x04\n      dup1\n      calldatasize\n      sub\n      dup2\n      add\n      swap1\n      tag_29\n      swap2\n      swap1\n      tag_13\n      jump\t// in\n    tag_29:\n      tag_30\n      jump\t// in\n    tag_28:\n      mload(0x40)\n      tag_31\n      swap3\n      swap2\n      swap1\n      tag_32\n      jump\t// in\n    tag_31:\n      mload(0x40)\n      dup1\n      swap2\n      sub\n      swap1\n      return\n        /* \"Voting.sol\":3812:3908  function getAllOptions() public view returns (Option[] memory) {\r... */\n    tag_8:\n      tag_33\n      tag_34\n      jump\t// in\n    tag_33:\n      mload(0x40)\n      tag_35\n      swap2\n      swap1\n      tag_36\n      jump\t// in\n    tag_35:\n      mload(0x40)\n      dup1\n      swap2\n      sub\n      swap1\n      return\n        /* \"Voting.sol\":3360:3548  function addOption(string memory optionName) public onlyCreator {\r... */\n    tag_9:\n      tag_37\n      0x04\n      dup1\n      calldatasize\n      sub\n      dup2\n      add\n      swap1\n      tag_38\n      swap2\n      swap1\n      tag_39\n      jump\t// in\n    tag_38:\n      tag_40\n      jump\t// in\n    tag_37:\n      stop\n        /* \"Voting.sol\":3556:3804  function vote(uint256 option) public hasNotVoted {\r... */\n    tag_14:\n        /* \"Voting.sol\":3147:3152  false */\n      0x00\n        /* \"Voting.sol\":3123:3152  hasVoted[msg.sender] == false */\n      iszero\n      iszero\n        /* \"Voting.sol\":3123:3131  hasVoted */\n      0x03\n        /* \"Voting.sol\":3123:3143  hasVoted[msg.sender] */\n      0x00\n        /* \"Voting.sol\":3132:3142  msg.sender */\n      caller\n        /* \"Voting.sol\":3123:3143  hasVoted[msg.sender] */\n      0xffffffffffffffffffffffffffffffffffffffff\n      and\n      0xffffffffffffffffffffffffffffffffffffffff\n      and\n      dup2\n      mstore\n      0x20\n      add\n      swap1\n      dup2\n      mstore\n      0x20\n      add\n      0x00\n      keccak256\n      0x00\n      swap1\n      sload\n      swap1\n      0x0100\n      exp\n      swap1\n      div\n      0xff\n      and\n        /* \"Voting.sol\":3123:3152  hasVoted[msg.sender] == false */\n      iszero\n      iszero\n      eq\n        /* \"Voting.sol\":3115:3180  require(hasVoted[msg.sender] == false, \"You can only vote once!\") */\n      tag_42\n      jumpi\n      mload(0x40)\n      0x08c379a000000000000000000000000000000000000000000000000000000000\n      dup2\n      mstore\n      0x04\n      add\n      tag_43\n      swap1\n      tag_44\n      jump\t// in\n    tag_43:\n      mload(0x40)\n      dup1\n      swap2\n      sub\n      swap1\n      revert\n    tag_42:\n        /* \"Voting.sol\":3616:3629  address voter */\n      0x00\n        /* \"Voting.sol\":3632:3642  msg.sender */\n      caller\n        /* \"Voting.sol\":3616:3642  address voter = msg.sender */\n      swap1\n      pop\n        /* \"Voting.sol\":3673:3677  true */\n      0x01\n        /* \"Voting.sol\":3655:3663  hasVoted */\n      0x03\n        /* \"Voting.sol\":3655:3670  hasVoted[voter] */\n      0x00\n        /* \"Voting.sol\":3664:3669  voter */\n      dup4\n        /* \"Voting.sol\":3655:3670  hasVoted[voter] */\n      0xffffffffffffffffffffffffffffffffffffffff\n      and\n      0xffffffffffffffffffffffffffffffffffffffff\n      and\n      dup2\n      mstore\n      0x20\n      add\n      swap1\n      dup2\n      mstore\n      0x20\n      add\n      0x00\n      keccak256\n      0x00\n        /* \"Voting.sol\":3655:3677  hasVoted[voter] = true */\n      0x0100\n      exp\n      dup2\n      sload\n      dup2\n      0xff\n      mul\n      not\n      and\n      swap1\n      dup4\n      iszero\n      iszero\n      mul\n      or\n      swap1\n      sstore\n      pop\n        /* \"Voting.sol\":3688:3695  options */\n      0x02\n        /* \"Voting.sol\":3696:3702  option */\n      dup3\n        /* \"Voting.sol\":3688:3703  options[option] */\n      dup2\n      sload\n      dup2\n      lt\n      tag_46\n      jumpi\n      tag_47\n      tag_48\n      jump\t// in\n    tag_47:\n    tag_46:\n      swap1\n      0x00\n      mstore\n      keccak256(0x00, 0x20)\n      swap1\n      0x02\n      mul\n      add\n        /* \"Voting.sol\":3688:3713  options[option].voteCount */\n      0x01\n      add\n      0x00\n        /* \"Voting.sol\":3688:3715  options[option].voteCount++ */\n      dup2\n      sload\n      dup1\n      swap3\n      swap2\n      swap1\n      tag_50\n      swap1\n      tag_51\n      jump\t// in\n    tag_50:\n      swap2\n      swap1\n      pop\n      sstore\n      pop\n        /* \"Voting.sol\":3741:3746  voter */\n      dup1\n        /* \"Voting.sol\":3733:3796  LogVote(voter, options[option].name, options[option].voteCount) */\n      0xffffffffffffffffffffffffffffffffffffffff\n      and\n      0x9259118f8a771b63f3f3b7e3ba96eebf14e0b34421848a09e54e3af9d4d95633\n        /* \"Voting.sol\":3748:3755  options */\n      0x02\n        /* \"Voting.sol\":3756:3762  option */\n      dup5\n        /* \"Voting.sol\":3748:3763  options[option] */\n      dup2\n      sload\n      dup2\n      lt\n      tag_52\n      jumpi\n      tag_53\n      tag_48\n      jump\t// in\n    tag_53:\n    tag_52:\n      swap1\n      0x00\n      mstore\n      keccak256(0x00, 0x20)\n      swap1\n      0x02\n      mul\n      add\n        /* \"Voting.sol\":3748:3768  options[option].name */\n      0x00\n      add\n        /* \"Voting.sol\":3770:3777  options */\n      0x02\n        /* \"Voting.sol\":3778:3784  option */\n      dup6\n        /* \"Voting.sol\":3770:3785  options[option] */\n      dup2\n      sload\n      dup2\n      lt\n      tag_55\n      jumpi\n      tag_56\n      tag_48\n      jump\t// in\n    tag_56:\n    tag_55:\n      swap1\n      0x00\n      mstore\n      keccak256(0x00, 0x20)\n      swap1\n      0x02\n      mul\n      add\n        /* \"Voting.sol\":3770:3795  options[option].voteCount */\n      0x01\n      add\n      sload\n        /* \"Voting.sol\":3733:3796  LogVote(voter, options[option].name, options[option].voteCount) */\n      mload(0x40)\n      tag_58\n      swap3\n      swap2\n      swap1\n      tag_59\n      jump\t// in\n    tag_58:\n      mload(0x40)\n      dup1\n      swap2\n      sub\n      swap1\n      log2\n        /* \"Voting.sol\":3605:3804  {\r... */\n      pop\n        /* \"Voting.sol\":3556:3804  function vote(uint256 option) public hasNotVoted {\r... */\n      pop\n      jump\t// out\n        /* \"Voting.sol\":2707:2729  address public creator */\n    tag_16:\n      0x00\n      dup1\n      sload\n      swap1\n      0x0100\n      exp\n      swap1\n      div\n      0xffffffffffffffffffffffffffffffffffffffff\n      and\n      dup2\n      jump\t// out\n        /* \"Voting.sol\":2791:2831  mapping(address => bool) public hasVoted */\n    tag_22:\n      mstore(0x20, 0x03)\n      dup1\n      0x00\n      mstore\n      keccak256(0x00, 0x40)\n      0x00\n      swap2\n      pop\n      sload\n      swap1\n      0x0100\n      exp\n      swap1\n      div\n      0xff\n      and\n      dup2\n      jump\t// out\n        /* \"Voting.sol\":3916:4004  function getAddress() external view returns (address) {\r... */\n    tag_26:\n        /* \"Voting.sol\":3961:3968  address */\n      0x00\n        /* \"Voting.sol\":3988:3996  _address */\n      0x01\n      0x00\n      swap1\n      sload\n      swap1\n      0x0100\n      exp\n      swap1\n      div\n      0xffffffffffffffffffffffffffffffffffffffff\n      and\n        /* \"Voting.sol\":3981:3996  return _address */\n      swap1\n      pop\n        /* \"Voting.sol\":3916:4004  function getAddress() external view returns (address) {\r... */\n      swap1\n      jump\t// out\n        /* \"Voting.sol\":2761:2784  Option[] public options */\n    tag_30:\n      0x02\n      dup2\n      dup2\n      sload\n      dup2\n      lt\n      tag_61\n      jumpi\n      0x00\n      dup1\n      revert\n    tag_61:\n      swap1\n      0x00\n      mstore\n      keccak256(0x00, 0x20)\n      swap1\n      0x02\n      mul\n      add\n      0x00\n      swap2\n      pop\n      swap1\n      pop\n      dup1\n      0x00\n      add\n      dup1\n      sload\n      tag_63\n      swap1\n      tag_64\n      jump\t// in\n    tag_63:\n      dup1\n      0x1f\n      add\n      0x20\n      dup1\n      swap2\n      div\n      mul\n      0x20\n      add\n      mload(0x40)\n      swap1\n      dup2\n      add\n      0x40\n      mstore\n      dup1\n      swap3\n      swap2\n      swap1\n      dup2\n      dup2\n      mstore\n      0x20\n      add\n      dup3\n      dup1\n      sload\n      tag_65\n      swap1\n      tag_64\n      jump\t// in\n    tag_65:\n      dup1\n      iszero\n      tag_66\n      jumpi\n      dup1\n      0x1f\n      lt\n      tag_67\n      jumpi\n      0x0100\n      dup1\n      dup4\n      sload\n      div\n      mul\n      dup4\n      mstore\n      swap2\n      0x20\n      add\n      swap2\n      jump(tag_66)\n    tag_67:\n      dup3\n      add\n      swap2\n      swap1\n      0x00\n      mstore\n      keccak256(0x00, 0x20)\n      swap1\n    tag_68:\n      dup2\n      sload\n      dup2\n      mstore\n      swap1\n      0x01\n      add\n      swap1\n      0x20\n      add\n      dup1\n      dup4\n      gt\n      tag_68\n      jumpi\n      dup3\n      swap1\n      sub\n      0x1f\n      and\n      dup3\n      add\n      swap2\n    tag_66:\n      pop\n      pop\n      pop\n      pop\n      pop\n      swap1\n      dup1\n      0x01\n      add\n      sload\n      swap1\n      pop\n      dup3\n      jump\t// out\n        /* \"Voting.sol\":3812:3908  function getAllOptions() public view returns (Option[] memory) {\r... */\n    tag_34:\n        /* \"Voting.sol\":3858:3873  Option[] memory */\n      0x60\n        /* \"Voting.sol\":3893:3900  options */\n      0x02\n        /* \"Voting.sol\":3886:3900  return options */\n      dup1\n      sload\n      dup1\n      0x20\n      mul\n      0x20\n      add\n      mload(0x40)\n      swap1\n      dup2\n      add\n      0x40\n      mstore\n      dup1\n      swap3\n      swap2\n      swap1\n      dup2\n      dup2\n      mstore\n      0x20\n      add\n      0x00\n      swap1\n    tag_70:\n      dup3\n      dup3\n      lt\n      iszero\n      tag_71\n      jumpi\n      dup4\n      dup3\n      swap1\n      0x00\n      mstore\n      keccak256(0x00, 0x20)\n      swap1\n      0x02\n      mul\n      add\n      mload(0x40)\n      dup1\n      0x40\n      add\n      0x40\n      mstore\n      swap1\n      dup2\n      0x00\n      dup3\n      add\n      dup1\n      sload\n      tag_73\n      swap1\n      tag_64\n      jump\t// in\n    tag_73:\n      dup1\n      0x1f\n      add\n      0x20\n      dup1\n      swap2\n      div\n      mul\n      0x20\n      add\n      mload(0x40)\n      swap1\n      dup2\n      add\n      0x40\n      mstore\n      dup1\n      swap3\n      swap2\n      swap1\n      dup2\n      dup2\n      mstore\n      0x20\n      add\n      dup3\n      dup1\n      sload\n      tag_74\n      swap1\n      tag_64\n      jump\t// in\n    tag_74:\n      dup1\n      iszero\n      tag_75\n      jumpi\n      dup1\n      0x1f\n      lt\n      tag_76\n      jumpi\n      0x0100\n      dup1\n      dup4\n      sload\n      div\n      mul\n      dup4\n      mstore\n      swap2\n      0x20\n      add\n      swap2\n      jump(tag_75)\n    tag_76:\n      dup3\n      add\n      swap2\n      swap1\n      0x00\n      mstore\n      keccak256(0x00, 0x20)\n      swap1\n    tag_77:\n      dup2\n      sload\n      dup2\n      mstore\n      swap1\n      0x01\n      add\n      swap1\n      0x20\n      add\n      dup1\n      dup4\n      gt\n      tag_77\n      jumpi\n      dup3\n      swap1\n      sub\n      0x1f\n      and\n      dup3\n      add\n      swap2\n    tag_75:\n      pop\n      pop\n      pop\n      pop\n      pop\n      dup2\n      mstore\n      0x20\n      add\n      0x01\n      dup3\n      add\n      sload\n      dup2\n      mstore\n      pop\n      pop\n      dup2\n      mstore\n      0x20\n      add\n      swap1\n      0x01\n      add\n      swap1\n      jump(tag_70)\n    tag_71:\n      pop\n      pop\n      pop\n      pop\n      swap1\n      pop\n        /* \"Voting.sol\":3812:3908  function getAllOptions() public view returns (Option[] memory) {\r... */\n      swap1\n      jump\t// out\n        /* \"Voting.sol\":3360:3548  function addOption(string memory optionName) public onlyCreator {\r... */\n    tag_40:\n        /* \"Voting.sol\":3006:3013  creator */\n      0x00\n      dup1\n      sload\n      swap1\n      0x0100\n      exp\n      swap1\n      div\n      0xffffffffffffffffffffffffffffffffffffffff\n      and\n        /* \"Voting.sol\":2992:3013  msg.sender == creator */\n      0xffffffffffffffffffffffffffffffffffffffff\n      and\n        /* \"Voting.sol\":2992:3002  msg.sender */\n      caller\n        /* \"Voting.sol\":2992:3013  msg.sender == creator */\n      0xffffffffffffffffffffffffffffffffffffffff\n      and\n      eq\n        /* \"Voting.sol\":2984:3053  require(msg.sender == creator, \"Only the pool's creator can do this\") */\n      tag_79\n      jumpi\n      mload(0x40)\n      0x08c379a000000000000000000000000000000000000000000000000000000000\n      dup2\n      mstore\n      0x04\n      add\n      tag_80\n      swap1\n      tag_81\n      jump\t// in\n    tag_80:\n      mload(0x40)\n      dup1\n      swap2\n      sub\n      swap1\n      revert\n    tag_79:\n        /* \"Voting.sol\":3435:3442  options */\n      0x02\n        /* \"Voting.sol\":3448:3488  Option({name: optionName, voteCount: 0}) */\n      mload(0x40)\n      dup1\n      0x40\n      add\n      0x40\n      mstore\n      dup1\n        /* \"Voting.sol\":3462:3472  optionName */\n      dup4\n        /* \"Voting.sol\":3448:3488  Option({name: optionName, voteCount: 0}) */\n      dup2\n      mstore\n      0x20\n      add\n        /* \"Voting.sol\":3485:3486  0 */\n      0x00\n        /* \"Voting.sol\":3448:3488  Option({name: optionName, voteCount: 0}) */\n      dup2\n      mstore\n      pop\n        /* \"Voting.sol\":3435:3489  options.push(Option({name: optionName, voteCount: 0})) */\n      swap1\n      dup1\n      0x01\n      dup2\n      sload\n      add\n      dup1\n      dup3\n      sstore\n      dup1\n      swap2\n      pop\n      pop\n      0x01\n      swap1\n      sub\n      swap1\n      0x00\n      mstore\n      keccak256(0x00, 0x20)\n      swap1\n      0x02\n      mul\n      add\n      0x00\n      swap1\n      swap2\n      swap1\n      swap2\n      swap1\n      swap2\n      pop\n      0x00\n      dup3\n      add\n      mload\n      dup2\n      0x00\n      add\n      swap1\n      dup1\n      mload\n      swap1\n      0x20\n      add\n      swap1\n      tag_84\n      swap3\n      swap2\n      swap1\n      tag_85\n      jump\t// in\n    tag_84:\n      pop\n      0x20\n      dup3\n      add\n      mload\n      dup2\n      0x01\n      add\n      sstore\n      pop\n      pop\n        /* \"Voting.sol\":3519:3527  _address */\n      0x01\n      0x00\n      swap1\n      sload\n      swap1\n      0x0100\n      exp\n      swap1\n      div\n      0xffffffffffffffffffffffffffffffffffffffff\n      and\n        /* \"Voting.sol\":3507:3540  OptionAdded(_address, optionName) */\n      0xffffffffffffffffffffffffffffffffffffffff\n      and\n      0xb15140cabc9ce07f1d06bc809d99097723e7b1da41316dc08dab9057a4939653\n        /* \"Voting.sol\":3529:3539  optionName */\n      dup3\n        /* \"Voting.sol\":3507:3540  OptionAdded(_address, optionName) */\n      mload(0x40)\n      tag_86\n      swap2\n      swap1\n      tag_87\n      jump\t// in\n    tag_86:\n      mload(0x40)\n      dup1\n      swap2\n      sub\n      swap1\n      log2\n        /* \"Voting.sol\":3360:3548  function addOption(string memory optionName) public onlyCreator {\r... */\n      pop\n      jump\t// out\n    tag_85:\n      dup3\n      dup1\n      sload\n      tag_88\n      swap1\n      tag_64\n      jump\t// in\n    tag_88:\n      swap1\n      0x00\n      mstore\n      keccak256(0x00, 0x20)\n      swap1\n      0x1f\n      add\n      0x20\n      swap1\n      div\n      dup2\n      add\n      swap3\n      dup3\n      tag_90\n      jumpi\n      0x00\n      dup6\n      sstore\n      jump(tag_89)\n    tag_90:\n      dup3\n      0x1f\n      lt\n      tag_91\n      jumpi\n      dup1\n      mload\n      not(0xff)\n      and\n      dup4\n      dup1\n      add\n      or\n      dup6\n      sstore\n      jump(tag_89)\n    tag_91:\n      dup3\n      dup1\n      add\n      0x01\n      add\n      dup6\n      sstore\n      dup3\n      iszero\n      tag_89\n      jumpi\n      swap2\n      dup3\n      add\n    tag_92:\n      dup3\n      dup2\n      gt\n      iszero\n      tag_93\n      jumpi\n      dup3\n      mload\n      dup3\n      sstore\n      swap2\n      0x20\n      add\n      swap2\n      swap1\n      0x01\n      add\n      swap1\n      jump(tag_92)\n    tag_93:\n    tag_89:\n      pop\n      swap1\n      pop\n      tag_94\n      swap2\n      swap1\n      tag_95\n      jump\t// in\n    tag_94:\n      pop\n      swap1\n      jump\t// out\n    tag_95:\n    tag_96:\n      dup1\n      dup3\n      gt\n      iszero\n      tag_97\n      jumpi\n      0x00\n      dup2\n      0x00\n      swap1\n      sstore\n      pop\n      0x01\n      add\n      jump(tag_96)\n    tag_97:\n      pop\n      swap1\n      jump\t// out\n        /* \"#utility.yul\":7:419   */\n    tag_99:\n        /* \"#utility.yul\":85:90   */\n      0x00\n        /* \"#utility.yul\":110:176   */\n      tag_101\n        /* \"#utility.yul\":126:175   */\n      tag_102\n        /* \"#utility.yul\":168:174   */\n      dup5\n        /* \"#utility.yul\":126:175   */\n      tag_103\n      jump\t// in\n    tag_102:\n        /* \"#utility.yul\":110:176   */\n      tag_104\n      jump\t// in\n    tag_101:\n        /* \"#utility.yul\":101:176   */\n      swap1\n      pop\n        /* \"#utility.yul\":199:205   */\n      dup3\n        /* \"#utility.yul\":192:197   */\n      dup2\n        /* \"#utility.yul\":185:206   */\n      mstore\n        /* \"#utility.yul\":237:241   */\n      0x20\n        /* \"#utility.yul\":230:235   */\n      dup2\n        /* \"#utility.yul\":226:242   */\n      add\n        /* \"#utility.yul\":275:278   */\n      dup5\n        /* \"#utility.yul\":266:272   */\n      dup5\n        /* \"#utility.yul\":261:264   */\n      dup5\n        /* \"#utility.yul\":257:273   */\n      add\n        /* \"#utility.yul\":254:279   */\n      gt\n        /* \"#utility.yul\":251:363   */\n      iszero\n      tag_105\n      jumpi\n        /* \"#utility.yul\":282:361   */\n      tag_106\n      tag_107\n      jump\t// in\n    tag_106:\n        /* \"#utility.yul\":251:363   */\n    tag_105:\n        /* \"#utility.yul\":372:413   */\n      tag_108\n        /* \"#utility.yul\":406:412   */\n      dup5\n        /* \"#utility.yul\":401:404   */\n      dup3\n        /* \"#utility.yul\":396:399   */\n      dup6\n        /* \"#utility.yul\":372:413   */\n      tag_109\n      jump\t// in\n    tag_108:\n        /* \"#utility.yul\":91:419   */\n      pop\n        /* \"#utility.yul\":7:419   */\n      swap4\n      swap3\n      pop\n      pop\n      pop\n      jump\t// out\n        /* \"#utility.yul\":425:564   */\n    tag_110:\n        /* \"#utility.yul\":471:476   */\n      0x00\n        /* \"#utility.yul\":509:515   */\n      dup2\n        /* \"#utility.yul\":496:516   */\n      calldataload\n        /* \"#utility.yul\":487:516   */\n      swap1\n      pop\n        /* \"#utility.yul\":525:558   */\n      tag_112\n        /* \"#utility.yul\":552:557   */\n      dup2\n        /* \"#utility.yul\":525:558   */\n      tag_113\n      jump\t// in\n    tag_112:\n        /* \"#utility.yul\":425:564   */\n      swap3\n      swap2\n      pop\n      pop\n      jump\t// out\n        /* \"#utility.yul\":584:924   */\n    tag_114:\n        /* \"#utility.yul\":640:645   */\n      0x00\n        /* \"#utility.yul\":689:692   */\n      dup3\n        /* \"#utility.yul\":682:686   */\n      0x1f\n        /* \"#utility.yul\":674:680   */\n      dup4\n        /* \"#utility.yul\":670:687   */\n      add\n        /* \"#utility.yul\":666:693   */\n      slt\n        /* \"#utility.yul\":656:778   */\n      tag_116\n      jumpi\n        /* \"#utility.yul\":697:776   */\n      tag_117\n      tag_118\n      jump\t// in\n    tag_117:\n        /* \"#utility.yul\":656:778   */\n    tag_116:\n        /* \"#utility.yul\":814:820   */\n      dup2\n        /* \"#utility.yul\":801:821   */\n      calldataload\n        /* \"#utility.yul\":839:918   */\n      tag_119\n        /* \"#utility.yul\":914:917   */\n      dup5\n        /* \"#utility.yul\":906:912   */\n      dup3\n        /* \"#utility.yul\":899:903   */\n      0x20\n        /* \"#utility.yul\":891:897   */\n      dup7\n        /* \"#utility.yul\":887:904   */\n      add\n        /* \"#utility.yul\":839:918   */\n      tag_99\n      jump\t// in\n    tag_119:\n        /* \"#utility.yul\":830:918   */\n      swap2\n      pop\n        /* \"#utility.yul\":646:924   */\n      pop\n        /* \"#utility.yul\":584:924   */\n      swap3\n      swap2\n      pop\n      pop\n      jump\t// out\n        /* \"#utility.yul\":930:1069   */\n    tag_120:\n        /* \"#utility.yul\":976:981   */\n      0x00\n        /* \"#utility.yul\":1014:1020   */\n      dup2\n        /* \"#utility.yul\":1001:1021   */\n      calldataload\n        /* \"#utility.yul\":992:1021   */\n      swap1\n      pop\n        /* \"#utility.yul\":1030:1063   */\n      tag_122\n        /* \"#utility.yul\":1057:1062   */\n      dup2\n        /* \"#utility.yul\":1030:1063   */\n      tag_123\n      jump\t// in\n    tag_122:\n        /* \"#utility.yul\":930:1069   */\n      swap3\n      swap2\n      pop\n      pop\n      jump\t// out\n        /* \"#utility.yul\":1075:1404   */\n    tag_21:\n        /* \"#utility.yul\":1134:1140   */\n      0x00\n        /* \"#utility.yul\":1183:1185   */\n      0x20\n        /* \"#utility.yul\":1171:1180   */\n      dup3\n        /* \"#utility.yul\":1162:1169   */\n      dup5\n        /* \"#utility.yul\":1158:1181   */\n      sub\n        /* \"#utility.yul\":1154:1186   */\n      slt\n        /* \"#utility.yul\":1151:1270   */\n      iszero\n      tag_125\n      jumpi\n        /* \"#utility.yul\":1189:1268   */\n      tag_126\n      tag_127\n      jump\t// in\n    tag_126:\n        /* \"#utility.yul\":1151:1270   */\n    tag_125:\n        /* \"#utility.yul\":1309:1310   */\n      0x00\n        /* \"#utility.yul\":1334:1387   */\n      tag_128\n        /* \"#utility.yul\":1379:1386   */\n      dup5\n        /* \"#utility.yul\":1370:1376   */\n      dup3\n        /* \"#utility.yul\":1359:1368   */\n      dup6\n        /* \"#utility.yul\":1355:1377   */\n      add\n        /* \"#utility.yul\":1334:1387   */\n      tag_110\n      jump\t// in\n    tag_128:\n        /* \"#utility.yul\":1324:1387   */\n      swap2\n      pop\n        /* \"#utility.yul\":1280:1397   */\n      pop\n        /* \"#utility.yul\":1075:1404   */\n      swap3\n      swap2\n      pop\n      pop\n      jump\t// out\n        /* \"#utility.yul\":1410:1919   */\n    tag_39:\n        /* \"#utility.yul\":1479:1485   */\n      0x00\n        /* \"#utility.yul\":1528:1530   */\n      0x20\n        /* \"#utility.yul\":1516:1525   */\n      dup3\n        /* \"#utility.yul\":1507:1514   */\n      dup5\n        /* \"#utility.yul\":1503:1526   */\n      sub\n        /* \"#utility.yul\":1499:1531   */\n      slt\n        /* \"#utility.yul\":1496:1615   */\n      iszero\n      tag_130\n      jumpi\n        /* \"#utility.yul\":1534:1613   */\n      tag_131\n      tag_127\n      jump\t// in\n    tag_131:\n        /* \"#utility.yul\":1496:1615   */\n    tag_130:\n        /* \"#utility.yul\":1682:1683   */\n      0x00\n        /* \"#utility.yul\":1671:1680   */\n      dup3\n        /* \"#utility.yul\":1667:1684   */\n      add\n        /* \"#utility.yul\":1654:1685   */\n      calldataload\n        /* \"#utility.yul\":1712:1730   */\n      0xffffffffffffffff\n        /* \"#utility.yul\":1704:1710   */\n      dup2\n        /* \"#utility.yul\":1701:1731   */\n      gt\n        /* \"#utility.yul\":1698:1815   */\n      iszero\n      tag_132\n      jumpi\n        /* \"#utility.yul\":1734:1813   */\n      tag_133\n      tag_134\n      jump\t// in\n    tag_133:\n        /* \"#utility.yul\":1698:1815   */\n    tag_132:\n        /* \"#utility.yul\":1839:1902   */\n      tag_135\n        /* \"#utility.yul\":1894:1901   */\n      dup5\n        /* \"#utility.yul\":1885:1891   */\n      dup3\n        /* \"#utility.yul\":1874:1883   */\n      dup6\n        /* \"#utility.yul\":1870:1892   */\n      add\n        /* \"#utility.yul\":1839:1902   */\n      tag_114\n      jump\t// in\n    tag_135:\n        /* \"#utility.yul\":1829:1902   */\n      swap2\n      pop\n        /* \"#utility.yul\":1625:1912   */\n      pop\n        /* \"#utility.yul\":1410:1919   */\n      swap3\n      swap2\n      pop\n      pop\n      jump\t// out\n        /* \"#utility.yul\":1925:2254   */\n    tag_13:\n        /* \"#utility.yul\":1984:1990   */\n      0x00\n        /* \"#utility.yul\":2033:2035   */\n      0x20\n        /* \"#utility.yul\":2021:2030   */\n      dup3\n        /* \"#utility.yul\":2012:2019   */\n      dup5\n        /* \"#utility.yul\":2008:2031   */\n      sub\n        /* \"#utility.yul\":2004:2036   */\n      slt\n        /* \"#utility.yul\":2001:2120   */\n      iszero\n      tag_137\n      jumpi\n        /* \"#utility.yul\":2039:2118   */\n      tag_138\n      tag_127\n      jump\t// in\n    tag_138:\n        /* \"#utility.yul\":2001:2120   */\n    tag_137:\n        /* \"#utility.yul\":2159:2160   */\n      0x00\n        /* \"#utility.yul\":2184:2237   */\n      tag_139\n        /* \"#utility.yul\":2229:2236   */\n      dup5\n        /* \"#utility.yul\":2220:2226   */\n      dup3\n        /* \"#utility.yul\":2209:2218   */\n      dup6\n        /* \"#utility.yul\":2205:2227   */\n      add\n        /* \"#utility.yul\":2184:2237   */\n      tag_120\n      jump\t// in\n    tag_139:\n        /* \"#utility.yul\":2174:2237   */\n      swap2\n      pop\n        /* \"#utility.yul\":2130:2247   */\n      pop\n        /* \"#utility.yul\":1925:2254   */\n      swap3\n      swap2\n      pop\n      pop\n      jump\t// out\n        /* \"#utility.yul\":2260:2508   */\n    tag_140:\n        /* \"#utility.yul\":2375:2385   */\n      0x00\n        /* \"#utility.yul\":2410:2502   */\n      tag_142\n        /* \"#utility.yul\":2498:2501   */\n      dup4\n        /* \"#utility.yul\":2490:2496   */\n      dup4\n        /* \"#utility.yul\":2410:2502   */\n      tag_143\n      jump\t// in\n    tag_142:\n        /* \"#utility.yul\":2396:2502   */\n      swap1\n      pop\n        /* \"#utility.yul\":2260:2508   */\n      swap3\n      swap2\n      pop\n      pop\n      jump\t// out\n        /* \"#utility.yul\":2514:2632   */\n    tag_144:\n        /* \"#utility.yul\":2601:2625   */\n      tag_146\n        /* \"#utility.yul\":2619:2624   */\n      dup2\n        /* \"#utility.yul\":2601:2625   */\n      tag_147\n      jump\t// in\n    tag_146:\n        /* \"#utility.yul\":2596:2599   */\n      dup3\n        /* \"#utility.yul\":2589:2626   */\n      mstore\n        /* \"#utility.yul\":2514:2632   */\n      pop\n      pop\n      jump\t// out\n        /* \"#utility.yul\":2690:3785   */\n    tag_148:\n        /* \"#utility.yul\":2855:2858   */\n      0x00\n        /* \"#utility.yul\":2884:2961   */\n      tag_150\n        /* \"#utility.yul\":2955:2960   */\n      dup3\n        /* \"#utility.yul\":2884:2961   */\n      tag_151\n      jump\t// in\n    tag_150:\n        /* \"#utility.yul\":2977:3086   */\n      tag_152\n        /* \"#utility.yul\":3079:3085   */\n      dup2\n        /* \"#utility.yul\":3074:3077   */\n      dup6\n        /* \"#utility.yul\":2977:3086   */\n      tag_153\n      jump\t// in\n    tag_152:\n        /* \"#utility.yul\":2970:3086   */\n      swap4\n      pop\n        /* \"#utility.yul\":3112:3115   */\n      dup4\n        /* \"#utility.yul\":3157:3161   */\n      0x20\n        /* \"#utility.yul\":3149:3155   */\n      dup3\n        /* \"#utility.yul\":3145:3162   */\n      mul\n        /* \"#utility.yul\":3140:3143   */\n      dup6\n        /* \"#utility.yul\":3136:3163   */\n      add\n        /* \"#utility.yul\":3187:3266   */\n      tag_154\n        /* \"#utility.yul\":3260:3265   */\n      dup6\n        /* \"#utility.yul\":3187:3266   */\n      tag_155\n      jump\t// in\n    tag_154:\n        /* \"#utility.yul\":3289:3296   */\n      dup1\n        /* \"#utility.yul\":3320:3321   */\n      0x00\n        /* \"#utility.yul\":3305:3740   */\n    tag_156:\n        /* \"#utility.yul\":3330:3336   */\n      dup6\n        /* \"#utility.yul\":3327:3328   */\n      dup2\n        /* \"#utility.yul\":3324:3337   */\n      lt\n        /* \"#utility.yul\":3305:3740   */\n      iszero\n      tag_158\n      jumpi\n        /* \"#utility.yul\":3401:3410   */\n      dup5\n        /* \"#utility.yul\":3395:3399   */\n      dup5\n        /* \"#utility.yul\":3391:3411   */\n      sub\n        /* \"#utility.yul\":3386:3389   */\n      dup10\n        /* \"#utility.yul\":3379:3412   */\n      mstore\n        /* \"#utility.yul\":3452:3458   */\n      dup2\n        /* \"#utility.yul\":3446:3459   */\n      mload\n        /* \"#utility.yul\":3480:3590   */\n      tag_159\n        /* \"#utility.yul\":3585:3589   */\n      dup6\n        /* \"#utility.yul\":3570:3583   */\n      dup3\n        /* \"#utility.yul\":3480:3590   */\n      tag_140\n      jump\t// in\n    tag_159:\n        /* \"#utility.yul\":3472:3590   */\n      swap5\n      pop\n        /* \"#utility.yul\":3613:3696   */\n      tag_160\n        /* \"#utility.yul\":3689:3695   */\n      dup4\n        /* \"#utility.yul\":3613:3696   */\n      tag_161\n      jump\t// in\n    tag_160:\n        /* \"#utility.yul\":3603:3696   */\n      swap3\n      pop\n        /* \"#utility.yul\":3725:3729   */\n      0x20\n        /* \"#utility.yul\":3720:3723   */\n      dup11\n        /* \"#utility.yul\":3716:3730   */\n      add\n        /* \"#utility.yul\":3709:3730   */\n      swap10\n      pop\n        /* \"#utility.yul\":3365:3740   */\n      pop\n        /* \"#utility.yul\":3352:3353   */\n      0x01\n        /* \"#utility.yul\":3349:3350   */\n      dup2\n        /* \"#utility.yul\":3345:3354   */\n      add\n        /* \"#utility.yul\":3340:3354   */\n      swap1\n      pop\n        /* \"#utility.yul\":3305:3740   */\n      jump(tag_156)\n    tag_158:\n        /* \"#utility.yul\":3309:3323   */\n      pop\n        /* \"#utility.yul\":3756:3760   */\n      dup3\n        /* \"#utility.yul\":3749:3760   */\n      swap8\n      pop\n        /* \"#utility.yul\":3776:3779   */\n      dup8\n        /* \"#utility.yul\":3769:3779   */\n      swap6\n      pop\n        /* \"#utility.yul\":2860:3785   */\n      pop\n      pop\n      pop\n      pop\n      pop\n        /* \"#utility.yul\":2690:3785   */\n      swap3\n      swap2\n      pop\n      pop\n      jump\t// out\n        /* \"#utility.yul\":3791:3900   */\n    tag_162:\n        /* \"#utility.yul\":3872:3893   */\n      tag_164\n        /* \"#utility.yul\":3887:3892   */\n      dup2\n        /* \"#utility.yul\":3872:3893   */\n      tag_165\n      jump\t// in\n    tag_164:\n        /* \"#utility.yul\":3867:3870   */\n      dup3\n        /* \"#utility.yul\":3860:3894   */\n      mstore\n        /* \"#utility.yul\":3791:3900   */\n      pop\n      pop\n      jump\t// out\n        /* \"#utility.yul\":3906:4250   */\n    tag_166:\n        /* \"#utility.yul\":3984:3987   */\n      0x00\n        /* \"#utility.yul\":4012:4051   */\n      tag_168\n        /* \"#utility.yul\":4045:4050   */\n      dup3\n        /* \"#utility.yul\":4012:4051   */\n      tag_169\n      jump\t// in\n    tag_168:\n        /* \"#utility.yul\":4067:4128   */\n      tag_170\n        /* \"#utility.yul\":4121:4127   */\n      dup2\n        /* \"#utility.yul\":4116:4119   */\n      dup6\n        /* \"#utility.yul\":4067:4128   */\n      tag_171\n      jump\t// in\n    tag_170:\n        /* \"#utility.yul\":4060:4128   */\n      swap4\n      pop\n        /* \"#utility.yul\":4137:4189   */\n      tag_172\n        /* \"#utility.yul\":4182:4188   */\n      dup2\n        /* \"#utility.yul\":4177:4180   */\n      dup6\n        /* \"#utility.yul\":4170:4174   */\n      0x20\n        /* \"#utility.yul\":4163:4168   */\n      dup7\n        /* \"#utility.yul\":4159:4175   */\n      add\n        /* \"#utility.yul\":4137:4189   */\n      tag_173\n      jump\t// in\n    tag_172:\n        /* \"#utility.yul\":4214:4243   */\n      tag_174\n        /* \"#utility.yul\":4236:4242   */\n      dup2\n        /* \"#utility.yul\":4214:4243   */\n      tag_175\n      jump\t// in\n    tag_174:\n        /* \"#utility.yul\":4209:4212   */\n      dup5\n        /* \"#utility.yul\":4205:4244   */\n      add\n        /* \"#utility.yul\":4198:4244   */\n      swap2\n      pop\n        /* \"#utility.yul\":3988:4250   */\n      pop\n        /* \"#utility.yul\":3906:4250   */\n      swap3\n      swap2\n      pop\n      pop\n      jump\t// out\n        /* \"#utility.yul\":4256:4620   */\n    tag_176:\n        /* \"#utility.yul\":4344:4347   */\n      0x00\n        /* \"#utility.yul\":4372:4411   */\n      tag_178\n        /* \"#utility.yul\":4405:4410   */\n      dup3\n        /* \"#utility.yul\":4372:4411   */\n      tag_169\n      jump\t// in\n    tag_178:\n        /* \"#utility.yul\":4427:4498   */\n      tag_179\n        /* \"#utility.yul\":4491:4497   */\n      dup2\n        /* \"#utility.yul\":4486:4489   */\n      dup6\n        /* \"#utility.yul\":4427:4498   */\n      tag_180\n      jump\t// in\n    tag_179:\n        /* \"#utility.yul\":4420:4498   */\n      swap4\n      pop\n        /* \"#utility.yul\":4507:4559   */\n      tag_181\n        /* \"#utility.yul\":4552:4558   */\n      dup2\n        /* \"#utility.yul\":4547:4550   */\n      dup6\n        /* \"#utility.yul\":4540:4544   */\n      0x20\n        /* \"#utility.yul\":4533:4538   */\n      dup7\n        /* \"#utility.yul\":4529:4545   */\n      add\n        /* \"#utility.yul\":4507:4559   */\n      tag_173\n      jump\t// in\n    tag_181:\n        /* \"#utility.yul\":4584:4613   */\n      tag_182\n        /* \"#utility.yul\":4606:4612   */\n      dup2\n        /* \"#utility.yul\":4584:4613   */\n      tag_175\n      jump\t// in\n    tag_182:\n        /* \"#utility.yul\":4579:4582   */\n      dup5\n        /* \"#utility.yul\":4575:4614   */\n      add\n        /* \"#utility.yul\":4568:4614   */\n      swap2\n      pop\n        /* \"#utility.yul\":4348:4620   */\n      pop\n        /* \"#utility.yul\":4256:4620   */\n      swap3\n      swap2\n      pop\n      pop\n      jump\t// out\n        /* \"#utility.yul\":4650:5452   */\n    tag_183:\n        /* \"#utility.yul\":4735:4738   */\n      0x00\n        /* \"#utility.yul\":4772:4777   */\n      dup2\n        /* \"#utility.yul\":4766:4778   */\n      sload\n        /* \"#utility.yul\":4801:4837   */\n      tag_185\n        /* \"#utility.yul\":4827:4836   */\n      dup2\n        /* \"#utility.yul\":4801:4837   */\n      tag_64\n      jump\t// in\n    tag_185:\n        /* \"#utility.yul\":4853:4924   */\n      tag_186\n        /* \"#utility.yul\":4917:4923   */\n      dup2\n        /* \"#utility.yul\":4912:4915   */\n      dup7\n        /* \"#utility.yul\":4853:4924   */\n      tag_180\n      jump\t// in\n    tag_186:\n        /* \"#utility.yul\":4846:4924   */\n      swap5\n      pop\n        /* \"#utility.yul\":4955:4956   */\n      0x01\n        /* \"#utility.yul\":4944:4953   */\n      dup3\n        /* \"#utility.yul\":4940:4957   */\n      and\n        /* \"#utility.yul\":4971:4972   */\n      0x00\n        /* \"#utility.yul\":4966:5101   */\n      dup2\n      eq\n      tag_188\n      jumpi\n        /* \"#utility.yul\":5115:5116   */\n      0x01\n        /* \"#utility.yul\":5110:5446   */\n      dup2\n      eq\n      tag_189\n      jumpi\n        /* \"#utility.yul\":4933:5446   */\n      jump(tag_187)\n        /* \"#utility.yul\":4966:5101   */\n    tag_188:\n        /* \"#utility.yul\":5050:5054   */\n      0xff\n        /* \"#utility.yul\":5046:5055   */\n      not\n        /* \"#utility.yul\":5035:5044   */\n      dup4\n        /* \"#utility.yul\":5031:5056   */\n      and\n        /* \"#utility.yul\":5026:5029   */\n      dup7\n        /* \"#utility.yul\":5019:5057   */\n      mstore\n        /* \"#utility.yul\":5086:5090   */\n      0x20\n        /* \"#utility.yul\":5081:5084   */\n      dup7\n        /* \"#utility.yul\":5077:5091   */\n      add\n        /* \"#utility.yul\":5070:5091   */\n      swap4\n      pop\n        /* \"#utility.yul\":4966:5101   */\n      jump(tag_187)\n        /* \"#utility.yul\":5110:5446   */\n    tag_189:\n        /* \"#utility.yul\":5177:5215   */\n      tag_190\n        /* \"#utility.yul\":5209:5214   */\n      dup6\n        /* \"#utility.yul\":5177:5215   */\n      tag_191\n      jump\t// in\n    tag_190:\n        /* \"#utility.yul\":5237:5238   */\n      0x00\n        /* \"#utility.yul\":5251:5405   */\n    tag_192:\n        /* \"#utility.yul\":5265:5271   */\n      dup4\n        /* \"#utility.yul\":5262:5263   */\n      dup2\n        /* \"#utility.yul\":5259:5272   */\n      lt\n        /* \"#utility.yul\":5251:5405   */\n      iszero\n      tag_194\n      jumpi\n        /* \"#utility.yul\":5339:5346   */\n      dup2\n        /* \"#utility.yul\":5333:5347   */\n      sload\n        /* \"#utility.yul\":5329:5330   */\n      dup2\n        /* \"#utility.yul\":5324:5327   */\n      dup10\n        /* \"#utility.yul\":5320:5331   */\n      add\n        /* \"#utility.yul\":5313:5348   */\n      mstore\n        /* \"#utility.yul\":5389:5390   */\n      0x01\n        /* \"#utility.yul\":5380:5387   */\n      dup3\n        /* \"#utility.yul\":5376:5391   */\n      add\n        /* \"#utility.yul\":5365:5391   */\n      swap2\n      pop\n        /* \"#utility.yul\":5287:5291   */\n      0x20\n        /* \"#utility.yul\":5284:5285   */\n      dup2\n        /* \"#utility.yul\":5280:5292   */\n      add\n        /* \"#utility.yul\":5275:5292   */\n      swap1\n      pop\n        /* \"#utility.yul\":5251:5405   */\n      jump(tag_192)\n    tag_194:\n        /* \"#utility.yul\":5434:5435   */\n      dup1\n        /* \"#utility.yul\":5429:5432   */\n      dup9\n        /* \"#utility.yul\":5425:5436   */\n      add\n        /* \"#utility.yul\":5418:5436   */\n      swap6\n      pop\n        /* \"#utility.yul\":5117:5446   */\n      pop\n      pop\n        /* \"#utility.yul\":4933:5446   */\n    tag_187:\n      pop\n        /* \"#utility.yul\":4739:5452   */\n      pop\n      pop\n        /* \"#utility.yul\":4650:5452   */\n      swap3\n      swap2\n      pop\n      pop\n      jump\t// out\n        /* \"#utility.yul\":5458:5824   */\n    tag_195:\n        /* \"#utility.yul\":5600:5603   */\n      0x00\n        /* \"#utility.yul\":5621:5688   */\n      tag_197\n        /* \"#utility.yul\":5685:5687   */\n      0x17\n        /* \"#utility.yul\":5680:5683   */\n      dup4\n        /* \"#utility.yul\":5621:5688   */\n      tag_180\n      jump\t// in\n    tag_197:\n        /* \"#utility.yul\":5614:5688   */\n      swap2\n      pop\n        /* \"#utility.yul\":5697:5790   */\n      tag_198\n        /* \"#utility.yul\":5786:5789   */\n      dup3\n        /* \"#utility.yul\":5697:5790   */\n      tag_199\n      jump\t// in\n    tag_198:\n        /* \"#utility.yul\":5815:5817   */\n      0x20\n        /* \"#utility.yul\":5810:5813   */\n      dup3\n        /* \"#utility.yul\":5806:5818   */\n      add\n        /* \"#utility.yul\":5799:5818   */\n      swap1\n      pop\n        /* \"#utility.yul\":5458:5824   */\n      swap2\n      swap1\n      pop\n      jump\t// out\n        /* \"#utility.yul\":5830:6196   */\n    tag_200:\n        /* \"#utility.yul\":5972:5975   */\n      0x00\n        /* \"#utility.yul\":5993:6060   */\n      tag_202\n        /* \"#utility.yul\":6057:6059   */\n      0x23\n        /* \"#utility.yul\":6052:6055   */\n      dup4\n        /* \"#utility.yul\":5993:6060   */\n      tag_180\n      jump\t// in\n    tag_202:\n        /* \"#utility.yul\":5986:6060   */\n      swap2\n      pop\n        /* \"#utility.yul\":6069:6162   */\n      tag_203\n        /* \"#utility.yul\":6158:6161   */\n      dup3\n        /* \"#utility.yul\":6069:6162   */\n      tag_204\n      jump\t// in\n    tag_203:\n        /* \"#utility.yul\":6187:6189   */\n      0x40\n        /* \"#utility.yul\":6182:6185   */\n      dup3\n        /* \"#utility.yul\":6178:6190   */\n      add\n        /* \"#utility.yul\":6171:6190   */\n      swap1\n      pop\n        /* \"#utility.yul\":5830:6196   */\n      swap2\n      swap1\n      pop\n      jump\t// out\n        /* \"#utility.yul\":6250:6847   */\n    tag_143:\n        /* \"#utility.yul\":6355:6358   */\n      0x00\n        /* \"#utility.yul\":6391:6395   */\n      0x40\n        /* \"#utility.yul\":6386:6389   */\n      dup4\n        /* \"#utility.yul\":6382:6396   */\n      add\n        /* \"#utility.yul\":6478:6482   */\n      0x00\n        /* \"#utility.yul\":6471:6476   */\n      dup4\n        /* \"#utility.yul\":6467:6483   */\n      add\n        /* \"#utility.yul\":6461:6484   */\n      mload\n        /* \"#utility.yul\":6531:6534   */\n      dup5\n        /* \"#utility.yul\":6525:6529   */\n      dup3\n        /* \"#utility.yul\":6521:6535   */\n      sub\n        /* \"#utility.yul\":6514:6518   */\n      0x00\n        /* \"#utility.yul\":6509:6512   */\n      dup7\n        /* \"#utility.yul\":6505:6519   */\n      add\n        /* \"#utility.yul\":6498:6536   */\n      mstore\n        /* \"#utility.yul\":6557:6630   */\n      tag_206\n        /* \"#utility.yul\":6625:6629   */\n      dup3\n        /* \"#utility.yul\":6611:6623   */\n      dup3\n        /* \"#utility.yul\":6557:6630   */\n      tag_166\n      jump\t// in\n    tag_206:\n        /* \"#utility.yul\":6549:6630   */\n      swap2\n      pop\n        /* \"#utility.yul\":6406:6641   */\n      pop\n        /* \"#utility.yul\":6728:6732   */\n      0x20\n        /* \"#utility.yul\":6721:6726   */\n      dup4\n        /* \"#utility.yul\":6717:6733   */\n      add\n        /* \"#utility.yul\":6711:6734   */\n      mload\n        /* \"#utility.yul\":6747:6810   */\n      tag_207\n        /* \"#utility.yul\":6804:6808   */\n      0x20\n        /* \"#utility.yul\":6799:6802   */\n      dup7\n        /* \"#utility.yul\":6795:6809   */\n      add\n        /* \"#utility.yul\":6781:6793   */\n      dup3\n        /* \"#utility.yul\":6747:6810   */\n      tag_208\n      jump\t// in\n    tag_207:\n        /* \"#utility.yul\":6651:6820   */\n      pop\n        /* \"#utility.yul\":6837:6841   */\n      dup1\n        /* \"#utility.yul\":6830:6841   */\n      swap2\n      pop\n        /* \"#utility.yul\":6360:6847   */\n      pop\n        /* \"#utility.yul\":6250:6847   */\n      swap3\n      swap2\n      pop\n      pop\n      jump\t// out\n        /* \"#utility.yul\":6853:6961   */\n    tag_208:\n        /* \"#utility.yul\":6930:6954   */\n      tag_210\n        /* \"#utility.yul\":6948:6953   */\n      dup2\n        /* \"#utility.yul\":6930:6954   */\n      tag_211\n      jump\t// in\n    tag_210:\n        /* \"#utility.yul\":6925:6928   */\n      dup3\n        /* \"#utility.yul\":6918:6955   */\n      mstore\n        /* \"#utility.yul\":6853:6961   */\n      pop\n      pop\n      jump\t// out\n        /* \"#utility.yul\":6967:7085   */\n    tag_212:\n        /* \"#utility.yul\":7054:7078   */\n      tag_214\n        /* \"#utility.yul\":7072:7077   */\n      dup2\n        /* \"#utility.yul\":7054:7078   */\n      tag_211\n      jump\t// in\n    tag_214:\n        /* \"#utility.yul\":7049:7052   */\n      dup3\n        /* \"#utility.yul\":7042:7079   */\n      mstore\n        /* \"#utility.yul\":6967:7085   */\n      pop\n      pop\n      jump\t// out\n        /* \"#utility.yul\":7091:7313   */\n    tag_18:\n        /* \"#utility.yul\":7184:7188   */\n      0x00\n        /* \"#utility.yul\":7222:7224   */\n      0x20\n        /* \"#utility.yul\":7211:7220   */\n      dup3\n        /* \"#utility.yul\":7207:7225   */\n      add\n        /* \"#utility.yul\":7199:7225   */\n      swap1\n      pop\n        /* \"#utility.yul\":7235:7306   */\n      tag_216\n        /* \"#utility.yul\":7303:7304   */\n      0x00\n        /* \"#utility.yul\":7292:7301   */\n      dup4\n        /* \"#utility.yul\":7288:7305   */\n      add\n        /* \"#utility.yul\":7279:7285   */\n      dup5\n        /* \"#utility.yul\":7235:7306   */\n      tag_144\n      jump\t// in\n    tag_216:\n        /* \"#utility.yul\":7091:7313   */\n      swap3\n      swap2\n      pop\n      pop\n      jump\t// out\n        /* \"#utility.yul\":7319:7784   */\n    tag_36:\n        /* \"#utility.yul\":7508:7512   */\n      0x00\n        /* \"#utility.yul\":7546:7548   */\n      0x20\n        /* \"#utility.yul\":7535:7544   */\n      dup3\n        /* \"#utility.yul\":7531:7549   */\n      add\n        /* \"#utility.yul\":7523:7549   */\n      swap1\n      pop\n        /* \"#utility.yul\":7595:7604   */\n      dup2\n        /* \"#utility.yul\":7589:7593   */\n      dup2\n        /* \"#utility.yul\":7585:7605   */\n      sub\n        /* \"#utility.yul\":7581:7582   */\n      0x00\n        /* \"#utility.yul\":7570:7579   */\n      dup4\n        /* \"#utility.yul\":7566:7583   */\n      add\n        /* \"#utility.yul\":7559:7606   */\n      mstore\n        /* \"#utility.yul\":7623:7777   */\n      tag_218\n        /* \"#utility.yul\":7772:7776   */\n      dup2\n        /* \"#utility.yul\":7763:7769   */\n      dup5\n        /* \"#utility.yul\":7623:7777   */\n      tag_148\n      jump\t// in\n    tag_218:\n        /* \"#utility.yul\":7615:7777   */\n      swap1\n      pop\n        /* \"#utility.yul\":7319:7784   */\n      swap3\n      swap2\n      pop\n      pop\n      jump\t// out\n        /* \"#utility.yul\":7790:8000   */\n    tag_24:\n        /* \"#utility.yul\":7877:7881   */\n      0x00\n        /* \"#utility.yul\":7915:7917   */\n      0x20\n        /* \"#utility.yul\":7904:7913   */\n      dup3\n        /* \"#utility.yul\":7900:7918   */\n      add\n        /* \"#utility.yul\":7892:7918   */\n      swap1\n      pop\n        /* \"#utility.yul\":7928:7993   */\n      tag_220\n        /* \"#utility.yul\":7990:7991   */\n      0x00\n        /* \"#utility.yul\":7979:7988   */\n      dup4\n        /* \"#utility.yul\":7975:7992   */\n      add\n        /* \"#utility.yul\":7966:7972   */\n      dup5\n        /* \"#utility.yul\":7928:7993   */\n      tag_162\n      jump\t// in\n    tag_220:\n        /* \"#utility.yul\":7790:8000   */\n      swap3\n      swap2\n      pop\n      pop\n      jump\t// out\n        /* \"#utility.yul\":8006:8319   */\n    tag_87:\n        /* \"#utility.yul\":8119:8123   */\n      0x00\n        /* \"#utility.yul\":8157:8159   */\n      0x20\n        /* \"#utility.yul\":8146:8155   */\n      dup3\n        /* \"#utility.yul\":8142:8160   */\n      add\n        /* \"#utility.yul\":8134:8160   */\n      swap1\n      pop\n        /* \"#utility.yul\":8206:8215   */\n      dup2\n        /* \"#utility.yul\":8200:8204   */\n      dup2\n        /* \"#utility.yul\":8196:8216   */\n      sub\n        /* \"#utility.yul\":8192:8193   */\n      0x00\n        /* \"#utility.yul\":8181:8190   */\n      dup4\n        /* \"#utility.yul\":8177:8194   */\n      add\n        /* \"#utility.yul\":8170:8217   */\n      mstore\n        /* \"#utility.yul\":8234:8312   */\n      tag_222\n        /* \"#utility.yul\":8307:8311   */\n      dup2\n        /* \"#utility.yul\":8298:8304   */\n      dup5\n        /* \"#utility.yul\":8234:8312   */\n      tag_176\n      jump\t// in\n    tag_222:\n        /* \"#utility.yul\":8226:8312   */\n      swap1\n      pop\n        /* \"#utility.yul\":8006:8319   */\n      swap3\n      swap2\n      pop\n      pop\n      jump\t// out\n        /* \"#utility.yul\":8325:8748   */\n    tag_32:\n        /* \"#utility.yul\":8466:8470   */\n      0x00\n        /* \"#utility.yul\":8504:8506   */\n      0x40\n        /* \"#utility.yul\":8493:8502   */\n      dup3\n        /* \"#utility.yul\":8489:8507   */\n      add\n        /* \"#utility.yul\":8481:8507   */\n      swap1\n      pop\n        /* \"#utility.yul\":8553:8562   */\n      dup2\n        /* \"#utility.yul\":8547:8551   */\n      dup2\n        /* \"#utility.yul\":8543:8563   */\n      sub\n        /* \"#utility.yul\":8539:8540   */\n      0x00\n        /* \"#utility.yul\":8528:8537   */\n      dup4\n        /* \"#utility.yul\":8524:8541   */\n      add\n        /* \"#utility.yul\":8517:8564   */\n      mstore\n        /* \"#utility.yul\":8581:8659   */\n      tag_224\n        /* \"#utility.yul\":8654:8658   */\n      dup2\n        /* \"#utility.yul\":8645:8651   */\n      dup6\n        /* \"#utility.yul\":8581:8659   */\n      tag_176\n      jump\t// in\n    tag_224:\n        /* \"#utility.yul\":8573:8659   */\n      swap1\n      pop\n        /* \"#utility.yul\":8669:8741   */\n      tag_225\n        /* \"#utility.yul\":8737:8739   */\n      0x20\n        /* \"#utility.yul\":8726:8735   */\n      dup4\n        /* \"#utility.yul\":8722:8740   */\n      add\n        /* \"#utility.yul\":8713:8719   */\n      dup5\n        /* \"#utility.yul\":8669:8741   */\n      tag_212\n      jump\t// in\n    tag_225:\n        /* \"#utility.yul\":8325:8748   */\n      swap4\n      swap3\n      pop\n      pop\n      pop\n      jump\t// out\n        /* \"#utility.yul\":8754:9171   */\n    tag_59:\n        /* \"#utility.yul\":8892:8896   */\n      0x00\n        /* \"#utility.yul\":8930:8932   */\n      0x40\n        /* \"#utility.yul\":8919:8928   */\n      dup3\n        /* \"#utility.yul\":8915:8933   */\n      add\n        /* \"#utility.yul\":8907:8933   */\n      swap1\n      pop\n        /* \"#utility.yul\":8979:8988   */\n      dup2\n        /* \"#utility.yul\":8973:8977   */\n      dup2\n        /* \"#utility.yul\":8969:8989   */\n      sub\n        /* \"#utility.yul\":8965:8966   */\n      0x00\n        /* \"#utility.yul\":8954:8963   */\n      dup4\n        /* \"#utility.yul\":8950:8967   */\n      add\n        /* \"#utility.yul\":8943:8990   */\n      mstore\n        /* \"#utility.yul\":9007:9082   */\n      tag_227\n        /* \"#utility.yul\":9077:9081   */\n      dup2\n        /* \"#utility.yul\":9068:9074   */\n      dup6\n        /* \"#utility.yul\":9007:9082   */\n      tag_183\n      jump\t// in\n    tag_227:\n        /* \"#utility.yul\":8999:9082   */\n      swap1\n      pop\n        /* \"#utility.yul\":9092:9164   */\n      tag_228\n        /* \"#utility.yul\":9160:9162   */\n      0x20\n        /* \"#utility.yul\":9149:9158   */\n      dup4\n        /* \"#utility.yul\":9145:9163   */\n      add\n        /* \"#utility.yul\":9136:9142   */\n      dup5\n        /* \"#utility.yul\":9092:9164   */\n      tag_212\n      jump\t// in\n    tag_228:\n        /* \"#utility.yul\":8754:9171   */\n      swap4\n      swap3\n      pop\n      pop\n      pop\n      jump\t// out\n        /* \"#utility.yul\":9177:9596   */\n    tag_44:\n        /* \"#utility.yul\":9343:9347   */\n      0x00\n        /* \"#utility.yul\":9381:9383   */\n      0x20\n        /* \"#utility.yul\":9370:9379   */\n      dup3\n        /* \"#utility.yul\":9366:9384   */\n      add\n        /* \"#utility.yul\":9358:9384   */\n      swap1\n      pop\n        /* \"#utility.yul\":9430:9439   */\n      dup2\n        /* \"#utility.yul\":9424:9428   */\n      dup2\n        /* \"#utility.yul\":9420:9440   */\n      sub\n        /* \"#utility.yul\":9416:9417   */\n      0x00\n        /* \"#utility.yul\":9405:9414   */\n      dup4\n        /* \"#utility.yul\":9401:9418   */\n      add\n        /* \"#utility.yul\":9394:9441   */\n      mstore\n        /* \"#utility.yul\":9458:9589   */\n      tag_230\n        /* \"#utility.yul\":9584:9588   */\n      dup2\n        /* \"#utility.yul\":9458:9589   */\n      tag_195\n      jump\t// in\n    tag_230:\n        /* \"#utility.yul\":9450:9589   */\n      swap1\n      pop\n        /* \"#utility.yul\":9177:9596   */\n      swap2\n      swap1\n      pop\n      jump\t// out\n        /* \"#utility.yul\":9602:10021   */\n    tag_81:\n        /* \"#utility.yul\":9768:9772   */\n      0x00\n        /* \"#utility.yul\":9806:9808   */\n      0x20\n        /* \"#utility.yul\":9795:9804   */\n      dup3\n        /* \"#utility.yul\":9791:9809   */\n      add\n        /* \"#utility.yul\":9783:9809   */\n      swap1\n      pop\n        /* \"#utility.yul\":9855:9864   */\n      dup2\n        /* \"#utility.yul\":9849:9853   */\n      dup2\n        /* \"#utility.yul\":9845:9865   */\n      sub\n        /* \"#utility.yul\":9841:9842   */\n      0x00\n        /* \"#utility.yul\":9830:9839   */\n      dup4\n        /* \"#utility.yul\":9826:9843   */\n      add\n        /* \"#utility.yul\":9819:9866   */\n      mstore\n        /* \"#utility.yul\":9883:10014   */\n      tag_232\n        /* \"#utility.yul\":10009:10013   */\n      dup2\n        /* \"#utility.yul\":9883:10014   */\n      tag_200\n      jump\t// in\n    tag_232:\n        /* \"#utility.yul\":9875:10014   */\n      swap1\n      pop\n        /* \"#utility.yul\":9602:10021   */\n      swap2\n      swap1\n      pop\n      jump\t// out\n        /* \"#utility.yul\":10027:10156   */\n    tag_104:\n        /* \"#utility.yul\":10061:10067   */\n      0x00\n        /* \"#utility.yul\":10088:10108   */\n      tag_234\n      tag_235\n      jump\t// in\n    tag_234:\n        /* \"#utility.yul\":10078:10108   */\n      swap1\n      pop\n        /* \"#utility.yul\":10117:10150   */\n      tag_236\n        /* \"#utility.yul\":10145:10149   */\n      dup3\n        /* \"#utility.yul\":10137:10143   */\n      dup3\n        /* \"#utility.yul\":10117:10150   */\n      tag_237\n      jump\t// in\n    tag_236:\n        /* \"#utility.yul\":10027:10156   */\n      swap2\n      swap1\n      pop\n      jump\t// out\n        /* \"#utility.yul\":10162:10237   */\n    tag_235:\n        /* \"#utility.yul\":10195:10201   */\n      0x00\n        /* \"#utility.yul\":10228:10230   */\n      0x40\n        /* \"#utility.yul\":10222:10231   */\n      mload\n        /* \"#utility.yul\":10212:10231   */\n      swap1\n      pop\n        /* \"#utility.yul\":10162:10237   */\n      swap1\n      jump\t// out\n        /* \"#utility.yul\":10243:10551   */\n    tag_103:\n        /* \"#utility.yul\":10305:10309   */\n      0x00\n        /* \"#utility.yul\":10395:10413   */\n      0xffffffffffffffff\n        /* \"#utility.yul\":10387:10393   */\n      dup3\n        /* \"#utility.yul\":10384:10414   */\n      gt\n        /* \"#utility.yul\":10381:10437   */\n      iszero\n      tag_240\n      jumpi\n        /* \"#utility.yul\":10417:10435   */\n      tag_241\n      tag_242\n      jump\t// in\n    tag_241:\n        /* \"#utility.yul\":10381:10437   */\n    tag_240:\n        /* \"#utility.yul\":10455:10484   */\n      tag_243\n        /* \"#utility.yul\":10477:10483   */\n      dup3\n        /* \"#utility.yul\":10455:10484   */\n      tag_175\n      jump\t// in\n    tag_243:\n        /* \"#utility.yul\":10447:10484   */\n      swap1\n      pop\n        /* \"#utility.yul\":10539:10543   */\n      0x20\n        /* \"#utility.yul\":10533:10537   */\n      dup2\n        /* \"#utility.yul\":10529:10544   */\n      add\n        /* \"#utility.yul\":10521:10544   */\n      swap1\n      pop\n        /* \"#utility.yul\":10243:10551   */\n      swap2\n      swap1\n      pop\n      jump\t// out\n        /* \"#utility.yul\":10557:10712   */\n    tag_155:\n        /* \"#utility.yul\":10647:10651   */\n      0x00\n        /* \"#utility.yul\":10670:10673   */\n      dup2\n        /* \"#utility.yul\":10662:10673   */\n      swap1\n      pop\n        /* \"#utility.yul\":10700:10704   */\n      0x20\n        /* \"#utility.yul\":10695:10698   */\n      dup3\n        /* \"#utility.yul\":10691:10705   */\n      add\n        /* \"#utility.yul\":10683:10705   */\n      swap1\n      pop\n        /* \"#utility.yul\":10557:10712   */\n      swap2\n      swap1\n      pop\n      jump\t// out\n        /* \"#utility.yul\":10718:10859   */\n    tag_191:\n        /* \"#utility.yul\":10767:10771   */\n      0x00\n        /* \"#utility.yul\":10790:10793   */\n      dup2\n        /* \"#utility.yul\":10782:10793   */\n      swap1\n      pop\n        /* \"#utility.yul\":10813:10816   */\n      dup2\n        /* \"#utility.yul\":10810:10811   */\n      0x00\n        /* \"#utility.yul\":10803:10817   */\n      mstore\n        /* \"#utility.yul\":10847:10851   */\n      0x20\n        /* \"#utility.yul\":10844:10845   */\n      0x00\n        /* \"#utility.yul\":10834:10852   */\n      keccak256\n        /* \"#utility.yul\":10826:10852   */\n      swap1\n      pop\n        /* \"#utility.yul\":10718:10859   */\n      swap2\n      swap1\n      pop\n      jump\t// out\n        /* \"#utility.yul\":10865:11002   */\n    tag_151:\n        /* \"#utility.yul\":10955:10961   */\n      0x00\n        /* \"#utility.yul\":10989:10994   */\n      dup2\n        /* \"#utility.yul\":10983:10995   */\n      mload\n        /* \"#utility.yul\":10973:10995   */\n      swap1\n      pop\n        /* \"#utility.yul\":10865:11002   */\n      swap2\n      swap1\n      pop\n      jump\t// out\n        /* \"#utility.yul\":11008:11107   */\n    tag_169:\n        /* \"#utility.yul\":11060:11066   */\n      0x00\n        /* \"#utility.yul\":11094:11099   */\n      dup2\n        /* \"#utility.yul\":11088:11100   */\n      mload\n        /* \"#utility.yul\":11078:11100   */\n      swap1\n      pop\n        /* \"#utility.yul\":11008:11107   */\n      swap2\n      swap1\n      pop\n      jump\t// out\n        /* \"#utility.yul\":11113:11249   */\n    tag_161:\n        /* \"#utility.yul\":11206:11210   */\n      0x00\n        /* \"#utility.yul\":11238:11242   */\n      0x20\n        /* \"#utility.yul\":11233:11236   */\n      dup3\n        /* \"#utility.yul\":11229:11243   */\n      add\n        /* \"#utility.yul\":11221:11243   */\n      swap1\n      pop\n        /* \"#utility.yul\":11113:11249   */\n      swap2\n      swap1\n      pop\n      jump\t// out\n        /* \"#utility.yul\":11255:11462   */\n    tag_153:\n        /* \"#utility.yul\":11377:11388   */\n      0x00\n        /* \"#utility.yul\":11411:11417   */\n      dup3\n        /* \"#utility.yul\":11406:11409   */\n      dup3\n        /* \"#utility.yul\":11399:11418   */\n      mstore\n        /* \"#utility.yul\":11451:11455   */\n      0x20\n        /* \"#utility.yul\":11446:11449   */\n      dup3\n        /* \"#utility.yul\":11442:11456   */\n      add\n        /* \"#utility.yul\":11427:11456   */\n      swap1\n      pop\n        /* \"#utility.yul\":11255:11462   */\n      swap3\n      swap2\n      pop\n      pop\n      jump\t// out\n        /* \"#utility.yul\":11468:11627   */\n    tag_171:\n        /* \"#utility.yul\":11542:11553   */\n      0x00\n        /* \"#utility.yul\":11576:11582   */\n      dup3\n        /* \"#utility.yul\":11571:11574   */\n      dup3\n        /* \"#utility.yul\":11564:11583   */\n      mstore\n        /* \"#utility.yul\":11616:11620   */\n      0x20\n        /* \"#utility.yul\":11611:11614   */\n      dup3\n        /* \"#utility.yul\":11607:11621   */\n      add\n        /* \"#utility.yul\":11592:11621   */\n      swap1\n      pop\n        /* \"#utility.yul\":11468:11627   */\n      swap3\n      swap2\n      pop\n      pop\n      jump\t// out\n        /* \"#utility.yul\":11633:11802   */\n    tag_180:\n        /* \"#utility.yul\":11717:11728   */\n      0x00\n        /* \"#utility.yul\":11751:11757   */\n      dup3\n        /* \"#utility.yul\":11746:11749   */\n      dup3\n        /* \"#utility.yul\":11739:11758   */\n      mstore\n        /* \"#utility.yul\":11791:11795   */\n      0x20\n        /* \"#utility.yul\":11786:11789   */\n      dup3\n        /* \"#utility.yul\":11782:11796   */\n      add\n        /* \"#utility.yul\":11767:11796   */\n      swap1\n      pop\n        /* \"#utility.yul\":11633:11802   */\n      swap3\n      swap2\n      pop\n      pop\n      jump\t// out\n        /* \"#utility.yul\":11808:11904   */\n    tag_147:\n        /* \"#utility.yul\":11845:11852   */\n      0x00\n        /* \"#utility.yul\":11874:11898   */\n      tag_253\n        /* \"#utility.yul\":11892:11897   */\n      dup3\n        /* \"#utility.yul\":11874:11898   */\n      tag_254\n      jump\t// in\n    tag_253:\n        /* \"#utility.yul\":11863:11898   */\n      swap1\n      pop\n        /* \"#utility.yul\":11808:11904   */\n      swap2\n      swap1\n      pop\n      jump\t// out\n        /* \"#utility.yul\":11910:12000   */\n    tag_165:\n        /* \"#utility.yul\":11944:11951   */\n      0x00\n        /* \"#utility.yul\":11987:11992   */\n      dup2\n        /* \"#utility.yul\":11980:11993   */\n      iszero\n        /* \"#utility.yul\":11973:11994   */\n      iszero\n        /* \"#utility.yul\":11962:11994   */\n      swap1\n      pop\n        /* \"#utility.yul\":11910:12000   */\n      swap2\n      swap1\n      pop\n      jump\t// out\n        /* \"#utility.yul\":12006:12132   */\n    tag_254:\n        /* \"#utility.yul\":12043:12050   */\n      0x00\n        /* \"#utility.yul\":12083:12125   */\n      0xffffffffffffffffffffffffffffffffffffffff\n        /* \"#utility.yul\":12076:12081   */\n      dup3\n        /* \"#utility.yul\":12072:12126   */\n      and\n        /* \"#utility.yul\":12061:12126   */\n      swap1\n      pop\n        /* \"#utility.yul\":12006:12132   */\n      swap2\n      swap1\n      pop\n      jump\t// out\n        /* \"#utility.yul\":12138:12215   */\n    tag_211:\n        /* \"#utility.yul\":12175:12182   */\n      0x00\n        /* \"#utility.yul\":12204:12209   */\n      dup2\n        /* \"#utility.yul\":12193:12209   */\n      swap1\n      pop\n        /* \"#utility.yul\":12138:12215   */\n      swap2\n      swap1\n      pop\n      jump\t// out\n        /* \"#utility.yul\":12221:12375   */\n    tag_109:\n        /* \"#utility.yul\":12305:12311   */\n      dup3\n        /* \"#utility.yul\":12300:12303   */\n      dup2\n        /* \"#utility.yul\":12295:12298   */\n      dup4\n        /* \"#utility.yul\":12282:12312   */\n      calldatacopy\n        /* \"#utility.yul\":12367:12368   */\n      0x00\n        /* \"#utility.yul\":12358:12364   */\n      dup4\n        /* \"#utility.yul\":12353:12356   */\n      dup4\n        /* \"#utility.yul\":12349:12365   */\n      add\n        /* \"#utility.yul\":12342:12369   */\n      mstore\n        /* \"#utility.yul\":12221:12375   */\n      pop\n      pop\n      pop\n      jump\t// out\n        /* \"#utility.yul\":12381:12688   */\n    tag_173:\n        /* \"#utility.yul\":12449:12450   */\n      0x00\n        /* \"#utility.yul\":12459:12572   */\n    tag_260:\n        /* \"#utility.yul\":12473:12479   */\n      dup4\n        /* \"#utility.yul\":12470:12471   */\n      dup2\n        /* \"#utility.yul\":12467:12480   */\n      lt\n        /* \"#utility.yul\":12459:12572   */\n      iszero\n      tag_262\n      jumpi\n        /* \"#utility.yul\":12558:12559   */\n      dup1\n        /* \"#utility.yul\":12553:12556   */\n      dup3\n        /* \"#utility.yul\":12549:12560   */\n      add\n        /* \"#utility.yul\":12543:12561   */\n      mload\n        /* \"#utility.yul\":12539:12540   */\n      dup2\n        /* \"#utility.yul\":12534:12537   */\n      dup5\n        /* \"#utility.yul\":12530:12541   */\n      add\n        /* \"#utility.yul\":12523:12562   */\n      mstore\n        /* \"#utility.yul\":12495:12497   */\n      0x20\n        /* \"#utility.yul\":12492:12493   */\n      dup2\n        /* \"#utility.yul\":12488:12498   */\n      add\n        /* \"#utility.yul\":12483:12498   */\n      swap1\n      pop\n        /* \"#utility.yul\":12459:12572   */\n      jump(tag_260)\n    tag_262:\n        /* \"#utility.yul\":12590:12596   */\n      dup4\n        /* \"#utility.yul\":12587:12588   */\n      dup2\n        /* \"#utility.yul\":12584:12597   */\n      gt\n        /* \"#utility.yul\":12581:12682   */\n      iszero\n      tag_263\n      jumpi\n        /* \"#utility.yul\":12670:12671   */\n      0x00\n        /* \"#utility.yul\":12661:12667   */\n      dup5\n        /* \"#utility.yul\":12656:12659   */\n      dup5\n        /* \"#utility.yul\":12652:12668   */\n      add\n        /* \"#utility.yul\":12645:12672   */\n      mstore\n        /* \"#utility.yul\":12581:12682   */\n    tag_263:\n        /* \"#utility.yul\":12430:12688   */\n      pop\n        /* \"#utility.yul\":12381:12688   */\n      pop\n      pop\n      pop\n      jump\t// out\n        /* \"#utility.yul\":12694:13014   */\n    tag_64:\n        /* \"#utility.yul\":12738:12744   */\n      0x00\n        /* \"#utility.yul\":12775:12776   */\n      0x02\n        /* \"#utility.yul\":12769:12773   */\n      dup3\n        /* \"#utility.yul\":12765:12777   */\n      div\n        /* \"#utility.yul\":12755:12777   */\n      swap1\n      pop\n        /* \"#utility.yul\":12822:12823   */\n      0x01\n        /* \"#utility.yul\":12816:12820   */\n      dup3\n        /* \"#utility.yul\":12812:12824   */\n      and\n        /* \"#utility.yul\":12843:12861   */\n      dup1\n        /* \"#utility.yul\":12833:12914   */\n      tag_265\n      jumpi\n        /* \"#utility.yul\":12899:12903   */\n      0x7f\n        /* \"#utility.yul\":12891:12897   */\n      dup3\n        /* \"#utility.yul\":12887:12904   */\n      and\n        /* \"#utility.yul\":12877:12904   */\n      swap2\n      pop\n        /* \"#utility.yul\":12833:12914   */\n    tag_265:\n        /* \"#utility.yul\":12961:12963   */\n      0x20\n        /* \"#utility.yul\":12953:12959   */\n      dup3\n        /* \"#utility.yul\":12950:12964   */\n      lt\n        /* \"#utility.yul\":12930:12948   */\n      dup2\n        /* \"#utility.yul\":12927:12965   */\n      eq\n        /* \"#utility.yul\":12924:13008   */\n      iszero\n      tag_266\n      jumpi\n        /* \"#utility.yul\":12980:12998   */\n      tag_267\n      tag_268\n      jump\t// in\n    tag_267:\n        /* \"#utility.yul\":12924:13008   */\n    tag_266:\n        /* \"#utility.yul\":12745:13014   */\n      pop\n        /* \"#utility.yul\":12694:13014   */\n      swap2\n      swap1\n      pop\n      jump\t// out\n        /* \"#utility.yul\":13020:13301   */\n    tag_237:\n        /* \"#utility.yul\":13103:13130   */\n      tag_270\n        /* \"#utility.yul\":13125:13129   */\n      dup3\n        /* \"#utility.yul\":13103:13130   */\n      tag_175\n      jump\t// in\n    tag_270:\n        /* \"#utility.yul\":13095:13101   */\n      dup2\n        /* \"#utility.yul\":13091:13131   */\n      add\n        /* \"#utility.yul\":13233:13239   */\n      dup2\n        /* \"#utility.yul\":13221:13231   */\n      dup2\n        /* \"#utility.yul\":13218:13240   */\n      lt\n        /* \"#utility.yul\":13197:13215   */\n      0xffffffffffffffff\n        /* \"#utility.yul\":13185:13195   */\n      dup3\n        /* \"#utility.yul\":13182:13216   */\n      gt\n        /* \"#utility.yul\":13179:13241   */\n      or\n        /* \"#utility.yul\":13176:13264   */\n      iszero\n      tag_271\n      jumpi\n        /* \"#utility.yul\":13244:13262   */\n      tag_272\n      tag_242\n      jump\t// in\n    tag_272:\n        /* \"#utility.yul\":13176:13264   */\n    tag_271:\n        /* \"#utility.yul\":13284:13294   */\n      dup1\n        /* \"#utility.yul\":13280:13282   */\n      0x40\n        /* \"#utility.yul\":13273:13295   */\n      mstore\n        /* \"#utility.yul\":13063:13301   */\n      pop\n        /* \"#utility.yul\":13020:13301   */\n      pop\n      pop\n      jump\t// out\n        /* \"#utility.yul\":13307:13540   */\n    tag_51:\n        /* \"#utility.yul\":13346:13349   */\n      0x00\n        /* \"#utility.yul\":13369:13393   */\n      tag_274\n        /* \"#utility.yul\":13387:13392   */\n      dup3\n        /* \"#utility.yul\":13369:13393   */\n      tag_211\n      jump\t// in\n    tag_274:\n        /* \"#utility.yul\":13360:13393   */\n      swap2\n      pop\n        /* \"#utility.yul\":13415:13481   */\n      0xffffffffffffffffffffffffffffffffffffffffffffffffffffffffffffffff\n        /* \"#utility.yul\":13408:13413   */\n      dup3\n        /* \"#utility.yul\":13405:13482   */\n      eq\n        /* \"#utility.yul\":13402:13505   */\n      iszero\n      tag_275\n      jumpi\n        /* \"#utility.yul\":13485:13503   */\n      tag_276\n      tag_277\n      jump\t// in\n    tag_276:\n        /* \"#utility.yul\":13402:13505   */\n    tag_275:\n        /* \"#utility.yul\":13532:13533   */\n      0x01\n        /* \"#utility.yul\":13525:13530   */\n      dup3\n        /* \"#utility.yul\":13521:13534   */\n      add\n        /* \"#utility.yul\":13514:13534   */\n      swap1\n      pop\n        /* \"#utility.yul\":13307:13540   */\n      swap2\n      swap1\n      pop\n      jump\t// out\n        /* \"#utility.yul\":13546:13726   */\n    tag_277:\n        /* \"#utility.yul\":13594:13671   */\n      0x4e487b7100000000000000000000000000000000000000000000000000000000\n        /* \"#utility.yul\":13591:13592   */\n      0x00\n        /* \"#utility.yul\":13584:13672   */\n      mstore\n        /* \"#utility.yul\":13691:13695   */\n      0x11\n        /* \"#utility.yul\":13688:13689   */\n      0x04\n        /* \"#utility.yul\":13681:13696   */\n      mstore\n        /* \"#utility.yul\":13715:13719   */\n      0x24\n        /* \"#utility.yul\":13712:13713   */\n      0x00\n        /* \"#utility.yul\":13705:13720   */\n      revert\n        /* \"#utility.yul\":13732:13912   */\n    tag_268:\n        /* \"#utility.yul\":13780:13857   */\n      0x4e487b7100000000000000000000000000000000000000000000000000000000\n        /* \"#utility.yul\":13777:13778   */\n      0x00\n        /* \"#utility.yul\":13770:13858   */\n      mstore\n        /* \"#utility.yul\":13877:13881   */\n      0x22\n        /* \"#utility.yul\":13874:13875   */\n      0x04\n        /* \"#utility.yul\":13867:13882   */\n      mstore\n        /* \"#utility.yul\":13901:13905   */\n      0x24\n        /* \"#utility.yul\":13898:13899   */\n      0x00\n        /* \"#utility.yul\":13891:13906   */\n      revert\n        /* \"#utility.yul\":13918:14098   */\n    tag_48:\n        /* \"#utility.yul\":13966:14043   */\n      0x4e487b7100000000000000000000000000000000000000000000000000000000\n        /* \"#utility.yul\":13963:13964   */\n      0x00\n        /* \"#utility.yul\":13956:14044   */\n      mstore\n        /* \"#utility.yul\":14063:14067   */\n      0x32\n        /* \"#utility.yul\":14060:14061   */\n      0x04\n        /* \"#utility.yul\":14053:14068   */\n      mstore\n        /* \"#utility.yul\":14087:14091   */\n      0x24\n        /* \"#utility.yul\":14084:14085   */\n      0x00\n        /* \"#utility.yul\":14077:14092   */\n      revert\n        /* \"#utility.yul\":14104:14284   */\n    tag_242:\n        /* \"#utility.yul\":14152:14229   */\n      0x4e487b7100000000000000000000000000000000000000000000000000000000\n        /* \"#utility.yul\":14149:14150   */\n      0x00\n        /* \"#utility.yul\":14142:14230   */\n      mstore\n        /* \"#utility.yul\":14249:14253   */\n      0x41\n        /* \"#utility.yul\":14246:14247   */\n      0x04\n        /* \"#utility.yul\":14239:14254   */\n      mstore\n        /* \"#utility.yul\":14273:14277   */\n      0x24\n        /* \"#utility.yul\":14270:14271   */\n      0x00\n        /* \"#utility.yul\":14263:14278   */\n      revert\n        /* \"#utility.yul\":14290:14407   */\n    tag_118:\n        /* \"#utility.yul\":14399:14400   */\n      0x00\n        /* \"#utility.yul\":14396:14397   */\n      dup1\n        /* \"#utility.yul\":14389:14401   */\n      revert\n        /* \"#utility.yul\":14413:14530   */\n    tag_107:\n        /* \"#utility.yul\":14522:14523   */\n      0x00\n        /* \"#utility.yul\":14519:14520   */\n      dup1\n        /* \"#utility.yul\":14512:14524   */\n      revert\n        /* \"#utility.yul\":14536:14653   */\n    tag_134:\n        /* \"#utility.yul\":14645:14646   */\n      0x00\n        /* \"#utility.yul\":14642:14643   */\n      dup1\n        /* \"#utility.yul\":14635:14647   */\n      revert\n        /* \"#utility.yul\":14659:14776   */\n    tag_127:\n        /* \"#utility.yul\":14768:14769   */\n      0x00\n        /* \"#utility.yul\":14765:14766   */\n      dup1\n        /* \"#utility.yul\":14758:14770   */\n      revert\n        /* \"#utility.yul\":14782:14884   */\n    tag_175:\n        /* \"#utility.yul\":14823:14829   */\n      0x00\n        /* \"#utility.yul\":14874:14876   */\n      0x1f\n        /* \"#utility.yul\":14870:14877   */\n      not\n        /* \"#utility.yul\":14865:14867   */\n      0x1f\n        /* \"#utility.yul\":14858:14863   */\n      dup4\n        /* \"#utility.yul\":14854:14868   */\n      add\n        /* \"#utility.yul\":14850:14878   */\n      and\n        /* \"#utility.yul\":14840:14878   */\n      swap1\n      pop\n        /* \"#utility.yul\":14782:14884   */\n      swap2\n      swap1\n      pop\n      jump\t// out\n        /* \"#utility.yul\":14890:15063   */\n    tag_199:\n        /* \"#utility.yul\":15030:15055   */\n      0x596f752063616e206f6e6c7920766f7465206f6e636521000000000000000000\n        /* \"#utility.yul\":15026:15027   */\n      0x00\n        /* \"#utility.yul\":15018:15024   */\n      dup3\n        /* \"#utility.yul\":15014:15028   */\n      add\n        /* \"#utility.yul\":15007:15056   */\n      mstore\n        /* \"#utility.yul\":14890:15063   */\n      pop\n      jump\t// out\n        /* \"#utility.yul\":15069:15291   */\n    tag_204:\n        /* \"#utility.yul\":15209:15243   */\n      0x4f6e6c792074686520706f6f6c27732063726561746f722063616e20646f2074\n        /* \"#utility.yul\":15205:15206   */\n      0x00\n        /* \"#utility.yul\":15197:15203   */\n      dup3\n        /* \"#utility.yul\":15193:15207   */\n      add\n        /* \"#utility.yul\":15186:15244   */\n      mstore\n        /* \"#utility.yul\":15278:15283   */\n      0x6869730000000000000000000000000000000000000000000000000000000000\n        /* \"#utility.yul\":15273:15275   */\n      0x20\n        /* \"#utility.yul\":15265:15271   */\n      dup3\n        /* \"#utility.yul\":15261:15276   */\n      add\n        /* \"#utility.yul\":15254:15284   */\n      mstore\n        /* \"#utility.yul\":15069:15291   */\n      pop\n      jump\t// out\n        /* \"#utility.yul\":15297:15419   */\n    tag_113:\n        /* \"#utility.yul\":15370:15394   */\n      tag_290\n        /* \"#utility.yul\":15388:15393   */\n      dup2\n        /* \"#utility.yul\":15370:15394   */\n      tag_147\n      jump\t// in\n    tag_290:\n        /* \"#utility.yul\":15363:15368   */\n      dup2\n        /* \"#utility.yul\":15360:15395   */\n      eq\n        /* \"#utility.yul\":15350:15413   */\n      tag_291\n      jumpi\n        /* \"#utility.yul\":15409:15410   */\n      0x00\n        /* \"#utility.yul\":15406:15407   */\n      dup1\n        /* \"#utility.yul\":15399:15411   */\n      revert\n        /* \"#utility.yul\":15350:15413   */\n    tag_291:\n        /* \"#utility.yul\":15297:15419   */\n      pop\n      jump\t// out\n        /* \"#utility.yul\":15425:15547   */\n    tag_123:\n        /* \"#utility.yul\":15498:15522   */\n      tag_293\n        /* \"#utility.yul\":15516:15521   */\n      dup2\n        /* \"#utility.yul\":15498:15522   */\n      tag_211\n      jump\t// in\n    tag_293:\n        /* \"#utility.yul\":15491:15496   */\n      dup2\n        /* \"#utility.yul\":15488:15523   */\n      eq\n        /* \"#utility.yul\":15478:15541   */\n      tag_294\n      jumpi\n        /* \"#utility.yul\":15537:15538   */\n      0x00\n        /* \"#utility.yul\":15534:15535   */\n      dup1\n        /* \"#utility.yul\":15527:15539   */\n      revert\n        /* \"#utility.yul\":15478:15541   */\n    tag_294:\n        /* \"#utility.yul\":15425:15547   */\n      pop\n      jump\t// out\n\n    auxdata: 0xa26469706673582212209b1aa83ef1ca0ed1e85dd5660b4f18c75ee9c36965c89fba5e2f55a9a80d507f64736f6c63430008070033\n}\n",
				"bytecode": {
					"linkReferences": {},
					"object": "60806040523480156200001157600080fd5b5060405162001130380380620011308339818101604052810190620000379190620000d6565b806000806101000a81548173ffffffffffffffffffffffffffffffffffffffff021916908373ffffffffffffffffffffffffffffffffffffffff16021790555030600160006101000a81548173ffffffffffffffffffffffffffffffffffffffff021916908373ffffffffffffffffffffffffffffffffffffffff160217905550506200015b565b600081519050620000d08162000141565b92915050565b600060208284031215620000ef57620000ee6200013c565b5b6000620000ff84828501620000bf565b91505092915050565b600062000115826200011c565b9050919050565b600073ffffffffffffffffffffffffffffffffffffffff82169050919050565b600080fd5b6200014c8162000108565b81146200015857600080fd5b50565b610fc5806200016b6000396000f3fe608060405234801561001057600080fd5b506004361061007d5760003560e01c806338cc48311161005b57806338cc4831146100ec578063409e22051461010a5780634b4b0d371461013b578063edc550dc146101595761007d565b80630121b93f1461008257806302d05d3f1461009e57806309eef43e146100bc575b600080fd5b61009c60048036038101906100979190610880565b610175565b005b6100a661033d565b6040516100b39190610ae7565b60405180910390f35b6100d660048036038101906100d1919061080a565b610361565b6040516100e39190610b24565b60405180910390f35b6100f4610381565b6040516101019190610ae7565b60405180910390f35b610124600480360381019061011f9190610880565b6103ab565b604051610132929190610b61565b60405180910390f35b610143610467565b6040516101509190610b02565b60405180910390f35b610173600480360381019061016e9190610837565b610562565b005b60001515600360003373ffffffffffffffffffffffffffffffffffffffff1673ffffffffffffffffffffffffffffffffffffffff16815260200190815260200160002060009054906101000a900460ff16151514610208576040517f08c379a00000000000000000000000000000000000000000000000000000000081526004016101ff90610bc1565b60405180910390fd5b60003390506001600360008373ffffffffffffffffffffffffffffffffffffffff1673ffffffffffffffffffffffffffffffffffffffff16815260200190815260200160002060006101000a81548160ff0219169083151502179055506002828154811061027957610278610e66565b5b9060005260206000209060020201600101600081548092919061029b90610dbf565b91905055508073ffffffffffffffffffffffffffffffffffffffff167f9259118f8a771b63f3f3b7e3ba96eebf14e0b34421848a09e54e3af9d4d95633600284815481106102ec576102eb610e66565b5b90600052602060002090600202016000016002858154811061031157610310610e66565b5b906000526020600020906002020160010154604051610331929190610b91565b60405180910390a25050565b60008054906101000a900473ffffffffffffffffffffffffffffffffffffffff1681565b60036020528060005260406000206000915054906101000a900460ff1681565b6000600160009054906101000a900473ffffffffffffffffffffffffffffffffffffffff16905090565b600281815481106103bb57600080fd5b90600052602060002090600202016000915090508060000180546103de90610d5c565b80601f016020809104026020016040519081016040528092919081815260200182805461040a90610d5c565b80156104575780601f1061042c57610100808354040283529160200191610457565b820191906000526020600020905b81548152906001019060200180831161043a57829003601f168201915b5050505050908060010154905082565b60606002805480602002602001604051908101604052809291908181526020016000905b8282101561055957838290600052602060002090600202016040518060400160405290816000820180546104be90610d5c565b80601f01602080910402602001604051908101604052809291908181526020018280546104ea90610d5c565b80156105375780601f1061050c57610100808354040283529160200191610537565b820191906000526020600020905b81548152906001019060200180831161051a57829003601f168201915b505050505081526020016001820154815250508152602001906001019061048b565b50505050905090565b60008054906101000a900473ffffffffffffffffffffffffffffffffffffffff1673ffffffffffffffffffffffffffffffffffffffff163373ffffffffffffffffffffffffffffffffffffffff16146105f0576040517f08c379a00000000000000000000000000000000000000000000000000000000081526004016105e790610be1565b60405180910390fd5b6002604051806040016040528083815260200160008152509080600181540180825580915050600190039060005260206000209060020201600090919091909150600082015181600001908051906020019061064d9291906106cd565b50602082015181600101555050600160009054906101000a900473ffffffffffffffffffffffffffffffffffffffff1673ffffffffffffffffffffffffffffffffffffffff167fb15140cabc9ce07f1d06bc809d99097723e7b1da41316dc08dab9057a4939653826040516106c29190610b3f565b60405180910390a250565b8280546106d990610d5c565b90600052602060002090601f0160209004810192826106fb5760008555610742565b82601f1061071457805160ff1916838001178555610742565b82800160010185558215610742579182015b82811115610741578251825591602001919060010190610726565b5b50905061074f9190610753565b5090565b5b8082111561076c576000816000905550600101610754565b5090565b600061078361077e84610c26565b610c01565b90508281526020810184848401111561079f5761079e610ec9565b5b6107aa848285610d1a565b509392505050565b6000813590506107c181610f61565b92915050565b600082601f8301126107dc576107db610ec4565b5b81356107ec848260208601610770565b91505092915050565b60008135905061080481610f78565b92915050565b6000602082840312156108205761081f610ed3565b5b600061082e848285016107b2565b91505092915050565b60006020828403121561084d5761084c610ed3565b5b600082013567ffffffffffffffff81111561086b5761086a610ece565b5b610877848285016107c7565b91505092915050565b60006020828403121561089657610895610ed3565b5b60006108a4848285016107f5565b91505092915050565b60006108b98383610a8c565b905092915050565b6108ca81610cd2565b82525050565b60006108db82610c7c565b6108e58185610c9f565b9350836020820285016108f785610c57565b8060005b85811015610933578484038952815161091485826108ad565b945061091f83610c92565b925060208a019950506001810190506108fb565b50829750879550505050505092915050565b61094e81610ce4565b82525050565b600061095f82610c87565b6109698185610cb0565b9350610979818560208601610d29565b61098281610ed8565b840191505092915050565b600061099882610c87565b6109a28185610cc1565b93506109b2818560208601610d29565b6109bb81610ed8565b840191505092915050565b600081546109d381610d5c565b6109dd8186610cc1565b945060018216600081146109f85760018114610a0a57610a3d565b60ff1983168652602086019350610a3d565b610a1385610c67565b60005b83811015610a3557815481890152600182019150602081019050610a16565b808801955050505b50505092915050565b6000610a53601783610cc1565b9150610a5e82610ee9565b602082019050919050565b6000610a76602383610cc1565b9150610a8182610f12565b604082019050919050565b60006040830160008301518482036000860152610aa98282610954565b9150506020830151610abe6020860182610ac9565b508091505092915050565b610ad281610d10565b82525050565b610ae181610d10565b82525050565b6000602082019050610afc60008301846108c1565b92915050565b60006020820190508181036000830152610b1c81846108d0565b905092915050565b6000602082019050610b396000830184610945565b92915050565b60006020820190508181036000830152610b59818461098d565b905092915050565b60006040820190508181036000830152610b7b818561098d565b9050610b8a6020830184610ad8565b9392505050565b60006040820190508181036000830152610bab81856109c6565b9050610bba6020830184610ad8565b9392505050565b60006020820190508181036000830152610bda81610a46565b9050919050565b60006020820190508181036000830152610bfa81610a69565b9050919050565b6000610c0b610c1c565b9050610c178282610d8e565b919050565b6000604051905090565b600067ffffffffffffffff821115610c4157610c40610e95565b5b610c4a82610ed8565b9050602081019050919050565b6000819050602082019050919050565b60008190508160005260206000209050919050565b600081519050919050565b600081519050919050565b6000602082019050919050565b600082825260208201905092915050565b600082825260208201905092915050565b600082825260208201905092915050565b6000610cdd82610cf0565b9050919050565b60008115159050919050565b600073ffffffffffffffffffffffffffffffffffffffff82169050919050565b6000819050919050565b82818337600083830152505050565b60005b83811015610d47578082015181840152602081019050610d2c565b83811115610d56576000848401525b50505050565b60006002820490506001821680610d7457607f821691505b60208210811415610d8857610d87610e37565b5b50919050565b610d9782610ed8565b810181811067ffffffffffffffff82111715610db657610db5610e95565b5b80604052505050565b6000610dca82610d10565b91507fffffffffffffffffffffffffffffffffffffffffffffffffffffffffffffffff821415610dfd57610dfc610e08565b5b600182019050919050565b7f4e487b7100000000000000000000000000000000000000000000000000000000600052601160045260246000fd5b7f4e487b7100000000000000000000000000000000000000000000000000000000600052602260045260246000fd5b7f4e487b7100000000000000000000000000000000000000000000000000000000600052603260045260246000fd5b7f4e487b7100000000000000000000000000000000000000000000000000000000600052604160045260246000fd5b600080fd5b600080fd5b600080fd5b600080fd5b6000601f19601f8301169050919050565b7f596f752063616e206f6e6c7920766f7465206f6e636521000000000000000000600082015250565b7f4f6e6c792074686520706f6f6c27732063726561746f722063616e20646f207460008201527f6869730000000000000000000000000000000000000000000000000000000000602082015250565b610f6a81610cd2565b8114610f7557600080fd5b50565b610f8181610d10565b8114610f8c57600080fd5b5056fea26469706673582212209b1aa83ef1ca0ed1e85dd5660b4f18c75ee9c36965c89fba5e2f55a9a80d507f64736f6c63430008070033",
					"opcodes": "PUSH1 0x80 PUSH1 0x40 MSTORE CALLVALUE DUP1 ISZERO PUSH3 0x11 JUMPI PUSH1 0x0 DUP1 REVERT JUMPDEST POP PUSH1 0x40 MLOAD PUSH3 0x1130 CODESIZE SUB DUP1 PUSH3 0x1130 DUP4 CODECOPY DUP2 DUP2 ADD PUSH1 0x40 MSTORE DUP2 ADD SWAP1 PUSH3 0x37 SWAP2 SWAP1 PUSH3 0xD6 JUMP JUMPDEST DUP1 PUSH1 0x0 DUP1 PUSH2 0x100 EXP DUP2 SLOAD DUP2 PUSH20 0xFFFFFFFFFFFFFFFFFFFFFFFFFFFFFFFFFFFFFFFF MUL NOT AND SWAP1 DUP4 PUSH20 0xFFFFFFFFFFFFFFFFFFFFFFFFFFFFFFFFFFFFFFFF AND MUL OR SWAP1 SSTORE POP ADDRESS PUSH1 0x1 PUSH1 0x0 PUSH2 0x100 EXP DUP2 SLOAD DUP2 PUSH20 0xFFFFFFFFFFFFFFFFFFFFFFFFFFFFFFFFFFFFFFFF MUL NOT AND SWAP1 DUP4 PUSH20 0xFFFFFFFFFFFFFFFFFFFFFFFFFFFFFFFFFFFFFFFF AND MUL OR SWAP1 SSTORE POP POP PUSH3 0x15B JUMP JUMPDEST PUSH1 0x0 DUP2 MLOAD SWAP1 POP PUSH3 0xD0 DUP2 PUSH3 0x141 JUMP JUMPDEST SWAP3 SWAP2 POP POP JUMP JUMPDEST PUSH1 0x0 PUSH1 0x20 DUP3 DUP5 SUB SLT ISZERO PUSH3 0xEF JUMPI PUSH3 0xEE PUSH3 0x13C JUMP JUMPDEST JUMPDEST PUSH1 0x0 PUSH3 0xFF DUP5 DUP3 DUP6 ADD PUSH3 0xBF JUMP JUMPDEST SWAP2 POP POP SWAP3 SWAP2 POP POP JUMP JUMPDEST PUSH1 0x0 PUSH3 0x115 DUP3 PUSH3 0x11C JUMP JUMPDEST SWAP1 POP SWAP2 SWAP1 POP JUMP JUMPDEST PUSH1 0x0 PUSH20 0xFFFFFFFFFFFFFFFFFFFFFFFFFFFFFFFFFFFFFFFF DUP3 AND SWAP1 POP SWAP2 SWAP1 POP JUMP JUMPDEST PUSH1 0x0 DUP1 REVERT JUMPDEST PUSH3 0x14C DUP2 PUSH3 0x108 JUMP JUMPDEST DUP2 EQ PUSH3 0x158 JUMPI PUSH1 0x0 DUP1 REVERT JUMPDEST POP JUMP JUMPDEST PUSH2 0xFC5 DUP1 PUSH3 0x16B PUSH1 0x0 CODECOPY PUSH1 0x0 RETURN INVALID PUSH1 0x80 PUSH1 0x40 MSTORE CALLVALUE DUP1 ISZERO PUSH2 0x10 JUMPI PUSH1 0x0 DUP1 REVERT JUMPDEST POP PUSH1 0x4 CALLDATASIZE LT PUSH2 0x7D JUMPI PUSH1 0x0 CALLDATALOAD PUSH1 0xE0 SHR DUP1 PUSH4 0x38CC4831 GT PUSH2 0x5B JUMPI DUP1 PUSH4 0x38CC4831 EQ PUSH2 0xEC JUMPI DUP1 PUSH4 0x409E2205 EQ PUSH2 0x10A JUMPI DUP1 PUSH4 0x4B4B0D37 EQ PUSH2 0x13B JUMPI DUP1 PUSH4 0xEDC550DC EQ PUSH2 0x159 JUMPI PUSH2 0x7D JUMP JUMPDEST DUP1 PUSH4 0x121B93F EQ PUSH2 0x82 JUMPI DUP1 PUSH4 0x2D05D3F EQ PUSH2 0x9E JUMPI DUP1 PUSH4 0x9EEF43E EQ PUSH2 0xBC JUMPI JUMPDEST PUSH1 0x0 DUP1 REVERT JUMPDEST PUSH2 0x9C PUSH1 0x4 DUP1 CALLDATASIZE SUB DUP2 ADD SWAP1 PUSH2 0x97 SWAP2 SWAP1 PUSH2 0x880 JUMP JUMPDEST PUSH2 0x175 JUMP JUMPDEST STOP JUMPDEST PUSH2 0xA6 PUSH2 0x33D JUMP JUMPDEST PUSH1 0x40 MLOAD PUSH2 0xB3 SWAP2 SWAP1 PUSH2 0xAE7 JUMP JUMPDEST PUSH1 0x40 MLOAD DUP1 SWAP2 SUB SWAP1 RETURN JUMPDEST PUSH2 0xD6 PUSH1 0x4 DUP1 CALLDATASIZE SUB DUP2 ADD SWAP1 PUSH2 0xD1 SWAP2 SWAP1 PUSH2 0x80A JUMP JUMPDEST PUSH2 0x361 JUMP JUMPDEST PUSH1 0x40 MLOAD PUSH2 0xE3 SWAP2 SWAP1 PUSH2 0xB24 JUMP JUMPDEST PUSH1 0x40 MLOAD DUP1 SWAP2 SUB SWAP1 RETURN JUMPDEST PUSH2 0xF4 PUSH2 0x381 JUMP JUMPDEST PUSH1 0x40 MLOAD PUSH2 0x101 SWAP2 SWAP1 PUSH2 0xAE7 JUMP JUMPDEST PUSH1 0x40 MLOAD DUP1 SWAP2 SUB SWAP1 RETURN JUMPDEST PUSH2 0x124 PUSH1 0x4 DUP1 CALLDATASIZE SUB DUP2 ADD SWAP1 PUSH2 0x11F SWAP2 SWAP1 PUSH2 0x880 JUMP JUMPDEST PUSH2 0x3AB JUMP JUMPDEST PUSH1 0x40 MLOAD PUSH2 0x132 SWAP3 SWAP2 SWAP1 PUSH2 0xB61 JUMP JUMPDEST PUSH1 0x40 MLOAD DUP1 SWAP2 SUB SWAP1 RETURN JUMPDEST PUSH2 0x143 PUSH2 0x467 JUMP JUMPDEST PUSH1 0x40 MLOAD PUSH2 0x150 SWAP2 SWAP1 PUSH2 0xB02 JUMP JUMPDEST PUSH1 0x40 MLOAD DUP1 SWAP2 SUB SWAP1 RETURN JUMPDEST PUSH2 0x173 PUSH1 0x4 DUP1 CALLDATASIZE SUB DUP2 ADD SWAP1 PUSH2 0x16E SWAP2 SWAP1 PUSH2 0x837 JUMP JUMPDEST PUSH2 0x562 JUMP JUMPDEST STOP JUMPDEST PUSH1 0x0 ISZERO ISZERO PUSH1 0x3 PUSH1 0x0 CALLER PUSH20 0xFFFFFFFFFFFFFFFFFFFFFFFFFFFFFFFFFFFFFFFF AND PUSH20 0xFFFFFFFFFFFFFFFFFFFFFFFFFFFFFFFFFFFFFFFF AND DUP2 MSTORE PUSH1 0x20 ADD SWAP1 DUP2 MSTORE PUSH1 0x20 ADD PUSH1 0x0 KECCAK256 PUSH1 0x0 SWAP1 SLOAD SWAP1 PUSH2 0x100 EXP SWAP1 DIV PUSH1 0xFF AND ISZERO ISZERO EQ PUSH2 0x208 JUMPI PUSH1 0x40 MLOAD PUSH32 0x8C379A000000000000000000000000000000000000000000000000000000000 DUP2 MSTORE PUSH1 0x4 ADD PUSH2 0x1FF SWAP1 PUSH2 0xBC1 JUMP JUMPDEST PUSH1 0x40 MLOAD DUP1 SWAP2 SUB SWAP1 REVERT JUMPDEST PUSH1 0x0 CALLER SWAP1 POP PUSH1 0x1 PUSH1 0x3 PUSH1 0x0 DUP4 PUSH20 0xFFFFFFFFFFFFFFFFFFFFFFFFFFFFFFFFFFFFFFFF AND PUSH20 0xFFFFFFFFFFFFFFFFFFFFFFFFFFFFFFFFFFFFFFFF AND DUP2 MSTORE PUSH1 0x20 ADD SWAP1 DUP2 MSTORE PUSH1 0x20 ADD PUSH1 0x0 KECCAK256 PUSH1 0x0 PUSH2 0x100 EXP DUP2 SLOAD DUP2 PUSH1 0xFF MUL NOT AND SWAP1 DUP4 ISZERO ISZERO MUL OR SWAP1 SSTORE POP PUSH1 0x2 DUP3 DUP2 SLOAD DUP2 LT PUSH2 0x279 JUMPI PUSH2 0x278 PUSH2 0xE66 JUMP JUMPDEST JUMPDEST SWAP1 PUSH1 0x0 MSTORE PUSH1 0x20 PUSH1 0x0 KECCAK256 SWAP1 PUSH1 0x2 MUL ADD PUSH1 0x1 ADD PUSH1 0x0 DUP2 SLOAD DUP1 SWAP3 SWAP2 SWAP1 PUSH2 0x29B SWAP1 PUSH2 0xDBF JUMP JUMPDEST SWAP2 SWAP1 POP SSTORE POP DUP1 PUSH20 0xFFFFFFFFFFFFFFFFFFFFFFFFFFFFFFFFFFFFFFFF AND PUSH32 0x9259118F8A771B63F3F3B7E3BA96EEBF14E0B34421848A09E54E3AF9D4D95633 PUSH1 0x2 DUP5 DUP2 SLOAD DUP2 LT PUSH2 0x2EC JUMPI PUSH2 0x2EB PUSH2 0xE66 JUMP JUMPDEST JUMPDEST SWAP1 PUSH1 0x0 MSTORE PUSH1 0x20 PUSH1 0x0 KECCAK256 SWAP1 PUSH1 0x2 MUL ADD PUSH1 0x0 ADD PUSH1 0x2 DUP6 DUP2 SLOAD DUP2 LT PUSH2 0x311 JUMPI PUSH2 0x310 PUSH2 0xE66 JUMP JUMPDEST JUMPDEST SWAP1 PUSH1 0x0 MSTORE PUSH1 0x20 PUSH1 0x0 KECCAK256 SWAP1 PUSH1 0x2 MUL ADD PUSH1 0x1 ADD SLOAD PUSH1 0x40 MLOAD PUSH2 0x331 SWAP3 SWAP2 SWAP1 PUSH2 0xB91 JUMP JUMPDEST PUSH1 0x40 MLOAD DUP1 SWAP2 SUB SWAP1 LOG2 POP POP JUMP JUMPDEST PUSH1 0x0 DUP1 SLOAD SWAP1 PUSH2 0x100 EXP SWAP1 DIV PUSH20 0xFFFFFFFFFFFFFFFFFFFFFFFFFFFFFFFFFFFFFFFF AND DUP2 JUMP JUMPDEST PUSH1 0x3 PUSH1 0x20 MSTORE DUP1 PUSH1 0x0 MSTORE PUSH1 0x40 PUSH1 0x0 KECCAK256 PUSH1 0x0 SWAP2 POP SLOAD SWAP1 PUSH2 0x100 EXP SWAP1 DIV PUSH1 0xFF AND DUP2 JUMP JUMPDEST PUSH1 0x0 PUSH1 0x1 PUSH1 0x0 SWAP1 SLOAD SWAP1 PUSH2 0x100 EXP SWAP1 DIV PUSH20 0xFFFFFFFFFFFFFFFFFFFFFFFFFFFFFFFFFFFFFFFF AND SWAP1 POP SWAP1 JUMP JUMPDEST PUSH1 0x2 DUP2 DUP2 SLOAD DUP2 LT PUSH2 0x3BB JUMPI PUSH1 0x0 DUP1 REVERT JUMPDEST SWAP1 PUSH1 0x0 MSTORE PUSH1 0x20 PUSH1 0x0 KECCAK256 SWAP1 PUSH1 0x2 MUL ADD PUSH1 0x0 SWAP2 POP SWAP1 POP DUP1 PUSH1 0x0 ADD DUP1 SLOAD PUSH2 0x3DE SWAP1 PUSH2 0xD5C JUMP JUMPDEST DUP1 PUSH1 0x1F ADD PUSH1 0x20 DUP1 SWAP2 DIV MUL PUSH1 0x20 ADD PUSH1 0x40 MLOAD SWAP1 DUP2 ADD PUSH1 0x40 MSTORE DUP1 SWAP3 SWAP2 SWAP1 DUP2 DUP2 MSTORE PUSH1 0x20 ADD DUP3 DUP1 SLOAD PUSH2 0x40A SWAP1 PUSH2 0xD5C JUMP JUMPDEST DUP1 ISZERO PUSH2 0x457 JUMPI DUP1 PUSH1 0x1F LT PUSH2 0x42C JUMPI PUSH2 0x100 DUP1 DUP4 SLOAD DIV MUL DUP4 MSTORE SWAP2 PUSH1 0x20 ADD SWAP2 PUSH2 0x457 JUMP JUMPDEST DUP3 ADD SWAP2 SWAP1 PUSH1 0x0 MSTORE PUSH1 0x20 PUSH1 0x0 KECCAK256 SWAP1 JUMPDEST DUP2 SLOAD DUP2 MSTORE SWAP1 PUSH1 0x1 ADD SWAP1 PUSH1 0x20 ADD DUP1 DUP4 GT PUSH2 0x43A JUMPI DUP3 SWAP1 SUB PUSH1 0x1F AND DUP3 ADD SWAP2 JUMPDEST POP POP POP POP POP SWAP1 DUP1 PUSH1 0x1 ADD SLOAD SWAP1 POP DUP3 JUMP JUMPDEST PUSH1 0x60 PUSH1 0x2 DUP1 SLOAD DUP1 PUSH1 0x20 MUL PUSH1 0x20 ADD PUSH1 0x40 MLOAD SWAP1 DUP2 ADD PUSH1 0x40 MSTORE DUP1 SWAP3 SWAP2 SWAP1 DUP2 DUP2 MSTORE PUSH1 0x20 ADD PUSH1 0x0 SWAP1 JUMPDEST DUP3 DUP3 LT ISZERO PUSH2 0x559 JUMPI DUP4 DUP3 SWAP1 PUSH1 0x0 MSTORE PUSH1 0x20 PUSH1 0x0 KECCAK256 SWAP1 PUSH1 0x2 MUL ADD PUSH1 0x40 MLOAD DUP1 PUSH1 0x40 ADD PUSH1 0x40 MSTORE SWAP1 DUP2 PUSH1 0x0 DUP3 ADD DUP1 SLOAD PUSH2 0x4BE SWAP1 PUSH2 0xD5C JUMP JUMPDEST DUP1 PUSH1 0x1F ADD PUSH1 0x20 DUP1 SWAP2 DIV MUL PUSH1 0x20 ADD PUSH1 0x40 MLOAD SWAP1 DUP2 ADD PUSH1 0x40 MSTORE DUP1 SWAP3 SWAP2 SWAP1 DUP2 DUP2 MSTORE PUSH1 0x20 ADD DUP3 DUP1 SLOAD PUSH2 0x4EA SWAP1 PUSH2 0xD5C JUMP JUMPDEST DUP1 ISZERO PUSH2 0x537 JUMPI DUP1 PUSH1 0x1F LT PUSH2 0x50C JUMPI PUSH2 0x100 DUP1 DUP4 SLOAD DIV MUL DUP4 MSTORE SWAP2 PUSH1 0x20 ADD SWAP2 PUSH2 0x537 JUMP JUMPDEST DUP3 ADD SWAP2 SWAP1 PUSH1 0x0 MSTORE PUSH1 0x20 PUSH1 0x0 KECCAK256 SWAP1 JUMPDEST DUP2 SLOAD DUP2 MSTORE SWAP1 PUSH1 0x1 ADD SWAP1 PUSH1 0x20 ADD DUP1 DUP4 GT PUSH2 0x51A JUMPI DUP3 SWAP1 SUB PUSH1 0x1F AND DUP3 ADD SWAP2 JUMPDEST POP POP POP POP POP DUP2 MSTORE PUSH1 0x20 ADD PUSH1 0x1 DUP3 ADD SLOAD DUP2 MSTORE POP POP DUP2 MSTORE PUSH1 0x20 ADD SWAP1 PUSH1 0x1 ADD SWAP1 PUSH2 0x48B JUMP JUMPDEST POP POP POP POP SWAP1 POP SWAP1 JUMP JUMPDEST PUSH1 0x0 DUP1 SLOAD SWAP1 PUSH2 0x100 EXP SWAP1 DIV PUSH20 0xFFFFFFFFFFFFFFFFFFFFFFFFFFFFFFFFFFFFFFFF AND PUSH20 0xFFFFFFFFFFFFFFFFFFFFFFFFFFFFFFFFFFFFFFFF AND CALLER PUSH20 0xFFFFFFFFFFFFFFFFFFFFFFFFFFFFFFFFFFFFFFFF AND EQ PUSH2 0x5F0 JUMPI PUSH1 0x40 MLOAD PUSH32 0x8C379A000000000000000000000000000000000000000000000000000000000 DUP2 MSTORE PUSH1 0x4 ADD PUSH2 0x5E7 SWAP1 PUSH2 0xBE1 JUMP JUMPDEST PUSH1 0x40 MLOAD DUP1 SWAP2 SUB SWAP1 REVERT JUMPDEST PUSH1 0x2 PUSH1 0x40 MLOAD DUP1 PUSH1 0x40 ADD PUSH1 0x40 MSTORE DUP1 DUP4 DUP2 MSTORE PUSH1 0x20 ADD PUSH1 0x0 DUP2 MSTORE POP SWAP1 DUP1 PUSH1 0x1 DUP2 SLOAD ADD DUP1 DUP3 SSTORE DUP1 SWAP2 POP POP PUSH1 0x1 SWAP1 SUB SWAP1 PUSH1 0x0 MSTORE PUSH1 0x20 PUSH1 0x0 KECCAK256 SWAP1 PUSH1 0x2 MUL ADD PUSH1 0x0 SWAP1 SWAP2 SWAP1 SWAP2 SWAP1 SWAP2 POP PUSH1 0x0 DUP3 ADD MLOAD DUP2 PUSH1 0x0 ADD SWAP1 DUP1 MLOAD SWAP1 PUSH1 0x20 ADD SWAP1 PUSH2 0x64D SWAP3 SWAP2 SWAP1 PUSH2 0x6CD JUMP JUMPDEST POP PUSH1 0x20 DUP3 ADD MLOAD DUP2 PUSH1 0x1 ADD SSTORE POP POP PUSH1 0x1 PUSH1 0x0 SWAP1 SLOAD SWAP1 PUSH2 0x100 EXP SWAP1 DIV PUSH20 0xFFFFFFFFFFFFFFFFFFFFFFFFFFFFFFFFFFFFFFFF AND PUSH20 0xFFFFFFFFFFFFFFFFFFFFFFFFFFFFFFFFFFFFFFFF AND PUSH32 0xB15140CABC9CE07F1D06BC809D99097723E7B1DA41316DC08DAB9057A4939653 DUP3 PUSH1 0x40 MLOAD PUSH2 0x6C2 SWAP2 SWAP1 PUSH2 0xB3F JUMP JUMPDEST PUSH1 0x40 MLOAD DUP1 SWAP2 SUB SWAP1 LOG2 POP JUMP JUMPDEST DUP3 DUP1 SLOAD PUSH2 0x6D9 SWAP1 PUSH2 0xD5C JUMP JUMPDEST SWAP1 PUSH1 0x0 MSTORE PUSH1 0x20 PUSH1 0x0 KECCAK256 SWAP1 PUSH1 0x1F ADD PUSH1 0x20 SWAP1 DIV DUP2 ADD SWAP3 DUP3 PUSH2 0x6FB JUMPI PUSH1 0x0 DUP6 SSTORE PUSH2 0x742 JUMP JUMPDEST DUP3 PUSH1 0x1F LT PUSH2 0x714 JUMPI DUP1 MLOAD PUSH1 0xFF NOT AND DUP4 DUP1 ADD OR DUP6 SSTORE PUSH2 0x742 JUMP JUMPDEST DUP3 DUP1 ADD PUSH1 0x1 ADD DUP6 SSTORE DUP3 ISZERO PUSH2 0x742 JUMPI SWAP2 DUP3 ADD JUMPDEST DUP3 DUP2 GT ISZERO PUSH2 0x741 JUMPI DUP3 MLOAD DUP3 SSTORE SWAP2 PUSH1 0x20 ADD SWAP2 SWAP1 PUSH1 0x1 ADD SWAP1 PUSH2 0x726 JUMP JUMPDEST JUMPDEST POP SWAP1 POP PUSH2 0x74F SWAP2 SWAP1 PUSH2 0x753 JUMP JUMPDEST POP SWAP1 JUMP JUMPDEST JUMPDEST DUP1 DUP3 GT ISZERO PUSH2 0x76C JUMPI PUSH1 0x0 DUP2 PUSH1 0x0 SWAP1 SSTORE POP PUSH1 0x1 ADD PUSH2 0x754 JUMP JUMPDEST POP SWAP1 JUMP JUMPDEST PUSH1 0x0 PUSH2 0x783 PUSH2 0x77E DUP5 PUSH2 0xC26 JUMP JUMPDEST PUSH2 0xC01 JUMP JUMPDEST SWAP1 POP DUP3 DUP2 MSTORE PUSH1 0x20 DUP2 ADD DUP5 DUP5 DUP5 ADD GT ISZERO PUSH2 0x79F JUMPI PUSH2 0x79E PUSH2 0xEC9 JUMP JUMPDEST JUMPDEST PUSH2 0x7AA DUP5 DUP3 DUP6 PUSH2 0xD1A JUMP JUMPDEST POP SWAP4 SWAP3 POP POP POP JUMP JUMPDEST PUSH1 0x0 DUP2 CALLDATALOAD SWAP1 POP PUSH2 0x7C1 DUP2 PUSH2 0xF61 JUMP JUMPDEST SWAP3 SWAP2 POP POP JUMP JUMPDEST PUSH1 0x0 DUP3 PUSH1 0x1F DUP4 ADD SLT PUSH2 0x7DC JUMPI PUSH2 0x7DB PUSH2 0xEC4 JUMP JUMPDEST JUMPDEST DUP2 CALLDATALOAD PUSH2 0x7EC DUP5 DUP3 PUSH1 0x20 DUP7 ADD PUSH2 0x770 JUMP JUMPDEST SWAP2 POP POP SWAP3 SWAP2 POP POP JUMP JUMPDEST PUSH1 0x0 DUP2 CALLDATALOAD SWAP1 POP PUSH2 0x804 DUP2 PUSH2 0xF78 JUMP JUMPDEST SWAP3 SWAP2 POP POP JUMP JUMPDEST PUSH1 0x0 PUSH1 0x20 DUP3 DUP5 SUB SLT ISZERO PUSH2 0x820 JUMPI PUSH2 0x81F PUSH2 0xED3 JUMP JUMPDEST JUMPDEST PUSH1 0x0 PUSH2 0x82E DUP5 DUP3 DUP6 ADD PUSH2 0x7B2 JUMP JUMPDEST SWAP2 POP POP SWAP3 SWAP2 POP POP JUMP JUMPDEST PUSH1 0x0 PUSH1 0x20 DUP3 DUP5 SUB SLT ISZERO PUSH2 0x84D JUMPI PUSH2 0x84C PUSH2 0xED3 JUMP JUMPDEST JUMPDEST PUSH1 0x0 DUP3 ADD CALLDATALOAD PUSH8 0xFFFFFFFFFFFFFFFF DUP2 GT ISZERO PUSH2 0x86B JUMPI PUSH2 0x86A PUSH2 0xECE JUMP JUMPDEST JUMPDEST PUSH2 0x877 DUP5 DUP3 DUP6 ADD PUSH2 0x7C7 JUMP JUMPDEST SWAP2 POP POP SWAP3 SWAP2 POP POP JUMP JUMPDEST PUSH1 0x0 PUSH1 0x20 DUP3 DUP5 SUB SLT ISZERO PUSH2 0x896 JUMPI PUSH2 0x895 PUSH2 0xED3 JUMP JUMPDEST JUMPDEST PUSH1 0x0 PUSH2 0x8A4 DUP5 DUP3 DUP6 ADD PUSH2 0x7F5 JUMP JUMPDEST SWAP2 POP POP SWAP3 SWAP2 POP POP JUMP JUMPDEST PUSH1 0x0 PUSH2 0x8B9 DUP4 DUP4 PUSH2 0xA8C JUMP JUMPDEST SWAP1 POP SWAP3 SWAP2 POP POP JUMP JUMPDEST PUSH2 0x8CA DUP2 PUSH2 0xCD2 JUMP JUMPDEST DUP3 MSTORE POP POP JUMP JUMPDEST PUSH1 0x0 PUSH2 0x8DB DUP3 PUSH2 0xC7C JUMP JUMPDEST PUSH2 0x8E5 DUP2 DUP6 PUSH2 0xC9F JUMP JUMPDEST SWAP4 POP DUP4 PUSH1 0x20 DUP3 MUL DUP6 ADD PUSH2 0x8F7 DUP6 PUSH2 0xC57 JUMP JUMPDEST DUP1 PUSH1 0x0 JUMPDEST DUP6 DUP2 LT ISZERO PUSH2 0x933 JUMPI DUP5 DUP5 SUB DUP10 MSTORE DUP2 MLOAD PUSH2 0x914 DUP6 DUP3 PUSH2 0x8AD JUMP JUMPDEST SWAP5 POP PUSH2 0x91F DUP4 PUSH2 0xC92 JUMP JUMPDEST SWAP3 POP PUSH1 0x20 DUP11 ADD SWAP10 POP POP PUSH1 0x1 DUP2 ADD SWAP1 POP PUSH2 0x8FB JUMP JUMPDEST POP DUP3 SWAP8 POP DUP8 SWAP6 POP POP POP POP POP POP SWAP3 SWAP2 POP POP JUMP JUMPDEST PUSH2 0x94E DUP2 PUSH2 0xCE4 JUMP JUMPDEST DUP3 MSTORE POP POP JUMP JUMPDEST PUSH1 0x0 PUSH2 0x95F DUP3 PUSH2 0xC87 JUMP JUMPDEST PUSH2 0x969 DUP2 DUP6 PUSH2 0xCB0 JUMP JUMPDEST SWAP4 POP PUSH2 0x979 DUP2 DUP6 PUSH1 0x20 DUP7 ADD PUSH2 0xD29 JUMP JUMPDEST PUSH2 0x982 DUP2 PUSH2 0xED8 JUMP JUMPDEST DUP5 ADD SWAP2 POP POP SWAP3 SWAP2 POP POP JUMP JUMPDEST PUSH1 0x0 PUSH2 0x998 DUP3 PUSH2 0xC87 JUMP JUMPDEST PUSH2 0x9A2 DUP2 DUP6 PUSH2 0xCC1 JUMP JUMPDEST SWAP4 POP PUSH2 0x9B2 DUP2 DUP6 PUSH1 0x20 DUP7 ADD PUSH2 0xD29 JUMP JUMPDEST PUSH2 0x9BB DUP2 PUSH2 0xED8 JUMP JUMPDEST DUP5 ADD SWAP2 POP POP SWAP3 SWAP2 POP POP JUMP JUMPDEST PUSH1 0x0 DUP2 SLOAD PUSH2 0x9D3 DUP2 PUSH2 0xD5C JUMP JUMPDEST PUSH2 0x9DD DUP2 DUP7 PUSH2 0xCC1 JUMP JUMPDEST SWAP5 POP PUSH1 0x1 DUP3 AND PUSH1 0x0 DUP2 EQ PUSH2 0x9F8 JUMPI PUSH1 0x1 DUP2 EQ PUSH2 0xA0A JUMPI PUSH2 0xA3D JUMP JUMPDEST PUSH1 0xFF NOT DUP4 AND DUP7 MSTORE PUSH1 0x20 DUP7 ADD SWAP4 POP PUSH2 0xA3D JUMP JUMPDEST PUSH2 0xA13 DUP6 PUSH2 0xC67 JUMP JUMPDEST PUSH1 0x0 JUMPDEST DUP4 DUP2 LT ISZERO PUSH2 0xA35 JUMPI DUP2 SLOAD DUP2 DUP10 ADD MSTORE PUSH1 0x1 DUP3 ADD SWAP2 POP PUSH1 0x20 DUP2 ADD SWAP1 POP PUSH2 0xA16 JUMP JUMPDEST DUP1 DUP9 ADD SWAP6 POP POP POP JUMPDEST POP POP POP SWAP3 SWAP2 POP POP JUMP JUMPDEST PUSH1 0x0 PUSH2 0xA53 PUSH1 0x17 DUP4 PUSH2 0xCC1 JUMP JUMPDEST SWAP2 POP PUSH2 0xA5E DUP3 PUSH2 0xEE9 JUMP JUMPDEST PUSH1 0x20 DUP3 ADD SWAP1 POP SWAP2 SWAP1 POP JUMP JUMPDEST PUSH1 0x0 PUSH2 0xA76 PUSH1 0x23 DUP4 PUSH2 0xCC1 JUMP JUMPDEST SWAP2 POP PUSH2 0xA81 DUP3 PUSH2 0xF12 JUMP JUMPDEST PUSH1 0x40 DUP3 ADD SWAP1 POP SWAP2 SWAP1 POP JUMP JUMPDEST PUSH1 0x0 PUSH1 0x40 DUP4 ADD PUSH1 0x0 DUP4 ADD MLOAD DUP5 DUP3 SUB PUSH1 0x0 DUP7 ADD MSTORE PUSH2 0xAA9 DUP3 DUP3 PUSH2 0x954 JUMP JUMPDEST SWAP2 POP POP PUSH1 0x20 DUP4 ADD MLOAD PUSH2 0xABE PUSH1 0x20 DUP7 ADD DUP3 PUSH2 0xAC9 JUMP JUMPDEST POP DUP1 SWAP2 POP POP SWAP3 SWAP2 POP POP JUMP JUMPDEST PUSH2 0xAD2 DUP2 PUSH2 0xD10 JUMP JUMPDEST DUP3 MSTORE POP POP JUMP JUMPDEST PUSH2 0xAE1 DUP2 PUSH2 0xD10 JUMP JUMPDEST DUP3 MSTORE POP POP JUMP JUMPDEST PUSH1 0x0 PUSH1 0x20 DUP3 ADD SWAP1 POP PUSH2 0xAFC PUSH1 0x0 DUP4 ADD DUP5 PUSH2 0x8C1 JUMP JUMPDEST SWAP3 SWAP2 POP POP JUMP JUMPDEST PUSH1 0x0 PUSH1 0x20 DUP3 ADD SWAP1 POP DUP2 DUP2 SUB PUSH1 0x0 DUP4 ADD MSTORE PUSH2 0xB1C DUP2 DUP5 PUSH2 0x8D0 JUMP JUMPDEST SWAP1 POP SWAP3 SWAP2 POP POP JUMP JUMPDEST PUSH1 0x0 PUSH1 0x20 DUP3 ADD SWAP1 POP PUSH2 0xB39 PUSH1 0x0 DUP4 ADD DUP5 PUSH2 0x945 JUMP JUMPDEST SWAP3 SWAP2 POP POP JUMP JUMPDEST PUSH1 0x0 PUSH1 0x20 DUP3 ADD SWAP1 POP DUP2 DUP2 SUB PUSH1 0x0 DUP4 ADD MSTORE PUSH2 0xB59 DUP2 DUP5 PUSH2 0x98D JUMP JUMPDEST SWAP1 POP SWAP3 SWAP2 POP POP JUMP JUMPDEST PUSH1 0x0 PUSH1 0x40 DUP3 ADD SWAP1 POP DUP2 DUP2 SUB PUSH1 0x0 DUP4 ADD MSTORE PUSH2 0xB7B DUP2 DUP6 PUSH2 0x98D JUMP JUMPDEST SWAP1 POP PUSH2 0xB8A PUSH1 0x20 DUP4 ADD DUP5 PUSH2 0xAD8 JUMP JUMPDEST SWAP4 SWAP3 POP POP POP JUMP JUMPDEST PUSH1 0x0 PUSH1 0x40 DUP3 ADD SWAP1 POP DUP2 DUP2 SUB PUSH1 0x0 DUP4 ADD MSTORE PUSH2 0xBAB DUP2 DUP6 PUSH2 0x9C6 JUMP JUMPDEST SWAP1 POP PUSH2 0xBBA PUSH1 0x20 DUP4 ADD DUP5 PUSH2 0xAD8 JUMP JUMPDEST SWAP4 SWAP3 POP POP POP JUMP JUMPDEST PUSH1 0x0 PUSH1 0x20 DUP3 ADD SWAP1 POP DUP2 DUP2 SUB PUSH1 0x0 DUP4 ADD MSTORE PUSH2 0xBDA DUP2 PUSH2 0xA46 JUMP JUMPDEST SWAP1 POP SWAP2 SWAP1 POP JUMP JUMPDEST PUSH1 0x0 PUSH1 0x20 DUP3 ADD SWAP1 POP DUP2 DUP2 SUB PUSH1 0x0 DUP4 ADD MSTORE PUSH2 0xBFA DUP2 PUSH2 0xA69 JUMP JUMPDEST SWAP1 POP SWAP2 SWAP1 POP JUMP JUMPDEST PUSH1 0x0 PUSH2 0xC0B PUSH2 0xC1C JUMP JUMPDEST SWAP1 POP PUSH2 0xC17 DUP3 DUP3 PUSH2 0xD8E JUMP JUMPDEST SWAP2 SWAP1 POP JUMP JUMPDEST PUSH1 0x0 PUSH1 0x40 MLOAD SWAP1 POP SWAP1 JUMP JUMPDEST PUSH1 0x0 PUSH8 0xFFFFFFFFFFFFFFFF DUP3 GT ISZERO PUSH2 0xC41 JUMPI PUSH2 0xC40 PUSH2 0xE95 JUMP JUMPDEST JUMPDEST PUSH2 0xC4A DUP3 PUSH2 0xED8 JUMP JUMPDEST SWAP1 POP PUSH1 0x20 DUP2 ADD SWAP1 POP SWAP2 SWAP1 POP JUMP JUMPDEST PUSH1 0x0 DUP2 SWAP1 POP PUSH1 0x20 DUP3 ADD SWAP1 POP SWAP2 SWAP1 POP JUMP JUMPDEST PUSH1 0x0 DUP2 SWAP1 POP DUP2 PUSH1 0x0 MSTORE PUSH1 0x20 PUSH1 0x0 KECCAK256 SWAP1 POP SWAP2 SWAP1 POP JUMP JUMPDEST PUSH1 0x0 DUP2 MLOAD SWAP1 POP SWAP2 SWAP1 POP JUMP JUMPDEST PUSH1 0x0 DUP2 MLOAD SWAP1 POP SWAP2 SWAP1 POP JUMP JUMPDEST PUSH1 0x0 PUSH1 0x20 DUP3 ADD SWAP1 POP SWAP2 SWAP1 POP JUMP JUMPDEST PUSH1 0x0 DUP3 DUP3 MSTORE PUSH1 0x20 DUP3 ADD SWAP1 POP SWAP3 SWAP2 POP POP JUMP JUMPDEST PUSH1 0x0 DUP3 DUP3 MSTORE PUSH1 0x20 DUP3 ADD SWAP1 POP SWAP3 SWAP2 POP POP JUMP JUMPDEST PUSH1 0x0 DUP3 DUP3 MSTORE PUSH1 0x20 DUP3 ADD SWAP1 POP SWAP3 SWAP2 POP POP JUMP JUMPDEST PUSH1 0x0 PUSH2 0xCDD DUP3 PUSH2 0xCF0 JUMP JUMPDEST SWAP1 POP SWAP2 SWAP1 POP JUMP JUMPDEST PUSH1 0x0 DUP2 ISZERO ISZERO SWAP1 POP SWAP2 SWAP1 POP JUMP JUMPDEST PUSH1 0x0 PUSH20 0xFFFFFFFFFFFFFFFFFFFFFFFFFFFFFFFFFFFFFFFF DUP3 AND SWAP1 POP SWAP2 SWAP1 POP JUMP JUMPDEST PUSH1 0x0 DUP2 SWAP1 POP SWAP2 SWAP1 POP JUMP JUMPDEST DUP3 DUP2 DUP4 CALLDATACOPY PUSH1 0x0 DUP4 DUP4 ADD MSTORE POP POP POP JUMP JUMPDEST PUSH1 0x0 JUMPDEST DUP4 DUP2 LT ISZERO PUSH2 0xD47 JUMPI DUP1 DUP3 ADD MLOAD DUP2 DUP5 ADD MSTORE PUSH1 0x20 DUP2 ADD SWAP1 POP PUSH2 0xD2C JUMP JUMPDEST DUP4 DUP2 GT ISZERO PUSH2 0xD56 JUMPI PUSH1 0x0 DUP5 DUP5 ADD MSTORE JUMPDEST POP POP POP POP JUMP JUMPDEST PUSH1 0x0 PUSH1 0x2 DUP3 DIV SWAP1 POP PUSH1 0x1 DUP3 AND DUP1 PUSH2 0xD74 JUMPI PUSH1 0x7F DUP3 AND SWAP2 POP JUMPDEST PUSH1 0x20 DUP3 LT DUP2 EQ ISZERO PUSH2 0xD88 JUMPI PUSH2 0xD87 PUSH2 0xE37 JUMP JUMPDEST JUMPDEST POP SWAP2 SWAP1 POP JUMP JUMPDEST PUSH2 0xD97 DUP3 PUSH2 0xED8 JUMP JUMPDEST DUP2 ADD DUP2 DUP2 LT PUSH8 0xFFFFFFFFFFFFFFFF DUP3 GT OR ISZERO PUSH2 0xDB6 JUMPI PUSH2 0xDB5 PUSH2 0xE95 JUMP JUMPDEST JUMPDEST DUP1 PUSH1 0x40 MSTORE POP POP POP JUMP JUMPDEST PUSH1 0x0 PUSH2 0xDCA DUP3 PUSH2 0xD10 JUMP JUMPDEST SWAP2 POP PUSH32 0xFFFFFFFFFFFFFFFFFFFFFFFFFFFFFFFFFFFFFFFFFFFFFFFFFFFFFFFFFFFFFFFF DUP3 EQ ISZERO PUSH2 0xDFD JUMPI PUSH2 0xDFC PUSH2 0xE08 JUMP JUMPDEST JUMPDEST PUSH1 0x1 DUP3 ADD SWAP1 POP SWAP2 SWAP1 POP JUMP JUMPDEST PUSH32 0x4E487B7100000000000000000000000000000000000000000000000000000000 PUSH1 0x0 MSTORE PUSH1 0x11 PUSH1 0x4 MSTORE PUSH1 0x24 PUSH1 0x0 REVERT JUMPDEST PUSH32 0x4E487B7100000000000000000000000000000000000000000000000000000000 PUSH1 0x0 MSTORE PUSH1 0x22 PUSH1 0x4 MSTORE PUSH1 0x24 PUSH1 0x0 REVERT JUMPDEST PUSH32 0x4E487B7100000000000000000000000000000000000000000000000000000000 PUSH1 0x0 MSTORE PUSH1 0x32 PUSH1 0x4 MSTORE PUSH1 0x24 PUSH1 0x0 REVERT JUMPDEST PUSH32 0x4E487B7100000000000000000000000000000000000000000000000000000000 PUSH1 0x0 MSTORE PUSH1 0x41 PUSH1 0x4 MSTORE PUSH1 0x24 PUSH1 0x0 REVERT JUMPDEST PUSH1 0x0 DUP1 REVERT JUMPDEST PUSH1 0x0 DUP1 REVERT JUMPDEST PUSH1 0x0 DUP1 REVERT JUMPDEST PUSH1 0x0 DUP1 REVERT JUMPDEST PUSH1 0x0 PUSH1 0x1F NOT PUSH1 0x1F DUP4 ADD AND SWAP1 POP SWAP2 SWAP1 POP JUMP JUMPDEST PUSH32 0x596F752063616E206F6E6C7920766F7465206F6E636521000000000000000000 PUSH1 0x0 DUP3 ADD MSTORE POP JUMP JUMPDEST PUSH32 0x4F6E6C792074686520706F6F6C27732063726561746F722063616E20646F2074 PUSH1 0x0 DUP3 ADD MSTORE PUSH32 0x6869730000000000000000000000000000000000000000000000000000000000 PUSH1 0x20 DUP3 ADD MSTORE POP JUMP JUMPDEST PUSH2 0xF6A DUP2 PUSH2 0xCD2 JUMP JUMPDEST DUP2 EQ PUSH2 0xF75 JUMPI PUSH1 0x0 DUP1 REVERT JUMPDEST POP JUMP JUMPDEST PUSH2 0xF81 DUP2 PUSH2 0xD10 JUMP JUMPDEST DUP2 EQ PUSH2 0xF8C JUMPI PUSH1 0x0 DUP1 REVERT JUMPDEST POP JUMP INVALID LOG2 PUSH5 0x6970667358 0x22 SLT KECCAK256 SWAP12 BYTE 0xA8 RETURNDATACOPY CALL 0xCA 0xE 0xD1 0xE8 0x5D 0xD5 PUSH7 0xB4F18C75EE9C3 PUSH10 0x65C89FBA5E2F55A9A80D POP PUSH32 0x64736F6C63430008070033000000000000000000000000000000000000000000 "
				},
				"gasEstimates": {
					"creation": {
						"codeDepositCost": "807400",
						"executionCost": "infinite",
						"totalCost": "infinite"
					},
					"external": {
						"addOption(string)": "infinite",
						"creator()": "2534",
						"getAddress()": "2522",
						"getAllOptions()": "infinite",
						"hasVoted(address)": "2890",
						"options(uint256)": "infinite",
						"vote(uint256)": "infinite"
					}
				},
				"methodIdentifiers": {
					"addOption(string)": "edc550dc",
					"creator()": "02d05d3f",
					"getAddress()": "38cc4831",
					"getAllOptions()": "4b4b0d37",
					"hasVoted(address)": "09eef43e",
					"options(uint256)": "409e2205",
					"vote(uint256)": "0121b93f"
				}
			},
			"storageLayout": {
				"storage": [
					{
						"astId": 296,
						"contract": "Voting.sol:Poll",
						"label": "creator",
						"offset": 0,
						"slot": "0",
						"type": "t_address"
					},
					{
						"astId": 298,
						"contract": "Voting.sol:Poll",
						"label": "_address",
						"offset": 0,
						"slot": "1",
						"type": "t_address"
					},
					{
						"astId": 302,
						"contract": "Voting.sol:Poll",
						"label": "options",
						"offset": 0,
						"slot": "2",
						"type": "t_array(t_struct(Option)294_storage)dyn_storage"
					},
					{
						"astId": 306,
						"contract": "Voting.sol:Poll",
						"label": "hasVoted",
						"offset": 0,
						"slot": "3",
						"type": "t_mapping(t_address,t_bool)"
					}
				],
				"types": {
					"t_address": {
						"encoding": "inplace",
						"label": "address",
						"numberOfBytes": "20"
					},
					"t_array(t_struct(Option)294_storage)dyn_storage": {
						"base": "t_struct(Option)294_storage",
						"encoding": "dynamic_array",
						"label": "struct Poll.Option[]",
						"numberOfBytes": "32"
					},
					"t_bool": {
						"encoding": "inplace",
						"label": "bool",
						"numberOfBytes": "1"
					},
					"t_mapping(t_address,t_bool)": {
						"encoding": "mapping",
						"key": "t_address",
						"label": "mapping(address => bool)",
						"numberOfBytes": "32",
						"value": "t_bool"
					},
					"t_string_storage": {
						"encoding": "bytes",
						"label": "string",
						"numberOfBytes": "32"
					},
					"t_struct(Option)294_storage": {
						"encoding": "inplace",
						"label": "struct Poll.Option",
						"members": [
							{
								"astId": 291,
								"contract": "Voting.sol:Poll",
								"label": "name",
								"offset": 0,
								"slot": "0",
								"type": "t_string_storage"
							},
							{
								"astId": 293,
								"contract": "Voting.sol:Poll",
								"label": "voteCount",
								"offset": 0,
								"slot": "1",
								"type": "t_uint256"
							}
						],
						"numberOfBytes": "64"
					},
					"t_uint256": {
						"encoding": "inplace",
						"label": "uint256",
						"numberOfBytes": "32"
					}
				}
			},
			"userdoc": {
				"kind": "user",
				"methods": {},
				"version": 1
			}
		}
	}
}