{
	"Voting.sol": {
		"Election": {
			"abi": [
				{
					"inputs": [],
					"stateMutability": "nonpayable",
					"type": "constructor"
				},
				{
					"anonymous": false,
					"inputs": [
						{
							"indexed": true,
							"internalType": "address",
							"name": "voterAddress",
							"type": "address"
						},
						{
							"indexed": false,
							"internalType": "string",
							"name": "name",
							"type": "string"
						},
						{
							"indexed": false,
							"internalType": "uint8",
							"name": "votes",
							"type": "uint8"
						}
					],
					"name": "LogVote",
					"type": "event"
				},
				{
					"inputs": [
						{
							"internalType": "uint256",
							"name": "",
							"type": "uint256"
						}
					],
					"name": "candidates",
					"outputs": [
						{
							"internalType": "string",
							"name": "name",
							"type": "string"
						},
						{
							"internalType": "string",
							"name": "description",
							"type": "string"
						},
						{
							"internalType": "uint8",
							"name": "voteCount",
							"type": "uint8"
						}
					],
					"stateMutability": "view",
					"type": "function"
				},
				{
					"inputs": [],
					"name": "chairperson",
					"outputs": [
						{
							"internalType": "address",
							"name": "",
							"type": "address"
						}
					],
					"stateMutability": "view",
					"type": "function"
				},
				{
					"inputs": [],
					"name": "ended",
					"outputs": [
						{
							"internalType": "bool",
							"name": "",
							"type": "bool"
						}
					],
					"stateMutability": "view",
					"type": "function"
				},
				{
					"inputs": [],
					"name": "getWinner",
					"outputs": [
						{
							"components": [
								{
									"internalType": "string",
									"name": "name",
									"type": "string"
								},
								{
									"internalType": "string",
									"name": "description",
									"type": "string"
								},
								{
									"internalType": "uint8",
									"name": "voteCount",
									"type": "uint8"
								}
							],
							"internalType": "struct Election.Candidate",
							"name": "winner",
							"type": "tuple"
						}
					],
					"stateMutability": "view",
					"type": "function"
				},
				{
					"inputs": [
						{
							"internalType": "address",
							"name": "",
							"type": "address"
						}
					],
					"name": "hasVoted",
					"outputs": [
						{
							"internalType": "bool",
							"name": "",
							"type": "bool"
						}
					],
					"stateMutability": "view",
					"type": "function"
				},
				{
					"inputs": [
						{
							"internalType": "uint256",
							"name": "candidate",
							"type": "uint256"
						}
					],
					"name": "vote",
					"outputs": [],
					"stateMutability": "nonpayable",
					"type": "function"
				}
			],
			"devdoc": {
				"kind": "dev",
				"methods": {},
				"version": 1
			},
			"evm": {
				"assembly": "    /* \"Voting.sol\":303:1961  contract Election {\r... */\n  mstore(0x40, 0x80)\n    /* \"Voting.sol\":574:579  false */\n  0x00\n    /* \"Voting.sol\":554:579  bool public ended = false */\n  0x03\n  exp(0x0100, 0x00)\n  dup2\n  sload\n  dup2\n  0xff\n  mul\n  not\n  and\n  swap1\n  dup4\n  iszero\n  iszero\n  mul\n  or\n  swap1\n  sstore\n  pop\n    /* \"Voting.sol\":1147:1204  constructor() {\r... */\n  callvalue\n  dup1\n  iszero\n  tag_1\n  jumpi\n  0x00\n  dup1\n  revert\ntag_1:\n  pop\n    /* \"Voting.sol\":1186:1196  msg.sender */\n  caller\n    /* \"Voting.sol\":1172:1183  chairperson */\n  0x00\n  dup1\n    /* \"Voting.sol\":1172:1196  chairperson = msg.sender */\n  0x0100\n  exp\n  dup2\n  sload\n  dup2\n  0xffffffffffffffffffffffffffffffffffffffff\n  mul\n  not\n  and\n  swap1\n  dup4\n  0xffffffffffffffffffffffffffffffffffffffff\n  and\n  mul\n  or\n  swap1\n  sstore\n  pop\n    /* \"Voting.sol\":303:1961  contract Election {\r... */\n  dataSize(sub_0)\n  dup1\n  dataOffset(sub_0)\n  0x00\n  codecopy\n  0x00\n  return\nstop\n\nsub_0: assembly {\n        /* \"Voting.sol\":303:1961  contract Election {\r... */\n      mstore(0x40, 0x80)\n      callvalue\n      dup1\n      iszero\n      tag_1\n      jumpi\n      0x00\n      dup1\n      revert\n    tag_1:\n      pop\n      jumpi(tag_2, lt(calldatasize, 0x04))\n      shr(0xe0, calldataload(0x00))\n      dup1\n      0x0121b93f\n      eq\n      tag_3\n      jumpi\n      dup1\n      0x09eef43e\n      eq\n      tag_4\n      jumpi\n      dup1\n      0x12fa6feb\n      eq\n      tag_5\n      jumpi\n      dup1\n      0x2e4176cf\n      eq\n      tag_6\n      jumpi\n      dup1\n      0x3477ee2e\n      eq\n      tag_7\n      jumpi\n      dup1\n      0x8e7ea5b2\n      eq\n      tag_8\n      jumpi\n    tag_2:\n      0x00\n      dup1\n      revert\n        /* \"Voting.sol\":1212:1529  function vote(uint256 candidate) public hasNotVoted {\r... */\n    tag_3:\n      tag_9\n      0x04\n      dup1\n      calldatasize\n      sub\n      dup2\n      add\n      swap1\n      tag_10\n      swap2\n      swap1\n      tag_11\n      jump\t// in\n    tag_10:\n      tag_12\n      jump\t// in\n    tag_9:\n      stop\n        /* \"Voting.sol\":507:547  mapping(address => bool) public hasVoted */\n    tag_4:\n      tag_13\n      0x04\n      dup1\n      calldatasize\n      sub\n      dup2\n      add\n      swap1\n      tag_14\n      swap2\n      swap1\n      tag_15\n      jump\t// in\n    tag_14:\n      tag_16\n      jump\t// in\n    tag_13:\n      mload(0x40)\n      tag_17\n      swap2\n      swap1\n      tag_18\n      jump\t// in\n    tag_17:\n      mload(0x40)\n      dup1\n      swap2\n      sub\n      swap1\n      return\n        /* \"Voting.sol\":554:579  bool public ended = false */\n    tag_5:\n      tag_19\n      tag_20\n      jump\t// in\n    tag_19:\n      mload(0x40)\n      tag_21\n      swap2\n      swap1\n      tag_18\n      jump\t// in\n    tag_21:\n      mload(0x40)\n      dup1\n      swap2\n      sub\n      swap1\n      return\n        /* \"Voting.sol\":438:464  address public chairperson */\n    tag_6:\n      tag_22\n      tag_23\n      jump\t// in\n    tag_22:\n      mload(0x40)\n      tag_24\n      swap2\n      swap1\n      tag_25\n      jump\t// in\n    tag_24:\n      mload(0x40)\n      dup1\n      swap2\n      sub\n      swap1\n      return\n        /* \"Voting.sol\":471:500  Candidate[] public candidates */\n    tag_7:\n      tag_26\n      0x04\n      dup1\n      calldatasize\n      sub\n      dup2\n      add\n      swap1\n      tag_27\n      swap2\n      swap1\n      tag_11\n      jump\t// in\n    tag_27:\n      tag_28\n      jump\t// in\n    tag_26:\n      mload(0x40)\n      tag_29\n      swap4\n      swap3\n      swap2\n      swap1\n      tag_30\n      jump\t// in\n    tag_29:\n      mload(0x40)\n      dup1\n      swap2\n      sub\n      swap1\n      return\n        /* \"Voting.sol\":1537:1958  function getWinner() public view returns (Candidate memory winner) {\r... */\n    tag_8:\n      tag_31\n      tag_32\n      jump\t// in\n    tag_31:\n      mload(0x40)\n      tag_33\n      swap2\n      swap1\n      tag_34\n      jump\t// in\n    tag_33:\n      mload(0x40)\n      dup1\n      swap2\n      sub\n      swap1\n      return\n        /* \"Voting.sol\":1212:1529  function vote(uint256 candidate) public hasNotVoted {\r... */\n    tag_12:\n        /* \"Voting.sol\":885:890  false */\n      0x00\n        /* \"Voting.sol\":861:890  hasVoted[msg.sender] == false */\n      iszero\n      iszero\n        /* \"Voting.sol\":861:869  hasVoted */\n      0x02\n        /* \"Voting.sol\":861:881  hasVoted[msg.sender] */\n      0x00\n        /* \"Voting.sol\":870:880  msg.sender */\n      caller\n        /* \"Voting.sol\":861:881  hasVoted[msg.sender] */\n      0xffffffffffffffffffffffffffffffffffffffff\n      and\n      0xffffffffffffffffffffffffffffffffffffffff\n      and\n      dup2\n      mstore\n      0x20\n      add\n      swap1\n      dup2\n      mstore\n      0x20\n      add\n      0x00\n      keccak256\n      0x00\n      swap1\n      sload\n      swap1\n      0x0100\n      exp\n      swap1\n      div\n      0xff\n      and\n        /* \"Voting.sol\":861:890  hasVoted[msg.sender] == false */\n      iszero\n      iszero\n      eq\n        /* \"Voting.sol\":853:918  require(hasVoted[msg.sender] == false, \"You can only vote once!\") */\n      tag_36\n      jumpi\n      mload(0x40)\n      0x08c379a000000000000000000000000000000000000000000000000000000000\n      dup2\n      mstore\n      0x04\n      add\n      tag_37\n      swap1\n      tag_38\n      jump\t// in\n    tag_37:\n      mload(0x40)\n      dup1\n      swap2\n      sub\n      swap1\n      revert\n    tag_36:\n        /* \"Voting.sol\":1275:1288  address voter */\n      0x00\n        /* \"Voting.sol\":1291:1301  msg.sender */\n      caller\n        /* \"Voting.sol\":1275:1301  address voter = msg.sender */\n      swap1\n      pop\n        /* \"Voting.sol\":1330:1334  true */\n      0x01\n        /* \"Voting.sol\":1312:1320  hasVoted */\n      0x02\n        /* \"Voting.sol\":1312:1327  hasVoted[voter] */\n      0x00\n        /* \"Voting.sol\":1321:1326  voter */\n      dup4\n        /* \"Voting.sol\":1312:1327  hasVoted[voter] */\n      0xffffffffffffffffffffffffffffffffffffffff\n      and\n      0xffffffffffffffffffffffffffffffffffffffff\n      and\n      dup2\n      mstore\n      0x20\n      add\n      swap1\n      dup2\n      mstore\n      0x20\n      add\n      0x00\n      keccak256\n      0x00\n        /* \"Voting.sol\":1312:1334  hasVoted[voter] = true */\n      0x0100\n      exp\n      dup2\n      sload\n      dup2\n      0xff\n      mul\n      not\n      and\n      swap1\n      dup4\n      iszero\n      iszero\n      mul\n      or\n      swap1\n      sstore\n      pop\n        /* \"Voting.sol\":1345:1355  candidates */\n      0x01\n        /* \"Voting.sol\":1356:1365  candidate */\n      dup3\n        /* \"Voting.sol\":1345:1366  candidates[candidate] */\n      dup2\n      sload\n      dup2\n      lt\n      tag_40\n      jumpi\n      tag_41\n      tag_42\n      jump\t// in\n    tag_41:\n    tag_40:\n      swap1\n      0x00\n      mstore\n      keccak256(0x00, 0x20)\n      swap1\n      0x03\n      mul\n      add\n        /* \"Voting.sol\":1345:1376  candidates[candidate].voteCount */\n      0x02\n      add\n      0x00\n        /* \"Voting.sol\":1345:1378  candidates[candidate].voteCount++ */\n      dup2\n      dup2\n      swap1\n      sload\n      swap1\n      0x0100\n      exp\n      swap1\n      div\n      0xff\n      and\n      dup1\n      swap3\n      swap2\n      swap1\n      tag_44\n      swap1\n      tag_45\n      jump\t// in\n    tag_44:\n      swap2\n      swap1\n      0x0100\n      exp\n      dup2\n      sload\n      dup2\n      0xff\n      mul\n      not\n      and\n      swap1\n      dup4\n      0xff\n      and\n      mul\n      or\n      swap1\n      sstore\n      pop\n      pop\n        /* \"Voting.sol\":1418:1423  voter */\n      dup1\n        /* \"Voting.sol\":1396:1521  LogVote(\r... */\n      0xffffffffffffffffffffffffffffffffffffffff\n      and\n      0x49b41d09878c9bae21ceed50db0570c2a3fb297ee46d9afd8f9c672f2a118383\n        /* \"Voting.sol\":1438:1448  candidates */\n      0x01\n        /* \"Voting.sol\":1449:1458  candidate */\n      dup5\n        /* \"Voting.sol\":1438:1459  candidates[candidate] */\n      dup2\n      sload\n      dup2\n      lt\n      tag_46\n      jumpi\n      tag_47\n      tag_42\n      jump\t// in\n    tag_47:\n    tag_46:\n      swap1\n      0x00\n      mstore\n      keccak256(0x00, 0x20)\n      swap1\n      0x03\n      mul\n      add\n        /* \"Voting.sol\":1438:1464  candidates[candidate].name */\n      0x00\n      add\n        /* \"Voting.sol\":1479:1489  candidates */\n      0x01\n        /* \"Voting.sol\":1490:1499  candidate */\n      dup6\n        /* \"Voting.sol\":1479:1500  candidates[candidate] */\n      dup2\n      sload\n      dup2\n      lt\n      tag_49\n      jumpi\n      tag_50\n      tag_42\n      jump\t// in\n    tag_50:\n    tag_49:\n      swap1\n      0x00\n      mstore\n      keccak256(0x00, 0x20)\n      swap1\n      0x03\n      mul\n      add\n        /* \"Voting.sol\":1479:1510  candidates[candidate].voteCount */\n      0x02\n      add\n      0x00\n      swap1\n      sload\n      swap1\n      0x0100\n      exp\n      swap1\n      div\n      0xff\n      and\n        /* \"Voting.sol\":1396:1521  LogVote(\r... */\n      mload(0x40)\n      tag_52\n      swap3\n      swap2\n      swap1\n      tag_53\n      jump\t// in\n    tag_52:\n      mload(0x40)\n      dup1\n      swap2\n      sub\n      swap1\n      log2\n        /* \"Voting.sol\":1264:1529  {\r... */\n      pop\n        /* \"Voting.sol\":1212:1529  function vote(uint256 candidate) public hasNotVoted {\r... */\n      pop\n      jump\t// out\n        /* \"Voting.sol\":507:547  mapping(address => bool) public hasVoted */\n    tag_16:\n      mstore(0x20, 0x02)\n      dup1\n      0x00\n      mstore\n      keccak256(0x00, 0x40)\n      0x00\n      swap2\n      pop\n      sload\n      swap1\n      0x0100\n      exp\n      swap1\n      div\n      0xff\n      and\n      dup2\n      jump\t// out\n        /* \"Voting.sol\":554:579  bool public ended = false */\n    tag_20:\n      0x03\n      0x00\n      swap1\n      sload\n      swap1\n      0x0100\n      exp\n      swap1\n      div\n      0xff\n      and\n      dup2\n      jump\t// out\n        /* \"Voting.sol\":438:464  address public chairperson */\n    tag_23:\n      0x00\n      dup1\n      sload\n      swap1\n      0x0100\n      exp\n      swap1\n      div\n      0xffffffffffffffffffffffffffffffffffffffff\n      and\n      dup2\n      jump\t// out\n        /* \"Voting.sol\":471:500  Candidate[] public candidates */\n    tag_28:\n      0x01\n      dup2\n      dup2\n      sload\n      dup2\n      lt\n      tag_54\n      jumpi\n      0x00\n      dup1\n      revert\n    tag_54:\n      swap1\n      0x00\n      mstore\n      keccak256(0x00, 0x20)\n      swap1\n      0x03\n      mul\n      add\n      0x00\n      swap2\n      pop\n      swap1\n      pop\n      dup1\n      0x00\n      add\n      dup1\n      sload\n      tag_56\n      swap1\n      tag_57\n      jump\t// in\n    tag_56:\n      dup1\n      0x1f\n      add\n      0x20\n      dup1\n      swap2\n      div\n      mul\n      0x20\n      add\n      mload(0x40)\n      swap1\n      dup2\n      add\n      0x40\n      mstore\n      dup1\n      swap3\n      swap2\n      swap1\n      dup2\n      dup2\n      mstore\n      0x20\n      add\n      dup3\n      dup1\n      sload\n      tag_58\n      swap1\n      tag_57\n      jump\t// in\n    tag_58:\n      dup1\n      iszero\n      tag_59\n      jumpi\n      dup1\n      0x1f\n      lt\n      tag_60\n      jumpi\n      0x0100\n      dup1\n      dup4\n      sload\n      div\n      mul\n      dup4\n      mstore\n      swap2\n      0x20\n      add\n      swap2\n      jump(tag_59)\n    tag_60:\n      dup3\n      add\n      swap2\n      swap1\n      0x00\n      mstore\n      keccak256(0x00, 0x20)\n      swap1\n    tag_61:\n      dup2\n      sload\n      dup2\n      mstore\n      swap1\n      0x01\n      add\n      swap1\n      0x20\n      add\n      dup1\n      dup4\n      gt\n      tag_61\n      jumpi\n      dup3\n      swap1\n      sub\n      0x1f\n      and\n      dup3\n      add\n      swap2\n    tag_59:\n      pop\n      pop\n      pop\n      pop\n      pop\n      swap1\n      dup1\n      0x01\n      add\n      dup1\n      sload\n      tag_62\n      swap1\n      tag_57\n      jump\t// in\n    tag_62:\n      dup1\n      0x1f\n      add\n      0x20\n      dup1\n      swap2\n      div\n      mul\n      0x20\n      add\n      mload(0x40)\n      swap1\n      dup2\n      add\n      0x40\n      mstore\n      dup1\n      swap3\n      swap2\n      swap1\n      dup2\n      dup2\n      mstore\n      0x20\n      add\n      dup3\n      dup1\n      sload\n      tag_63\n      swap1\n      tag_57\n      jump\t// in\n    tag_63:\n      dup1\n      iszero\n      tag_64\n      jumpi\n      dup1\n      0x1f\n      lt\n      tag_65\n      jumpi\n      0x0100\n      dup1\n      dup4\n      sload\n      div\n      mul\n      dup4\n      mstore\n      swap2\n      0x20\n      add\n      swap2\n      jump(tag_64)\n    tag_65:\n      dup3\n      add\n      swap2\n      swap1\n      0x00\n      mstore\n      keccak256(0x00, 0x20)\n      swap1\n    tag_66:\n      dup2\n      sload\n      dup2\n      mstore\n      swap1\n      0x01\n      add\n      swap1\n      0x20\n      add\n      dup1\n      dup4\n      gt\n      tag_66\n      jumpi\n      dup3\n      swap1\n      sub\n      0x1f\n      and\n      dup3\n      add\n      swap2\n    tag_64:\n      pop\n      pop\n      pop\n      pop\n      pop\n      swap1\n      dup1\n      0x02\n      add\n      0x00\n      swap1\n      sload\n      swap1\n      0x0100\n      exp\n      swap1\n      div\n      0xff\n      and\n      swap1\n      pop\n      dup4\n      jump\t// out\n        /* \"Voting.sol\":1537:1958  function getWinner() public view returns (Candidate memory winner) {\r... */\n    tag_32:\n        /* \"Voting.sol\":1579:1602  Candidate memory winner */\n      tag_67\n      tag_68\n      jump\t// in\n    tag_67:\n        /* \"Voting.sol\":1643:1644  0 */\n      0x00\n        /* \"Voting.sol\":1623:1633  candidates */\n      0x01\n        /* \"Voting.sol\":1623:1640  candidates.length */\n      dup1\n      sload\n      swap1\n      pop\n        /* \"Voting.sol\":1623:1644  candidates.length > 0 */\n      gt\n        /* \"Voting.sol\":1615:1670  require(candidates.length > 0, \"No candidates present\") */\n      tag_70\n      jumpi\n      mload(0x40)\n      0x08c379a000000000000000000000000000000000000000000000000000000000\n      dup2\n      mstore\n      0x04\n      add\n      tag_71\n      swap1\n      tag_72\n      jump\t// in\n    tag_71:\n      mload(0x40)\n      dup1\n      swap2\n      sub\n      swap1\n      revert\n    tag_70:\n        /* \"Voting.sol\":1683:1694  uint256 max */\n      0x00\n        /* \"Voting.sol\":1714:1723  uint256 i */\n      dup1\n        /* \"Voting.sol\":1709:1923  for (uint256 i = 0; i < candidates.length; i++) {\r... */\n    tag_73:\n        /* \"Voting.sol\":1733:1743  candidates */\n      0x01\n        /* \"Voting.sol\":1733:1750  candidates.length */\n      dup1\n      sload\n      swap1\n      pop\n        /* \"Voting.sol\":1729:1730  i */\n      dup2\n        /* \"Voting.sol\":1729:1750  i < candidates.length */\n      lt\n        /* \"Voting.sol\":1709:1923  for (uint256 i = 0; i < candidates.length; i++) {\r... */\n      iszero\n      tag_74\n      jumpi\n        /* \"Voting.sol\":1802:1805  max */\n      dup2\n        /* \"Voting.sol\":1776:1786  candidates */\n      0x01\n        /* \"Voting.sol\":1787:1788  i */\n      dup3\n        /* \"Voting.sol\":1776:1789  candidates[i] */\n      dup2\n      sload\n      dup2\n      lt\n      tag_76\n      jumpi\n      tag_77\n      tag_42\n      jump\t// in\n    tag_77:\n    tag_76:\n      swap1\n      0x00\n      mstore\n      keccak256(0x00, 0x20)\n      swap1\n      0x03\n      mul\n      add\n        /* \"Voting.sol\":1776:1799  candidates[i].voteCount */\n      0x02\n      add\n      0x00\n      swap1\n      sload\n      swap1\n      0x0100\n      exp\n      swap1\n      div\n      0xff\n      and\n        /* \"Voting.sol\":1776:1805  candidates[i].voteCount > max */\n      0xff\n      and\n      gt\n        /* \"Voting.sol\":1772:1912  if (candidates[i].voteCount > max) {\r... */\n      iszero\n      tag_79\n      jumpi\n        /* \"Voting.sol\":1832:1842  candidates */\n      0x01\n        /* \"Voting.sol\":1843:1844  i */\n      dup2\n        /* \"Voting.sol\":1832:1845  candidates[i] */\n      dup2\n      sload\n      dup2\n      lt\n      tag_80\n      jumpi\n      tag_81\n      tag_42\n      jump\t// in\n    tag_81:\n    tag_80:\n      swap1\n      0x00\n      mstore\n      keccak256(0x00, 0x20)\n      swap1\n      0x03\n      mul\n      add\n        /* \"Voting.sol\":1832:1855  candidates[i].voteCount */\n      0x02\n      add\n      0x00\n      swap1\n      sload\n      swap1\n      0x0100\n      exp\n      swap1\n      div\n      0xff\n      and\n        /* \"Voting.sol\":1826:1855  max = candidates[i].voteCount */\n      0xff\n      and\n      swap2\n      pop\n        /* \"Voting.sol\":1883:1893  candidates */\n      0x01\n        /* \"Voting.sol\":1894:1895  i */\n      dup2\n        /* \"Voting.sol\":1883:1896  candidates[i] */\n      dup2\n      sload\n      dup2\n      lt\n      tag_83\n      jumpi\n      tag_84\n      tag_42\n      jump\t// in\n    tag_84:\n    tag_83:\n      swap1\n      0x00\n      mstore\n      keccak256(0x00, 0x20)\n      swap1\n      0x03\n      mul\n      add\n        /* \"Voting.sol\":1874:1896  winner = candidates[i] */\n      mload(0x40)\n      dup1\n      0x60\n      add\n      0x40\n      mstore\n      swap1\n      dup2\n      0x00\n      dup3\n      add\n      dup1\n      sload\n      tag_86\n      swap1\n      tag_57\n      jump\t// in\n    tag_86:\n      dup1\n      0x1f\n      add\n      0x20\n      dup1\n      swap2\n      div\n      mul\n      0x20\n      add\n      mload(0x40)\n      swap1\n      dup2\n      add\n      0x40\n      mstore\n      dup1\n      swap3\n      swap2\n      swap1\n      dup2\n      dup2\n      mstore\n      0x20\n      add\n      dup3\n      dup1\n      sload\n      tag_87\n      swap1\n      tag_57\n      jump\t// in\n    tag_87:\n      dup1\n      iszero\n      tag_88\n      jumpi\n      dup1\n      0x1f\n      lt\n      tag_89\n      jumpi\n      0x0100\n      dup1\n      dup4\n      sload\n      div\n      mul\n      dup4\n      mstore\n      swap2\n      0x20\n      add\n      swap2\n      jump(tag_88)\n    tag_89:\n      dup3\n      add\n      swap2\n      swap1\n      0x00\n      mstore\n      keccak256(0x00, 0x20)\n      swap1\n    tag_90:\n      dup2\n      sload\n      dup2\n      mstore\n      swap1\n      0x01\n      add\n      swap1\n      0x20\n      add\n      dup1\n      dup4\n      gt\n      tag_90\n      jumpi\n      dup3\n      swap1\n      sub\n      0x1f\n      and\n      dup3\n      add\n      swap2\n    tag_88:\n      pop\n      pop\n      pop\n      pop\n      pop\n      dup2\n      mstore\n      0x20\n      add\n      0x01\n      dup3\n      add\n      dup1\n      sload\n      tag_91\n      swap1\n      tag_57\n      jump\t// in\n    tag_91:\n      dup1\n      0x1f\n      add\n      0x20\n      dup1\n      swap2\n      div\n      mul\n      0x20\n      add\n      mload(0x40)\n      swap1\n      dup2\n      add\n      0x40\n      mstore\n      dup1\n      swap3\n      swap2\n      swap1\n      dup2\n      dup2\n      mstore\n      0x20\n      add\n      dup3\n      dup1\n      sload\n      tag_92\n      swap1\n      tag_57\n      jump\t// in\n    tag_92:\n      dup1\n      iszero\n      tag_93\n      jumpi\n      dup1\n      0x1f\n      lt\n      tag_94\n      jumpi\n      0x0100\n      dup1\n      dup4\n      sload\n      div\n      mul\n      dup4\n      mstore\n      swap2\n      0x20\n      add\n      swap2\n      jump(tag_93)\n    tag_94:\n      dup3\n      add\n      swap2\n      swap1\n      0x00\n      mstore\n      keccak256(0x00, 0x20)\n      swap1\n    tag_95:\n      dup2\n      sload\n      dup2\n      mstore\n      swap1\n      0x01\n      add\n      swap1\n      0x20\n      add\n      dup1\n      dup4\n      gt\n      tag_95\n      jumpi\n      dup3\n      swap1\n      sub\n      0x1f\n      and\n      dup3\n      add\n      swap2\n    tag_93:\n      pop\n      pop\n      pop\n      pop\n      pop\n      dup2\n      mstore\n      0x20\n      add\n      0x02\n      dup3\n      add\n      0x00\n      swap1\n      sload\n      swap1\n      0x0100\n      exp\n      swap1\n      div\n      0xff\n      and\n      0xff\n      and\n      0xff\n      and\n      dup2\n      mstore\n      pop\n      pop\n      swap3\n      pop\n        /* \"Voting.sol\":1772:1912  if (candidates[i].voteCount > max) {\r... */\n    tag_79:\n        /* \"Voting.sol\":1752:1755  i++ */\n      dup1\n      dup1\n      tag_96\n      swap1\n      tag_97\n      jump\t// in\n    tag_96:\n      swap2\n      pop\n      pop\n        /* \"Voting.sol\":1709:1923  for (uint256 i = 0; i < candidates.length; i++) {\r... */\n      jump(tag_73)\n    tag_74:\n      pop\n        /* \"Voting.sol\":1948:1949  0 */\n      0x00\n        /* \"Voting.sol\":1942:1945  max */\n      dup2\n        /* \"Voting.sol\":1942:1949  max > 0 */\n      gt\n        /* \"Voting.sol\":1935:1950  assert(max > 0) */\n      tag_98\n      jumpi\n      tag_99\n      tag_100\n      jump\t// in\n    tag_99:\n    tag_98:\n        /* \"Voting.sol\":1604:1958  {\r... */\n      pop\n        /* \"Voting.sol\":1537:1958  function getWinner() public view returns (Candidate memory winner) {\r... */\n      swap1\n      jump\t// out\n    tag_68:\n      mload(0x40)\n      dup1\n      0x60\n      add\n      0x40\n      mstore\n      dup1\n      0x60\n      dup2\n      mstore\n      0x20\n      add\n      0x60\n      dup2\n      mstore\n      0x20\n      add\n      and(0xff, 0x00)\n      dup2\n      mstore\n      pop\n      swap1\n      jump\t// out\n        /* \"#utility.yul\":7:146   */\n    tag_102:\n        /* \"#utility.yul\":53:58   */\n      0x00\n        /* \"#utility.yul\":91:97   */\n      dup2\n        /* \"#utility.yul\":78:98   */\n      calldataload\n        /* \"#utility.yul\":69:98   */\n      swap1\n      pop\n        /* \"#utility.yul\":107:140   */\n      tag_104\n        /* \"#utility.yul\":134:139   */\n      dup2\n        /* \"#utility.yul\":107:140   */\n      tag_105\n      jump\t// in\n    tag_104:\n        /* \"#utility.yul\":7:146   */\n      swap3\n      swap2\n      pop\n      pop\n      jump\t// out\n        /* \"#utility.yul\":152:291   */\n    tag_106:\n        /* \"#utility.yul\":198:203   */\n      0x00\n        /* \"#utility.yul\":236:242   */\n      dup2\n        /* \"#utility.yul\":223:243   */\n      calldataload\n        /* \"#utility.yul\":214:243   */\n      swap1\n      pop\n        /* \"#utility.yul\":252:285   */\n      tag_108\n        /* \"#utility.yul\":279:284   */\n      dup2\n        /* \"#utility.yul\":252:285   */\n      tag_109\n      jump\t// in\n    tag_108:\n        /* \"#utility.yul\":152:291   */\n      swap3\n      swap2\n      pop\n      pop\n      jump\t// out\n        /* \"#utility.yul\":297:626   */\n    tag_15:\n        /* \"#utility.yul\":356:362   */\n      0x00\n        /* \"#utility.yul\":405:407   */\n      0x20\n        /* \"#utility.yul\":393:402   */\n      dup3\n        /* \"#utility.yul\":384:391   */\n      dup5\n        /* \"#utility.yul\":380:403   */\n      sub\n        /* \"#utility.yul\":376:408   */\n      slt\n        /* \"#utility.yul\":373:492   */\n      iszero\n      tag_111\n      jumpi\n        /* \"#utility.yul\":411:490   */\n      tag_112\n      tag_113\n      jump\t// in\n    tag_112:\n        /* \"#utility.yul\":373:492   */\n    tag_111:\n        /* \"#utility.yul\":531:532   */\n      0x00\n        /* \"#utility.yul\":556:609   */\n      tag_114\n        /* \"#utility.yul\":601:608   */\n      dup5\n        /* \"#utility.yul\":592:598   */\n      dup3\n        /* \"#utility.yul\":581:590   */\n      dup6\n        /* \"#utility.yul\":577:599   */\n      add\n        /* \"#utility.yul\":556:609   */\n      tag_102\n      jump\t// in\n    tag_114:\n        /* \"#utility.yul\":546:609   */\n      swap2\n      pop\n        /* \"#utility.yul\":502:619   */\n      pop\n        /* \"#utility.yul\":297:626   */\n      swap3\n      swap2\n      pop\n      pop\n      jump\t// out\n        /* \"#utility.yul\":632:961   */\n    tag_11:\n        /* \"#utility.yul\":691:697   */\n      0x00\n        /* \"#utility.yul\":740:742   */\n      0x20\n        /* \"#utility.yul\":728:737   */\n      dup3\n        /* \"#utility.yul\":719:726   */\n      dup5\n        /* \"#utility.yul\":715:738   */\n      sub\n        /* \"#utility.yul\":711:743   */\n      slt\n        /* \"#utility.yul\":708:827   */\n      iszero\n      tag_116\n      jumpi\n        /* \"#utility.yul\":746:825   */\n      tag_117\n      tag_113\n      jump\t// in\n    tag_117:\n        /* \"#utility.yul\":708:827   */\n    tag_116:\n        /* \"#utility.yul\":866:867   */\n      0x00\n        /* \"#utility.yul\":891:944   */\n      tag_118\n        /* \"#utility.yul\":936:943   */\n      dup5\n        /* \"#utility.yul\":927:933   */\n      dup3\n        /* \"#utility.yul\":916:925   */\n      dup6\n        /* \"#utility.yul\":912:934   */\n      add\n        /* \"#utility.yul\":891:944   */\n      tag_106\n      jump\t// in\n    tag_118:\n        /* \"#utility.yul\":881:944   */\n      swap2\n      pop\n        /* \"#utility.yul\":837:954   */\n      pop\n        /* \"#utility.yul\":632:961   */\n      swap3\n      swap2\n      pop\n      pop\n      jump\t// out\n        /* \"#utility.yul\":967:1085   */\n    tag_119:\n        /* \"#utility.yul\":1054:1078   */\n      tag_121\n        /* \"#utility.yul\":1072:1077   */\n      dup2\n        /* \"#utility.yul\":1054:1078   */\n      tag_122\n      jump\t// in\n    tag_121:\n        /* \"#utility.yul\":1049:1052   */\n      dup3\n        /* \"#utility.yul\":1042:1079   */\n      mstore\n        /* \"#utility.yul\":967:1085   */\n      pop\n      pop\n      jump\t// out\n        /* \"#utility.yul\":1091:1200   */\n    tag_123:\n        /* \"#utility.yul\":1172:1193   */\n      tag_125\n        /* \"#utility.yul\":1187:1192   */\n      dup2\n        /* \"#utility.yul\":1172:1193   */\n      tag_126\n      jump\t// in\n    tag_125:\n        /* \"#utility.yul\":1167:1170   */\n      dup3\n        /* \"#utility.yul\":1160:1194   */\n      mstore\n        /* \"#utility.yul\":1091:1200   */\n      pop\n      pop\n      jump\t// out\n        /* \"#utility.yul\":1206:1550   */\n    tag_127:\n        /* \"#utility.yul\":1284:1287   */\n      0x00\n        /* \"#utility.yul\":1312:1351   */\n      tag_129\n        /* \"#utility.yul\":1345:1350   */\n      dup3\n        /* \"#utility.yul\":1312:1351   */\n      tag_130\n      jump\t// in\n    tag_129:\n        /* \"#utility.yul\":1367:1428   */\n      tag_131\n        /* \"#utility.yul\":1421:1427   */\n      dup2\n        /* \"#utility.yul\":1416:1419   */\n      dup6\n        /* \"#utility.yul\":1367:1428   */\n      tag_132\n      jump\t// in\n    tag_131:\n        /* \"#utility.yul\":1360:1428   */\n      swap4\n      pop\n        /* \"#utility.yul\":1437:1489   */\n      tag_133\n        /* \"#utility.yul\":1482:1488   */\n      dup2\n        /* \"#utility.yul\":1477:1480   */\n      dup6\n        /* \"#utility.yul\":1470:1474   */\n      0x20\n        /* \"#utility.yul\":1463:1468   */\n      dup7\n        /* \"#utility.yul\":1459:1475   */\n      add\n        /* \"#utility.yul\":1437:1489   */\n      tag_134\n      jump\t// in\n    tag_133:\n        /* \"#utility.yul\":1514:1543   */\n      tag_135\n        /* \"#utility.yul\":1536:1542   */\n      dup2\n        /* \"#utility.yul\":1514:1543   */\n      tag_136\n      jump\t// in\n    tag_135:\n        /* \"#utility.yul\":1509:1512   */\n      dup5\n        /* \"#utility.yul\":1505:1544   */\n      add\n        /* \"#utility.yul\":1498:1544   */\n      swap2\n      pop\n        /* \"#utility.yul\":1288:1550   */\n      pop\n        /* \"#utility.yul\":1206:1550   */\n      swap3\n      swap2\n      pop\n      pop\n      jump\t// out\n        /* \"#utility.yul\":1556:1920   */\n    tag_137:\n        /* \"#utility.yul\":1644:1647   */\n      0x00\n        /* \"#utility.yul\":1672:1711   */\n      tag_139\n        /* \"#utility.yul\":1705:1710   */\n      dup3\n        /* \"#utility.yul\":1672:1711   */\n      tag_130\n      jump\t// in\n    tag_139:\n        /* \"#utility.yul\":1727:1798   */\n      tag_140\n        /* \"#utility.yul\":1791:1797   */\n      dup2\n        /* \"#utility.yul\":1786:1789   */\n      dup6\n        /* \"#utility.yul\":1727:1798   */\n      tag_141\n      jump\t// in\n    tag_140:\n        /* \"#utility.yul\":1720:1798   */\n      swap4\n      pop\n        /* \"#utility.yul\":1807:1859   */\n      tag_142\n        /* \"#utility.yul\":1852:1858   */\n      dup2\n        /* \"#utility.yul\":1847:1850   */\n      dup6\n        /* \"#utility.yul\":1840:1844   */\n      0x20\n        /* \"#utility.yul\":1833:1838   */\n      dup7\n        /* \"#utility.yul\":1829:1845   */\n      add\n        /* \"#utility.yul\":1807:1859   */\n      tag_134\n      jump\t// in\n    tag_142:\n        /* \"#utility.yul\":1884:1913   */\n      tag_143\n        /* \"#utility.yul\":1906:1912   */\n      dup2\n        /* \"#utility.yul\":1884:1913   */\n      tag_136\n      jump\t// in\n    tag_143:\n        /* \"#utility.yul\":1879:1882   */\n      dup5\n        /* \"#utility.yul\":1875:1914   */\n      add\n        /* \"#utility.yul\":1868:1914   */\n      swap2\n      pop\n        /* \"#utility.yul\":1648:1920   */\n      pop\n        /* \"#utility.yul\":1556:1920   */\n      swap3\n      swap2\n      pop\n      pop\n      jump\t// out\n        /* \"#utility.yul\":1950:2752   */\n    tag_144:\n        /* \"#utility.yul\":2035:2038   */\n      0x00\n        /* \"#utility.yul\":2072:2077   */\n      dup2\n        /* \"#utility.yul\":2066:2078   */\n      sload\n        /* \"#utility.yul\":2101:2137   */\n      tag_146\n        /* \"#utility.yul\":2127:2136   */\n      dup2\n        /* \"#utility.yul\":2101:2137   */\n      tag_57\n      jump\t// in\n    tag_146:\n        /* \"#utility.yul\":2153:2224   */\n      tag_147\n        /* \"#utility.yul\":2217:2223   */\n      dup2\n        /* \"#utility.yul\":2212:2215   */\n      dup7\n        /* \"#utility.yul\":2153:2224   */\n      tag_141\n      jump\t// in\n    tag_147:\n        /* \"#utility.yul\":2146:2224   */\n      swap5\n      pop\n        /* \"#utility.yul\":2255:2256   */\n      0x01\n        /* \"#utility.yul\":2244:2253   */\n      dup3\n        /* \"#utility.yul\":2240:2257   */\n      and\n        /* \"#utility.yul\":2271:2272   */\n      0x00\n        /* \"#utility.yul\":2266:2401   */\n      dup2\n      eq\n      tag_149\n      jumpi\n        /* \"#utility.yul\":2415:2416   */\n      0x01\n        /* \"#utility.yul\":2410:2746   */\n      dup2\n      eq\n      tag_150\n      jumpi\n        /* \"#utility.yul\":2233:2746   */\n      jump(tag_148)\n        /* \"#utility.yul\":2266:2401   */\n    tag_149:\n        /* \"#utility.yul\":2350:2354   */\n      0xff\n        /* \"#utility.yul\":2346:2355   */\n      not\n        /* \"#utility.yul\":2335:2344   */\n      dup4\n        /* \"#utility.yul\":2331:2356   */\n      and\n        /* \"#utility.yul\":2326:2329   */\n      dup7\n        /* \"#utility.yul\":2319:2357   */\n      mstore\n        /* \"#utility.yul\":2386:2390   */\n      0x20\n        /* \"#utility.yul\":2381:2384   */\n      dup7\n        /* \"#utility.yul\":2377:2391   */\n      add\n        /* \"#utility.yul\":2370:2391   */\n      swap4\n      pop\n        /* \"#utility.yul\":2266:2401   */\n      jump(tag_148)\n        /* \"#utility.yul\":2410:2746   */\n    tag_150:\n        /* \"#utility.yul\":2477:2515   */\n      tag_151\n        /* \"#utility.yul\":2509:2514   */\n      dup6\n        /* \"#utility.yul\":2477:2515   */\n      tag_152\n      jump\t// in\n    tag_151:\n        /* \"#utility.yul\":2537:2538   */\n      0x00\n        /* \"#utility.yul\":2551:2705   */\n    tag_153:\n        /* \"#utility.yul\":2565:2571   */\n      dup4\n        /* \"#utility.yul\":2562:2563   */\n      dup2\n        /* \"#utility.yul\":2559:2572   */\n      lt\n        /* \"#utility.yul\":2551:2705   */\n      iszero\n      tag_155\n      jumpi\n        /* \"#utility.yul\":2639:2646   */\n      dup2\n        /* \"#utility.yul\":2633:2647   */\n      sload\n        /* \"#utility.yul\":2629:2630   */\n      dup2\n        /* \"#utility.yul\":2624:2627   */\n      dup10\n        /* \"#utility.yul\":2620:2631   */\n      add\n        /* \"#utility.yul\":2613:2648   */\n      mstore\n        /* \"#utility.yul\":2689:2690   */\n      0x01\n        /* \"#utility.yul\":2680:2687   */\n      dup3\n        /* \"#utility.yul\":2676:2691   */\n      add\n        /* \"#utility.yul\":2665:2691   */\n      swap2\n      pop\n        /* \"#utility.yul\":2587:2591   */\n      0x20\n        /* \"#utility.yul\":2584:2585   */\n      dup2\n        /* \"#utility.yul\":2580:2592   */\n      add\n        /* \"#utility.yul\":2575:2592   */\n      swap1\n      pop\n        /* \"#utility.yul\":2551:2705   */\n      jump(tag_153)\n    tag_155:\n        /* \"#utility.yul\":2734:2735   */\n      dup1\n        /* \"#utility.yul\":2729:2732   */\n      dup9\n        /* \"#utility.yul\":2725:2736   */\n      add\n        /* \"#utility.yul\":2718:2736   */\n      swap6\n      pop\n        /* \"#utility.yul\":2417:2746   */\n      pop\n      pop\n        /* \"#utility.yul\":2233:2746   */\n    tag_148:\n      pop\n        /* \"#utility.yul\":2039:2752   */\n      pop\n      pop\n        /* \"#utility.yul\":1950:2752   */\n      swap3\n      swap2\n      pop\n      pop\n      jump\t// out\n        /* \"#utility.yul\":2758:3124   */\n    tag_156:\n        /* \"#utility.yul\":2900:2903   */\n      0x00\n        /* \"#utility.yul\":2921:2988   */\n      tag_158\n        /* \"#utility.yul\":2985:2987   */\n      0x17\n        /* \"#utility.yul\":2980:2983   */\n      dup4\n        /* \"#utility.yul\":2921:2988   */\n      tag_141\n      jump\t// in\n    tag_158:\n        /* \"#utility.yul\":2914:2988   */\n      swap2\n      pop\n        /* \"#utility.yul\":2997:3090   */\n      tag_159\n        /* \"#utility.yul\":3086:3089   */\n      dup3\n        /* \"#utility.yul\":2997:3090   */\n      tag_160\n      jump\t// in\n    tag_159:\n        /* \"#utility.yul\":3115:3117   */\n      0x20\n        /* \"#utility.yul\":3110:3113   */\n      dup3\n        /* \"#utility.yul\":3106:3118   */\n      add\n        /* \"#utility.yul\":3099:3118   */\n      swap1\n      pop\n        /* \"#utility.yul\":2758:3124   */\n      swap2\n      swap1\n      pop\n      jump\t// out\n        /* \"#utility.yul\":3130:3496   */\n    tag_161:\n        /* \"#utility.yul\":3272:3275   */\n      0x00\n        /* \"#utility.yul\":3293:3360   */\n      tag_163\n        /* \"#utility.yul\":3357:3359   */\n      0x15\n        /* \"#utility.yul\":3352:3355   */\n      dup4\n        /* \"#utility.yul\":3293:3360   */\n      tag_141\n      jump\t// in\n    tag_163:\n        /* \"#utility.yul\":3286:3360   */\n      swap2\n      pop\n        /* \"#utility.yul\":3369:3462   */\n      tag_164\n        /* \"#utility.yul\":3458:3461   */\n      dup3\n        /* \"#utility.yul\":3369:3462   */\n      tag_165\n      jump\t// in\n    tag_164:\n        /* \"#utility.yul\":3487:3489   */\n      0x20\n        /* \"#utility.yul\":3482:3485   */\n      dup3\n        /* \"#utility.yul\":3478:3490   */\n      add\n        /* \"#utility.yul\":3471:3490   */\n      swap1\n      pop\n        /* \"#utility.yul\":3130:3496   */\n      swap2\n      swap1\n      pop\n      jump\t// out\n        /* \"#utility.yul\":3564:4423   */\n    tag_166:\n        /* \"#utility.yul\":3683:3686   */\n      0x00\n        /* \"#utility.yul\":3719:3723   */\n      0x60\n        /* \"#utility.yul\":3714:3717   */\n      dup4\n        /* \"#utility.yul\":3710:3724   */\n      add\n        /* \"#utility.yul\":3806:3810   */\n      0x00\n        /* \"#utility.yul\":3799:3804   */\n      dup4\n        /* \"#utility.yul\":3795:3811   */\n      add\n        /* \"#utility.yul\":3789:3812   */\n      mload\n        /* \"#utility.yul\":3859:3862   */\n      dup5\n        /* \"#utility.yul\":3853:3857   */\n      dup3\n        /* \"#utility.yul\":3849:3863   */\n      sub\n        /* \"#utility.yul\":3842:3846   */\n      0x00\n        /* \"#utility.yul\":3837:3840   */\n      dup7\n        /* \"#utility.yul\":3833:3847   */\n      add\n        /* \"#utility.yul\":3826:3864   */\n      mstore\n        /* \"#utility.yul\":3885:3958   */\n      tag_168\n        /* \"#utility.yul\":3953:3957   */\n      dup3\n        /* \"#utility.yul\":3939:3951   */\n      dup3\n        /* \"#utility.yul\":3885:3958   */\n      tag_127\n      jump\t// in\n    tag_168:\n        /* \"#utility.yul\":3877:3958   */\n      swap2\n      pop\n        /* \"#utility.yul\":3734:3969   */\n      pop\n        /* \"#utility.yul\":4058:4062   */\n      0x20\n        /* \"#utility.yul\":4051:4056   */\n      dup4\n        /* \"#utility.yul\":4047:4063   */\n      add\n        /* \"#utility.yul\":4041:4064   */\n      mload\n        /* \"#utility.yul\":4111:4114   */\n      dup5\n        /* \"#utility.yul\":4105:4109   */\n      dup3\n        /* \"#utility.yul\":4101:4115   */\n      sub\n        /* \"#utility.yul\":4094:4098   */\n      0x20\n        /* \"#utility.yul\":4089:4092   */\n      dup7\n        /* \"#utility.yul\":4085:4099   */\n      add\n        /* \"#utility.yul\":4078:4116   */\n      mstore\n        /* \"#utility.yul\":4137:4210   */\n      tag_169\n        /* \"#utility.yul\":4205:4209   */\n      dup3\n        /* \"#utility.yul\":4191:4203   */\n      dup3\n        /* \"#utility.yul\":4137:4210   */\n      tag_127\n      jump\t// in\n    tag_169:\n        /* \"#utility.yul\":4129:4210   */\n      swap2\n      pop\n        /* \"#utility.yul\":3979:4221   */\n      pop\n        /* \"#utility.yul\":4308:4312   */\n      0x40\n        /* \"#utility.yul\":4301:4306   */\n      dup4\n        /* \"#utility.yul\":4297:4313   */\n      add\n        /* \"#utility.yul\":4291:4314   */\n      mload\n        /* \"#utility.yul\":4327:4386   */\n      tag_170\n        /* \"#utility.yul\":4380:4384   */\n      0x40\n        /* \"#utility.yul\":4375:4378   */\n      dup7\n        /* \"#utility.yul\":4371:4385   */\n      add\n        /* \"#utility.yul\":4357:4369   */\n      dup3\n        /* \"#utility.yul\":4327:4386   */\n      tag_171\n      jump\t// in\n    tag_170:\n        /* \"#utility.yul\":4231:4396   */\n      pop\n        /* \"#utility.yul\":4413:4417   */\n      dup1\n        /* \"#utility.yul\":4406:4417   */\n      swap2\n      pop\n        /* \"#utility.yul\":3688:4423   */\n      pop\n        /* \"#utility.yul\":3564:4423   */\n      swap3\n      swap2\n      pop\n      pop\n      jump\t// out\n        /* \"#utility.yul\":4429:4531   */\n    tag_171:\n        /* \"#utility.yul\":4502:4524   */\n      tag_173\n        /* \"#utility.yul\":4518:4523   */\n      dup2\n        /* \"#utility.yul\":4502:4524   */\n      tag_174\n      jump\t// in\n    tag_173:\n        /* \"#utility.yul\":4497:4500   */\n      dup3\n        /* \"#utility.yul\":4490:4525   */\n      mstore\n        /* \"#utility.yul\":4429:4531   */\n      pop\n      pop\n      jump\t// out\n        /* \"#utility.yul\":4537:4649   */\n    tag_175:\n        /* \"#utility.yul\":4620:4642   */\n      tag_177\n        /* \"#utility.yul\":4636:4641   */\n      dup2\n        /* \"#utility.yul\":4620:4642   */\n      tag_174\n      jump\t// in\n    tag_177:\n        /* \"#utility.yul\":4615:4618   */\n      dup3\n        /* \"#utility.yul\":4608:4643   */\n      mstore\n        /* \"#utility.yul\":4537:4649   */\n      pop\n      pop\n      jump\t// out\n        /* \"#utility.yul\":4655:4877   */\n    tag_25:\n        /* \"#utility.yul\":4748:4752   */\n      0x00\n        /* \"#utility.yul\":4786:4788   */\n      0x20\n        /* \"#utility.yul\":4775:4784   */\n      dup3\n        /* \"#utility.yul\":4771:4789   */\n      add\n        /* \"#utility.yul\":4763:4789   */\n      swap1\n      pop\n        /* \"#utility.yul\":4799:4870   */\n      tag_179\n        /* \"#utility.yul\":4867:4868   */\n      0x00\n        /* \"#utility.yul\":4856:4865   */\n      dup4\n        /* \"#utility.yul\":4852:4869   */\n      add\n        /* \"#utility.yul\":4843:4849   */\n      dup5\n        /* \"#utility.yul\":4799:4870   */\n      tag_119\n      jump\t// in\n    tag_179:\n        /* \"#utility.yul\":4655:4877   */\n      swap3\n      swap2\n      pop\n      pop\n      jump\t// out\n        /* \"#utility.yul\":4883:5093   */\n    tag_18:\n        /* \"#utility.yul\":4970:4974   */\n      0x00\n        /* \"#utility.yul\":5008:5010   */\n      0x20\n        /* \"#utility.yul\":4997:5006   */\n      dup3\n        /* \"#utility.yul\":4993:5011   */\n      add\n        /* \"#utility.yul\":4985:5011   */\n      swap1\n      pop\n        /* \"#utility.yul\":5021:5086   */\n      tag_181\n        /* \"#utility.yul\":5083:5084   */\n      0x00\n        /* \"#utility.yul\":5072:5081   */\n      dup4\n        /* \"#utility.yul\":5068:5085   */\n      add\n        /* \"#utility.yul\":5059:5065   */\n      dup5\n        /* \"#utility.yul\":5021:5086   */\n      tag_123\n      jump\t// in\n    tag_181:\n        /* \"#utility.yul\":4883:5093   */\n      swap3\n      swap2\n      pop\n      pop\n      jump\t// out\n        /* \"#utility.yul\":5099:5715   */\n    tag_30:\n        /* \"#utility.yul\":5284:5288   */\n      0x00\n        /* \"#utility.yul\":5322:5324   */\n      0x60\n        /* \"#utility.yul\":5311:5320   */\n      dup3\n        /* \"#utility.yul\":5307:5325   */\n      add\n        /* \"#utility.yul\":5299:5325   */\n      swap1\n      pop\n        /* \"#utility.yul\":5371:5380   */\n      dup2\n        /* \"#utility.yul\":5365:5369   */\n      dup2\n        /* \"#utility.yul\":5361:5381   */\n      sub\n        /* \"#utility.yul\":5357:5358   */\n      0x00\n        /* \"#utility.yul\":5346:5355   */\n      dup4\n        /* \"#utility.yul\":5342:5359   */\n      add\n        /* \"#utility.yul\":5335:5382   */\n      mstore\n        /* \"#utility.yul\":5399:5477   */\n      tag_183\n        /* \"#utility.yul\":5472:5476   */\n      dup2\n        /* \"#utility.yul\":5463:5469   */\n      dup7\n        /* \"#utility.yul\":5399:5477   */\n      tag_137\n      jump\t// in\n    tag_183:\n        /* \"#utility.yul\":5391:5477   */\n      swap1\n      pop\n        /* \"#utility.yul\":5524:5533   */\n      dup2\n        /* \"#utility.yul\":5518:5522   */\n      dup2\n        /* \"#utility.yul\":5514:5534   */\n      sub\n        /* \"#utility.yul\":5509:5511   */\n      0x20\n        /* \"#utility.yul\":5498:5507   */\n      dup4\n        /* \"#utility.yul\":5494:5512   */\n      add\n        /* \"#utility.yul\":5487:5535   */\n      mstore\n        /* \"#utility.yul\":5552:5630   */\n      tag_184\n        /* \"#utility.yul\":5625:5629   */\n      dup2\n        /* \"#utility.yul\":5616:5622   */\n      dup6\n        /* \"#utility.yul\":5552:5630   */\n      tag_137\n      jump\t// in\n    tag_184:\n        /* \"#utility.yul\":5544:5630   */\n      swap1\n      pop\n        /* \"#utility.yul\":5640:5708   */\n      tag_185\n        /* \"#utility.yul\":5704:5706   */\n      0x40\n        /* \"#utility.yul\":5693:5702   */\n      dup4\n        /* \"#utility.yul\":5689:5707   */\n      add\n        /* \"#utility.yul\":5680:5686   */\n      dup5\n        /* \"#utility.yul\":5640:5708   */\n      tag_175\n      jump\t// in\n    tag_185:\n        /* \"#utility.yul\":5099:5715   */\n      swap5\n      swap4\n      pop\n      pop\n      pop\n      pop\n      jump\t// out\n        /* \"#utility.yul\":5721:6130   */\n    tag_53:\n        /* \"#utility.yul\":5855:5859   */\n      0x00\n        /* \"#utility.yul\":5893:5895   */\n      0x40\n        /* \"#utility.yul\":5882:5891   */\n      dup3\n        /* \"#utility.yul\":5878:5896   */\n      add\n        /* \"#utility.yul\":5870:5896   */\n      swap1\n      pop\n        /* \"#utility.yul\":5942:5951   */\n      dup2\n        /* \"#utility.yul\":5936:5940   */\n      dup2\n        /* \"#utility.yul\":5932:5952   */\n      sub\n        /* \"#utility.yul\":5928:5929   */\n      0x00\n        /* \"#utility.yul\":5917:5926   */\n      dup4\n        /* \"#utility.yul\":5913:5930   */\n      add\n        /* \"#utility.yul\":5906:5953   */\n      mstore\n        /* \"#utility.yul\":5970:6045   */\n      tag_187\n        /* \"#utility.yul\":6040:6044   */\n      dup2\n        /* \"#utility.yul\":6031:6037   */\n      dup6\n        /* \"#utility.yul\":5970:6045   */\n      tag_144\n      jump\t// in\n    tag_187:\n        /* \"#utility.yul\":5962:6045   */\n      swap1\n      pop\n        /* \"#utility.yul\":6055:6123   */\n      tag_188\n        /* \"#utility.yul\":6119:6121   */\n      0x20\n        /* \"#utility.yul\":6108:6117   */\n      dup4\n        /* \"#utility.yul\":6104:6122   */\n      add\n        /* \"#utility.yul\":6095:6101   */\n      dup5\n        /* \"#utility.yul\":6055:6123   */\n      tag_175\n      jump\t// in\n    tag_188:\n        /* \"#utility.yul\":5721:6130   */\n      swap4\n      swap3\n      pop\n      pop\n      pop\n      jump\t// out\n        /* \"#utility.yul\":6136:6555   */\n    tag_38:\n        /* \"#utility.yul\":6302:6306   */\n      0x00\n        /* \"#utility.yul\":6340:6342   */\n      0x20\n        /* \"#utility.yul\":6329:6338   */\n      dup3\n        /* \"#utility.yul\":6325:6343   */\n      add\n        /* \"#utility.yul\":6317:6343   */\n      swap1\n      pop\n        /* \"#utility.yul\":6389:6398   */\n      dup2\n        /* \"#utility.yul\":6383:6387   */\n      dup2\n        /* \"#utility.yul\":6379:6399   */\n      sub\n        /* \"#utility.yul\":6375:6376   */\n      0x00\n        /* \"#utility.yul\":6364:6373   */\n      dup4\n        /* \"#utility.yul\":6360:6377   */\n      add\n        /* \"#utility.yul\":6353:6400   */\n      mstore\n        /* \"#utility.yul\":6417:6548   */\n      tag_190\n        /* \"#utility.yul\":6543:6547   */\n      dup2\n        /* \"#utility.yul\":6417:6548   */\n      tag_156\n      jump\t// in\n    tag_190:\n        /* \"#utility.yul\":6409:6548   */\n      swap1\n      pop\n        /* \"#utility.yul\":6136:6555   */\n      swap2\n      swap1\n      pop\n      jump\t// out\n        /* \"#utility.yul\":6561:6980   */\n    tag_72:\n        /* \"#utility.yul\":6727:6731   */\n      0x00\n        /* \"#utility.yul\":6765:6767   */\n      0x20\n        /* \"#utility.yul\":6754:6763   */\n      dup3\n        /* \"#utility.yul\":6750:6768   */\n      add\n        /* \"#utility.yul\":6742:6768   */\n      swap1\n      pop\n        /* \"#utility.yul\":6814:6823   */\n      dup2\n        /* \"#utility.yul\":6808:6812   */\n      dup2\n        /* \"#utility.yul\":6804:6824   */\n      sub\n        /* \"#utility.yul\":6800:6801   */\n      0x00\n        /* \"#utility.yul\":6789:6798   */\n      dup4\n        /* \"#utility.yul\":6785:6802   */\n      add\n        /* \"#utility.yul\":6778:6825   */\n      mstore\n        /* \"#utility.yul\":6842:6973   */\n      tag_192\n        /* \"#utility.yul\":6968:6972   */\n      dup2\n        /* \"#utility.yul\":6842:6973   */\n      tag_161\n      jump\t// in\n    tag_192:\n        /* \"#utility.yul\":6834:6973   */\n      swap1\n      pop\n        /* \"#utility.yul\":6561:6980   */\n      swap2\n      swap1\n      pop\n      jump\t// out\n        /* \"#utility.yul\":6986:7359   */\n    tag_34:\n        /* \"#utility.yul\":7129:7133   */\n      0x00\n        /* \"#utility.yul\":7167:7169   */\n      0x20\n        /* \"#utility.yul\":7156:7165   */\n      dup3\n        /* \"#utility.yul\":7152:7170   */\n      add\n        /* \"#utility.yul\":7144:7170   */\n      swap1\n      pop\n        /* \"#utility.yul\":7216:7225   */\n      dup2\n        /* \"#utility.yul\":7210:7214   */\n      dup2\n        /* \"#utility.yul\":7206:7226   */\n      sub\n        /* \"#utility.yul\":7202:7203   */\n      0x00\n        /* \"#utility.yul\":7191:7200   */\n      dup4\n        /* \"#utility.yul\":7187:7204   */\n      add\n        /* \"#utility.yul\":7180:7227   */\n      mstore\n        /* \"#utility.yul\":7244:7352   */\n      tag_194\n        /* \"#utility.yul\":7347:7351   */\n      dup2\n        /* \"#utility.yul\":7338:7344   */\n      dup5\n        /* \"#utility.yul\":7244:7352   */\n      tag_166\n      jump\t// in\n    tag_194:\n        /* \"#utility.yul\":7236:7352   */\n      swap1\n      pop\n        /* \"#utility.yul\":6986:7359   */\n      swap3\n      swap2\n      pop\n      pop\n      jump\t// out\n        /* \"#utility.yul\":7446:7587   */\n    tag_152:\n        /* \"#utility.yul\":7495:7499   */\n      0x00\n        /* \"#utility.yul\":7518:7521   */\n      dup2\n        /* \"#utility.yul\":7510:7521   */\n      swap1\n      pop\n        /* \"#utility.yul\":7541:7544   */\n      dup2\n        /* \"#utility.yul\":7538:7539   */\n      0x00\n        /* \"#utility.yul\":7531:7545   */\n      mstore\n        /* \"#utility.yul\":7575:7579   */\n      0x20\n        /* \"#utility.yul\":7572:7573   */\n      0x00\n        /* \"#utility.yul\":7562:7580   */\n      keccak256\n        /* \"#utility.yul\":7554:7580   */\n      swap1\n      pop\n        /* \"#utility.yul\":7446:7587   */\n      swap2\n      swap1\n      pop\n      jump\t// out\n        /* \"#utility.yul\":7593:7692   */\n    tag_130:\n        /* \"#utility.yul\":7645:7651   */\n      0x00\n        /* \"#utility.yul\":7679:7684   */\n      dup2\n        /* \"#utility.yul\":7673:7685   */\n      mload\n        /* \"#utility.yul\":7663:7685   */\n      swap1\n      pop\n        /* \"#utility.yul\":7593:7692   */\n      swap2\n      swap1\n      pop\n      jump\t// out\n        /* \"#utility.yul\":7698:7857   */\n    tag_132:\n        /* \"#utility.yul\":7772:7783   */\n      0x00\n        /* \"#utility.yul\":7806:7812   */\n      dup3\n        /* \"#utility.yul\":7801:7804   */\n      dup3\n        /* \"#utility.yul\":7794:7813   */\n      mstore\n        /* \"#utility.yul\":7846:7850   */\n      0x20\n        /* \"#utility.yul\":7841:7844   */\n      dup3\n        /* \"#utility.yul\":7837:7851   */\n      add\n        /* \"#utility.yul\":7822:7851   */\n      swap1\n      pop\n        /* \"#utility.yul\":7698:7857   */\n      swap3\n      swap2\n      pop\n      pop\n      jump\t// out\n        /* \"#utility.yul\":7863:8032   */\n    tag_141:\n        /* \"#utility.yul\":7947:7958   */\n      0x00\n        /* \"#utility.yul\":7981:7987   */\n      dup3\n        /* \"#utility.yul\":7976:7979   */\n      dup3\n        /* \"#utility.yul\":7969:7988   */\n      mstore\n        /* \"#utility.yul\":8021:8025   */\n      0x20\n        /* \"#utility.yul\":8016:8019   */\n      dup3\n        /* \"#utility.yul\":8012:8026   */\n      add\n        /* \"#utility.yul\":7997:8026   */\n      swap1\n      pop\n        /* \"#utility.yul\":7863:8032   */\n      swap3\n      swap2\n      pop\n      pop\n      jump\t// out\n        /* \"#utility.yul\":8038:8134   */\n    tag_122:\n        /* \"#utility.yul\":8075:8082   */\n      0x00\n        /* \"#utility.yul\":8104:8128   */\n      tag_202\n        /* \"#utility.yul\":8122:8127   */\n      dup3\n        /* \"#utility.yul\":8104:8128   */\n      tag_203\n      jump\t// in\n    tag_202:\n        /* \"#utility.yul\":8093:8128   */\n      swap1\n      pop\n        /* \"#utility.yul\":8038:8134   */\n      swap2\n      swap1\n      pop\n      jump\t// out\n        /* \"#utility.yul\":8140:8230   */\n    tag_126:\n        /* \"#utility.yul\":8174:8181   */\n      0x00\n        /* \"#utility.yul\":8217:8222   */\n      dup2\n        /* \"#utility.yul\":8210:8223   */\n      iszero\n        /* \"#utility.yul\":8203:8224   */\n      iszero\n        /* \"#utility.yul\":8192:8224   */\n      swap1\n      pop\n        /* \"#utility.yul\":8140:8230   */\n      swap2\n      swap1\n      pop\n      jump\t// out\n        /* \"#utility.yul\":8236:8362   */\n    tag_203:\n        /* \"#utility.yul\":8273:8280   */\n      0x00\n        /* \"#utility.yul\":8313:8355   */\n      0xffffffffffffffffffffffffffffffffffffffff\n        /* \"#utility.yul\":8306:8311   */\n      dup3\n        /* \"#utility.yul\":8302:8356   */\n      and\n        /* \"#utility.yul\":8291:8356   */\n      swap1\n      pop\n        /* \"#utility.yul\":8236:8362   */\n      swap2\n      swap1\n      pop\n      jump\t// out\n        /* \"#utility.yul\":8368:8445   */\n    tag_206:\n        /* \"#utility.yul\":8405:8412   */\n      0x00\n        /* \"#utility.yul\":8434:8439   */\n      dup2\n        /* \"#utility.yul\":8423:8439   */\n      swap1\n      pop\n        /* \"#utility.yul\":8368:8445   */\n      swap2\n      swap1\n      pop\n      jump\t// out\n        /* \"#utility.yul\":8451:8537   */\n    tag_174:\n        /* \"#utility.yul\":8486:8493   */\n      0x00\n        /* \"#utility.yul\":8526:8530   */\n      0xff\n        /* \"#utility.yul\":8519:8524   */\n      dup3\n        /* \"#utility.yul\":8515:8531   */\n      and\n        /* \"#utility.yul\":8504:8531   */\n      swap1\n      pop\n        /* \"#utility.yul\":8451:8537   */\n      swap2\n      swap1\n      pop\n      jump\t// out\n        /* \"#utility.yul\":8543:8850   */\n    tag_134:\n        /* \"#utility.yul\":8611:8612   */\n      0x00\n        /* \"#utility.yul\":8621:8734   */\n    tag_210:\n        /* \"#utility.yul\":8635:8641   */\n      dup4\n        /* \"#utility.yul\":8632:8633   */\n      dup2\n        /* \"#utility.yul\":8629:8642   */\n      lt\n        /* \"#utility.yul\":8621:8734   */\n      iszero\n      tag_212\n      jumpi\n        /* \"#utility.yul\":8720:8721   */\n      dup1\n        /* \"#utility.yul\":8715:8718   */\n      dup3\n        /* \"#utility.yul\":8711:8722   */\n      add\n        /* \"#utility.yul\":8705:8723   */\n      mload\n        /* \"#utility.yul\":8701:8702   */\n      dup2\n        /* \"#utility.yul\":8696:8699   */\n      dup5\n        /* \"#utility.yul\":8692:8703   */\n      add\n        /* \"#utility.yul\":8685:8724   */\n      mstore\n        /* \"#utility.yul\":8657:8659   */\n      0x20\n        /* \"#utility.yul\":8654:8655   */\n      dup2\n        /* \"#utility.yul\":8650:8660   */\n      add\n        /* \"#utility.yul\":8645:8660   */\n      swap1\n      pop\n        /* \"#utility.yul\":8621:8734   */\n      jump(tag_210)\n    tag_212:\n        /* \"#utility.yul\":8752:8758   */\n      dup4\n        /* \"#utility.yul\":8749:8750   */\n      dup2\n        /* \"#utility.yul\":8746:8759   */\n      gt\n        /* \"#utility.yul\":8743:8844   */\n      iszero\n      tag_213\n      jumpi\n        /* \"#utility.yul\":8832:8833   */\n      0x00\n        /* \"#utility.yul\":8823:8829   */\n      dup5\n        /* \"#utility.yul\":8818:8821   */\n      dup5\n        /* \"#utility.yul\":8814:8830   */\n      add\n        /* \"#utility.yul\":8807:8834   */\n      mstore\n        /* \"#utility.yul\":8743:8844   */\n    tag_213:\n        /* \"#utility.yul\":8592:8850   */\n      pop\n        /* \"#utility.yul\":8543:8850   */\n      pop\n      pop\n      pop\n      jump\t// out\n        /* \"#utility.yul\":8856:9176   */\n    tag_57:\n        /* \"#utility.yul\":8900:8906   */\n      0x00\n        /* \"#utility.yul\":8937:8938   */\n      0x02\n        /* \"#utility.yul\":8931:8935   */\n      dup3\n        /* \"#utility.yul\":8927:8939   */\n      div\n        /* \"#utility.yul\":8917:8939   */\n      swap1\n      pop\n        /* \"#utility.yul\":8984:8985   */\n      0x01\n        /* \"#utility.yul\":8978:8982   */\n      dup3\n        /* \"#utility.yul\":8974:8986   */\n      and\n        /* \"#utility.yul\":9005:9023   */\n      dup1\n        /* \"#utility.yul\":8995:9076   */\n      tag_215\n      jumpi\n        /* \"#utility.yul\":9061:9065   */\n      0x7f\n        /* \"#utility.yul\":9053:9059   */\n      dup3\n        /* \"#utility.yul\":9049:9066   */\n      and\n        /* \"#utility.yul\":9039:9066   */\n      swap2\n      pop\n        /* \"#utility.yul\":8995:9076   */\n    tag_215:\n        /* \"#utility.yul\":9123:9125   */\n      0x20\n        /* \"#utility.yul\":9115:9121   */\n      dup3\n        /* \"#utility.yul\":9112:9126   */\n      lt\n        /* \"#utility.yul\":9092:9110   */\n      dup2\n        /* \"#utility.yul\":9089:9127   */\n      eq\n        /* \"#utility.yul\":9086:9170   */\n      iszero\n      tag_216\n      jumpi\n        /* \"#utility.yul\":9142:9160   */\n      tag_217\n      tag_218\n      jump\t// in\n    tag_217:\n        /* \"#utility.yul\":9086:9170   */\n    tag_216:\n        /* \"#utility.yul\":8907:9176   */\n      pop\n        /* \"#utility.yul\":8856:9176   */\n      swap2\n      swap1\n      pop\n      jump\t// out\n        /* \"#utility.yul\":9182:9415   */\n    tag_97:\n        /* \"#utility.yul\":9221:9224   */\n      0x00\n        /* \"#utility.yul\":9244:9268   */\n      tag_220\n        /* \"#utility.yul\":9262:9267   */\n      dup3\n        /* \"#utility.yul\":9244:9268   */\n      tag_206\n      jump\t// in\n    tag_220:\n        /* \"#utility.yul\":9235:9268   */\n      swap2\n      pop\n        /* \"#utility.yul\":9290:9356   */\n      0xffffffffffffffffffffffffffffffffffffffffffffffffffffffffffffffff\n        /* \"#utility.yul\":9283:9288   */\n      dup3\n        /* \"#utility.yul\":9280:9357   */\n      eq\n        /* \"#utility.yul\":9277:9380   */\n      iszero\n      tag_221\n      jumpi\n        /* \"#utility.yul\":9360:9378   */\n      tag_222\n      tag_223\n      jump\t// in\n    tag_222:\n        /* \"#utility.yul\":9277:9380   */\n    tag_221:\n        /* \"#utility.yul\":9407:9408   */\n      0x01\n        /* \"#utility.yul\":9400:9405   */\n      dup3\n        /* \"#utility.yul\":9396:9409   */\n      add\n        /* \"#utility.yul\":9389:9409   */\n      swap1\n      pop\n        /* \"#utility.yul\":9182:9415   */\n      swap2\n      swap1\n      pop\n      jump\t// out\n        /* \"#utility.yul\":9421:9588   */\n    tag_45:\n        /* \"#utility.yul\":9458:9461   */\n      0x00\n        /* \"#utility.yul\":9481:9503   */\n      tag_225\n        /* \"#utility.yul\":9497:9502   */\n      dup3\n        /* \"#utility.yul\":9481:9503   */\n      tag_174\n      jump\t// in\n    tag_225:\n        /* \"#utility.yul\":9472:9503   */\n      swap2\n      pop\n        /* \"#utility.yul\":9525:9529   */\n      0xff\n        /* \"#utility.yul\":9518:9523   */\n      dup3\n        /* \"#utility.yul\":9515:9530   */\n      eq\n        /* \"#utility.yul\":9512:9553   */\n      iszero\n      tag_226\n      jumpi\n        /* \"#utility.yul\":9533:9551   */\n      tag_227\n      tag_223\n      jump\t// in\n    tag_227:\n        /* \"#utility.yul\":9512:9553   */\n    tag_226:\n        /* \"#utility.yul\":9580:9581   */\n      0x01\n        /* \"#utility.yul\":9573:9578   */\n      dup3\n        /* \"#utility.yul\":9569:9582   */\n      add\n        /* \"#utility.yul\":9562:9582   */\n      swap1\n      pop\n        /* \"#utility.yul\":9421:9588   */\n      swap2\n      swap1\n      pop\n      jump\t// out\n        /* \"#utility.yul\":9594:9774   */\n    tag_100:\n        /* \"#utility.yul\":9642:9719   */\n      0x4e487b7100000000000000000000000000000000000000000000000000000000\n        /* \"#utility.yul\":9639:9640   */\n      0x00\n        /* \"#utility.yul\":9632:9720   */\n      mstore\n        /* \"#utility.yul\":9739:9743   */\n      0x01\n        /* \"#utility.yul\":9736:9737   */\n      0x04\n        /* \"#utility.yul\":9729:9744   */\n      mstore\n        /* \"#utility.yul\":9763:9767   */\n      0x24\n        /* \"#utility.yul\":9760:9761   */\n      0x00\n        /* \"#utility.yul\":9753:9768   */\n      revert\n        /* \"#utility.yul\":9780:9960   */\n    tag_223:\n        /* \"#utility.yul\":9828:9905   */\n      0x4e487b7100000000000000000000000000000000000000000000000000000000\n        /* \"#utility.yul\":9825:9826   */\n      0x00\n        /* \"#utility.yul\":9818:9906   */\n      mstore\n        /* \"#utility.yul\":9925:9929   */\n      0x11\n        /* \"#utility.yul\":9922:9923   */\n      0x04\n        /* \"#utility.yul\":9915:9930   */\n      mstore\n        /* \"#utility.yul\":9949:9953   */\n      0x24\n        /* \"#utility.yul\":9946:9947   */\n      0x00\n        /* \"#utility.yul\":9939:9954   */\n      revert\n        /* \"#utility.yul\":9966:10146   */\n    tag_218:\n        /* \"#utility.yul\":10014:10091   */\n      0x4e487b7100000000000000000000000000000000000000000000000000000000\n        /* \"#utility.yul\":10011:10012   */\n      0x00\n        /* \"#utility.yul\":10004:10092   */\n      mstore\n        /* \"#utility.yul\":10111:10115   */\n      0x22\n        /* \"#utility.yul\":10108:10109   */\n      0x04\n        /* \"#utility.yul\":10101:10116   */\n      mstore\n        /* \"#utility.yul\":10135:10139   */\n      0x24\n        /* \"#utility.yul\":10132:10133   */\n      0x00\n        /* \"#utility.yul\":10125:10140   */\n      revert\n        /* \"#utility.yul\":10152:10332   */\n    tag_42:\n        /* \"#utility.yul\":10200:10277   */\n      0x4e487b7100000000000000000000000000000000000000000000000000000000\n        /* \"#utility.yul\":10197:10198   */\n      0x00\n        /* \"#utility.yul\":10190:10278   */\n      mstore\n        /* \"#utility.yul\":10297:10301   */\n      0x32\n        /* \"#utility.yul\":10294:10295   */\n      0x04\n        /* \"#utility.yul\":10287:10302   */\n      mstore\n        /* \"#utility.yul\":10321:10325   */\n      0x24\n        /* \"#utility.yul\":10318:10319   */\n      0x00\n        /* \"#utility.yul\":10311:10326   */\n      revert\n        /* \"#utility.yul\":10461:10578   */\n    tag_113:\n        /* \"#utility.yul\":10570:10571   */\n      0x00\n        /* \"#utility.yul\":10567:10568   */\n      dup1\n        /* \"#utility.yul\":10560:10572   */\n      revert\n        /* \"#utility.yul\":10584:10686   */\n    tag_136:\n        /* \"#utility.yul\":10625:10631   */\n      0x00\n        /* \"#utility.yul\":10676:10678   */\n      0x1f\n        /* \"#utility.yul\":10672:10679   */\n      not\n        /* \"#utility.yul\":10667:10669   */\n      0x1f\n        /* \"#utility.yul\":10660:10665   */\n      dup4\n        /* \"#utility.yul\":10656:10670   */\n      add\n        /* \"#utility.yul\":10652:10680   */\n      and\n        /* \"#utility.yul\":10642:10680   */\n      swap1\n      pop\n        /* \"#utility.yul\":10584:10686   */\n      swap2\n      swap1\n      pop\n      jump\t// out\n        /* \"#utility.yul\":10692:10865   */\n    tag_160:\n        /* \"#utility.yul\":10832:10857   */\n      0x596f752063616e206f6e6c7920766f7465206f6e636521000000000000000000\n        /* \"#utility.yul\":10828:10829   */\n      0x00\n        /* \"#utility.yul\":10820:10826   */\n      dup3\n        /* \"#utility.yul\":10816:10830   */\n      add\n        /* \"#utility.yul\":10809:10858   */\n      mstore\n        /* \"#utility.yul\":10692:10865   */\n      pop\n      jump\t// out\n        /* \"#utility.yul\":10871:11042   */\n    tag_165:\n        /* \"#utility.yul\":11011:11034   */\n      0x4e6f2063616e646964617465732070726573656e740000000000000000000000\n        /* \"#utility.yul\":11007:11008   */\n      0x00\n        /* \"#utility.yul\":10999:11005   */\n      dup3\n        /* \"#utility.yul\":10995:11009   */\n      add\n        /* \"#utility.yul\":10988:11035   */\n      mstore\n        /* \"#utility.yul\":10871:11042   */\n      pop\n      jump\t// out\n        /* \"#utility.yul\":11048:11170   */\n    tag_105:\n        /* \"#utility.yul\":11121:11145   */\n      tag_239\n        /* \"#utility.yul\":11139:11144   */\n      dup2\n        /* \"#utility.yul\":11121:11145   */\n      tag_122\n      jump\t// in\n    tag_239:\n        /* \"#utility.yul\":11114:11119   */\n      dup2\n        /* \"#utility.yul\":11111:11146   */\n      eq\n        /* \"#utility.yul\":11101:11164   */\n      tag_240\n      jumpi\n        /* \"#utility.yul\":11160:11161   */\n      0x00\n        /* \"#utility.yul\":11157:11158   */\n      dup1\n        /* \"#utility.yul\":11150:11162   */\n      revert\n        /* \"#utility.yul\":11101:11164   */\n    tag_240:\n        /* \"#utility.yul\":11048:11170   */\n      pop\n      jump\t// out\n        /* \"#utility.yul\":11176:11298   */\n    tag_109:\n        /* \"#utility.yul\":11249:11273   */\n      tag_242\n        /* \"#utility.yul\":11267:11272   */\n      dup2\n        /* \"#utility.yul\":11249:11273   */\n      tag_206\n      jump\t// in\n    tag_242:\n        /* \"#utility.yul\":11242:11247   */\n      dup2\n        /* \"#utility.yul\":11239:11274   */\n      eq\n        /* \"#utility.yul\":11229:11292   */\n      tag_243\n      jumpi\n        /* \"#utility.yul\":11288:11289   */\n      0x00\n        /* \"#utility.yul\":11285:11286   */\n      dup1\n        /* \"#utility.yul\":11278:11290   */\n      revert\n        /* \"#utility.yul\":11229:11292   */\n    tag_243:\n        /* \"#utility.yul\":11176:11298   */\n      pop\n      jump\t// out\n\n    auxdata: 0xa2646970667358221220c602800768e14ed11fa5d34faaa769f93443672592322b103bb93daaaa03b9d064736f6c63430008070033\n}\n",
				"bytecode": {
					"linkReferences": {},
					"object": "60806040526000600360006101000a81548160ff02191690831515021790555034801561002b57600080fd5b50336000806101000a81548173ffffffffffffffffffffffffffffffffffffffff021916908373ffffffffffffffffffffffffffffffffffffffff160217905550610dc98061007b6000396000f3fe608060405234801561001057600080fd5b50600436106100625760003560e01c80630121b93f1461006757806309eef43e1461008357806312fa6feb146100b35780632e4176cf146100d15780633477ee2e146100ef5780638e7ea5b214610121575b600080fd5b610081600480360381019061007c91906107cd565b61013f565b005b61009d600480360381019061009891906107a0565b610334565b6040516100aa91906109e0565b60405180910390f35b6100bb610354565b6040516100c891906109e0565b60405180910390f35b6100d9610367565b6040516100e691906109c5565b60405180910390f35b610109600480360381019061010491906107cd565b61038b565b604051610118939291906109fb565b60405180910390f35b6101296104e2565b6040516101369190610ab0565b60405180910390f35b60001515600260003373ffffffffffffffffffffffffffffffffffffffff1673ffffffffffffffffffffffffffffffffffffffff16815260200190815260200160002060009054906101000a900460ff161515146101d2576040517f08c379a00000000000000000000000000000000000000000000000000000000081526004016101c990610a70565b60405180910390fd5b60003390506001600260008373ffffffffffffffffffffffffffffffffffffffff1673ffffffffffffffffffffffffffffffffffffffff16815260200190815260200160002060006101000a81548160ff0219169083151502179055506001828154811061024357610242610cce565b5b9060005260206000209060030201600201600081819054906101000a900460ff168092919061027190610c17565b91906101000a81548160ff021916908360ff160217905550508073ffffffffffffffffffffffffffffffffffffffff167f49b41d09878c9bae21ceed50db0570c2a3fb297ee46d9afd8f9c672f2a118383600184815481106102d6576102d5610cce565b5b9060005260206000209060030201600001600185815481106102fb576102fa610cce565b5b906000526020600020906003020160020160009054906101000a900460ff16604051610328929190610a40565b60405180910390a25050565b60026020528060005260406000206000915054906101000a900460ff1681565b600360009054906101000a900460ff1681565b60008054906101000a900473ffffffffffffffffffffffffffffffffffffffff1681565b6001818154811061039b57600080fd5b90600052602060002090600302016000915090508060000180546103be90610b9c565b80601f01602080910402602001604051908101604052809291908181526020018280546103ea90610b9c565b80156104375780601f1061040c57610100808354040283529160200191610437565b820191906000526020600020905b81548152906001019060200180831161041a57829003601f168201915b50505050509080600101805461044c90610b9c565b80601f016020809104026020016040519081016040528092919081815260200182805461047890610b9c565b80156104c55780601f1061049a576101008083540402835291602001916104c5565b820191906000526020600020905b8154815290600101906020018083116104a857829003601f168201915b5050505050908060020160009054906101000a900460ff16905083565b6104ea610752565b600060018054905011610532576040517f08c379a000000000000000000000000000000000000000000000000000000000815260040161052990610a90565b60405180910390fd5b6000805b60018054905081101561073c57816001828154811061055857610557610cce565b5b906000526020600020906003020160020160009054906101000a900460ff1660ff161115610729576001818154811061059457610593610cce565b5b906000526020600020906003020160020160009054906101000a900460ff1660ff169150600181815481106105cc576105cb610cce565b5b90600052602060002090600302016040518060600160405290816000820180546105f590610b9c565b80601f016020809104026020016040519081016040528092919081815260200182805461062190610b9c565b801561066e5780601f106106435761010080835404028352916020019161066e565b820191906000526020600020905b81548152906001019060200180831161065157829003601f168201915b5050505050815260200160018201805461068790610b9c565b80601f01602080910402602001604051908101604052809291908181526020018280546106b390610b9c565b80156107005780601f106106d557610100808354040283529160200191610700565b820191906000526020600020905b8154815290600101906020018083116106e357829003601f168201915b505050505081526020016002820160009054906101000a900460ff1660ff1660ff168152505092505b808061073490610bce565b915050610536565b506000811161074e5761074d610c41565b5b5090565b60405180606001604052806060815260200160608152602001600060ff1681525090565b60008135905061078581610d65565b92915050565b60008135905061079a81610d7c565b92915050565b6000602082840312156107b6576107b5610cfd565b5b60006107c484828501610776565b91505092915050565b6000602082840312156107e3576107e2610cfd565b5b60006107f18482850161078b565b91505092915050565b61080381610b14565b82525050565b61081281610b26565b82525050565b600061082382610ae7565b61082d8185610af2565b935061083d818560208601610b69565b61084681610d02565b840191505092915050565b600061085c82610ae7565b6108668185610b03565b9350610876818560208601610b69565b61087f81610d02565b840191505092915050565b6000815461089781610b9c565b6108a18186610b03565b945060018216600081146108bc57600181146108ce57610901565b60ff1983168652602086019350610901565b6108d785610ad2565b60005b838110156108f9578154818901526001820191506020810190506108da565b808801955050505b50505092915050565b6000610917601783610b03565b915061092282610d13565b602082019050919050565b600061093a601583610b03565b915061094582610d3c565b602082019050919050565b6000606083016000830151848203600086015261096d8282610818565b915050602083015184820360208601526109878282610818565b915050604083015161099c60408601826109a7565b508091505092915050565b6109b081610b5c565b82525050565b6109bf81610b5c565b82525050565b60006020820190506109da60008301846107fa565b92915050565b60006020820190506109f56000830184610809565b92915050565b60006060820190508181036000830152610a158186610851565b90508181036020830152610a298185610851565b9050610a3860408301846109b6565b949350505050565b60006040820190508181036000830152610a5a818561088a565b9050610a6960208301846109b6565b9392505050565b60006020820190508181036000830152610a898161090a565b9050919050565b60006020820190508181036000830152610aa98161092d565b9050919050565b60006020820190508181036000830152610aca8184610950565b905092915050565b60008190508160005260206000209050919050565b600081519050919050565b600082825260208201905092915050565b600082825260208201905092915050565b6000610b1f82610b32565b9050919050565b60008115159050919050565b600073ffffffffffffffffffffffffffffffffffffffff82169050919050565b6000819050919050565b600060ff82169050919050565b60005b83811015610b87578082015181840152602081019050610b6c565b83811115610b96576000848401525b50505050565b60006002820490506001821680610bb457607f821691505b60208210811415610bc857610bc7610c9f565b5b50919050565b6000610bd982610b52565b91507fffffffffffffffffffffffffffffffffffffffffffffffffffffffffffffffff821415610c0c57610c0b610c70565b5b600182019050919050565b6000610c2282610b5c565b915060ff821415610c3657610c35610c70565b5b600182019050919050565b7f4e487b7100000000000000000000000000000000000000000000000000000000600052600160045260246000fd5b7f4e487b7100000000000000000000000000000000000000000000000000000000600052601160045260246000fd5b7f4e487b7100000000000000000000000000000000000000000000000000000000600052602260045260246000fd5b7f4e487b7100000000000000000000000000000000000000000000000000000000600052603260045260246000fd5b600080fd5b6000601f19601f8301169050919050565b7f596f752063616e206f6e6c7920766f7465206f6e636521000000000000000000600082015250565b7f4e6f2063616e646964617465732070726573656e740000000000000000000000600082015250565b610d6e81610b14565b8114610d7957600080fd5b50565b610d8581610b52565b8114610d9057600080fd5b5056fea2646970667358221220c602800768e14ed11fa5d34faaa769f93443672592322b103bb93daaaa03b9d064736f6c63430008070033",
					"opcodes": "PUSH1 0x80 PUSH1 0x40 MSTORE PUSH1 0x0 PUSH1 0x3 PUSH1 0x0 PUSH2 0x100 EXP DUP2 SLOAD DUP2 PUSH1 0xFF MUL NOT AND SWAP1 DUP4 ISZERO ISZERO MUL OR SWAP1 SSTORE POP CALLVALUE DUP1 ISZERO PUSH2 0x2B JUMPI PUSH1 0x0 DUP1 REVERT JUMPDEST POP CALLER PUSH1 0x0 DUP1 PUSH2 0x100 EXP DUP2 SLOAD DUP2 PUSH20 0xFFFFFFFFFFFFFFFFFFFFFFFFFFFFFFFFFFFFFFFF MUL NOT AND SWAP1 DUP4 PUSH20 0xFFFFFFFFFFFFFFFFFFFFFFFFFFFFFFFFFFFFFFFF AND MUL OR SWAP1 SSTORE POP PUSH2 0xDC9 DUP1 PUSH2 0x7B PUSH1 0x0 CODECOPY PUSH1 0x0 RETURN INVALID PUSH1 0x80 PUSH1 0x40 MSTORE CALLVALUE DUP1 ISZERO PUSH2 0x10 JUMPI PUSH1 0x0 DUP1 REVERT JUMPDEST POP PUSH1 0x4 CALLDATASIZE LT PUSH2 0x62 JUMPI PUSH1 0x0 CALLDATALOAD PUSH1 0xE0 SHR DUP1 PUSH4 0x121B93F EQ PUSH2 0x67 JUMPI DUP1 PUSH4 0x9EEF43E EQ PUSH2 0x83 JUMPI DUP1 PUSH4 0x12FA6FEB EQ PUSH2 0xB3 JUMPI DUP1 PUSH4 0x2E4176CF EQ PUSH2 0xD1 JUMPI DUP1 PUSH4 0x3477EE2E EQ PUSH2 0xEF JUMPI DUP1 PUSH4 0x8E7EA5B2 EQ PUSH2 0x121 JUMPI JUMPDEST PUSH1 0x0 DUP1 REVERT JUMPDEST PUSH2 0x81 PUSH1 0x4 DUP1 CALLDATASIZE SUB DUP2 ADD SWAP1 PUSH2 0x7C SWAP2 SWAP1 PUSH2 0x7CD JUMP JUMPDEST PUSH2 0x13F JUMP JUMPDEST STOP JUMPDEST PUSH2 0x9D PUSH1 0x4 DUP1 CALLDATASIZE SUB DUP2 ADD SWAP1 PUSH2 0x98 SWAP2 SWAP1 PUSH2 0x7A0 JUMP JUMPDEST PUSH2 0x334 JUMP JUMPDEST PUSH1 0x40 MLOAD PUSH2 0xAA SWAP2 SWAP1 PUSH2 0x9E0 JUMP JUMPDEST PUSH1 0x40 MLOAD DUP1 SWAP2 SUB SWAP1 RETURN JUMPDEST PUSH2 0xBB PUSH2 0x354 JUMP JUMPDEST PUSH1 0x40 MLOAD PUSH2 0xC8 SWAP2 SWAP1 PUSH2 0x9E0 JUMP JUMPDEST PUSH1 0x40 MLOAD DUP1 SWAP2 SUB SWAP1 RETURN JUMPDEST PUSH2 0xD9 PUSH2 0x367 JUMP JUMPDEST PUSH1 0x40 MLOAD PUSH2 0xE6 SWAP2 SWAP1 PUSH2 0x9C5 JUMP JUMPDEST PUSH1 0x40 MLOAD DUP1 SWAP2 SUB SWAP1 RETURN JUMPDEST PUSH2 0x109 PUSH1 0x4 DUP1 CALLDATASIZE SUB DUP2 ADD SWAP1 PUSH2 0x104 SWAP2 SWAP1 PUSH2 0x7CD JUMP JUMPDEST PUSH2 0x38B JUMP JUMPDEST PUSH1 0x40 MLOAD PUSH2 0x118 SWAP4 SWAP3 SWAP2 SWAP1 PUSH2 0x9FB JUMP JUMPDEST PUSH1 0x40 MLOAD DUP1 SWAP2 SUB SWAP1 RETURN JUMPDEST PUSH2 0x129 PUSH2 0x4E2 JUMP JUMPDEST PUSH1 0x40 MLOAD PUSH2 0x136 SWAP2 SWAP1 PUSH2 0xAB0 JUMP JUMPDEST PUSH1 0x40 MLOAD DUP1 SWAP2 SUB SWAP1 RETURN JUMPDEST PUSH1 0x0 ISZERO ISZERO PUSH1 0x2 PUSH1 0x0 CALLER PUSH20 0xFFFFFFFFFFFFFFFFFFFFFFFFFFFFFFFFFFFFFFFF AND PUSH20 0xFFFFFFFFFFFFFFFFFFFFFFFFFFFFFFFFFFFFFFFF AND DUP2 MSTORE PUSH1 0x20 ADD SWAP1 DUP2 MSTORE PUSH1 0x20 ADD PUSH1 0x0 KECCAK256 PUSH1 0x0 SWAP1 SLOAD SWAP1 PUSH2 0x100 EXP SWAP1 DIV PUSH1 0xFF AND ISZERO ISZERO EQ PUSH2 0x1D2 JUMPI PUSH1 0x40 MLOAD PUSH32 0x8C379A000000000000000000000000000000000000000000000000000000000 DUP2 MSTORE PUSH1 0x4 ADD PUSH2 0x1C9 SWAP1 PUSH2 0xA70 JUMP JUMPDEST PUSH1 0x40 MLOAD DUP1 SWAP2 SUB SWAP1 REVERT JUMPDEST PUSH1 0x0 CALLER SWAP1 POP PUSH1 0x1 PUSH1 0x2 PUSH1 0x0 DUP4 PUSH20 0xFFFFFFFFFFFFFFFFFFFFFFFFFFFFFFFFFFFFFFFF AND PUSH20 0xFFFFFFFFFFFFFFFFFFFFFFFFFFFFFFFFFFFFFFFF AND DUP2 MSTORE PUSH1 0x20 ADD SWAP1 DUP2 MSTORE PUSH1 0x20 ADD PUSH1 0x0 KECCAK256 PUSH1 0x0 PUSH2 0x100 EXP DUP2 SLOAD DUP2 PUSH1 0xFF MUL NOT AND SWAP1 DUP4 ISZERO ISZERO MUL OR SWAP1 SSTORE POP PUSH1 0x1 DUP3 DUP2 SLOAD DUP2 LT PUSH2 0x243 JUMPI PUSH2 0x242 PUSH2 0xCCE JUMP JUMPDEST JUMPDEST SWAP1 PUSH1 0x0 MSTORE PUSH1 0x20 PUSH1 0x0 KECCAK256 SWAP1 PUSH1 0x3 MUL ADD PUSH1 0x2 ADD PUSH1 0x0 DUP2 DUP2 SWAP1 SLOAD SWAP1 PUSH2 0x100 EXP SWAP1 DIV PUSH1 0xFF AND DUP1 SWAP3 SWAP2 SWAP1 PUSH2 0x271 SWAP1 PUSH2 0xC17 JUMP JUMPDEST SWAP2 SWAP1 PUSH2 0x100 EXP DUP2 SLOAD DUP2 PUSH1 0xFF MUL NOT AND SWAP1 DUP4 PUSH1 0xFF AND MUL OR SWAP1 SSTORE POP POP DUP1 PUSH20 0xFFFFFFFFFFFFFFFFFFFFFFFFFFFFFFFFFFFFFFFF AND PUSH32 0x49B41D09878C9BAE21CEED50DB0570C2A3FB297EE46D9AFD8F9C672F2A118383 PUSH1 0x1 DUP5 DUP2 SLOAD DUP2 LT PUSH2 0x2D6 JUMPI PUSH2 0x2D5 PUSH2 0xCCE JUMP JUMPDEST JUMPDEST SWAP1 PUSH1 0x0 MSTORE PUSH1 0x20 PUSH1 0x0 KECCAK256 SWAP1 PUSH1 0x3 MUL ADD PUSH1 0x0 ADD PUSH1 0x1 DUP6 DUP2 SLOAD DUP2 LT PUSH2 0x2FB JUMPI PUSH2 0x2FA PUSH2 0xCCE JUMP JUMPDEST JUMPDEST SWAP1 PUSH1 0x0 MSTORE PUSH1 0x20 PUSH1 0x0 KECCAK256 SWAP1 PUSH1 0x3 MUL ADD PUSH1 0x2 ADD PUSH1 0x0 SWAP1 SLOAD SWAP1 PUSH2 0x100 EXP SWAP1 DIV PUSH1 0xFF AND PUSH1 0x40 MLOAD PUSH2 0x328 SWAP3 SWAP2 SWAP1 PUSH2 0xA40 JUMP JUMPDEST PUSH1 0x40 MLOAD DUP1 SWAP2 SUB SWAP1 LOG2 POP POP JUMP JUMPDEST PUSH1 0x2 PUSH1 0x20 MSTORE DUP1 PUSH1 0x0 MSTORE PUSH1 0x40 PUSH1 0x0 KECCAK256 PUSH1 0x0 SWAP2 POP SLOAD SWAP1 PUSH2 0x100 EXP SWAP1 DIV PUSH1 0xFF AND DUP2 JUMP JUMPDEST PUSH1 0x3 PUSH1 0x0 SWAP1 SLOAD SWAP1 PUSH2 0x100 EXP SWAP1 DIV PUSH1 0xFF AND DUP2 JUMP JUMPDEST PUSH1 0x0 DUP1 SLOAD SWAP1 PUSH2 0x100 EXP SWAP1 DIV PUSH20 0xFFFFFFFFFFFFFFFFFFFFFFFFFFFFFFFFFFFFFFFF AND DUP2 JUMP JUMPDEST PUSH1 0x1 DUP2 DUP2 SLOAD DUP2 LT PUSH2 0x39B JUMPI PUSH1 0x0 DUP1 REVERT JUMPDEST SWAP1 PUSH1 0x0 MSTORE PUSH1 0x20 PUSH1 0x0 KECCAK256 SWAP1 PUSH1 0x3 MUL ADD PUSH1 0x0 SWAP2 POP SWAP1 POP DUP1 PUSH1 0x0 ADD DUP1 SLOAD PUSH2 0x3BE SWAP1 PUSH2 0xB9C JUMP JUMPDEST DUP1 PUSH1 0x1F ADD PUSH1 0x20 DUP1 SWAP2 DIV MUL PUSH1 0x20 ADD PUSH1 0x40 MLOAD SWAP1 DUP2 ADD PUSH1 0x40 MSTORE DUP1 SWAP3 SWAP2 SWAP1 DUP2 DUP2 MSTORE PUSH1 0x20 ADD DUP3 DUP1 SLOAD PUSH2 0x3EA SWAP1 PUSH2 0xB9C JUMP JUMPDEST DUP1 ISZERO PUSH2 0x437 JUMPI DUP1 PUSH1 0x1F LT PUSH2 0x40C JUMPI PUSH2 0x100 DUP1 DUP4 SLOAD DIV MUL DUP4 MSTORE SWAP2 PUSH1 0x20 ADD SWAP2 PUSH2 0x437 JUMP JUMPDEST DUP3 ADD SWAP2 SWAP1 PUSH1 0x0 MSTORE PUSH1 0x20 PUSH1 0x0 KECCAK256 SWAP1 JUMPDEST DUP2 SLOAD DUP2 MSTORE SWAP1 PUSH1 0x1 ADD SWAP1 PUSH1 0x20 ADD DUP1 DUP4 GT PUSH2 0x41A JUMPI DUP3 SWAP1 SUB PUSH1 0x1F AND DUP3 ADD SWAP2 JUMPDEST POP POP POP POP POP SWAP1 DUP1 PUSH1 0x1 ADD DUP1 SLOAD PUSH2 0x44C SWAP1 PUSH2 0xB9C JUMP JUMPDEST DUP1 PUSH1 0x1F ADD PUSH1 0x20 DUP1 SWAP2 DIV MUL PUSH1 0x20 ADD PUSH1 0x40 MLOAD SWAP1 DUP2 ADD PUSH1 0x40 MSTORE DUP1 SWAP3 SWAP2 SWAP1 DUP2 DUP2 MSTORE PUSH1 0x20 ADD DUP3 DUP1 SLOAD PUSH2 0x478 SWAP1 PUSH2 0xB9C JUMP JUMPDEST DUP1 ISZERO PUSH2 0x4C5 JUMPI DUP1 PUSH1 0x1F LT PUSH2 0x49A JUMPI PUSH2 0x100 DUP1 DUP4 SLOAD DIV MUL DUP4 MSTORE SWAP2 PUSH1 0x20 ADD SWAP2 PUSH2 0x4C5 JUMP JUMPDEST DUP3 ADD SWAP2 SWAP1 PUSH1 0x0 MSTORE PUSH1 0x20 PUSH1 0x0 KECCAK256 SWAP1 JUMPDEST DUP2 SLOAD DUP2 MSTORE SWAP1 PUSH1 0x1 ADD SWAP1 PUSH1 0x20 ADD DUP1 DUP4 GT PUSH2 0x4A8 JUMPI DUP3 SWAP1 SUB PUSH1 0x1F AND DUP3 ADD SWAP2 JUMPDEST POP POP POP POP POP SWAP1 DUP1 PUSH1 0x2 ADD PUSH1 0x0 SWAP1 SLOAD SWAP1 PUSH2 0x100 EXP SWAP1 DIV PUSH1 0xFF AND SWAP1 POP DUP4 JUMP JUMPDEST PUSH2 0x4EA PUSH2 0x752 JUMP JUMPDEST PUSH1 0x0 PUSH1 0x1 DUP1 SLOAD SWAP1 POP GT PUSH2 0x532 JUMPI PUSH1 0x40 MLOAD PUSH32 0x8C379A000000000000000000000000000000000000000000000000000000000 DUP2 MSTORE PUSH1 0x4 ADD PUSH2 0x529 SWAP1 PUSH2 0xA90 JUMP JUMPDEST PUSH1 0x40 MLOAD DUP1 SWAP2 SUB SWAP1 REVERT JUMPDEST PUSH1 0x0 DUP1 JUMPDEST PUSH1 0x1 DUP1 SLOAD SWAP1 POP DUP2 LT ISZERO PUSH2 0x73C JUMPI DUP2 PUSH1 0x1 DUP3 DUP2 SLOAD DUP2 LT PUSH2 0x558 JUMPI PUSH2 0x557 PUSH2 0xCCE JUMP JUMPDEST JUMPDEST SWAP1 PUSH1 0x0 MSTORE PUSH1 0x20 PUSH1 0x0 KECCAK256 SWAP1 PUSH1 0x3 MUL ADD PUSH1 0x2 ADD PUSH1 0x0 SWAP1 SLOAD SWAP1 PUSH2 0x100 EXP SWAP1 DIV PUSH1 0xFF AND PUSH1 0xFF AND GT ISZERO PUSH2 0x729 JUMPI PUSH1 0x1 DUP2 DUP2 SLOAD DUP2 LT PUSH2 0x594 JUMPI PUSH2 0x593 PUSH2 0xCCE JUMP JUMPDEST JUMPDEST SWAP1 PUSH1 0x0 MSTORE PUSH1 0x20 PUSH1 0x0 KECCAK256 SWAP1 PUSH1 0x3 MUL ADD PUSH1 0x2 ADD PUSH1 0x0 SWAP1 SLOAD SWAP1 PUSH2 0x100 EXP SWAP1 DIV PUSH1 0xFF AND PUSH1 0xFF AND SWAP2 POP PUSH1 0x1 DUP2 DUP2 SLOAD DUP2 LT PUSH2 0x5CC JUMPI PUSH2 0x5CB PUSH2 0xCCE JUMP JUMPDEST JUMPDEST SWAP1 PUSH1 0x0 MSTORE PUSH1 0x20 PUSH1 0x0 KECCAK256 SWAP1 PUSH1 0x3 MUL ADD PUSH1 0x40 MLOAD DUP1 PUSH1 0x60 ADD PUSH1 0x40 MSTORE SWAP1 DUP2 PUSH1 0x0 DUP3 ADD DUP1 SLOAD PUSH2 0x5F5 SWAP1 PUSH2 0xB9C JUMP JUMPDEST DUP1 PUSH1 0x1F ADD PUSH1 0x20 DUP1 SWAP2 DIV MUL PUSH1 0x20 ADD PUSH1 0x40 MLOAD SWAP1 DUP2 ADD PUSH1 0x40 MSTORE DUP1 SWAP3 SWAP2 SWAP1 DUP2 DUP2 MSTORE PUSH1 0x20 ADD DUP3 DUP1 SLOAD PUSH2 0x621 SWAP1 PUSH2 0xB9C JUMP JUMPDEST DUP1 ISZERO PUSH2 0x66E JUMPI DUP1 PUSH1 0x1F LT PUSH2 0x643 JUMPI PUSH2 0x100 DUP1 DUP4 SLOAD DIV MUL DUP4 MSTORE SWAP2 PUSH1 0x20 ADD SWAP2 PUSH2 0x66E JUMP JUMPDEST DUP3 ADD SWAP2 SWAP1 PUSH1 0x0 MSTORE PUSH1 0x20 PUSH1 0x0 KECCAK256 SWAP1 JUMPDEST DUP2 SLOAD DUP2 MSTORE SWAP1 PUSH1 0x1 ADD SWAP1 PUSH1 0x20 ADD DUP1 DUP4 GT PUSH2 0x651 JUMPI DUP3 SWAP1 SUB PUSH1 0x1F AND DUP3 ADD SWAP2 JUMPDEST POP POP POP POP POP DUP2 MSTORE PUSH1 0x20 ADD PUSH1 0x1 DUP3 ADD DUP1 SLOAD PUSH2 0x687 SWAP1 PUSH2 0xB9C JUMP JUMPDEST DUP1 PUSH1 0x1F ADD PUSH1 0x20 DUP1 SWAP2 DIV MUL PUSH1 0x20 ADD PUSH1 0x40 MLOAD SWAP1 DUP2 ADD PUSH1 0x40 MSTORE DUP1 SWAP3 SWAP2 SWAP1 DUP2 DUP2 MSTORE PUSH1 0x20 ADD DUP3 DUP1 SLOAD PUSH2 0x6B3 SWAP1 PUSH2 0xB9C JUMP JUMPDEST DUP1 ISZERO PUSH2 0x700 JUMPI DUP1 PUSH1 0x1F LT PUSH2 0x6D5 JUMPI PUSH2 0x100 DUP1 DUP4 SLOAD DIV MUL DUP4 MSTORE SWAP2 PUSH1 0x20 ADD SWAP2 PUSH2 0x700 JUMP JUMPDEST DUP3 ADD SWAP2 SWAP1 PUSH1 0x0 MSTORE PUSH1 0x20 PUSH1 0x0 KECCAK256 SWAP1 JUMPDEST DUP2 SLOAD DUP2 MSTORE SWAP1 PUSH1 0x1 ADD SWAP1 PUSH1 0x20 ADD DUP1 DUP4 GT PUSH2 0x6E3 JUMPI DUP3 SWAP1 SUB PUSH1 0x1F AND DUP3 ADD SWAP2 JUMPDEST POP POP POP POP POP DUP2 MSTORE PUSH1 0x20 ADD PUSH1 0x2 DUP3 ADD PUSH1 0x0 SWAP1 SLOAD SWAP1 PUSH2 0x100 EXP SWAP1 DIV PUSH1 0xFF AND PUSH1 0xFF AND PUSH1 0xFF AND DUP2 MSTORE POP POP SWAP3 POP JUMPDEST DUP1 DUP1 PUSH2 0x734 SWAP1 PUSH2 0xBCE JUMP JUMPDEST SWAP2 POP POP PUSH2 0x536 JUMP JUMPDEST POP PUSH1 0x0 DUP2 GT PUSH2 0x74E JUMPI PUSH2 0x74D PUSH2 0xC41 JUMP JUMPDEST JUMPDEST POP SWAP1 JUMP JUMPDEST PUSH1 0x40 MLOAD DUP1 PUSH1 0x60 ADD PUSH1 0x40 MSTORE DUP1 PUSH1 0x60 DUP2 MSTORE PUSH1 0x20 ADD PUSH1 0x60 DUP2 MSTORE PUSH1 0x20 ADD PUSH1 0x0 PUSH1 0xFF AND DUP2 MSTORE POP SWAP1 JUMP JUMPDEST PUSH1 0x0 DUP2 CALLDATALOAD SWAP1 POP PUSH2 0x785 DUP2 PUSH2 0xD65 JUMP JUMPDEST SWAP3 SWAP2 POP POP JUMP JUMPDEST PUSH1 0x0 DUP2 CALLDATALOAD SWAP1 POP PUSH2 0x79A DUP2 PUSH2 0xD7C JUMP JUMPDEST SWAP3 SWAP2 POP POP JUMP JUMPDEST PUSH1 0x0 PUSH1 0x20 DUP3 DUP5 SUB SLT ISZERO PUSH2 0x7B6 JUMPI PUSH2 0x7B5 PUSH2 0xCFD JUMP JUMPDEST JUMPDEST PUSH1 0x0 PUSH2 0x7C4 DUP5 DUP3 DUP6 ADD PUSH2 0x776 JUMP JUMPDEST SWAP2 POP POP SWAP3 SWAP2 POP POP JUMP JUMPDEST PUSH1 0x0 PUSH1 0x20 DUP3 DUP5 SUB SLT ISZERO PUSH2 0x7E3 JUMPI PUSH2 0x7E2 PUSH2 0xCFD JUMP JUMPDEST JUMPDEST PUSH1 0x0 PUSH2 0x7F1 DUP5 DUP3 DUP6 ADD PUSH2 0x78B JUMP JUMPDEST SWAP2 POP POP SWAP3 SWAP2 POP POP JUMP JUMPDEST PUSH2 0x803 DUP2 PUSH2 0xB14 JUMP JUMPDEST DUP3 MSTORE POP POP JUMP JUMPDEST PUSH2 0x812 DUP2 PUSH2 0xB26 JUMP JUMPDEST DUP3 MSTORE POP POP JUMP JUMPDEST PUSH1 0x0 PUSH2 0x823 DUP3 PUSH2 0xAE7 JUMP JUMPDEST PUSH2 0x82D DUP2 DUP6 PUSH2 0xAF2 JUMP JUMPDEST SWAP4 POP PUSH2 0x83D DUP2 DUP6 PUSH1 0x20 DUP7 ADD PUSH2 0xB69 JUMP JUMPDEST PUSH2 0x846 DUP2 PUSH2 0xD02 JUMP JUMPDEST DUP5 ADD SWAP2 POP POP SWAP3 SWAP2 POP POP JUMP JUMPDEST PUSH1 0x0 PUSH2 0x85C DUP3 PUSH2 0xAE7 JUMP JUMPDEST PUSH2 0x866 DUP2 DUP6 PUSH2 0xB03 JUMP JUMPDEST SWAP4 POP PUSH2 0x876 DUP2 DUP6 PUSH1 0x20 DUP7 ADD PUSH2 0xB69 JUMP JUMPDEST PUSH2 0x87F DUP2 PUSH2 0xD02 JUMP JUMPDEST DUP5 ADD SWAP2 POP POP SWAP3 SWAP2 POP POP JUMP JUMPDEST PUSH1 0x0 DUP2 SLOAD PUSH2 0x897 DUP2 PUSH2 0xB9C JUMP JUMPDEST PUSH2 0x8A1 DUP2 DUP7 PUSH2 0xB03 JUMP JUMPDEST SWAP5 POP PUSH1 0x1 DUP3 AND PUSH1 0x0 DUP2 EQ PUSH2 0x8BC JUMPI PUSH1 0x1 DUP2 EQ PUSH2 0x8CE JUMPI PUSH2 0x901 JUMP JUMPDEST PUSH1 0xFF NOT DUP4 AND DUP7 MSTORE PUSH1 0x20 DUP7 ADD SWAP4 POP PUSH2 0x901 JUMP JUMPDEST PUSH2 0x8D7 DUP6 PUSH2 0xAD2 JUMP JUMPDEST PUSH1 0x0 JUMPDEST DUP4 DUP2 LT ISZERO PUSH2 0x8F9 JUMPI DUP2 SLOAD DUP2 DUP10 ADD MSTORE PUSH1 0x1 DUP3 ADD SWAP2 POP PUSH1 0x20 DUP2 ADD SWAP1 POP PUSH2 0x8DA JUMP JUMPDEST DUP1 DUP9 ADD SWAP6 POP POP POP JUMPDEST POP POP POP SWAP3 SWAP2 POP POP JUMP JUMPDEST PUSH1 0x0 PUSH2 0x917 PUSH1 0x17 DUP4 PUSH2 0xB03 JUMP JUMPDEST SWAP2 POP PUSH2 0x922 DUP3 PUSH2 0xD13 JUMP JUMPDEST PUSH1 0x20 DUP3 ADD SWAP1 POP SWAP2 SWAP1 POP JUMP JUMPDEST PUSH1 0x0 PUSH2 0x93A PUSH1 0x15 DUP4 PUSH2 0xB03 JUMP JUMPDEST SWAP2 POP PUSH2 0x945 DUP3 PUSH2 0xD3C JUMP JUMPDEST PUSH1 0x20 DUP3 ADD SWAP1 POP SWAP2 SWAP1 POP JUMP JUMPDEST PUSH1 0x0 PUSH1 0x60 DUP4 ADD PUSH1 0x0 DUP4 ADD MLOAD DUP5 DUP3 SUB PUSH1 0x0 DUP7 ADD MSTORE PUSH2 0x96D DUP3 DUP3 PUSH2 0x818 JUMP JUMPDEST SWAP2 POP POP PUSH1 0x20 DUP4 ADD MLOAD DUP5 DUP3 SUB PUSH1 0x20 DUP7 ADD MSTORE PUSH2 0x987 DUP3 DUP3 PUSH2 0x818 JUMP JUMPDEST SWAP2 POP POP PUSH1 0x40 DUP4 ADD MLOAD PUSH2 0x99C PUSH1 0x40 DUP7 ADD DUP3 PUSH2 0x9A7 JUMP JUMPDEST POP DUP1 SWAP2 POP POP SWAP3 SWAP2 POP POP JUMP JUMPDEST PUSH2 0x9B0 DUP2 PUSH2 0xB5C JUMP JUMPDEST DUP3 MSTORE POP POP JUMP JUMPDEST PUSH2 0x9BF DUP2 PUSH2 0xB5C JUMP JUMPDEST DUP3 MSTORE POP POP JUMP JUMPDEST PUSH1 0x0 PUSH1 0x20 DUP3 ADD SWAP1 POP PUSH2 0x9DA PUSH1 0x0 DUP4 ADD DUP5 PUSH2 0x7FA JUMP JUMPDEST SWAP3 SWAP2 POP POP JUMP JUMPDEST PUSH1 0x0 PUSH1 0x20 DUP3 ADD SWAP1 POP PUSH2 0x9F5 PUSH1 0x0 DUP4 ADD DUP5 PUSH2 0x809 JUMP JUMPDEST SWAP3 SWAP2 POP POP JUMP JUMPDEST PUSH1 0x0 PUSH1 0x60 DUP3 ADD SWAP1 POP DUP2 DUP2 SUB PUSH1 0x0 DUP4 ADD MSTORE PUSH2 0xA15 DUP2 DUP7 PUSH2 0x851 JUMP JUMPDEST SWAP1 POP DUP2 DUP2 SUB PUSH1 0x20 DUP4 ADD MSTORE PUSH2 0xA29 DUP2 DUP6 PUSH2 0x851 JUMP JUMPDEST SWAP1 POP PUSH2 0xA38 PUSH1 0x40 DUP4 ADD DUP5 PUSH2 0x9B6 JUMP JUMPDEST SWAP5 SWAP4 POP POP POP POP JUMP JUMPDEST PUSH1 0x0 PUSH1 0x40 DUP3 ADD SWAP1 POP DUP2 DUP2 SUB PUSH1 0x0 DUP4 ADD MSTORE PUSH2 0xA5A DUP2 DUP6 PUSH2 0x88A JUMP JUMPDEST SWAP1 POP PUSH2 0xA69 PUSH1 0x20 DUP4 ADD DUP5 PUSH2 0x9B6 JUMP JUMPDEST SWAP4 SWAP3 POP POP POP JUMP JUMPDEST PUSH1 0x0 PUSH1 0x20 DUP3 ADD SWAP1 POP DUP2 DUP2 SUB PUSH1 0x0 DUP4 ADD MSTORE PUSH2 0xA89 DUP2 PUSH2 0x90A JUMP JUMPDEST SWAP1 POP SWAP2 SWAP1 POP JUMP JUMPDEST PUSH1 0x0 PUSH1 0x20 DUP3 ADD SWAP1 POP DUP2 DUP2 SUB PUSH1 0x0 DUP4 ADD MSTORE PUSH2 0xAA9 DUP2 PUSH2 0x92D JUMP JUMPDEST SWAP1 POP SWAP2 SWAP1 POP JUMP JUMPDEST PUSH1 0x0 PUSH1 0x20 DUP3 ADD SWAP1 POP DUP2 DUP2 SUB PUSH1 0x0 DUP4 ADD MSTORE PUSH2 0xACA DUP2 DUP5 PUSH2 0x950 JUMP JUMPDEST SWAP1 POP SWAP3 SWAP2 POP POP JUMP JUMPDEST PUSH1 0x0 DUP2 SWAP1 POP DUP2 PUSH1 0x0 MSTORE PUSH1 0x20 PUSH1 0x0 KECCAK256 SWAP1 POP SWAP2 SWAP1 POP JUMP JUMPDEST PUSH1 0x0 DUP2 MLOAD SWAP1 POP SWAP2 SWAP1 POP JUMP JUMPDEST PUSH1 0x0 DUP3 DUP3 MSTORE PUSH1 0x20 DUP3 ADD SWAP1 POP SWAP3 SWAP2 POP POP JUMP JUMPDEST PUSH1 0x0 DUP3 DUP3 MSTORE PUSH1 0x20 DUP3 ADD SWAP1 POP SWAP3 SWAP2 POP POP JUMP JUMPDEST PUSH1 0x0 PUSH2 0xB1F DUP3 PUSH2 0xB32 JUMP JUMPDEST SWAP1 POP SWAP2 SWAP1 POP JUMP JUMPDEST PUSH1 0x0 DUP2 ISZERO ISZERO SWAP1 POP SWAP2 SWAP1 POP JUMP JUMPDEST PUSH1 0x0 PUSH20 0xFFFFFFFFFFFFFFFFFFFFFFFFFFFFFFFFFFFFFFFF DUP3 AND SWAP1 POP SWAP2 SWAP1 POP JUMP JUMPDEST PUSH1 0x0 DUP2 SWAP1 POP SWAP2 SWAP1 POP JUMP JUMPDEST PUSH1 0x0 PUSH1 0xFF DUP3 AND SWAP1 POP SWAP2 SWAP1 POP JUMP JUMPDEST PUSH1 0x0 JUMPDEST DUP4 DUP2 LT ISZERO PUSH2 0xB87 JUMPI DUP1 DUP3 ADD MLOAD DUP2 DUP5 ADD MSTORE PUSH1 0x20 DUP2 ADD SWAP1 POP PUSH2 0xB6C JUMP JUMPDEST DUP4 DUP2 GT ISZERO PUSH2 0xB96 JUMPI PUSH1 0x0 DUP5 DUP5 ADD MSTORE JUMPDEST POP POP POP POP JUMP JUMPDEST PUSH1 0x0 PUSH1 0x2 DUP3 DIV SWAP1 POP PUSH1 0x1 DUP3 AND DUP1 PUSH2 0xBB4 JUMPI PUSH1 0x7F DUP3 AND SWAP2 POP JUMPDEST PUSH1 0x20 DUP3 LT DUP2 EQ ISZERO PUSH2 0xBC8 JUMPI PUSH2 0xBC7 PUSH2 0xC9F JUMP JUMPDEST JUMPDEST POP SWAP2 SWAP1 POP JUMP JUMPDEST PUSH1 0x0 PUSH2 0xBD9 DUP3 PUSH2 0xB52 JUMP JUMPDEST SWAP2 POP PUSH32 0xFFFFFFFFFFFFFFFFFFFFFFFFFFFFFFFFFFFFFFFFFFFFFFFFFFFFFFFFFFFFFFFF DUP3 EQ ISZERO PUSH2 0xC0C JUMPI PUSH2 0xC0B PUSH2 0xC70 JUMP JUMPDEST JUMPDEST PUSH1 0x1 DUP3 ADD SWAP1 POP SWAP2 SWAP1 POP JUMP JUMPDEST PUSH1 0x0 PUSH2 0xC22 DUP3 PUSH2 0xB5C JUMP JUMPDEST SWAP2 POP PUSH1 0xFF DUP3 EQ ISZERO PUSH2 0xC36 JUMPI PUSH2 0xC35 PUSH2 0xC70 JUMP JUMPDEST JUMPDEST PUSH1 0x1 DUP3 ADD SWAP1 POP SWAP2 SWAP1 POP JUMP JUMPDEST PUSH32 0x4E487B7100000000000000000000000000000000000000000000000000000000 PUSH1 0x0 MSTORE PUSH1 0x1 PUSH1 0x4 MSTORE PUSH1 0x24 PUSH1 0x0 REVERT JUMPDEST PUSH32 0x4E487B7100000000000000000000000000000000000000000000000000000000 PUSH1 0x0 MSTORE PUSH1 0x11 PUSH1 0x4 MSTORE PUSH1 0x24 PUSH1 0x0 REVERT JUMPDEST PUSH32 0x4E487B7100000000000000000000000000000000000000000000000000000000 PUSH1 0x0 MSTORE PUSH1 0x22 PUSH1 0x4 MSTORE PUSH1 0x24 PUSH1 0x0 REVERT JUMPDEST PUSH32 0x4E487B7100000000000000000000000000000000000000000000000000000000 PUSH1 0x0 MSTORE PUSH1 0x32 PUSH1 0x4 MSTORE PUSH1 0x24 PUSH1 0x0 REVERT JUMPDEST PUSH1 0x0 DUP1 REVERT JUMPDEST PUSH1 0x0 PUSH1 0x1F NOT PUSH1 0x1F DUP4 ADD AND SWAP1 POP SWAP2 SWAP1 POP JUMP JUMPDEST PUSH32 0x596F752063616E206F6E6C7920766F7465206F6E636521000000000000000000 PUSH1 0x0 DUP3 ADD MSTORE POP JUMP JUMPDEST PUSH32 0x4E6F2063616E646964617465732070726573656E740000000000000000000000 PUSH1 0x0 DUP3 ADD MSTORE POP JUMP JUMPDEST PUSH2 0xD6E DUP2 PUSH2 0xB14 JUMP JUMPDEST DUP2 EQ PUSH2 0xD79 JUMPI PUSH1 0x0 DUP1 REVERT JUMPDEST POP JUMP JUMPDEST PUSH2 0xD85 DUP2 PUSH2 0xB52 JUMP JUMPDEST DUP2 EQ PUSH2 0xD90 JUMPI PUSH1 0x0 DUP1 REVERT JUMPDEST POP JUMP INVALID LOG2 PUSH5 0x6970667358 0x22 SLT KECCAK256 0xC6 MUL DUP1 SMOD PUSH9 0xE14ED11FA5D34FAAA7 PUSH10 0xF93443672592322B103B 0xB9 RETURNDATASIZE 0xAA 0xAA SUB 0xB9 0xD0 PUSH5 0x736F6C6343 STOP ADDMOD SMOD STOP CALLER "
				},
				"gasEstimates": {
					"creation": {
						"codeDepositCost": "705800",
						"executionCost": "49274",
						"totalCost": "755074"
					},
					"external": {
						"candidates(uint256)": "infinite",
						"chairperson()": "2555",
						"ended()": "2493",
						"getWinner()": "infinite",
						"hasVoted(address)": "2845",
						"vote(uint256)": "infinite"
					}
				},
				"methodIdentifiers": {
					"candidates(uint256)": "3477ee2e",
					"chairperson()": "2e4176cf",
					"ended()": "12fa6feb",
					"getWinner()": "8e7ea5b2",
					"hasVoted(address)": "09eef43e",
					"vote(uint256)": "0121b93f"
				}
			},
			"storageLayout": {
				"storage": [
					{
						"astId": 33,
						"contract": "Voting.sol:Election",
						"label": "chairperson",
						"offset": 0,
						"slot": "0",
						"type": "t_address"
					},
					{
						"astId": 37,
						"contract": "Voting.sol:Election",
						"label": "candidates",
						"offset": 0,
						"slot": "1",
						"type": "t_array(t_struct(Candidate)31_storage)dyn_storage"
					},
					{
						"astId": 41,
						"contract": "Voting.sol:Election",
						"label": "hasVoted",
						"offset": 0,
						"slot": "2",
						"type": "t_mapping(t_address,t_bool)"
					},
					{
						"astId": 44,
						"contract": "Voting.sol:Election",
						"label": "ended",
						"offset": 0,
						"slot": "3",
						"type": "t_bool"
					},
					{
						"astId": 46,
						"contract": "Voting.sol:Election",
						"label": "endDate",
						"offset": 0,
						"slot": "4",
						"type": "t_uint256"
					}
				],
				"types": {
					"t_address": {
						"encoding": "inplace",
						"label": "address",
						"numberOfBytes": "20"
					},
					"t_array(t_struct(Candidate)31_storage)dyn_storage": {
						"base": "t_struct(Candidate)31_storage",
						"encoding": "dynamic_array",
						"label": "struct Election.Candidate[]",
						"numberOfBytes": "32"
					},
					"t_bool": {
						"encoding": "inplace",
						"label": "bool",
						"numberOfBytes": "1"
					},
					"t_mapping(t_address,t_bool)": {
						"encoding": "mapping",
						"key": "t_address",
						"label": "mapping(address => bool)",
						"numberOfBytes": "32",
						"value": "t_bool"
					},
					"t_string_storage": {
						"encoding": "bytes",
						"label": "string",
						"numberOfBytes": "32"
					},
					"t_struct(Candidate)31_storage": {
						"encoding": "inplace",
						"label": "struct Election.Candidate",
						"members": [
							{
								"astId": 26,
								"contract": "Voting.sol:Election",
								"label": "name",
								"offset": 0,
								"slot": "0",
								"type": "t_string_storage"
							},
							{
								"astId": 28,
								"contract": "Voting.sol:Election",
								"label": "description",
								"offset": 0,
								"slot": "1",
								"type": "t_string_storage"
							},
							{
								"astId": 30,
								"contract": "Voting.sol:Election",
								"label": "voteCount",
								"offset": 0,
								"slot": "2",
								"type": "t_uint8"
							}
						],
						"numberOfBytes": "96"
					},
					"t_uint256": {
						"encoding": "inplace",
						"label": "uint256",
						"numberOfBytes": "32"
					},
					"t_uint8": {
						"encoding": "inplace",
						"label": "uint8",
						"numberOfBytes": "1"
					}
				}
			},
			"userdoc": {
				"kind": "user",
				"methods": {},
				"version": 1
			}
		}
	}
}