{
	"Voting.sol": {
		"Platform": {
			"abi": [
				{
					"inputs": [],
					"name": "getAllElections",
					"outputs": [],
					"stateMutability": "nonpayable",
					"type": "function"
				},
				{
					"inputs": [],
					"name": "getMyPolls",
					"outputs": [],
					"stateMutability": "nonpayable",
					"type": "function"
				},
				{
					"inputs": [],
					"name": "getPollById",
					"outputs": [],
					"stateMutability": "nonpayable",
					"type": "function"
				}
			],
			"devdoc": {
				"kind": "dev",
				"methods": {},
				"version": 1
			},
			"evm": {
				"assembly": "    /* \"Voting.sol\":72:299  contract Platform {\r... */\n  mstore(0x40, 0x80)\n  callvalue\n  dup1\n  iszero\n  tag_1\n  jumpi\n  0x00\n  dup1\n  revert\ntag_1:\n  pop\n  dataSize(sub_0)\n  dup1\n  dataOffset(sub_0)\n  0x00\n  codecopy\n  0x00\n  return\nstop\n\nsub_0: assembly {\n        /* \"Voting.sol\":72:299  contract Platform {\r... */\n      mstore(0x40, 0x80)\n      callvalue\n      dup1\n      iszero\n      tag_1\n      jumpi\n      0x00\n      dup1\n      revert\n    tag_1:\n      pop\n      jumpi(tag_2, lt(calldatasize, 0x04))\n      shr(0xe0, calldataload(0x00))\n      dup1\n      0x170b5add\n      eq\n      tag_3\n      jumpi\n      dup1\n      0x7fd5f268\n      eq\n      tag_4\n      jumpi\n      dup1\n      0x9d977062\n      eq\n      tag_5\n      jumpi\n    tag_2:\n      0x00\n      dup1\n      revert\n        /* \"Voting.sol\":265:296  function getMyPolls() public {} */\n    tag_3:\n      tag_6\n      tag_7\n      jump\t// in\n    tag_6:\n      stop\n        /* \"Voting.sol\":181:217  function getAllElections() public {} */\n    tag_4:\n      tag_8\n      tag_9\n      jump\t// in\n    tag_8:\n      stop\n        /* \"Voting.sol\":225:257  function getPollById() public {} */\n    tag_5:\n      tag_10\n      tag_11\n      jump\t// in\n    tag_10:\n      stop\n        /* \"Voting.sol\":265:296  function getMyPolls() public {} */\n    tag_7:\n      jump\t// out\n        /* \"Voting.sol\":181:217  function getAllElections() public {} */\n    tag_9:\n      jump\t// out\n        /* \"Voting.sol\":225:257  function getPollById() public {} */\n    tag_11:\n      jump\t// out\n\n    auxdata: 0xa26469706673582212203d50029ffe02a88148f265c654f9a74f1bb38425a03452e7aa091ee13453490d64736f6c63430008070033\n}\n",
				"bytecode": {
					"linkReferences": {},
					"object": "6080604052348015600f57600080fd5b5060958061001e6000396000f3fe6080604052348015600f57600080fd5b5060043610603c5760003560e01c8063170b5add1460415780637fd5f2681460495780639d977062146051575b600080fd5b60476059565b005b604f605b565b005b6057605d565b005b565b565b56fea26469706673582212203d50029ffe02a88148f265c654f9a74f1bb38425a03452e7aa091ee13453490d64736f6c63430008070033",
					"opcodes": "PUSH1 0x80 PUSH1 0x40 MSTORE CALLVALUE DUP1 ISZERO PUSH1 0xF JUMPI PUSH1 0x0 DUP1 REVERT JUMPDEST POP PUSH1 0x95 DUP1 PUSH2 0x1E PUSH1 0x0 CODECOPY PUSH1 0x0 RETURN INVALID PUSH1 0x80 PUSH1 0x40 MSTORE CALLVALUE DUP1 ISZERO PUSH1 0xF JUMPI PUSH1 0x0 DUP1 REVERT JUMPDEST POP PUSH1 0x4 CALLDATASIZE LT PUSH1 0x3C JUMPI PUSH1 0x0 CALLDATALOAD PUSH1 0xE0 SHR DUP1 PUSH4 0x170B5ADD EQ PUSH1 0x41 JUMPI DUP1 PUSH4 0x7FD5F268 EQ PUSH1 0x49 JUMPI DUP1 PUSH4 0x9D977062 EQ PUSH1 0x51 JUMPI JUMPDEST PUSH1 0x0 DUP1 REVERT JUMPDEST PUSH1 0x47 PUSH1 0x59 JUMP JUMPDEST STOP JUMPDEST PUSH1 0x4F PUSH1 0x5B JUMP JUMPDEST STOP JUMPDEST PUSH1 0x57 PUSH1 0x5D JUMP JUMPDEST STOP JUMPDEST JUMP JUMPDEST JUMP JUMPDEST JUMP INVALID LOG2 PUSH5 0x6970667358 0x22 SLT KECCAK256 RETURNDATASIZE POP MUL SWAP16 INVALID MUL 0xA8 DUP2 BASEFEE CALLCODE PUSH6 0xC654F9A74F1B 0xB3 DUP5 0x25 LOG0 CALLVALUE MSTORE 0xE7 0xAA MULMOD 0x1E 0xE1 CALLVALUE MSTORE8 0x49 0xD PUSH5 0x736F6C6343 STOP ADDMOD SMOD STOP CALLER "
				},
				"gasEstimates": {
					"creation": {
						"codeDepositCost": "29800",
						"executionCost": "81",
						"totalCost": "29881"
					},
					"external": {
						"getAllElections()": "144",
						"getMyPolls()": "122",
						"getPollById()": "166"
					}
				},
				"methodIdentifiers": {
					"getAllElections()": "7fd5f268",
					"getMyPolls()": "170b5add",
					"getPollById()": "9d977062"
				}
			},
			"storageLayout": {
				"storage": [
					{
						"astId": 5,
						"contract": "Voting.sol:Platform",
						"label": "elections",
						"offset": 0,
						"slot": "0",
						"type": "t_array(t_contract(Election)207)dyn_storage"
					},
					{
						"astId": 11,
						"contract": "Voting.sol:Platform",
						"label": "polls",
						"offset": 0,
						"slot": "1",
						"type": "t_mapping(t_address,t_array(t_contract(Poll)208)dyn_storage)"
					}
				],
				"types": {
					"t_address": {
						"encoding": "inplace",
						"label": "address",
						"numberOfBytes": "20"
					},
					"t_array(t_contract(Election)207)dyn_storage": {
						"base": "t_contract(Election)207",
						"encoding": "dynamic_array",
						"label": "contract Election[]",
						"numberOfBytes": "32"
					},
					"t_array(t_contract(Poll)208)dyn_storage": {
						"base": "t_contract(Poll)208",
						"encoding": "dynamic_array",
						"label": "contract Poll[]",
						"numberOfBytes": "32"
					},
					"t_contract(Election)207": {
						"encoding": "inplace",
						"label": "contract Election",
						"numberOfBytes": "20"
					},
					"t_contract(Poll)208": {
						"encoding": "inplace",
						"label": "contract Poll",
						"numberOfBytes": "20"
					},
					"t_mapping(t_address,t_array(t_contract(Poll)208)dyn_storage)": {
						"encoding": "mapping",
						"key": "t_address",
						"label": "mapping(address => contract Poll[])",
						"numberOfBytes": "32",
						"value": "t_array(t_contract(Poll)208)dyn_storage"
					}
				}
			},
			"userdoc": {
				"kind": "user",
				"methods": {},
				"version": 1
			}
		}
	}
}