{
	"Voting.sol": {
		"Platform": {
			"abi": [
				{
					"inputs": [],
					"name": "createPoll",
					"outputs": [],
					"stateMutability": "nonpayable",
					"type": "function"
				},
				{
					"inputs": [],
					"name": "getAllElections",
					"outputs": [
						{
							"internalType": "contract Election[]",
							"name": "",
							"type": "address[]"
						}
					],
					"stateMutability": "view",
					"type": "function"
				},
				{
					"inputs": [],
					"name": "getMyPolls",
					"outputs": [
						{
							"internalType": "address[]",
							"name": "",
							"type": "address[]"
						}
					],
					"stateMutability": "view",
					"type": "function"
				}
			],
			"devdoc": {
				"kind": "dev",
				"methods": {},
				"version": 1
			},
			"evm": {
				"assembly": "    /* \"Voting.sol\":72:749  contract Platform {\r... */\n  mstore(0x40, 0x80)\n  callvalue\n  dup1\n  iszero\n  tag_1\n  jumpi\n  0x00\n  dup1\n  revert\ntag_1:\n  pop\n  dataSize(sub_0)\n  dup1\n  dataOffset(sub_0)\n  0x00\n  codecopy\n  0x00\n  return\nstop\n\nsub_0: assembly {\n        /* \"Voting.sol\":72:749  contract Platform {\r... */\n      mstore(0x40, 0x80)\n      callvalue\n      dup1\n      iszero\n      tag_1\n      jumpi\n      0x00\n      dup1\n      revert\n    tag_1:\n      pop\n      jumpi(tag_2, lt(calldatasize, 0x04))\n      shr(0xe0, calldataload(0x00))\n      dup1\n      0x170b5add\n      eq\n      tag_3\n      jumpi\n      dup1\n      0x39f14d17\n      eq\n      tag_4\n      jumpi\n      dup1\n      0x7fd5f268\n      eq\n      tag_5\n      jumpi\n    tag_2:\n      0x00\n      dup1\n      revert\n        /* \"Voting.sol\":345:487  function getMyPolls() external view returns (address[] memory) {\r... */\n    tag_3:\n      tag_6\n      tag_7\n      jump\t// in\n    tag_6:\n      mload(0x40)\n      tag_8\n      swap2\n      swap1\n      tag_9\n      jump\t// in\n    tag_8:\n      mload(0x40)\n      dup1\n      swap2\n      sub\n      swap1\n      return\n        /* \"Voting.sol\":495:746  function createPoll() external {\r... */\n    tag_4:\n      tag_10\n      tag_11\n      jump\t// in\n    tag_10:\n      stop\n        /* \"Voting.sol\":233:337  function getAllElections() external view returns (Election[] memory) {\r... */\n    tag_5:\n      tag_12\n      tag_13\n      jump\t// in\n    tag_12:\n      mload(0x40)\n      tag_14\n      swap2\n      swap1\n      tag_15\n      jump\t// in\n    tag_14:\n      mload(0x40)\n      dup1\n      swap2\n      sub\n      swap1\n      return\n        /* \"Voting.sol\":345:487  function getMyPolls() external view returns (address[] memory) {\r... */\n    tag_7:\n        /* \"Voting.sol\":390:406  address[] memory */\n      0x60\n        /* \"Voting.sol\":419:431  address user */\n      0x00\n        /* \"Voting.sol\":434:444  msg.sender */\n      caller\n        /* \"Voting.sol\":419:444  address user = msg.sender */\n      swap1\n      pop\n        /* \"Voting.sol\":464:473  userPolls */\n      0x02\n        /* \"Voting.sol\":464:479  userPolls[user] */\n      0x00\n        /* \"Voting.sol\":474:478  user */\n      dup3\n        /* \"Voting.sol\":464:479  userPolls[user] */\n      0xffffffffffffffffffffffffffffffffffffffff\n      and\n      0xffffffffffffffffffffffffffffffffffffffff\n      and\n      dup2\n      mstore\n      0x20\n      add\n      swap1\n      dup2\n      mstore\n      0x20\n      add\n      0x00\n      keccak256\n        /* \"Voting.sol\":457:479  return userPolls[user] */\n      dup1\n      sload\n      dup1\n      0x20\n      mul\n      0x20\n      add\n      mload(0x40)\n      swap1\n      dup2\n      add\n      0x40\n      mstore\n      dup1\n      swap3\n      swap2\n      swap1\n      dup2\n      dup2\n      mstore\n      0x20\n      add\n      dup3\n      dup1\n      sload\n      dup1\n      iszero\n      tag_17\n      jumpi\n      0x20\n      mul\n      dup3\n      add\n      swap2\n      swap1\n      0x00\n      mstore\n      keccak256(0x00, 0x20)\n      swap1\n    tag_18:\n      dup2\n      0x00\n      swap1\n      sload\n      swap1\n      0x0100\n      exp\n      swap1\n      div\n      0xffffffffffffffffffffffffffffffffffffffff\n      and\n      0xffffffffffffffffffffffffffffffffffffffff\n      and\n      dup2\n      mstore\n      0x20\n      add\n      swap1\n      0x01\n      add\n      swap1\n      dup1\n      dup4\n      gt\n      tag_18\n      jumpi\n    tag_17:\n      pop\n      pop\n      pop\n      pop\n      pop\n      swap2\n      pop\n      pop\n        /* \"Voting.sol\":345:487  function getMyPolls() external view returns (address[] memory) {\r... */\n      swap1\n      jump\t// out\n        /* \"Voting.sol\":495:746  function createPoll() external {\r... */\n    tag_11:\n        /* \"Voting.sol\":537:549  address user */\n      0x00\n        /* \"Voting.sol\":552:562  msg.sender */\n      caller\n        /* \"Voting.sol\":537:562  address user = msg.sender */\n      swap1\n      pop\n        /* \"Voting.sol\":575:584  Poll poll */\n      0x00\n        /* \"Voting.sol\":596:600  user */\n      dup2\n        /* \"Voting.sol\":587:601  new Poll(user) */\n      mload(0x40)\n      tag_20\n      swap1\n      tag_21\n      jump\t// in\n    tag_20:\n      tag_22\n      swap2\n      swap1\n      tag_23\n      jump\t// in\n    tag_22:\n      mload(0x40)\n      dup1\n      swap2\n      sub\n      swap1\n      0x00\n      create\n      dup1\n      iszero\n      dup1\n      iszero\n      tag_24\n      jumpi\n      returndatasize\n      0x00\n      dup1\n      returndatacopy\n      revert(0x00, returndatasize)\n    tag_24:\n      pop\n        /* \"Voting.sol\":575:601  Poll poll = new Poll(user) */\n      swap1\n      pop\n        /* \"Voting.sol\":614:634  address poll_address */\n      0x00\n        /* \"Voting.sol\":637:641  poll */\n      dup2\n        /* \"Voting.sol\":637:652  poll.getAddress */\n      0xffffffffffffffffffffffffffffffffffffffff\n      and\n      0x38cc4831\n        /* \"Voting.sol\":637:654  poll.getAddress() */\n      mload(0x40)\n      dup2\n      0xffffffff\n      and\n      0xe0\n      shl\n      dup2\n      mstore\n      0x04\n      add\n      0x20\n      mload(0x40)\n      dup1\n      dup4\n      sub\n      dup2\n      dup7\n      dup1\n      extcodesize\n      iszero\n      dup1\n      iszero\n      tag_25\n      jumpi\n      0x00\n      dup1\n      revert\n    tag_25:\n      pop\n      gas\n      staticcall\n      iszero\n      dup1\n      iszero\n      tag_27\n      jumpi\n      returndatasize\n      0x00\n      dup1\n      returndatacopy\n      revert(0x00, returndatasize)\n    tag_27:\n      pop\n      pop\n      pop\n      pop\n      mload(0x40)\n      returndatasize\n      not(0x1f)\n      0x1f\n      dup3\n      add\n      and\n      dup3\n      add\n      dup1\n      0x40\n      mstore\n      pop\n      dup2\n      add\n      swap1\n      tag_28\n      swap2\n      swap1\n      tag_29\n      jump\t// in\n    tag_28:\n        /* \"Voting.sol\":614:654  address poll_address = poll.getAddress() */\n      swap1\n      pop\n        /* \"Voting.sol\":687:691  poll */\n      dup2\n        /* \"Voting.sol\":665:670  polls */\n      0x01\n        /* \"Voting.sol\":665:684  polls[poll_address] */\n      0x00\n        /* \"Voting.sol\":671:683  poll_address */\n      dup4\n        /* \"Voting.sol\":665:684  polls[poll_address] */\n      0xffffffffffffffffffffffffffffffffffffffff\n      and\n      0xffffffffffffffffffffffffffffffffffffffff\n      and\n      dup2\n      mstore\n      0x20\n      add\n      swap1\n      dup2\n      mstore\n      0x20\n      add\n      0x00\n      keccak256\n      0x00\n        /* \"Voting.sol\":665:691  polls[poll_address] = poll */\n      0x0100\n      exp\n      dup2\n      sload\n      dup2\n      0xffffffffffffffffffffffffffffffffffffffff\n      mul\n      not\n      and\n      swap1\n      dup4\n      0xffffffffffffffffffffffffffffffffffffffff\n      and\n      mul\n      or\n      swap1\n      sstore\n      pop\n        /* \"Voting.sol\":704:713  userPolls */\n      0x02\n        /* \"Voting.sol\":704:719  userPolls[user] */\n      0x00\n        /* \"Voting.sol\":714:718  user */\n      dup5\n        /* \"Voting.sol\":704:719  userPolls[user] */\n      0xffffffffffffffffffffffffffffffffffffffff\n      and\n      0xffffffffffffffffffffffffffffffffffffffff\n      and\n      dup2\n      mstore\n      0x20\n      add\n      swap1\n      dup2\n      mstore\n      0x20\n      add\n      0x00\n      keccak256\n        /* \"Voting.sol\":725:737  poll_address */\n      dup2\n        /* \"Voting.sol\":704:738  userPolls[user].push(poll_address) */\n      swap1\n      dup1\n      0x01\n      dup2\n      sload\n      add\n      dup1\n      dup3\n      sstore\n      dup1\n      swap2\n      pop\n      pop\n      0x01\n      swap1\n      sub\n      swap1\n      0x00\n      mstore\n      keccak256(0x00, 0x20)\n      add\n      0x00\n      swap1\n      swap2\n      swap1\n      swap2\n      swap1\n      swap2\n      0x0100\n      exp\n      dup2\n      sload\n      dup2\n      0xffffffffffffffffffffffffffffffffffffffff\n      mul\n      not\n      and\n      swap1\n      dup4\n      0xffffffffffffffffffffffffffffffffffffffff\n      and\n      mul\n      or\n      swap1\n      sstore\n      pop\n        /* \"Voting.sol\":526:746  {\r... */\n      pop\n      pop\n      pop\n        /* \"Voting.sol\":495:746  function createPoll() external {\r... */\n      jump\t// out\n        /* \"Voting.sol\":233:337  function getAllElections() external view returns (Election[] memory) {\r... */\n    tag_13:\n        /* \"Voting.sol\":283:300  Election[] memory */\n      0x60\n        /* \"Voting.sol\":320:329  elections */\n      0x00\n        /* \"Voting.sol\":313:329  return elections */\n      dup1\n      sload\n      dup1\n      0x20\n      mul\n      0x20\n      add\n      mload(0x40)\n      swap1\n      dup2\n      add\n      0x40\n      mstore\n      dup1\n      swap3\n      swap2\n      swap1\n      dup2\n      dup2\n      mstore\n      0x20\n      add\n      dup3\n      dup1\n      sload\n      dup1\n      iszero\n      tag_32\n      jumpi\n      0x20\n      mul\n      dup3\n      add\n      swap2\n      swap1\n      0x00\n      mstore\n      keccak256(0x00, 0x20)\n      swap1\n    tag_33:\n      dup2\n      0x00\n      swap1\n      sload\n      swap1\n      0x0100\n      exp\n      swap1\n      div\n      0xffffffffffffffffffffffffffffffffffffffff\n      and\n      0xffffffffffffffffffffffffffffffffffffffff\n      and\n      dup2\n      mstore\n      0x20\n      add\n      swap1\n      0x01\n      add\n      swap1\n      dup1\n      dup4\n      gt\n      tag_33\n      jumpi\n    tag_32:\n      pop\n      pop\n      pop\n      pop\n      pop\n      swap1\n      pop\n        /* \"Voting.sol\":233:337  function getAllElections() external view returns (Election[] memory) {\r... */\n      swap1\n      jump\t// out\n    tag_21:\n      dataSize(sub_0)\n      dup1\n      dataOffset(sub_0)\n      dup4\n      codecopy\n      add\n      swap1\n      jump\t// out\n        /* \"#utility.yul\":7:150   */\n    tag_35:\n        /* \"#utility.yul\":64:69   */\n      0x00\n        /* \"#utility.yul\":95:101   */\n      dup2\n        /* \"#utility.yul\":89:102   */\n      mload\n        /* \"#utility.yul\":80:102   */\n      swap1\n      pop\n        /* \"#utility.yul\":111:144   */\n      tag_37\n        /* \"#utility.yul\":138:143   */\n      dup2\n        /* \"#utility.yul\":111:144   */\n      tag_38\n      jump\t// in\n    tag_37:\n        /* \"#utility.yul\":7:150   */\n      swap3\n      swap2\n      pop\n      pop\n      jump\t// out\n        /* \"#utility.yul\":156:507   */\n    tag_29:\n        /* \"#utility.yul\":226:232   */\n      0x00\n        /* \"#utility.yul\":275:277   */\n      0x20\n        /* \"#utility.yul\":263:272   */\n      dup3\n        /* \"#utility.yul\":254:261   */\n      dup5\n        /* \"#utility.yul\":250:273   */\n      sub\n        /* \"#utility.yul\":246:278   */\n      slt\n        /* \"#utility.yul\":243:362   */\n      iszero\n      tag_40\n      jumpi\n        /* \"#utility.yul\":281:360   */\n      tag_41\n      tag_42\n      jump\t// in\n    tag_41:\n        /* \"#utility.yul\":243:362   */\n    tag_40:\n        /* \"#utility.yul\":401:402   */\n      0x00\n        /* \"#utility.yul\":426:490   */\n      tag_43\n        /* \"#utility.yul\":482:489   */\n      dup5\n        /* \"#utility.yul\":473:479   */\n      dup3\n        /* \"#utility.yul\":462:471   */\n      dup6\n        /* \"#utility.yul\":458:480   */\n      add\n        /* \"#utility.yul\":426:490   */\n      tag_35\n      jump\t// in\n    tag_43:\n        /* \"#utility.yul\":416:490   */\n      swap2\n      pop\n        /* \"#utility.yul\":372:500   */\n      pop\n        /* \"#utility.yul\":156:507   */\n      swap3\n      swap2\n      pop\n      pop\n      jump\t// out\n        /* \"#utility.yul\":513:692   */\n    tag_44:\n        /* \"#utility.yul\":582:592   */\n      0x00\n        /* \"#utility.yul\":603:649   */\n      tag_46\n        /* \"#utility.yul\":645:648   */\n      dup4\n        /* \"#utility.yul\":637:643   */\n      dup4\n        /* \"#utility.yul\":603:649   */\n      tag_47\n      jump\t// in\n    tag_46:\n        /* \"#utility.yul\":681:685   */\n      0x20\n        /* \"#utility.yul\":676:679   */\n      dup4\n        /* \"#utility.yul\":672:686   */\n      add\n        /* \"#utility.yul\":658:686   */\n      swap1\n      pop\n        /* \"#utility.yul\":513:692   */\n      swap3\n      swap2\n      pop\n      pop\n      jump\t// out\n        /* \"#utility.yul\":698:909   */\n    tag_48:\n        /* \"#utility.yul\":783:793   */\n      0x00\n        /* \"#utility.yul\":804:866   */\n      tag_50\n        /* \"#utility.yul\":862:865   */\n      dup4\n        /* \"#utility.yul\":854:860   */\n      dup4\n        /* \"#utility.yul\":804:866   */\n      tag_51\n      jump\t// in\n    tag_50:\n        /* \"#utility.yul\":898:902   */\n      0x20\n        /* \"#utility.yul\":893:896   */\n      dup4\n        /* \"#utility.yul\":889:903   */\n      add\n        /* \"#utility.yul\":875:903   */\n      swap1\n      pop\n        /* \"#utility.yul\":698:909   */\n      swap3\n      swap2\n      pop\n      pop\n      jump\t// out\n        /* \"#utility.yul\":915:1023   */\n    tag_47:\n        /* \"#utility.yul\":992:1016   */\n      tag_53\n        /* \"#utility.yul\":1010:1015   */\n      dup2\n        /* \"#utility.yul\":992:1016   */\n      tag_54\n      jump\t// in\n    tag_53:\n        /* \"#utility.yul\":987:990   */\n      dup3\n        /* \"#utility.yul\":980:1017   */\n      mstore\n        /* \"#utility.yul\":915:1023   */\n      pop\n      pop\n      jump\t// out\n        /* \"#utility.yul\":1029:1147   */\n    tag_55:\n        /* \"#utility.yul\":1116:1140   */\n      tag_57\n        /* \"#utility.yul\":1134:1139   */\n      dup2\n        /* \"#utility.yul\":1116:1140   */\n      tag_54\n      jump\t// in\n    tag_57:\n        /* \"#utility.yul\":1111:1114   */\n      dup3\n        /* \"#utility.yul\":1104:1141   */\n      mstore\n        /* \"#utility.yul\":1029:1147   */\n      pop\n      pop\n      jump\t// out\n        /* \"#utility.yul\":1183:1915   */\n    tag_58:\n        /* \"#utility.yul\":1302:1305   */\n      0x00\n        /* \"#utility.yul\":1331:1385   */\n      tag_60\n        /* \"#utility.yul\":1379:1384   */\n      dup3\n        /* \"#utility.yul\":1331:1385   */\n      tag_61\n      jump\t// in\n    tag_60:\n        /* \"#utility.yul\":1401:1487   */\n      tag_62\n        /* \"#utility.yul\":1480:1486   */\n      dup2\n        /* \"#utility.yul\":1475:1478   */\n      dup6\n        /* \"#utility.yul\":1401:1487   */\n      tag_63\n      jump\t// in\n    tag_62:\n        /* \"#utility.yul\":1394:1487   */\n      swap4\n      pop\n        /* \"#utility.yul\":1511:1567   */\n      tag_64\n        /* \"#utility.yul\":1561:1566   */\n      dup4\n        /* \"#utility.yul\":1511:1567   */\n      tag_65\n      jump\t// in\n    tag_64:\n        /* \"#utility.yul\":1590:1597   */\n      dup1\n        /* \"#utility.yul\":1621:1622   */\n      0x00\n        /* \"#utility.yul\":1606:1890   */\n    tag_66:\n        /* \"#utility.yul\":1631:1637   */\n      dup4\n        /* \"#utility.yul\":1628:1629   */\n      dup2\n        /* \"#utility.yul\":1625:1638   */\n      lt\n        /* \"#utility.yul\":1606:1890   */\n      iszero\n      tag_68\n      jumpi\n        /* \"#utility.yul\":1707:1713   */\n      dup2\n        /* \"#utility.yul\":1701:1714   */\n      mload\n        /* \"#utility.yul\":1734:1797   */\n      tag_69\n        /* \"#utility.yul\":1793:1796   */\n      dup9\n        /* \"#utility.yul\":1778:1791   */\n      dup3\n        /* \"#utility.yul\":1734:1797   */\n      tag_44\n      jump\t// in\n    tag_69:\n        /* \"#utility.yul\":1727:1797   */\n      swap8\n      pop\n        /* \"#utility.yul\":1820:1880   */\n      tag_70\n        /* \"#utility.yul\":1873:1879   */\n      dup4\n        /* \"#utility.yul\":1820:1880   */\n      tag_71\n      jump\t// in\n    tag_70:\n        /* \"#utility.yul\":1810:1880   */\n      swap3\n      pop\n        /* \"#utility.yul\":1666:1890   */\n      pop\n        /* \"#utility.yul\":1653:1654   */\n      0x01\n        /* \"#utility.yul\":1650:1651   */\n      dup2\n        /* \"#utility.yul\":1646:1655   */\n      add\n        /* \"#utility.yul\":1641:1655   */\n      swap1\n      pop\n        /* \"#utility.yul\":1606:1890   */\n      jump(tag_66)\n    tag_68:\n        /* \"#utility.yul\":1610:1624   */\n      pop\n        /* \"#utility.yul\":1906:1909   */\n      dup6\n        /* \"#utility.yul\":1899:1909   */\n      swap4\n      pop\n        /* \"#utility.yul\":1307:1915   */\n      pop\n      pop\n      pop\n        /* \"#utility.yul\":1183:1915   */\n      swap3\n      swap2\n      pop\n      pop\n      jump\t// out\n        /* \"#utility.yul\":1961:2773   */\n    tag_72:\n        /* \"#utility.yul\":2096:2099   */\n      0x00\n        /* \"#utility.yul\":2125:2195   */\n      tag_74\n        /* \"#utility.yul\":2189:2194   */\n      dup3\n        /* \"#utility.yul\":2125:2195   */\n      tag_75\n      jump\t// in\n    tag_74:\n        /* \"#utility.yul\":2211:2297   */\n      tag_76\n        /* \"#utility.yul\":2290:2296   */\n      dup2\n        /* \"#utility.yul\":2285:2288   */\n      dup6\n        /* \"#utility.yul\":2211:2297   */\n      tag_63\n      jump\t// in\n    tag_76:\n        /* \"#utility.yul\":2204:2297   */\n      swap4\n      pop\n        /* \"#utility.yul\":2321:2393   */\n      tag_77\n        /* \"#utility.yul\":2387:2392   */\n      dup4\n        /* \"#utility.yul\":2321:2393   */\n      tag_78\n      jump\t// in\n    tag_77:\n        /* \"#utility.yul\":2416:2423   */\n      dup1\n        /* \"#utility.yul\":2447:2448   */\n      0x00\n        /* \"#utility.yul\":2432:2748   */\n    tag_79:\n        /* \"#utility.yul\":2457:2463   */\n      dup4\n        /* \"#utility.yul\":2454:2455   */\n      dup2\n        /* \"#utility.yul\":2451:2464   */\n      lt\n        /* \"#utility.yul\":2432:2748   */\n      iszero\n      tag_81\n      jumpi\n        /* \"#utility.yul\":2533:2539   */\n      dup2\n        /* \"#utility.yul\":2527:2540   */\n      mload\n        /* \"#utility.yul\":2560:2639   */\n      tag_82\n        /* \"#utility.yul\":2635:2638   */\n      dup9\n        /* \"#utility.yul\":2620:2633   */\n      dup3\n        /* \"#utility.yul\":2560:2639   */\n      tag_48\n      jump\t// in\n    tag_82:\n        /* \"#utility.yul\":2553:2639   */\n      swap8\n      pop\n        /* \"#utility.yul\":2662:2738   */\n      tag_83\n        /* \"#utility.yul\":2731:2737   */\n      dup4\n        /* \"#utility.yul\":2662:2738   */\n      tag_84\n      jump\t// in\n    tag_83:\n        /* \"#utility.yul\":2652:2738   */\n      swap3\n      pop\n        /* \"#utility.yul\":2492:2748   */\n      pop\n        /* \"#utility.yul\":2479:2480   */\n      0x01\n        /* \"#utility.yul\":2476:2477   */\n      dup2\n        /* \"#utility.yul\":2472:2481   */\n      add\n        /* \"#utility.yul\":2467:2481   */\n      swap1\n      pop\n        /* \"#utility.yul\":2432:2748   */\n      jump(tag_79)\n    tag_81:\n        /* \"#utility.yul\":2436:2450   */\n      pop\n        /* \"#utility.yul\":2764:2767   */\n      dup6\n        /* \"#utility.yul\":2757:2767   */\n      swap4\n      pop\n        /* \"#utility.yul\":2101:2773   */\n      pop\n      pop\n      pop\n        /* \"#utility.yul\":1961:2773   */\n      swap3\n      swap2\n      pop\n      pop\n      jump\t// out\n        /* \"#utility.yul\":2779:2932   */\n    tag_51:\n        /* \"#utility.yul\":2872:2925   */\n      tag_86\n        /* \"#utility.yul\":2919:2924   */\n      dup2\n        /* \"#utility.yul\":2872:2925   */\n      tag_87\n      jump\t// in\n    tag_86:\n        /* \"#utility.yul\":2867:2870   */\n      dup3\n        /* \"#utility.yul\":2860:2926   */\n      mstore\n        /* \"#utility.yul\":2779:2932   */\n      pop\n      pop\n      jump\t// out\n        /* \"#utility.yul\":2938:3160   */\n    tag_23:\n        /* \"#utility.yul\":3031:3035   */\n      0x00\n        /* \"#utility.yul\":3069:3071   */\n      0x20\n        /* \"#utility.yul\":3058:3067   */\n      dup3\n        /* \"#utility.yul\":3054:3072   */\n      add\n        /* \"#utility.yul\":3046:3072   */\n      swap1\n      pop\n        /* \"#utility.yul\":3082:3153   */\n      tag_89\n        /* \"#utility.yul\":3150:3151   */\n      0x00\n        /* \"#utility.yul\":3139:3148   */\n      dup4\n        /* \"#utility.yul\":3135:3152   */\n      add\n        /* \"#utility.yul\":3126:3132   */\n      dup5\n        /* \"#utility.yul\":3082:3153   */\n      tag_55\n      jump\t// in\n    tag_89:\n        /* \"#utility.yul\":2938:3160   */\n      swap3\n      swap2\n      pop\n      pop\n      jump\t// out\n        /* \"#utility.yul\":3166:3539   */\n    tag_9:\n        /* \"#utility.yul\":3309:3313   */\n      0x00\n        /* \"#utility.yul\":3347:3349   */\n      0x20\n        /* \"#utility.yul\":3336:3345   */\n      dup3\n        /* \"#utility.yul\":3332:3350   */\n      add\n        /* \"#utility.yul\":3324:3350   */\n      swap1\n      pop\n        /* \"#utility.yul\":3396:3405   */\n      dup2\n        /* \"#utility.yul\":3390:3394   */\n      dup2\n        /* \"#utility.yul\":3386:3406   */\n      sub\n        /* \"#utility.yul\":3382:3383   */\n      0x00\n        /* \"#utility.yul\":3371:3380   */\n      dup4\n        /* \"#utility.yul\":3367:3384   */\n      add\n        /* \"#utility.yul\":3360:3407   */\n      mstore\n        /* \"#utility.yul\":3424:3532   */\n      tag_91\n        /* \"#utility.yul\":3527:3531   */\n      dup2\n        /* \"#utility.yul\":3518:3524   */\n      dup5\n        /* \"#utility.yul\":3424:3532   */\n      tag_58\n      jump\t// in\n    tag_91:\n        /* \"#utility.yul\":3416:3532   */\n      swap1\n      pop\n        /* \"#utility.yul\":3166:3539   */\n      swap3\n      swap2\n      pop\n      pop\n      jump\t// out\n        /* \"#utility.yul\":3545:3950   */\n    tag_15:\n        /* \"#utility.yul\":3704:3708   */\n      0x00\n        /* \"#utility.yul\":3742:3744   */\n      0x20\n        /* \"#utility.yul\":3731:3740   */\n      dup3\n        /* \"#utility.yul\":3727:3745   */\n      add\n        /* \"#utility.yul\":3719:3745   */\n      swap1\n      pop\n        /* \"#utility.yul\":3791:3800   */\n      dup2\n        /* \"#utility.yul\":3785:3789   */\n      dup2\n        /* \"#utility.yul\":3781:3801   */\n      sub\n        /* \"#utility.yul\":3777:3778   */\n      0x00\n        /* \"#utility.yul\":3766:3775   */\n      dup4\n        /* \"#utility.yul\":3762:3779   */\n      add\n        /* \"#utility.yul\":3755:3802   */\n      mstore\n        /* \"#utility.yul\":3819:3943   */\n      tag_93\n        /* \"#utility.yul\":3938:3942   */\n      dup2\n        /* \"#utility.yul\":3929:3935   */\n      dup5\n        /* \"#utility.yul\":3819:3943   */\n      tag_72\n      jump\t// in\n    tag_93:\n        /* \"#utility.yul\":3811:3943   */\n      swap1\n      pop\n        /* \"#utility.yul\":3545:3950   */\n      swap3\n      swap2\n      pop\n      pop\n      jump\t// out\n        /* \"#utility.yul\":4037:4169   */\n    tag_65:\n        /* \"#utility.yul\":4104:4108   */\n      0x00\n        /* \"#utility.yul\":4127:4130   */\n      dup2\n        /* \"#utility.yul\":4119:4130   */\n      swap1\n      pop\n        /* \"#utility.yul\":4157:4161   */\n      0x20\n        /* \"#utility.yul\":4152:4155   */\n      dup3\n        /* \"#utility.yul\":4148:4162   */\n      add\n        /* \"#utility.yul\":4140:4162   */\n      swap1\n      pop\n        /* \"#utility.yul\":4037:4169   */\n      swap2\n      swap1\n      pop\n      jump\t// out\n        /* \"#utility.yul\":4175:4323   */\n    tag_78:\n        /* \"#utility.yul\":4258:4262   */\n      0x00\n        /* \"#utility.yul\":4281:4284   */\n      dup2\n        /* \"#utility.yul\":4273:4284   */\n      swap1\n      pop\n        /* \"#utility.yul\":4311:4315   */\n      0x20\n        /* \"#utility.yul\":4306:4309   */\n      dup3\n        /* \"#utility.yul\":4302:4316   */\n      add\n        /* \"#utility.yul\":4294:4316   */\n      swap1\n      pop\n        /* \"#utility.yul\":4175:4323   */\n      swap2\n      swap1\n      pop\n      jump\t// out\n        /* \"#utility.yul\":4329:4443   */\n    tag_61:\n        /* \"#utility.yul\":4396:4402   */\n      0x00\n        /* \"#utility.yul\":4430:4435   */\n      dup2\n        /* \"#utility.yul\":4424:4436   */\n      mload\n        /* \"#utility.yul\":4414:4436   */\n      swap1\n      pop\n        /* \"#utility.yul\":4329:4443   */\n      swap2\n      swap1\n      pop\n      jump\t// out\n        /* \"#utility.yul\":4449:4579   */\n    tag_75:\n        /* \"#utility.yul\":4532:4538   */\n      0x00\n        /* \"#utility.yul\":4566:4571   */\n      dup2\n        /* \"#utility.yul\":4560:4572   */\n      mload\n        /* \"#utility.yul\":4550:4572   */\n      swap1\n      pop\n        /* \"#utility.yul\":4449:4579   */\n      swap2\n      swap1\n      pop\n      jump\t// out\n        /* \"#utility.yul\":4585:4698   */\n    tag_71:\n        /* \"#utility.yul\":4655:4659   */\n      0x00\n        /* \"#utility.yul\":4687:4691   */\n      0x20\n        /* \"#utility.yul\":4682:4685   */\n      dup3\n        /* \"#utility.yul\":4678:4692   */\n      add\n        /* \"#utility.yul\":4670:4692   */\n      swap1\n      pop\n        /* \"#utility.yul\":4585:4698   */\n      swap2\n      swap1\n      pop\n      jump\t// out\n        /* \"#utility.yul\":4704:4833   */\n    tag_84:\n        /* \"#utility.yul\":4790:4794   */\n      0x00\n        /* \"#utility.yul\":4822:4826   */\n      0x20\n        /* \"#utility.yul\":4817:4820   */\n      dup3\n        /* \"#utility.yul\":4813:4827   */\n      add\n        /* \"#utility.yul\":4805:4827   */\n      swap1\n      pop\n        /* \"#utility.yul\":4704:4833   */\n      swap2\n      swap1\n      pop\n      jump\t// out\n        /* \"#utility.yul\":4839:5023   */\n    tag_63:\n        /* \"#utility.yul\":4938:4949   */\n      0x00\n        /* \"#utility.yul\":4972:4978   */\n      dup3\n        /* \"#utility.yul\":4967:4970   */\n      dup3\n        /* \"#utility.yul\":4960:4979   */\n      mstore\n        /* \"#utility.yul\":5012:5016   */\n      0x20\n        /* \"#utility.yul\":5007:5010   */\n      dup3\n        /* \"#utility.yul\":5003:5017   */\n      add\n        /* \"#utility.yul\":4988:5017   */\n      swap1\n      pop\n        /* \"#utility.yul\":4839:5023   */\n      swap3\n      swap2\n      pop\n      pop\n      jump\t// out\n        /* \"#utility.yul\":5029:5125   */\n    tag_54:\n        /* \"#utility.yul\":5066:5073   */\n      0x00\n        /* \"#utility.yul\":5095:5119   */\n      tag_104\n        /* \"#utility.yul\":5113:5118   */\n      dup3\n        /* \"#utility.yul\":5095:5119   */\n      tag_105\n      jump\t// in\n    tag_104:\n        /* \"#utility.yul\":5084:5119   */\n      swap1\n      pop\n        /* \"#utility.yul\":5029:5125   */\n      swap2\n      swap1\n      pop\n      jump\t// out\n        /* \"#utility.yul\":5131:5257   */\n    tag_105:\n        /* \"#utility.yul\":5168:5175   */\n      0x00\n        /* \"#utility.yul\":5208:5250   */\n      0xffffffffffffffffffffffffffffffffffffffff\n        /* \"#utility.yul\":5201:5206   */\n      dup3\n        /* \"#utility.yul\":5197:5251   */\n      and\n        /* \"#utility.yul\":5186:5251   */\n      swap1\n      pop\n        /* \"#utility.yul\":5131:5257   */\n      swap2\n      swap1\n      pop\n      jump\t// out\n        /* \"#utility.yul\":5263:5405   */\n    tag_87:\n        /* \"#utility.yul\":5329:5338   */\n      0x00\n        /* \"#utility.yul\":5362:5399   */\n      tag_108\n        /* \"#utility.yul\":5393:5398   */\n      dup3\n        /* \"#utility.yul\":5362:5399   */\n      tag_109\n      jump\t// in\n    tag_108:\n        /* \"#utility.yul\":5349:5399   */\n      swap1\n      pop\n        /* \"#utility.yul\":5263:5405   */\n      swap2\n      swap1\n      pop\n      jump\t// out\n        /* \"#utility.yul\":5411:5537   */\n    tag_109:\n        /* \"#utility.yul\":5461:5470   */\n      0x00\n        /* \"#utility.yul\":5494:5531   */\n      tag_111\n        /* \"#utility.yul\":5525:5530   */\n      dup3\n        /* \"#utility.yul\":5494:5531   */\n      tag_112\n      jump\t// in\n    tag_111:\n        /* \"#utility.yul\":5481:5531   */\n      swap1\n      pop\n        /* \"#utility.yul\":5411:5537   */\n      swap2\n      swap1\n      pop\n      jump\t// out\n        /* \"#utility.yul\":5543:5656   */\n    tag_112:\n        /* \"#utility.yul\":5593:5602   */\n      0x00\n        /* \"#utility.yul\":5626:5650   */\n      tag_114\n        /* \"#utility.yul\":5644:5649   */\n      dup3\n        /* \"#utility.yul\":5626:5650   */\n      tag_105\n      jump\t// in\n    tag_114:\n        /* \"#utility.yul\":5613:5650   */\n      swap1\n      pop\n        /* \"#utility.yul\":5543:5656   */\n      swap2\n      swap1\n      pop\n      jump\t// out\n        /* \"#utility.yul\":5785:5902   */\n    tag_42:\n        /* \"#utility.yul\":5894:5895   */\n      0x00\n        /* \"#utility.yul\":5891:5892   */\n      dup1\n        /* \"#utility.yul\":5884:5896   */\n      revert\n        /* \"#utility.yul\":5908:6030   */\n    tag_38:\n        /* \"#utility.yul\":5981:6005   */\n      tag_119\n        /* \"#utility.yul\":5999:6004   */\n      dup2\n        /* \"#utility.yul\":5981:6005   */\n      tag_54\n      jump\t// in\n    tag_119:\n        /* \"#utility.yul\":5974:5979   */\n      dup2\n        /* \"#utility.yul\":5971:6006   */\n      eq\n        /* \"#utility.yul\":5961:6024   */\n      tag_120\n      jumpi\n        /* \"#utility.yul\":6020:6021   */\n      0x00\n        /* \"#utility.yul\":6017:6018   */\n      dup1\n        /* \"#utility.yul\":6010:6022   */\n      revert\n        /* \"#utility.yul\":5961:6024   */\n    tag_120:\n        /* \"#utility.yul\":5908:6030   */\n      pop\n      jump\t// out\n    stop\n\n    sub_0: assembly {\n            /* \"Voting.sol\":2401:2722  contract Poll {\r... */\n          mstore(0x40, 0x80)\n            /* \"Voting.sol\":2498:2625  constructor(address _creator) {\r... */\n          callvalue\n          dup1\n          iszero\n          tag_1\n          jumpi\n          0x00\n          dup1\n          revert\n        tag_1:\n          pop\n          mload(0x40)\n          sub(codesize, bytecodeSize)\n          dup1\n          bytecodeSize\n          dup4\n          codecopy\n          dup2\n          dup2\n          add\n          0x40\n          mstore\n          dup2\n          add\n          swap1\n          tag_2\n          swap2\n          swap1\n          tag_3\n          jump\t// in\n        tag_2:\n            /* \"Voting.sol\":2549:2557  _creator */\n          dup1\n            /* \"Voting.sol\":2539:2546  creator */\n          0x00\n          dup1\n            /* \"Voting.sol\":2539:2557  creator = _creator */\n          0x0100\n          exp\n          dup2\n          sload\n          dup2\n          0xffffffffffffffffffffffffffffffffffffffff\n          mul\n          not\n          and\n          swap1\n          dup4\n          0xffffffffffffffffffffffffffffffffffffffff\n          and\n          mul\n          or\n          swap1\n          sstore\n          pop\n            /* \"Voting.sol\":2587:2591  this */\n          address\n            /* \"Voting.sol\":2568:2576  _address */\n          0x01\n          0x00\n            /* \"Voting.sol\":2568:2592  _address = address(this) */\n          0x0100\n          exp\n          dup2\n          sload\n          dup2\n          0xffffffffffffffffffffffffffffffffffffffff\n          mul\n          not\n          and\n          swap1\n          dup4\n          0xffffffffffffffffffffffffffffffffffffffff\n          and\n          mul\n          or\n          swap1\n          sstore\n          pop\n            /* \"Voting.sol\":2603:2617  random = \"Hey\" */\n          mload(0x40)\n          dup1\n          0x40\n          add\n          0x40\n          mstore\n          dup1\n          0x03\n          dup2\n          mstore\n          0x20\n          add\n          0x4865790000000000000000000000000000000000000000000000000000000000\n          dup2\n          mstore\n          pop\n            /* \"Voting.sol\":2603:2609  random */\n          0x02\n            /* \"Voting.sol\":2603:2617  random = \"Hey\" */\n          swap1\n          dup1\n          mload\n          swap1\n          0x20\n          add\n          swap1\n          tag_6\n          swap3\n          swap2\n          swap1\n          tag_7\n          jump\t// in\n        tag_6:\n          pop\n            /* \"Voting.sol\":2498:2625  constructor(address _creator) {\r... */\n          pop\n            /* \"Voting.sol\":2401:2722  contract Poll {\r... */\n          jump(tag_8)\n        tag_7:\n          dup3\n          dup1\n          sload\n          tag_9\n          swap1\n          tag_10\n          jump\t// in\n        tag_9:\n          swap1\n          0x00\n          mstore\n          keccak256(0x00, 0x20)\n          swap1\n          0x1f\n          add\n          0x20\n          swap1\n          div\n          dup2\n          add\n          swap3\n          dup3\n          tag_12\n          jumpi\n          0x00\n          dup6\n          sstore\n          jump(tag_11)\n        tag_12:\n          dup3\n          0x1f\n          lt\n          tag_13\n          jumpi\n          dup1\n          mload\n          not(0xff)\n          and\n          dup4\n          dup1\n          add\n          or\n          dup6\n          sstore\n          jump(tag_11)\n        tag_13:\n          dup3\n          dup1\n          add\n          0x01\n          add\n          dup6\n          sstore\n          dup3\n          iszero\n          tag_11\n          jumpi\n          swap2\n          dup3\n          add\n        tag_14:\n          dup3\n          dup2\n          gt\n          iszero\n          tag_15\n          jumpi\n          dup3\n          mload\n          dup3\n          sstore\n          swap2\n          0x20\n          add\n          swap2\n          swap1\n          0x01\n          add\n          swap1\n          jump(tag_14)\n        tag_15:\n        tag_11:\n          pop\n          swap1\n          pop\n          tag_16\n          swap2\n          swap1\n          tag_17\n          jump\t// in\n        tag_16:\n          pop\n          swap1\n          jump\t// out\n        tag_17:\n        tag_18:\n          dup1\n          dup3\n          gt\n          iszero\n          tag_19\n          jumpi\n          0x00\n          dup2\n          0x00\n          swap1\n          sstore\n          pop\n          0x01\n          add\n          jump(tag_18)\n        tag_19:\n          pop\n          swap1\n          jump\t// out\n            /* \"#utility.yul\":7:150   */\n        tag_21:\n            /* \"#utility.yul\":64:69   */\n          0x00\n            /* \"#utility.yul\":95:101   */\n          dup2\n            /* \"#utility.yul\":89:102   */\n          mload\n            /* \"#utility.yul\":80:102   */\n          swap1\n          pop\n            /* \"#utility.yul\":111:144   */\n          tag_23\n            /* \"#utility.yul\":138:143   */\n          dup2\n            /* \"#utility.yul\":111:144   */\n          tag_24\n          jump\t// in\n        tag_23:\n            /* \"#utility.yul\":7:150   */\n          swap3\n          swap2\n          pop\n          pop\n          jump\t// out\n            /* \"#utility.yul\":156:507   */\n        tag_3:\n            /* \"#utility.yul\":226:232   */\n          0x00\n            /* \"#utility.yul\":275:277   */\n          0x20\n            /* \"#utility.yul\":263:272   */\n          dup3\n            /* \"#utility.yul\":254:261   */\n          dup5\n            /* \"#utility.yul\":250:273   */\n          sub\n            /* \"#utility.yul\":246:278   */\n          slt\n            /* \"#utility.yul\":243:362   */\n          iszero\n          tag_26\n          jumpi\n            /* \"#utility.yul\":281:360   */\n          tag_27\n          tag_28\n          jump\t// in\n        tag_27:\n            /* \"#utility.yul\":243:362   */\n        tag_26:\n            /* \"#utility.yul\":401:402   */\n          0x00\n            /* \"#utility.yul\":426:490   */\n          tag_29\n            /* \"#utility.yul\":482:489   */\n          dup5\n            /* \"#utility.yul\":473:479   */\n          dup3\n            /* \"#utility.yul\":462:471   */\n          dup6\n            /* \"#utility.yul\":458:480   */\n          add\n            /* \"#utility.yul\":426:490   */\n          tag_21\n          jump\t// in\n        tag_29:\n            /* \"#utility.yul\":416:490   */\n          swap2\n          pop\n            /* \"#utility.yul\":372:500   */\n          pop\n            /* \"#utility.yul\":156:507   */\n          swap3\n          swap2\n          pop\n          pop\n          jump\t// out\n            /* \"#utility.yul\":594:690   */\n        tag_32:\n            /* \"#utility.yul\":631:638   */\n          0x00\n            /* \"#utility.yul\":660:684   */\n          tag_34\n            /* \"#utility.yul\":678:683   */\n          dup3\n            /* \"#utility.yul\":660:684   */\n          tag_35\n          jump\t// in\n        tag_34:\n            /* \"#utility.yul\":649:684   */\n          swap1\n          pop\n            /* \"#utility.yul\":594:690   */\n          swap2\n          swap1\n          pop\n          jump\t// out\n            /* \"#utility.yul\":696:822   */\n        tag_35:\n            /* \"#utility.yul\":733:740   */\n          0x00\n            /* \"#utility.yul\":773:815   */\n          0xffffffffffffffffffffffffffffffffffffffff\n            /* \"#utility.yul\":766:771   */\n          dup3\n            /* \"#utility.yul\":762:816   */\n          and\n            /* \"#utility.yul\":751:816   */\n          swap1\n          pop\n            /* \"#utility.yul\":696:822   */\n          swap2\n          swap1\n          pop\n          jump\t// out\n            /* \"#utility.yul\":828:1148   */\n        tag_10:\n            /* \"#utility.yul\":872:878   */\n          0x00\n            /* \"#utility.yul\":909:910   */\n          0x02\n            /* \"#utility.yul\":903:907   */\n          dup3\n            /* \"#utility.yul\":899:911   */\n          div\n            /* \"#utility.yul\":889:911   */\n          swap1\n          pop\n            /* \"#utility.yul\":956:957   */\n          0x01\n            /* \"#utility.yul\":950:954   */\n          dup3\n            /* \"#utility.yul\":946:958   */\n          and\n            /* \"#utility.yul\":977:995   */\n          dup1\n            /* \"#utility.yul\":967:1048   */\n          tag_38\n          jumpi\n            /* \"#utility.yul\":1033:1037   */\n          0x7f\n            /* \"#utility.yul\":1025:1031   */\n          dup3\n            /* \"#utility.yul\":1021:1038   */\n          and\n            /* \"#utility.yul\":1011:1038   */\n          swap2\n          pop\n            /* \"#utility.yul\":967:1048   */\n        tag_38:\n            /* \"#utility.yul\":1095:1097   */\n          0x20\n            /* \"#utility.yul\":1087:1093   */\n          dup3\n            /* \"#utility.yul\":1084:1098   */\n          lt\n            /* \"#utility.yul\":1064:1082   */\n          dup2\n            /* \"#utility.yul\":1061:1099   */\n          eq\n            /* \"#utility.yul\":1058:1142   */\n          iszero\n          tag_39\n          jumpi\n            /* \"#utility.yul\":1114:1132   */\n          tag_40\n          tag_41\n          jump\t// in\n        tag_40:\n            /* \"#utility.yul\":1058:1142   */\n        tag_39:\n            /* \"#utility.yul\":879:1148   */\n          pop\n            /* \"#utility.yul\":828:1148   */\n          swap2\n          swap1\n          pop\n          jump\t// out\n            /* \"#utility.yul\":1154:1334   */\n        tag_41:\n            /* \"#utility.yul\":1202:1279   */\n          0x4e487b7100000000000000000000000000000000000000000000000000000000\n            /* \"#utility.yul\":1199:1200   */\n          0x00\n            /* \"#utility.yul\":1192:1280   */\n          mstore\n            /* \"#utility.yul\":1299:1303   */\n          0x22\n            /* \"#utility.yul\":1296:1297   */\n          0x04\n            /* \"#utility.yul\":1289:1304   */\n          mstore\n            /* \"#utility.yul\":1323:1327   */\n          0x24\n            /* \"#utility.yul\":1320:1321   */\n          0x00\n            /* \"#utility.yul\":1313:1328   */\n          revert\n            /* \"#utility.yul\":1463:1580   */\n        tag_28:\n            /* \"#utility.yul\":1572:1573   */\n          0x00\n            /* \"#utility.yul\":1569:1570   */\n          dup1\n            /* \"#utility.yul\":1562:1574   */\n          revert\n            /* \"#utility.yul\":1586:1708   */\n        tag_24:\n            /* \"#utility.yul\":1659:1683   */\n          tag_47\n            /* \"#utility.yul\":1677:1682   */\n          dup2\n            /* \"#utility.yul\":1659:1683   */\n          tag_32\n          jump\t// in\n        tag_47:\n            /* \"#utility.yul\":1652:1657   */\n          dup2\n            /* \"#utility.yul\":1649:1684   */\n          eq\n            /* \"#utility.yul\":1639:1702   */\n          tag_48\n          jumpi\n            /* \"#utility.yul\":1698:1699   */\n          0x00\n            /* \"#utility.yul\":1695:1696   */\n          dup1\n            /* \"#utility.yul\":1688:1700   */\n          revert\n            /* \"#utility.yul\":1639:1702   */\n        tag_48:\n            /* \"#utility.yul\":1586:1708   */\n          pop\n          jump\t// out\n            /* \"Voting.sol\":2401:2722  contract Poll {\r... */\n        tag_8:\n          dataSize(sub_0)\n          dup1\n          dataOffset(sub_0)\n          0x00\n          codecopy\n          0x00\n          return\n        stop\n\n        sub_0: assembly {\n                /* \"Voting.sol\":2401:2722  contract Poll {\r... */\n              mstore(0x40, 0x80)\n              callvalue\n              dup1\n              iszero\n              tag_1\n              jumpi\n              0x00\n              dup1\n              revert\n            tag_1:\n              pop\n              jumpi(tag_2, lt(calldatasize, 0x04))\n              shr(0xe0, calldataload(0x00))\n              dup1\n              0x38cc4831\n              eq\n              tag_3\n              jumpi\n              dup1\n              0x5ec01e4d\n              eq\n              tag_4\n              jumpi\n            tag_2:\n              0x00\n              dup1\n              revert\n                /* \"Voting.sol\":2633:2719  function getAddress() public view returns (address) {\r... */\n            tag_3:\n              tag_5\n              tag_6\n              jump\t// in\n            tag_5:\n              mload(0x40)\n              tag_7\n              swap2\n              swap1\n              tag_8\n              jump\t// in\n            tag_7:\n              mload(0x40)\n              dup1\n              swap2\n              sub\n              swap1\n              return\n                /* \"Voting.sol\":2469:2489  string public random */\n            tag_4:\n              tag_9\n              tag_10\n              jump\t// in\n            tag_9:\n              mload(0x40)\n              tag_11\n              swap2\n              swap1\n              tag_12\n              jump\t// in\n            tag_11:\n              mload(0x40)\n              dup1\n              swap2\n              sub\n              swap1\n              return\n                /* \"Voting.sol\":2633:2719  function getAddress() public view returns (address) {\r... */\n            tag_6:\n                /* \"Voting.sol\":2676:2683  address */\n              0x00\n                /* \"Voting.sol\":2703:2711  _address */\n              0x01\n              0x00\n              swap1\n              sload\n              swap1\n              0x0100\n              exp\n              swap1\n              div\n              0xffffffffffffffffffffffffffffffffffffffff\n              and\n                /* \"Voting.sol\":2696:2711  return _address */\n              swap1\n              pop\n                /* \"Voting.sol\":2633:2719  function getAddress() public view returns (address) {\r... */\n              swap1\n              jump\t// out\n                /* \"Voting.sol\":2469:2489  string public random */\n            tag_10:\n              0x02\n              dup1\n              sload\n              tag_14\n              swap1\n              tag_15\n              jump\t// in\n            tag_14:\n              dup1\n              0x1f\n              add\n              0x20\n              dup1\n              swap2\n              div\n              mul\n              0x20\n              add\n              mload(0x40)\n              swap1\n              dup2\n              add\n              0x40\n              mstore\n              dup1\n              swap3\n              swap2\n              swap1\n              dup2\n              dup2\n              mstore\n              0x20\n              add\n              dup3\n              dup1\n              sload\n              tag_16\n              swap1\n              tag_15\n              jump\t// in\n            tag_16:\n              dup1\n              iszero\n              tag_17\n              jumpi\n              dup1\n              0x1f\n              lt\n              tag_18\n              jumpi\n              0x0100\n              dup1\n              dup4\n              sload\n              div\n              mul\n              dup4\n              mstore\n              swap2\n              0x20\n              add\n              swap2\n              jump(tag_17)\n            tag_18:\n              dup3\n              add\n              swap2\n              swap1\n              0x00\n              mstore\n              keccak256(0x00, 0x20)\n              swap1\n            tag_19:\n              dup2\n              sload\n              dup2\n              mstore\n              swap1\n              0x01\n              add\n              swap1\n              0x20\n              add\n              dup1\n              dup4\n              gt\n              tag_19\n              jumpi\n              dup3\n              swap1\n              sub\n              0x1f\n              and\n              dup3\n              add\n              swap2\n            tag_17:\n              pop\n              pop\n              pop\n              pop\n              pop\n              dup2\n              jump\t// out\n                /* \"#utility.yul\":7:125   */\n            tag_21:\n                /* \"#utility.yul\":94:118   */\n              tag_23\n                /* \"#utility.yul\":112:117   */\n              dup2\n                /* \"#utility.yul\":94:118   */\n              tag_24\n              jump\t// in\n            tag_23:\n                /* \"#utility.yul\":89:92   */\n              dup3\n                /* \"#utility.yul\":82:119   */\n              mstore\n                /* \"#utility.yul\":7:125   */\n              pop\n              pop\n              jump\t// out\n                /* \"#utility.yul\":131:495   */\n            tag_25:\n                /* \"#utility.yul\":219:222   */\n              0x00\n                /* \"#utility.yul\":247:286   */\n              tag_27\n                /* \"#utility.yul\":280:285   */\n              dup3\n                /* \"#utility.yul\":247:286   */\n              tag_28\n              jump\t// in\n            tag_27:\n                /* \"#utility.yul\":302:373   */\n              tag_29\n                /* \"#utility.yul\":366:372   */\n              dup2\n                /* \"#utility.yul\":361:364   */\n              dup6\n                /* \"#utility.yul\":302:373   */\n              tag_30\n              jump\t// in\n            tag_29:\n                /* \"#utility.yul\":295:373   */\n              swap4\n              pop\n                /* \"#utility.yul\":382:434   */\n              tag_31\n                /* \"#utility.yul\":427:433   */\n              dup2\n                /* \"#utility.yul\":422:425   */\n              dup6\n                /* \"#utility.yul\":415:419   */\n              0x20\n                /* \"#utility.yul\":408:413   */\n              dup7\n                /* \"#utility.yul\":404:420   */\n              add\n                /* \"#utility.yul\":382:434   */\n              tag_32\n              jump\t// in\n            tag_31:\n                /* \"#utility.yul\":459:488   */\n              tag_33\n                /* \"#utility.yul\":481:487   */\n              dup2\n                /* \"#utility.yul\":459:488   */\n              tag_34\n              jump\t// in\n            tag_33:\n                /* \"#utility.yul\":454:457   */\n              dup5\n                /* \"#utility.yul\":450:489   */\n              add\n                /* \"#utility.yul\":443:489   */\n              swap2\n              pop\n                /* \"#utility.yul\":223:495   */\n              pop\n                /* \"#utility.yul\":131:495   */\n              swap3\n              swap2\n              pop\n              pop\n              jump\t// out\n                /* \"#utility.yul\":501:723   */\n            tag_8:\n                /* \"#utility.yul\":594:598   */\n              0x00\n                /* \"#utility.yul\":632:634   */\n              0x20\n                /* \"#utility.yul\":621:630   */\n              dup3\n                /* \"#utility.yul\":617:635   */\n              add\n                /* \"#utility.yul\":609:635   */\n              swap1\n              pop\n                /* \"#utility.yul\":645:716   */\n              tag_36\n                /* \"#utility.yul\":713:714   */\n              0x00\n                /* \"#utility.yul\":702:711   */\n              dup4\n                /* \"#utility.yul\":698:715   */\n              add\n                /* \"#utility.yul\":689:695   */\n              dup5\n                /* \"#utility.yul\":645:716   */\n              tag_21\n              jump\t// in\n            tag_36:\n                /* \"#utility.yul\":501:723   */\n              swap3\n              swap2\n              pop\n              pop\n              jump\t// out\n                /* \"#utility.yul\":729:1042   */\n            tag_12:\n                /* \"#utility.yul\":842:846   */\n              0x00\n                /* \"#utility.yul\":880:882   */\n              0x20\n                /* \"#utility.yul\":869:878   */\n              dup3\n                /* \"#utility.yul\":865:883   */\n              add\n                /* \"#utility.yul\":857:883   */\n              swap1\n              pop\n                /* \"#utility.yul\":929:938   */\n              dup2\n                /* \"#utility.yul\":923:927   */\n              dup2\n                /* \"#utility.yul\":919:939   */\n              sub\n                /* \"#utility.yul\":915:916   */\n              0x00\n                /* \"#utility.yul\":904:913   */\n              dup4\n                /* \"#utility.yul\":900:917   */\n              add\n                /* \"#utility.yul\":893:940   */\n              mstore\n                /* \"#utility.yul\":957:1035   */\n              tag_38\n                /* \"#utility.yul\":1030:1034   */\n              dup2\n                /* \"#utility.yul\":1021:1027   */\n              dup5\n                /* \"#utility.yul\":957:1035   */\n              tag_25\n              jump\t// in\n            tag_38:\n                /* \"#utility.yul\":949:1035   */\n              swap1\n              pop\n                /* \"#utility.yul\":729:1042   */\n              swap3\n              swap2\n              pop\n              pop\n              jump\t// out\n                /* \"#utility.yul\":1048:1147   */\n            tag_28:\n                /* \"#utility.yul\":1100:1106   */\n              0x00\n                /* \"#utility.yul\":1134:1139   */\n              dup2\n                /* \"#utility.yul\":1128:1140   */\n              mload\n                /* \"#utility.yul\":1118:1140   */\n              swap1\n              pop\n                /* \"#utility.yul\":1048:1147   */\n              swap2\n              swap1\n              pop\n              jump\t// out\n                /* \"#utility.yul\":1153:1322   */\n            tag_30:\n                /* \"#utility.yul\":1237:1248   */\n              0x00\n                /* \"#utility.yul\":1271:1277   */\n              dup3\n                /* \"#utility.yul\":1266:1269   */\n              dup3\n                /* \"#utility.yul\":1259:1278   */\n              mstore\n                /* \"#utility.yul\":1311:1315   */\n              0x20\n                /* \"#utility.yul\":1306:1309   */\n              dup3\n                /* \"#utility.yul\":1302:1316   */\n              add\n                /* \"#utility.yul\":1287:1316   */\n              swap1\n              pop\n                /* \"#utility.yul\":1153:1322   */\n              swap3\n              swap2\n              pop\n              pop\n              jump\t// out\n                /* \"#utility.yul\":1328:1424   */\n            tag_24:\n                /* \"#utility.yul\":1365:1372   */\n              0x00\n                /* \"#utility.yul\":1394:1418   */\n              tag_42\n                /* \"#utility.yul\":1412:1417   */\n              dup3\n                /* \"#utility.yul\":1394:1418   */\n              tag_43\n              jump\t// in\n            tag_42:\n                /* \"#utility.yul\":1383:1418   */\n              swap1\n              pop\n                /* \"#utility.yul\":1328:1424   */\n              swap2\n              swap1\n              pop\n              jump\t// out\n                /* \"#utility.yul\":1430:1556   */\n            tag_43:\n                /* \"#utility.yul\":1467:1474   */\n              0x00\n                /* \"#utility.yul\":1507:1549   */\n              0xffffffffffffffffffffffffffffffffffffffff\n                /* \"#utility.yul\":1500:1505   */\n              dup3\n                /* \"#utility.yul\":1496:1550   */\n              and\n                /* \"#utility.yul\":1485:1550   */\n              swap1\n              pop\n                /* \"#utility.yul\":1430:1556   */\n              swap2\n              swap1\n              pop\n              jump\t// out\n                /* \"#utility.yul\":1562:1869   */\n            tag_32:\n                /* \"#utility.yul\":1630:1631   */\n              0x00\n                /* \"#utility.yul\":1640:1753   */\n            tag_46:\n                /* \"#utility.yul\":1654:1660   */\n              dup4\n                /* \"#utility.yul\":1651:1652   */\n              dup2\n                /* \"#utility.yul\":1648:1661   */\n              lt\n                /* \"#utility.yul\":1640:1753   */\n              iszero\n              tag_48\n              jumpi\n                /* \"#utility.yul\":1739:1740   */\n              dup1\n                /* \"#utility.yul\":1734:1737   */\n              dup3\n                /* \"#utility.yul\":1730:1741   */\n              add\n                /* \"#utility.yul\":1724:1742   */\n              mload\n                /* \"#utility.yul\":1720:1721   */\n              dup2\n                /* \"#utility.yul\":1715:1718   */\n              dup5\n                /* \"#utility.yul\":1711:1722   */\n              add\n                /* \"#utility.yul\":1704:1743   */\n              mstore\n                /* \"#utility.yul\":1676:1678   */\n              0x20\n                /* \"#utility.yul\":1673:1674   */\n              dup2\n                /* \"#utility.yul\":1669:1679   */\n              add\n                /* \"#utility.yul\":1664:1679   */\n              swap1\n              pop\n                /* \"#utility.yul\":1640:1753   */\n              jump(tag_46)\n            tag_48:\n                /* \"#utility.yul\":1771:1777   */\n              dup4\n                /* \"#utility.yul\":1768:1769   */\n              dup2\n                /* \"#utility.yul\":1765:1778   */\n              gt\n                /* \"#utility.yul\":1762:1863   */\n              iszero\n              tag_49\n              jumpi\n                /* \"#utility.yul\":1851:1852   */\n              0x00\n                /* \"#utility.yul\":1842:1848   */\n              dup5\n                /* \"#utility.yul\":1837:1840   */\n              dup5\n                /* \"#utility.yul\":1833:1849   */\n              add\n                /* \"#utility.yul\":1826:1853   */\n              mstore\n                /* \"#utility.yul\":1762:1863   */\n            tag_49:\n                /* \"#utility.yul\":1611:1869   */\n              pop\n                /* \"#utility.yul\":1562:1869   */\n              pop\n              pop\n              pop\n              jump\t// out\n                /* \"#utility.yul\":1875:2195   */\n            tag_15:\n                /* \"#utility.yul\":1919:1925   */\n              0x00\n                /* \"#utility.yul\":1956:1957   */\n              0x02\n                /* \"#utility.yul\":1950:1954   */\n              dup3\n                /* \"#utility.yul\":1946:1958   */\n              div\n                /* \"#utility.yul\":1936:1958   */\n              swap1\n              pop\n                /* \"#utility.yul\":2003:2004   */\n              0x01\n                /* \"#utility.yul\":1997:2001   */\n              dup3\n                /* \"#utility.yul\":1993:2005   */\n              and\n                /* \"#utility.yul\":2024:2042   */\n              dup1\n                /* \"#utility.yul\":2014:2095   */\n              tag_51\n              jumpi\n                /* \"#utility.yul\":2080:2084   */\n              0x7f\n                /* \"#utility.yul\":2072:2078   */\n              dup3\n                /* \"#utility.yul\":2068:2085   */\n              and\n                /* \"#utility.yul\":2058:2085   */\n              swap2\n              pop\n                /* \"#utility.yul\":2014:2095   */\n            tag_51:\n                /* \"#utility.yul\":2142:2144   */\n              0x20\n                /* \"#utility.yul\":2134:2140   */\n              dup3\n                /* \"#utility.yul\":2131:2145   */\n              lt\n                /* \"#utility.yul\":2111:2129   */\n              dup2\n                /* \"#utility.yul\":2108:2146   */\n              eq\n                /* \"#utility.yul\":2105:2189   */\n              iszero\n              tag_52\n              jumpi\n                /* \"#utility.yul\":2161:2179   */\n              tag_53\n              tag_54\n              jump\t// in\n            tag_53:\n                /* \"#utility.yul\":2105:2189   */\n            tag_52:\n                /* \"#utility.yul\":1926:2195   */\n              pop\n                /* \"#utility.yul\":1875:2195   */\n              swap2\n              swap1\n              pop\n              jump\t// out\n                /* \"#utility.yul\":2201:2381   */\n            tag_54:\n                /* \"#utility.yul\":2249:2326   */\n              0x4e487b7100000000000000000000000000000000000000000000000000000000\n                /* \"#utility.yul\":2246:2247   */\n              0x00\n                /* \"#utility.yul\":2239:2327   */\n              mstore\n                /* \"#utility.yul\":2346:2350   */\n              0x22\n                /* \"#utility.yul\":2343:2344   */\n              0x04\n                /* \"#utility.yul\":2336:2351   */\n              mstore\n                /* \"#utility.yul\":2370:2374   */\n              0x24\n                /* \"#utility.yul\":2367:2368   */\n              0x00\n                /* \"#utility.yul\":2360:2375   */\n              revert\n                /* \"#utility.yul\":2387:2489   */\n            tag_34:\n                /* \"#utility.yul\":2428:2434   */\n              0x00\n                /* \"#utility.yul\":2479:2481   */\n              0x1f\n                /* \"#utility.yul\":2475:2482   */\n              not\n                /* \"#utility.yul\":2470:2472   */\n              0x1f\n                /* \"#utility.yul\":2463:2468   */\n              dup4\n                /* \"#utility.yul\":2459:2473   */\n              add\n                /* \"#utility.yul\":2455:2483   */\n              and\n                /* \"#utility.yul\":2445:2483   */\n              swap1\n              pop\n                /* \"#utility.yul\":2387:2489   */\n              swap2\n              swap1\n              pop\n              jump\t// out\n\n            auxdata: 0xa2646970667358221220a57935ef8d91af0da35750b9b786740abf986f7095d35815a89f5d103210975764736f6c63430008070033\n        }\n    }\n\n    auxdata: 0xa2646970667358221220ee43bbd2f69945543c2e7b1c96d0e89dffc4b39dcf30a156da62061ac888c04564736f6c63430008070033\n}\n",
				"bytecode": {
					"linkReferences": {},
					"object": "608060405234801561001057600080fd5b50610c34806100206000396000f3fe608060405234801561001057600080fd5b50600436106100415760003560e01c8063170b5add1461004657806339f14d17146100645780637fd5f2681461006e575b600080fd5b61004e61008c565b60405161005b9190610550565b60405180910390f35b61006c61015d565b005b61007661033f565b6040516100839190610572565b60405180910390f35b60606000339050600260008273ffffffffffffffffffffffffffffffffffffffff1673ffffffffffffffffffffffffffffffffffffffff16815260200190815260200160002080548060200260200160405190810160405280929190818152602001828054801561015257602002820191906000526020600020905b8160009054906101000a900473ffffffffffffffffffffffffffffffffffffffff1673ffffffffffffffffffffffffffffffffffffffff1681526020019060010190808311610108575b505050505091505090565b6000339050600081604051610171906103cd565b61017b9190610535565b604051809103906000f080158015610197573d6000803e3d6000fd5b50905060008173ffffffffffffffffffffffffffffffffffffffff166338cc48316040518163ffffffff1660e01b815260040160206040518083038186803b1580156101e257600080fd5b505afa1580156101f6573d6000803e3d6000fd5b505050506040513d601f19601f8201168201806040525081019061021a91906103ef565b905081600160008373ffffffffffffffffffffffffffffffffffffffff1673ffffffffffffffffffffffffffffffffffffffff16815260200190815260200160002060006101000a81548173ffffffffffffffffffffffffffffffffffffffff021916908373ffffffffffffffffffffffffffffffffffffffff160217905550600260008473ffffffffffffffffffffffffffffffffffffffff1673ffffffffffffffffffffffffffffffffffffffff168152602001908152602001600020819080600181540180825580915050600190039060005260206000200160009091909190916101000a81548173ffffffffffffffffffffffffffffffffffffffff021916908373ffffffffffffffffffffffffffffffffffffffff160217905550505050565b606060008054806020026020016040519081016040528092919081815260200182805480156103c357602002820191906000526020600020905b8160009054906101000a900473ffffffffffffffffffffffffffffffffffffffff1673ffffffffffffffffffffffffffffffffffffffff1681526020019060010190808311610379575b5050505050905090565b6105858061067a83390190565b6000815190506103e981610662565b92915050565b6000602082840312156104055761040461065d565b5b6000610413848285016103da565b91505092915050565b6000610428838361044c565b60208301905092915050565b60006104408383610526565b60208301905092915050565b610455816105f5565b82525050565b610464816105f5565b82525050565b6000610475826105b4565b61047f81856105e4565b935061048a83610594565b8060005b838110156104bb5781516104a2888261041c565b97506104ad836105ca565b92505060018101905061048e565b5085935050505092915050565b60006104d3826105bf565b6104dd81856105e4565b93506104e8836105a4565b8060005b838110156105195781516105008882610434565b975061050b836105d7565b9250506001810190506104ec565b5085935050505092915050565b61052f81610627565b82525050565b600060208201905061054a600083018461045b565b92915050565b6000602082019050818103600083015261056a818461046a565b905092915050565b6000602082019050818103600083015261058c81846104c8565b905092915050565b6000819050602082019050919050565b6000819050602082019050919050565b600081519050919050565b600081519050919050565b6000602082019050919050565b6000602082019050919050565b600082825260208201905092915050565b600061060082610607565b9050919050565b600073ffffffffffffffffffffffffffffffffffffffff82169050919050565b600061063282610639565b9050919050565b60006106448261064b565b9050919050565b600061065682610607565b9050919050565b600080fd5b61066b816105f5565b811461067657600080fd5b5056fe608060405234801561001057600080fd5b50604051610585380380610585833981810160405281019061003291906101bd565b806000806101000a81548173ffffffffffffffffffffffffffffffffffffffff021916908373ffffffffffffffffffffffffffffffffffffffff16021790555030600160006101000a81548173ffffffffffffffffffffffffffffffffffffffff021916908373ffffffffffffffffffffffffffffffffffffffff1602179055506040518060400160405280600381526020017f4865790000000000000000000000000000000000000000000000000000000000815250600290805190602001906100fe929190610105565b5050610299565b8280546101119061021c565b90600052602060002090601f016020900481019282610133576000855561017a565b82601f1061014c57805160ff191683800117855561017a565b8280016001018555821561017a579182015b8281111561017957825182559160200191906001019061015e565b5b509050610187919061018b565b5090565b5b808211156101a457600081600090555060010161018c565b5090565b6000815190506101b781610282565b92915050565b6000602082840312156101d3576101d261027d565b5b60006101e1848285016101a8565b91505092915050565b60006101f5826101fc565b9050919050565b600073ffffffffffffffffffffffffffffffffffffffff82169050919050565b6000600282049050600182168061023457607f821691505b602082108114156102485761024761024e565b5b50919050565b7f4e487b7100000000000000000000000000000000000000000000000000000000600052602260045260246000fd5b600080fd5b61028b816101ea565b811461029657600080fd5b50565b6102dd806102a86000396000f3fe608060405234801561001057600080fd5b50600436106100365760003560e01c806338cc48311461003b5780635ec01e4d14610059575b600080fd5b610043610077565b6040516100509190610177565b60405180910390f35b6100616100a1565b60405161006e9190610192565b60405180910390f35b6000600160009054906101000a900473ffffffffffffffffffffffffffffffffffffffff16905090565b600280546100ae90610235565b80601f01602080910402602001604051908101604052809291908181526020018280546100da90610235565b80156101275780601f106100fc57610100808354040283529160200191610127565b820191906000526020600020905b81548152906001019060200180831161010a57829003601f168201915b505050505081565b610138816101d0565b82525050565b6000610149826101b4565b61015381856101bf565b9350610163818560208601610202565b61016c81610296565b840191505092915050565b600060208201905061018c600083018461012f565b92915050565b600060208201905081810360008301526101ac818461013e565b905092915050565b600081519050919050565b600082825260208201905092915050565b60006101db826101e2565b9050919050565b600073ffffffffffffffffffffffffffffffffffffffff82169050919050565b60005b83811015610220578082015181840152602081019050610205565b8381111561022f576000848401525b50505050565b6000600282049050600182168061024d57607f821691505b6020821081141561026157610260610267565b5b50919050565b7f4e487b7100000000000000000000000000000000000000000000000000000000600052602260045260246000fd5b6000601f19601f830116905091905056fea2646970667358221220a57935ef8d91af0da35750b9b786740abf986f7095d35815a89f5d103210975764736f6c63430008070033a2646970667358221220ee43bbd2f69945543c2e7b1c96d0e89dffc4b39dcf30a156da62061ac888c04564736f6c63430008070033",
					"opcodes": "PUSH1 0x80 PUSH1 0x40 MSTORE CALLVALUE DUP1 ISZERO PUSH2 0x10 JUMPI PUSH1 0x0 DUP1 REVERT JUMPDEST POP PUSH2 0xC34 DUP1 PUSH2 0x20 PUSH1 0x0 CODECOPY PUSH1 0x0 RETURN INVALID PUSH1 0x80 PUSH1 0x40 MSTORE CALLVALUE DUP1 ISZERO PUSH2 0x10 JUMPI PUSH1 0x0 DUP1 REVERT JUMPDEST POP PUSH1 0x4 CALLDATASIZE LT PUSH2 0x41 JUMPI PUSH1 0x0 CALLDATALOAD PUSH1 0xE0 SHR DUP1 PUSH4 0x170B5ADD EQ PUSH2 0x46 JUMPI DUP1 PUSH4 0x39F14D17 EQ PUSH2 0x64 JUMPI DUP1 PUSH4 0x7FD5F268 EQ PUSH2 0x6E JUMPI JUMPDEST PUSH1 0x0 DUP1 REVERT JUMPDEST PUSH2 0x4E PUSH2 0x8C JUMP JUMPDEST PUSH1 0x40 MLOAD PUSH2 0x5B SWAP2 SWAP1 PUSH2 0x550 JUMP JUMPDEST PUSH1 0x40 MLOAD DUP1 SWAP2 SUB SWAP1 RETURN JUMPDEST PUSH2 0x6C PUSH2 0x15D JUMP JUMPDEST STOP JUMPDEST PUSH2 0x76 PUSH2 0x33F JUMP JUMPDEST PUSH1 0x40 MLOAD PUSH2 0x83 SWAP2 SWAP1 PUSH2 0x572 JUMP JUMPDEST PUSH1 0x40 MLOAD DUP1 SWAP2 SUB SWAP1 RETURN JUMPDEST PUSH1 0x60 PUSH1 0x0 CALLER SWAP1 POP PUSH1 0x2 PUSH1 0x0 DUP3 PUSH20 0xFFFFFFFFFFFFFFFFFFFFFFFFFFFFFFFFFFFFFFFF AND PUSH20 0xFFFFFFFFFFFFFFFFFFFFFFFFFFFFFFFFFFFFFFFF AND DUP2 MSTORE PUSH1 0x20 ADD SWAP1 DUP2 MSTORE PUSH1 0x20 ADD PUSH1 0x0 KECCAK256 DUP1 SLOAD DUP1 PUSH1 0x20 MUL PUSH1 0x20 ADD PUSH1 0x40 MLOAD SWAP1 DUP2 ADD PUSH1 0x40 MSTORE DUP1 SWAP3 SWAP2 SWAP1 DUP2 DUP2 MSTORE PUSH1 0x20 ADD DUP3 DUP1 SLOAD DUP1 ISZERO PUSH2 0x152 JUMPI PUSH1 0x20 MUL DUP3 ADD SWAP2 SWAP1 PUSH1 0x0 MSTORE PUSH1 0x20 PUSH1 0x0 KECCAK256 SWAP1 JUMPDEST DUP2 PUSH1 0x0 SWAP1 SLOAD SWAP1 PUSH2 0x100 EXP SWAP1 DIV PUSH20 0xFFFFFFFFFFFFFFFFFFFFFFFFFFFFFFFFFFFFFFFF AND PUSH20 0xFFFFFFFFFFFFFFFFFFFFFFFFFFFFFFFFFFFFFFFF AND DUP2 MSTORE PUSH1 0x20 ADD SWAP1 PUSH1 0x1 ADD SWAP1 DUP1 DUP4 GT PUSH2 0x108 JUMPI JUMPDEST POP POP POP POP POP SWAP2 POP POP SWAP1 JUMP JUMPDEST PUSH1 0x0 CALLER SWAP1 POP PUSH1 0x0 DUP2 PUSH1 0x40 MLOAD PUSH2 0x171 SWAP1 PUSH2 0x3CD JUMP JUMPDEST PUSH2 0x17B SWAP2 SWAP1 PUSH2 0x535 JUMP JUMPDEST PUSH1 0x40 MLOAD DUP1 SWAP2 SUB SWAP1 PUSH1 0x0 CREATE DUP1 ISZERO DUP1 ISZERO PUSH2 0x197 JUMPI RETURNDATASIZE PUSH1 0x0 DUP1 RETURNDATACOPY RETURNDATASIZE PUSH1 0x0 REVERT JUMPDEST POP SWAP1 POP PUSH1 0x0 DUP2 PUSH20 0xFFFFFFFFFFFFFFFFFFFFFFFFFFFFFFFFFFFFFFFF AND PUSH4 0x38CC4831 PUSH1 0x40 MLOAD DUP2 PUSH4 0xFFFFFFFF AND PUSH1 0xE0 SHL DUP2 MSTORE PUSH1 0x4 ADD PUSH1 0x20 PUSH1 0x40 MLOAD DUP1 DUP4 SUB DUP2 DUP7 DUP1 EXTCODESIZE ISZERO DUP1 ISZERO PUSH2 0x1E2 JUMPI PUSH1 0x0 DUP1 REVERT JUMPDEST POP GAS STATICCALL ISZERO DUP1 ISZERO PUSH2 0x1F6 JUMPI RETURNDATASIZE PUSH1 0x0 DUP1 RETURNDATACOPY RETURNDATASIZE PUSH1 0x0 REVERT JUMPDEST POP POP POP POP PUSH1 0x40 MLOAD RETURNDATASIZE PUSH1 0x1F NOT PUSH1 0x1F DUP3 ADD AND DUP3 ADD DUP1 PUSH1 0x40 MSTORE POP DUP2 ADD SWAP1 PUSH2 0x21A SWAP2 SWAP1 PUSH2 0x3EF JUMP JUMPDEST SWAP1 POP DUP2 PUSH1 0x1 PUSH1 0x0 DUP4 PUSH20 0xFFFFFFFFFFFFFFFFFFFFFFFFFFFFFFFFFFFFFFFF AND PUSH20 0xFFFFFFFFFFFFFFFFFFFFFFFFFFFFFFFFFFFFFFFF AND DUP2 MSTORE PUSH1 0x20 ADD SWAP1 DUP2 MSTORE PUSH1 0x20 ADD PUSH1 0x0 KECCAK256 PUSH1 0x0 PUSH2 0x100 EXP DUP2 SLOAD DUP2 PUSH20 0xFFFFFFFFFFFFFFFFFFFFFFFFFFFFFFFFFFFFFFFF MUL NOT AND SWAP1 DUP4 PUSH20 0xFFFFFFFFFFFFFFFFFFFFFFFFFFFFFFFFFFFFFFFF AND MUL OR SWAP1 SSTORE POP PUSH1 0x2 PUSH1 0x0 DUP5 PUSH20 0xFFFFFFFFFFFFFFFFFFFFFFFFFFFFFFFFFFFFFFFF AND PUSH20 0xFFFFFFFFFFFFFFFFFFFFFFFFFFFFFFFFFFFFFFFF AND DUP2 MSTORE PUSH1 0x20 ADD SWAP1 DUP2 MSTORE PUSH1 0x20 ADD PUSH1 0x0 KECCAK256 DUP2 SWAP1 DUP1 PUSH1 0x1 DUP2 SLOAD ADD DUP1 DUP3 SSTORE DUP1 SWAP2 POP POP PUSH1 0x1 SWAP1 SUB SWAP1 PUSH1 0x0 MSTORE PUSH1 0x20 PUSH1 0x0 KECCAK256 ADD PUSH1 0x0 SWAP1 SWAP2 SWAP1 SWAP2 SWAP1 SWAP2 PUSH2 0x100 EXP DUP2 SLOAD DUP2 PUSH20 0xFFFFFFFFFFFFFFFFFFFFFFFFFFFFFFFFFFFFFFFF MUL NOT AND SWAP1 DUP4 PUSH20 0xFFFFFFFFFFFFFFFFFFFFFFFFFFFFFFFFFFFFFFFF AND MUL OR SWAP1 SSTORE POP POP POP POP JUMP JUMPDEST PUSH1 0x60 PUSH1 0x0 DUP1 SLOAD DUP1 PUSH1 0x20 MUL PUSH1 0x20 ADD PUSH1 0x40 MLOAD SWAP1 DUP2 ADD PUSH1 0x40 MSTORE DUP1 SWAP3 SWAP2 SWAP1 DUP2 DUP2 MSTORE PUSH1 0x20 ADD DUP3 DUP1 SLOAD DUP1 ISZERO PUSH2 0x3C3 JUMPI PUSH1 0x20 MUL DUP3 ADD SWAP2 SWAP1 PUSH1 0x0 MSTORE PUSH1 0x20 PUSH1 0x0 KECCAK256 SWAP1 JUMPDEST DUP2 PUSH1 0x0 SWAP1 SLOAD SWAP1 PUSH2 0x100 EXP SWAP1 DIV PUSH20 0xFFFFFFFFFFFFFFFFFFFFFFFFFFFFFFFFFFFFFFFF AND PUSH20 0xFFFFFFFFFFFFFFFFFFFFFFFFFFFFFFFFFFFFFFFF AND DUP2 MSTORE PUSH1 0x20 ADD SWAP1 PUSH1 0x1 ADD SWAP1 DUP1 DUP4 GT PUSH2 0x379 JUMPI JUMPDEST POP POP POP POP POP SWAP1 POP SWAP1 JUMP JUMPDEST PUSH2 0x585 DUP1 PUSH2 0x67A DUP4 CODECOPY ADD SWAP1 JUMP JUMPDEST PUSH1 0x0 DUP2 MLOAD SWAP1 POP PUSH2 0x3E9 DUP2 PUSH2 0x662 JUMP JUMPDEST SWAP3 SWAP2 POP POP JUMP JUMPDEST PUSH1 0x0 PUSH1 0x20 DUP3 DUP5 SUB SLT ISZERO PUSH2 0x405 JUMPI PUSH2 0x404 PUSH2 0x65D JUMP JUMPDEST JUMPDEST PUSH1 0x0 PUSH2 0x413 DUP5 DUP3 DUP6 ADD PUSH2 0x3DA JUMP JUMPDEST SWAP2 POP POP SWAP3 SWAP2 POP POP JUMP JUMPDEST PUSH1 0x0 PUSH2 0x428 DUP4 DUP4 PUSH2 0x44C JUMP JUMPDEST PUSH1 0x20 DUP4 ADD SWAP1 POP SWAP3 SWAP2 POP POP JUMP JUMPDEST PUSH1 0x0 PUSH2 0x440 DUP4 DUP4 PUSH2 0x526 JUMP JUMPDEST PUSH1 0x20 DUP4 ADD SWAP1 POP SWAP3 SWAP2 POP POP JUMP JUMPDEST PUSH2 0x455 DUP2 PUSH2 0x5F5 JUMP JUMPDEST DUP3 MSTORE POP POP JUMP JUMPDEST PUSH2 0x464 DUP2 PUSH2 0x5F5 JUMP JUMPDEST DUP3 MSTORE POP POP JUMP JUMPDEST PUSH1 0x0 PUSH2 0x475 DUP3 PUSH2 0x5B4 JUMP JUMPDEST PUSH2 0x47F DUP2 DUP6 PUSH2 0x5E4 JUMP JUMPDEST SWAP4 POP PUSH2 0x48A DUP4 PUSH2 0x594 JUMP JUMPDEST DUP1 PUSH1 0x0 JUMPDEST DUP4 DUP2 LT ISZERO PUSH2 0x4BB JUMPI DUP2 MLOAD PUSH2 0x4A2 DUP9 DUP3 PUSH2 0x41C JUMP JUMPDEST SWAP8 POP PUSH2 0x4AD DUP4 PUSH2 0x5CA JUMP JUMPDEST SWAP3 POP POP PUSH1 0x1 DUP2 ADD SWAP1 POP PUSH2 0x48E JUMP JUMPDEST POP DUP6 SWAP4 POP POP POP POP SWAP3 SWAP2 POP POP JUMP JUMPDEST PUSH1 0x0 PUSH2 0x4D3 DUP3 PUSH2 0x5BF JUMP JUMPDEST PUSH2 0x4DD DUP2 DUP6 PUSH2 0x5E4 JUMP JUMPDEST SWAP4 POP PUSH2 0x4E8 DUP4 PUSH2 0x5A4 JUMP JUMPDEST DUP1 PUSH1 0x0 JUMPDEST DUP4 DUP2 LT ISZERO PUSH2 0x519 JUMPI DUP2 MLOAD PUSH2 0x500 DUP9 DUP3 PUSH2 0x434 JUMP JUMPDEST SWAP8 POP PUSH2 0x50B DUP4 PUSH2 0x5D7 JUMP JUMPDEST SWAP3 POP POP PUSH1 0x1 DUP2 ADD SWAP1 POP PUSH2 0x4EC JUMP JUMPDEST POP DUP6 SWAP4 POP POP POP POP SWAP3 SWAP2 POP POP JUMP JUMPDEST PUSH2 0x52F DUP2 PUSH2 0x627 JUMP JUMPDEST DUP3 MSTORE POP POP JUMP JUMPDEST PUSH1 0x0 PUSH1 0x20 DUP3 ADD SWAP1 POP PUSH2 0x54A PUSH1 0x0 DUP4 ADD DUP5 PUSH2 0x45B JUMP JUMPDEST SWAP3 SWAP2 POP POP JUMP JUMPDEST PUSH1 0x0 PUSH1 0x20 DUP3 ADD SWAP1 POP DUP2 DUP2 SUB PUSH1 0x0 DUP4 ADD MSTORE PUSH2 0x56A DUP2 DUP5 PUSH2 0x46A JUMP JUMPDEST SWAP1 POP SWAP3 SWAP2 POP POP JUMP JUMPDEST PUSH1 0x0 PUSH1 0x20 DUP3 ADD SWAP1 POP DUP2 DUP2 SUB PUSH1 0x0 DUP4 ADD MSTORE PUSH2 0x58C DUP2 DUP5 PUSH2 0x4C8 JUMP JUMPDEST SWAP1 POP SWAP3 SWAP2 POP POP JUMP JUMPDEST PUSH1 0x0 DUP2 SWAP1 POP PUSH1 0x20 DUP3 ADD SWAP1 POP SWAP2 SWAP1 POP JUMP JUMPDEST PUSH1 0x0 DUP2 SWAP1 POP PUSH1 0x20 DUP3 ADD SWAP1 POP SWAP2 SWAP1 POP JUMP JUMPDEST PUSH1 0x0 DUP2 MLOAD SWAP1 POP SWAP2 SWAP1 POP JUMP JUMPDEST PUSH1 0x0 DUP2 MLOAD SWAP1 POP SWAP2 SWAP1 POP JUMP JUMPDEST PUSH1 0x0 PUSH1 0x20 DUP3 ADD SWAP1 POP SWAP2 SWAP1 POP JUMP JUMPDEST PUSH1 0x0 PUSH1 0x20 DUP3 ADD SWAP1 POP SWAP2 SWAP1 POP JUMP JUMPDEST PUSH1 0x0 DUP3 DUP3 MSTORE PUSH1 0x20 DUP3 ADD SWAP1 POP SWAP3 SWAP2 POP POP JUMP JUMPDEST PUSH1 0x0 PUSH2 0x600 DUP3 PUSH2 0x607 JUMP JUMPDEST SWAP1 POP SWAP2 SWAP1 POP JUMP JUMPDEST PUSH1 0x0 PUSH20 0xFFFFFFFFFFFFFFFFFFFFFFFFFFFFFFFFFFFFFFFF DUP3 AND SWAP1 POP SWAP2 SWAP1 POP JUMP JUMPDEST PUSH1 0x0 PUSH2 0x632 DUP3 PUSH2 0x639 JUMP JUMPDEST SWAP1 POP SWAP2 SWAP1 POP JUMP JUMPDEST PUSH1 0x0 PUSH2 0x644 DUP3 PUSH2 0x64B JUMP JUMPDEST SWAP1 POP SWAP2 SWAP1 POP JUMP JUMPDEST PUSH1 0x0 PUSH2 0x656 DUP3 PUSH2 0x607 JUMP JUMPDEST SWAP1 POP SWAP2 SWAP1 POP JUMP JUMPDEST PUSH1 0x0 DUP1 REVERT JUMPDEST PUSH2 0x66B DUP2 PUSH2 0x5F5 JUMP JUMPDEST DUP2 EQ PUSH2 0x676 JUMPI PUSH1 0x0 DUP1 REVERT JUMPDEST POP JUMP INVALID PUSH1 0x80 PUSH1 0x40 MSTORE CALLVALUE DUP1 ISZERO PUSH2 0x10 JUMPI PUSH1 0x0 DUP1 REVERT JUMPDEST POP PUSH1 0x40 MLOAD PUSH2 0x585 CODESIZE SUB DUP1 PUSH2 0x585 DUP4 CODECOPY DUP2 DUP2 ADD PUSH1 0x40 MSTORE DUP2 ADD SWAP1 PUSH2 0x32 SWAP2 SWAP1 PUSH2 0x1BD JUMP JUMPDEST DUP1 PUSH1 0x0 DUP1 PUSH2 0x100 EXP DUP2 SLOAD DUP2 PUSH20 0xFFFFFFFFFFFFFFFFFFFFFFFFFFFFFFFFFFFFFFFF MUL NOT AND SWAP1 DUP4 PUSH20 0xFFFFFFFFFFFFFFFFFFFFFFFFFFFFFFFFFFFFFFFF AND MUL OR SWAP1 SSTORE POP ADDRESS PUSH1 0x1 PUSH1 0x0 PUSH2 0x100 EXP DUP2 SLOAD DUP2 PUSH20 0xFFFFFFFFFFFFFFFFFFFFFFFFFFFFFFFFFFFFFFFF MUL NOT AND SWAP1 DUP4 PUSH20 0xFFFFFFFFFFFFFFFFFFFFFFFFFFFFFFFFFFFFFFFF AND MUL OR SWAP1 SSTORE POP PUSH1 0x40 MLOAD DUP1 PUSH1 0x40 ADD PUSH1 0x40 MSTORE DUP1 PUSH1 0x3 DUP2 MSTORE PUSH1 0x20 ADD PUSH32 0x4865790000000000000000000000000000000000000000000000000000000000 DUP2 MSTORE POP PUSH1 0x2 SWAP1 DUP1 MLOAD SWAP1 PUSH1 0x20 ADD SWAP1 PUSH2 0xFE SWAP3 SWAP2 SWAP1 PUSH2 0x105 JUMP JUMPDEST POP POP PUSH2 0x299 JUMP JUMPDEST DUP3 DUP1 SLOAD PUSH2 0x111 SWAP1 PUSH2 0x21C JUMP JUMPDEST SWAP1 PUSH1 0x0 MSTORE PUSH1 0x20 PUSH1 0x0 KECCAK256 SWAP1 PUSH1 0x1F ADD PUSH1 0x20 SWAP1 DIV DUP2 ADD SWAP3 DUP3 PUSH2 0x133 JUMPI PUSH1 0x0 DUP6 SSTORE PUSH2 0x17A JUMP JUMPDEST DUP3 PUSH1 0x1F LT PUSH2 0x14C JUMPI DUP1 MLOAD PUSH1 0xFF NOT AND DUP4 DUP1 ADD OR DUP6 SSTORE PUSH2 0x17A JUMP JUMPDEST DUP3 DUP1 ADD PUSH1 0x1 ADD DUP6 SSTORE DUP3 ISZERO PUSH2 0x17A JUMPI SWAP2 DUP3 ADD JUMPDEST DUP3 DUP2 GT ISZERO PUSH2 0x179 JUMPI DUP3 MLOAD DUP3 SSTORE SWAP2 PUSH1 0x20 ADD SWAP2 SWAP1 PUSH1 0x1 ADD SWAP1 PUSH2 0x15E JUMP JUMPDEST JUMPDEST POP SWAP1 POP PUSH2 0x187 SWAP2 SWAP1 PUSH2 0x18B JUMP JUMPDEST POP SWAP1 JUMP JUMPDEST JUMPDEST DUP1 DUP3 GT ISZERO PUSH2 0x1A4 JUMPI PUSH1 0x0 DUP2 PUSH1 0x0 SWAP1 SSTORE POP PUSH1 0x1 ADD PUSH2 0x18C JUMP JUMPDEST POP SWAP1 JUMP JUMPDEST PUSH1 0x0 DUP2 MLOAD SWAP1 POP PUSH2 0x1B7 DUP2 PUSH2 0x282 JUMP JUMPDEST SWAP3 SWAP2 POP POP JUMP JUMPDEST PUSH1 0x0 PUSH1 0x20 DUP3 DUP5 SUB SLT ISZERO PUSH2 0x1D3 JUMPI PUSH2 0x1D2 PUSH2 0x27D JUMP JUMPDEST JUMPDEST PUSH1 0x0 PUSH2 0x1E1 DUP5 DUP3 DUP6 ADD PUSH2 0x1A8 JUMP JUMPDEST SWAP2 POP POP SWAP3 SWAP2 POP POP JUMP JUMPDEST PUSH1 0x0 PUSH2 0x1F5 DUP3 PUSH2 0x1FC JUMP JUMPDEST SWAP1 POP SWAP2 SWAP1 POP JUMP JUMPDEST PUSH1 0x0 PUSH20 0xFFFFFFFFFFFFFFFFFFFFFFFFFFFFFFFFFFFFFFFF DUP3 AND SWAP1 POP SWAP2 SWAP1 POP JUMP JUMPDEST PUSH1 0x0 PUSH1 0x2 DUP3 DIV SWAP1 POP PUSH1 0x1 DUP3 AND DUP1 PUSH2 0x234 JUMPI PUSH1 0x7F DUP3 AND SWAP2 POP JUMPDEST PUSH1 0x20 DUP3 LT DUP2 EQ ISZERO PUSH2 0x248 JUMPI PUSH2 0x247 PUSH2 0x24E JUMP JUMPDEST JUMPDEST POP SWAP2 SWAP1 POP JUMP JUMPDEST PUSH32 0x4E487B7100000000000000000000000000000000000000000000000000000000 PUSH1 0x0 MSTORE PUSH1 0x22 PUSH1 0x4 MSTORE PUSH1 0x24 PUSH1 0x0 REVERT JUMPDEST PUSH1 0x0 DUP1 REVERT JUMPDEST PUSH2 0x28B DUP2 PUSH2 0x1EA JUMP JUMPDEST DUP2 EQ PUSH2 0x296 JUMPI PUSH1 0x0 DUP1 REVERT JUMPDEST POP JUMP JUMPDEST PUSH2 0x2DD DUP1 PUSH2 0x2A8 PUSH1 0x0 CODECOPY PUSH1 0x0 RETURN INVALID PUSH1 0x80 PUSH1 0x40 MSTORE CALLVALUE DUP1 ISZERO PUSH2 0x10 JUMPI PUSH1 0x0 DUP1 REVERT JUMPDEST POP PUSH1 0x4 CALLDATASIZE LT PUSH2 0x36 JUMPI PUSH1 0x0 CALLDATALOAD PUSH1 0xE0 SHR DUP1 PUSH4 0x38CC4831 EQ PUSH2 0x3B JUMPI DUP1 PUSH4 0x5EC01E4D EQ PUSH2 0x59 JUMPI JUMPDEST PUSH1 0x0 DUP1 REVERT JUMPDEST PUSH2 0x43 PUSH2 0x77 JUMP JUMPDEST PUSH1 0x40 MLOAD PUSH2 0x50 SWAP2 SWAP1 PUSH2 0x177 JUMP JUMPDEST PUSH1 0x40 MLOAD DUP1 SWAP2 SUB SWAP1 RETURN JUMPDEST PUSH2 0x61 PUSH2 0xA1 JUMP JUMPDEST PUSH1 0x40 MLOAD PUSH2 0x6E SWAP2 SWAP1 PUSH2 0x192 JUMP JUMPDEST PUSH1 0x40 MLOAD DUP1 SWAP2 SUB SWAP1 RETURN JUMPDEST PUSH1 0x0 PUSH1 0x1 PUSH1 0x0 SWAP1 SLOAD SWAP1 PUSH2 0x100 EXP SWAP1 DIV PUSH20 0xFFFFFFFFFFFFFFFFFFFFFFFFFFFFFFFFFFFFFFFF AND SWAP1 POP SWAP1 JUMP JUMPDEST PUSH1 0x2 DUP1 SLOAD PUSH2 0xAE SWAP1 PUSH2 0x235 JUMP JUMPDEST DUP1 PUSH1 0x1F ADD PUSH1 0x20 DUP1 SWAP2 DIV MUL PUSH1 0x20 ADD PUSH1 0x40 MLOAD SWAP1 DUP2 ADD PUSH1 0x40 MSTORE DUP1 SWAP3 SWAP2 SWAP1 DUP2 DUP2 MSTORE PUSH1 0x20 ADD DUP3 DUP1 SLOAD PUSH2 0xDA SWAP1 PUSH2 0x235 JUMP JUMPDEST DUP1 ISZERO PUSH2 0x127 JUMPI DUP1 PUSH1 0x1F LT PUSH2 0xFC JUMPI PUSH2 0x100 DUP1 DUP4 SLOAD DIV MUL DUP4 MSTORE SWAP2 PUSH1 0x20 ADD SWAP2 PUSH2 0x127 JUMP JUMPDEST DUP3 ADD SWAP2 SWAP1 PUSH1 0x0 MSTORE PUSH1 0x20 PUSH1 0x0 KECCAK256 SWAP1 JUMPDEST DUP2 SLOAD DUP2 MSTORE SWAP1 PUSH1 0x1 ADD SWAP1 PUSH1 0x20 ADD DUP1 DUP4 GT PUSH2 0x10A JUMPI DUP3 SWAP1 SUB PUSH1 0x1F AND DUP3 ADD SWAP2 JUMPDEST POP POP POP POP POP DUP2 JUMP JUMPDEST PUSH2 0x138 DUP2 PUSH2 0x1D0 JUMP JUMPDEST DUP3 MSTORE POP POP JUMP JUMPDEST PUSH1 0x0 PUSH2 0x149 DUP3 PUSH2 0x1B4 JUMP JUMPDEST PUSH2 0x153 DUP2 DUP6 PUSH2 0x1BF JUMP JUMPDEST SWAP4 POP PUSH2 0x163 DUP2 DUP6 PUSH1 0x20 DUP7 ADD PUSH2 0x202 JUMP JUMPDEST PUSH2 0x16C DUP2 PUSH2 0x296 JUMP JUMPDEST DUP5 ADD SWAP2 POP POP SWAP3 SWAP2 POP POP JUMP JUMPDEST PUSH1 0x0 PUSH1 0x20 DUP3 ADD SWAP1 POP PUSH2 0x18C PUSH1 0x0 DUP4 ADD DUP5 PUSH2 0x12F JUMP JUMPDEST SWAP3 SWAP2 POP POP JUMP JUMPDEST PUSH1 0x0 PUSH1 0x20 DUP3 ADD SWAP1 POP DUP2 DUP2 SUB PUSH1 0x0 DUP4 ADD MSTORE PUSH2 0x1AC DUP2 DUP5 PUSH2 0x13E JUMP JUMPDEST SWAP1 POP SWAP3 SWAP2 POP POP JUMP JUMPDEST PUSH1 0x0 DUP2 MLOAD SWAP1 POP SWAP2 SWAP1 POP JUMP JUMPDEST PUSH1 0x0 DUP3 DUP3 MSTORE PUSH1 0x20 DUP3 ADD SWAP1 POP SWAP3 SWAP2 POP POP JUMP JUMPDEST PUSH1 0x0 PUSH2 0x1DB DUP3 PUSH2 0x1E2 JUMP JUMPDEST SWAP1 POP SWAP2 SWAP1 POP JUMP JUMPDEST PUSH1 0x0 PUSH20 0xFFFFFFFFFFFFFFFFFFFFFFFFFFFFFFFFFFFFFFFF DUP3 AND SWAP1 POP SWAP2 SWAP1 POP JUMP JUMPDEST PUSH1 0x0 JUMPDEST DUP4 DUP2 LT ISZERO PUSH2 0x220 JUMPI DUP1 DUP3 ADD MLOAD DUP2 DUP5 ADD MSTORE PUSH1 0x20 DUP2 ADD SWAP1 POP PUSH2 0x205 JUMP JUMPDEST DUP4 DUP2 GT ISZERO PUSH2 0x22F JUMPI PUSH1 0x0 DUP5 DUP5 ADD MSTORE JUMPDEST POP POP POP POP JUMP JUMPDEST PUSH1 0x0 PUSH1 0x2 DUP3 DIV SWAP1 POP PUSH1 0x1 DUP3 AND DUP1 PUSH2 0x24D JUMPI PUSH1 0x7F DUP3 AND SWAP2 POP JUMPDEST PUSH1 0x20 DUP3 LT DUP2 EQ ISZERO PUSH2 0x261 JUMPI PUSH2 0x260 PUSH2 0x267 JUMP JUMPDEST JUMPDEST POP SWAP2 SWAP1 POP JUMP JUMPDEST PUSH32 0x4E487B7100000000000000000000000000000000000000000000000000000000 PUSH1 0x0 MSTORE PUSH1 0x22 PUSH1 0x4 MSTORE PUSH1 0x24 PUSH1 0x0 REVERT JUMPDEST PUSH1 0x0 PUSH1 0x1F NOT PUSH1 0x1F DUP4 ADD AND SWAP1 POP SWAP2 SWAP1 POP JUMP INVALID LOG2 PUSH5 0x6970667358 0x22 SLT KECCAK256 0xA5 PUSH26 0x35EF8D91AF0DA35750B9B786740ABF986F7095D35815A89F5D10 ORIGIN LT SWAP8 JUMPI PUSH5 0x736F6C6343 STOP ADDMOD SMOD STOP CALLER LOG2 PUSH5 0x6970667358 0x22 SLT KECCAK256 0xEE NUMBER 0xBB 0xD2 0xF6 SWAP10 GASLIMIT SLOAD EXTCODECOPY 0x2E PUSH28 0x1C96D0E89DFFC4B39DCF30A156DA62061AC888C04564736F6C634300 ADDMOD SMOD STOP CALLER "
				},
				"gasEstimates": {
					"creation": {
						"codeDepositCost": "624800",
						"executionCost": "657",
						"totalCost": "625457"
					},
					"external": {
						"createPoll()": "infinite",
						"getAllElections()": "infinite",
						"getMyPolls()": "infinite"
					}
				},
				"methodIdentifiers": {
					"createPoll()": "39f14d17",
					"getAllElections()": "7fd5f268",
					"getMyPolls()": "170b5add"
				}
			},
			"storageLayout": {
				"storage": [
					{
						"astId": 5,
						"contract": "Voting.sol:Platform",
						"label": "elections",
						"offset": 0,
						"slot": "0",
						"type": "t_array(t_contract(Election)262)dyn_storage"
					},
					{
						"astId": 10,
						"contract": "Voting.sol:Platform",
						"label": "polls",
						"offset": 0,
						"slot": "1",
						"type": "t_mapping(t_address,t_contract(Poll)298)"
					},
					{
						"astId": 15,
						"contract": "Voting.sol:Platform",
						"label": "userPolls",
						"offset": 0,
						"slot": "2",
						"type": "t_mapping(t_address,t_array(t_address)dyn_storage)"
					}
				],
				"types": {
					"t_address": {
						"encoding": "inplace",
						"label": "address",
						"numberOfBytes": "20"
					},
					"t_array(t_address)dyn_storage": {
						"base": "t_address",
						"encoding": "dynamic_array",
						"label": "address[]",
						"numberOfBytes": "32"
					},
					"t_array(t_contract(Election)262)dyn_storage": {
						"base": "t_contract(Election)262",
						"encoding": "dynamic_array",
						"label": "contract Election[]",
						"numberOfBytes": "32"
					},
					"t_contract(Election)262": {
						"encoding": "inplace",
						"label": "contract Election",
						"numberOfBytes": "20"
					},
					"t_contract(Poll)298": {
						"encoding": "inplace",
						"label": "contract Poll",
						"numberOfBytes": "20"
					},
					"t_mapping(t_address,t_array(t_address)dyn_storage)": {
						"encoding": "mapping",
						"key": "t_address",
						"label": "mapping(address => address[])",
						"numberOfBytes": "32",
						"value": "t_array(t_address)dyn_storage"
					},
					"t_mapping(t_address,t_contract(Poll)298)": {
						"encoding": "mapping",
						"key": "t_address",
						"label": "mapping(address => contract Poll)",
						"numberOfBytes": "32",
						"value": "t_contract(Poll)298"
					}
				}
			},
			"userdoc": {
				"kind": "user",
				"methods": {},
				"version": 1
			}
		}
	}
}