{
	"Voting.sol": {
		"Platform": {
			"abi": [
				{
					"inputs": [],
					"name": "getAllElections",
					"outputs": [
						{
							"internalType": "contract Election[]",
							"name": "",
							"type": "address[]"
						}
					],
					"stateMutability": "view",
					"type": "function"
				},
				{
					"inputs": [],
					"name": "getMyPolls",
					"outputs": [
						{
							"internalType": "contract Poll[]",
							"name": "",
							"type": "address[]"
						}
					],
					"stateMutability": "view",
					"type": "function"
				},
				{
					"inputs": [],
					"name": "getPollById",
					"outputs": [],
					"stateMutability": "view",
					"type": "function"
				}
			],
			"devdoc": {
				"kind": "dev",
				"methods": {},
				"version": 1
			},
			"evm": {
				"assembly": "    /* \"Voting.sol\":72:478  contract Platform {\r... */\n  mstore(0x40, 0x80)\n  callvalue\n  dup1\n  iszero\n  tag_1\n  jumpi\n  0x00\n  dup1\n  revert\ntag_1:\n  pop\n  dataSize(sub_0)\n  dup1\n  dataOffset(sub_0)\n  0x00\n  codecopy\n  0x00\n  return\nstop\n\nsub_0: assembly {\n        /* \"Voting.sol\":72:478  contract Platform {\r... */\n      mstore(0x40, 0x80)\n      callvalue\n      dup1\n      iszero\n      tag_1\n      jumpi\n      0x00\n      dup1\n      revert\n    tag_1:\n      pop\n      jumpi(tag_2, lt(calldatasize, 0x04))\n      shr(0xe0, calldataload(0x00))\n      dup1\n      0x170b5add\n      eq\n      tag_3\n      jumpi\n      dup1\n      0x7fd5f268\n      eq\n      tag_4\n      jumpi\n      dup1\n      0x9d977062\n      eq\n      tag_5\n      jumpi\n    tag_2:\n      0x00\n      dup1\n      revert\n        /* \"Voting.sol\":340:475  function getMyPolls() external view returns (Poll[] memory) {\r... */\n    tag_3:\n      tag_6\n      tag_7\n      jump\t// in\n    tag_6:\n      mload(0x40)\n      tag_8\n      swap2\n      swap1\n      tag_9\n      jump\t// in\n    tag_8:\n      mload(0x40)\n      dup1\n      swap2\n      sub\n      swap1\n      return\n        /* \"Voting.sol\":181:285  function getAllElections() external view returns (Election[] memory) {\r... */\n    tag_4:\n      tag_10\n      tag_11\n      jump\t// in\n    tag_10:\n      mload(0x40)\n      tag_12\n      swap2\n      swap1\n      tag_13\n      jump\t// in\n    tag_12:\n      mload(0x40)\n      dup1\n      swap2\n      sub\n      swap1\n      return\n        /* \"Voting.sol\":293:332  function getPollById() external view {} */\n    tag_5:\n      tag_14\n      tag_15\n      jump\t// in\n    tag_14:\n      stop\n        /* \"Voting.sol\":340:475  function getMyPolls() external view returns (Poll[] memory) {\r... */\n    tag_7:\n        /* \"Voting.sol\":385:398  Poll[] memory */\n      0x60\n        /* \"Voting.sol\":411:423  address user */\n      0x00\n        /* \"Voting.sol\":426:436  msg.sender */\n      caller\n        /* \"Voting.sol\":411:436  address user = msg.sender */\n      swap1\n      pop\n        /* \"Voting.sol\":456:461  polls */\n      0x01\n        /* \"Voting.sol\":456:467  polls[user] */\n      0x00\n        /* \"Voting.sol\":462:466  user */\n      dup3\n        /* \"Voting.sol\":456:467  polls[user] */\n      0xffffffffffffffffffffffffffffffffffffffff\n      and\n      0xffffffffffffffffffffffffffffffffffffffff\n      and\n      dup2\n      mstore\n      0x20\n      add\n      swap1\n      dup2\n      mstore\n      0x20\n      add\n      0x00\n      keccak256\n        /* \"Voting.sol\":449:467  return polls[user] */\n      dup1\n      sload\n      dup1\n      0x20\n      mul\n      0x20\n      add\n      mload(0x40)\n      swap1\n      dup2\n      add\n      0x40\n      mstore\n      dup1\n      swap3\n      swap2\n      swap1\n      dup2\n      dup2\n      mstore\n      0x20\n      add\n      dup3\n      dup1\n      sload\n      dup1\n      iszero\n      tag_17\n      jumpi\n      0x20\n      mul\n      dup3\n      add\n      swap2\n      swap1\n      0x00\n      mstore\n      keccak256(0x00, 0x20)\n      swap1\n    tag_18:\n      dup2\n      0x00\n      swap1\n      sload\n      swap1\n      0x0100\n      exp\n      swap1\n      div\n      0xffffffffffffffffffffffffffffffffffffffff\n      and\n      0xffffffffffffffffffffffffffffffffffffffff\n      and\n      dup2\n      mstore\n      0x20\n      add\n      swap1\n      0x01\n      add\n      swap1\n      dup1\n      dup4\n      gt\n      tag_18\n      jumpi\n    tag_17:\n      pop\n      pop\n      pop\n      pop\n      pop\n      swap2\n      pop\n      pop\n        /* \"Voting.sol\":340:475  function getMyPolls() external view returns (Poll[] memory) {\r... */\n      swap1\n      jump\t// out\n        /* \"Voting.sol\":181:285  function getAllElections() external view returns (Election[] memory) {\r... */\n    tag_11:\n        /* \"Voting.sol\":231:248  Election[] memory */\n      0x60\n        /* \"Voting.sol\":268:277  elections */\n      0x00\n        /* \"Voting.sol\":261:277  return elections */\n      dup1\n      sload\n      dup1\n      0x20\n      mul\n      0x20\n      add\n      mload(0x40)\n      swap1\n      dup2\n      add\n      0x40\n      mstore\n      dup1\n      swap3\n      swap2\n      swap1\n      dup2\n      dup2\n      mstore\n      0x20\n      add\n      dup3\n      dup1\n      sload\n      dup1\n      iszero\n      tag_20\n      jumpi\n      0x20\n      mul\n      dup3\n      add\n      swap2\n      swap1\n      0x00\n      mstore\n      keccak256(0x00, 0x20)\n      swap1\n    tag_21:\n      dup2\n      0x00\n      swap1\n      sload\n      swap1\n      0x0100\n      exp\n      swap1\n      div\n      0xffffffffffffffffffffffffffffffffffffffff\n      and\n      0xffffffffffffffffffffffffffffffffffffffff\n      and\n      dup2\n      mstore\n      0x20\n      add\n      swap1\n      0x01\n      add\n      swap1\n      dup1\n      dup4\n      gt\n      tag_21\n      jumpi\n    tag_20:\n      pop\n      pop\n      pop\n      pop\n      pop\n      swap1\n      pop\n        /* \"Voting.sol\":181:285  function getAllElections() external view returns (Election[] memory) {\r... */\n      swap1\n      jump\t// out\n        /* \"Voting.sol\":293:332  function getPollById() external view {} */\n    tag_15:\n      jump\t// out\n        /* \"#utility.yul\":7:218   */\n    tag_24:\n        /* \"#utility.yul\":92:102   */\n      0x00\n        /* \"#utility.yul\":113:175   */\n      tag_26\n        /* \"#utility.yul\":171:174   */\n      dup4\n        /* \"#utility.yul\":163:169   */\n      dup4\n        /* \"#utility.yul\":113:175   */\n      tag_27\n      jump\t// in\n    tag_26:\n        /* \"#utility.yul\":207:211   */\n      0x20\n        /* \"#utility.yul\":202:205   */\n      dup4\n        /* \"#utility.yul\":198:212   */\n      add\n        /* \"#utility.yul\":184:212   */\n      swap1\n      pop\n        /* \"#utility.yul\":7:218   */\n      swap3\n      swap2\n      pop\n      pop\n      jump\t// out\n        /* \"#utility.yul\":224:427   */\n    tag_28:\n        /* \"#utility.yul\":305:315   */\n      0x00\n        /* \"#utility.yul\":326:384   */\n      tag_30\n        /* \"#utility.yul\":380:383   */\n      dup4\n        /* \"#utility.yul\":372:378   */\n      dup4\n        /* \"#utility.yul\":326:384   */\n      tag_31\n      jump\t// in\n    tag_30:\n        /* \"#utility.yul\":416:420   */\n      0x20\n        /* \"#utility.yul\":411:414   */\n      dup4\n        /* \"#utility.yul\":407:421   */\n      add\n        /* \"#utility.yul\":393:421   */\n      swap1\n      pop\n        /* \"#utility.yul\":224:427   */\n      swap3\n      swap2\n      pop\n      pop\n      jump\t// out\n        /* \"#utility.yul\":473:1285   */\n    tag_32:\n        /* \"#utility.yul\":608:611   */\n      0x00\n        /* \"#utility.yul\":637:707   */\n      tag_34\n        /* \"#utility.yul\":701:706   */\n      dup3\n        /* \"#utility.yul\":637:707   */\n      tag_35\n      jump\t// in\n    tag_34:\n        /* \"#utility.yul\":723:809   */\n      tag_36\n        /* \"#utility.yul\":802:808   */\n      dup2\n        /* \"#utility.yul\":797:800   */\n      dup6\n        /* \"#utility.yul\":723:809   */\n      tag_37\n      jump\t// in\n    tag_36:\n        /* \"#utility.yul\":716:809   */\n      swap4\n      pop\n        /* \"#utility.yul\":833:905   */\n      tag_38\n        /* \"#utility.yul\":899:904   */\n      dup4\n        /* \"#utility.yul\":833:905   */\n      tag_39\n      jump\t// in\n    tag_38:\n        /* \"#utility.yul\":928:935   */\n      dup1\n        /* \"#utility.yul\":959:960   */\n      0x00\n        /* \"#utility.yul\":944:1260   */\n    tag_40:\n        /* \"#utility.yul\":969:975   */\n      dup4\n        /* \"#utility.yul\":966:967   */\n      dup2\n        /* \"#utility.yul\":963:976   */\n      lt\n        /* \"#utility.yul\":944:1260   */\n      iszero\n      tag_42\n      jumpi\n        /* \"#utility.yul\":1045:1051   */\n      dup2\n        /* \"#utility.yul\":1039:1052   */\n      mload\n        /* \"#utility.yul\":1072:1151   */\n      tag_43\n        /* \"#utility.yul\":1147:1150   */\n      dup9\n        /* \"#utility.yul\":1132:1145   */\n      dup3\n        /* \"#utility.yul\":1072:1151   */\n      tag_24\n      jump\t// in\n    tag_43:\n        /* \"#utility.yul\":1065:1151   */\n      swap8\n      pop\n        /* \"#utility.yul\":1174:1250   */\n      tag_44\n        /* \"#utility.yul\":1243:1249   */\n      dup4\n        /* \"#utility.yul\":1174:1250   */\n      tag_45\n      jump\t// in\n    tag_44:\n        /* \"#utility.yul\":1164:1250   */\n      swap3\n      pop\n        /* \"#utility.yul\":1004:1260   */\n      pop\n        /* \"#utility.yul\":991:992   */\n      0x01\n        /* \"#utility.yul\":988:989   */\n      dup2\n        /* \"#utility.yul\":984:993   */\n      add\n        /* \"#utility.yul\":979:993   */\n      swap1\n      pop\n        /* \"#utility.yul\":944:1260   */\n      jump(tag_40)\n    tag_42:\n        /* \"#utility.yul\":948:962   */\n      pop\n        /* \"#utility.yul\":1276:1279   */\n      dup6\n        /* \"#utility.yul\":1269:1279   */\n      swap4\n      pop\n        /* \"#utility.yul\":613:1285   */\n      pop\n      pop\n      pop\n        /* \"#utility.yul\":473:1285   */\n      swap3\n      swap2\n      pop\n      pop\n      jump\t// out\n        /* \"#utility.yul\":1327:2119   */\n    tag_46:\n        /* \"#utility.yul\":1458:1461   */\n      0x00\n        /* \"#utility.yul\":1487:1553   */\n      tag_48\n        /* \"#utility.yul\":1547:1552   */\n      dup3\n        /* \"#utility.yul\":1487:1553   */\n      tag_49\n      jump\t// in\n    tag_48:\n        /* \"#utility.yul\":1569:1655   */\n      tag_50\n        /* \"#utility.yul\":1648:1654   */\n      dup2\n        /* \"#utility.yul\":1643:1646   */\n      dup6\n        /* \"#utility.yul\":1569:1655   */\n      tag_37\n      jump\t// in\n    tag_50:\n        /* \"#utility.yul\":1562:1655   */\n      swap4\n      pop\n        /* \"#utility.yul\":1679:1747   */\n      tag_51\n        /* \"#utility.yul\":1741:1746   */\n      dup4\n        /* \"#utility.yul\":1679:1747   */\n      tag_52\n      jump\t// in\n    tag_51:\n        /* \"#utility.yul\":1770:1777   */\n      dup1\n        /* \"#utility.yul\":1801:1802   */\n      0x00\n        /* \"#utility.yul\":1786:2094   */\n    tag_53:\n        /* \"#utility.yul\":1811:1817   */\n      dup4\n        /* \"#utility.yul\":1808:1809   */\n      dup2\n        /* \"#utility.yul\":1805:1818   */\n      lt\n        /* \"#utility.yul\":1786:2094   */\n      iszero\n      tag_55\n      jumpi\n        /* \"#utility.yul\":1887:1893   */\n      dup2\n        /* \"#utility.yul\":1881:1894   */\n      mload\n        /* \"#utility.yul\":1914:1989   */\n      tag_56\n        /* \"#utility.yul\":1985:1988   */\n      dup9\n        /* \"#utility.yul\":1970:1983   */\n      dup3\n        /* \"#utility.yul\":1914:1989   */\n      tag_28\n      jump\t// in\n    tag_56:\n        /* \"#utility.yul\":1907:1989   */\n      swap8\n      pop\n        /* \"#utility.yul\":2012:2084   */\n      tag_57\n        /* \"#utility.yul\":2077:2083   */\n      dup4\n        /* \"#utility.yul\":2012:2084   */\n      tag_58\n      jump\t// in\n    tag_57:\n        /* \"#utility.yul\":2002:2084   */\n      swap3\n      pop\n        /* \"#utility.yul\":1846:2094   */\n      pop\n        /* \"#utility.yul\":1833:1834   */\n      0x01\n        /* \"#utility.yul\":1830:1831   */\n      dup2\n        /* \"#utility.yul\":1826:1835   */\n      add\n        /* \"#utility.yul\":1821:1835   */\n      swap1\n      pop\n        /* \"#utility.yul\":1786:2094   */\n      jump(tag_53)\n    tag_55:\n        /* \"#utility.yul\":1790:1804   */\n      pop\n        /* \"#utility.yul\":2110:2113   */\n      dup6\n        /* \"#utility.yul\":2103:2113   */\n      swap4\n      pop\n        /* \"#utility.yul\":1463:2119   */\n      pop\n      pop\n      pop\n        /* \"#utility.yul\":1327:2119   */\n      swap3\n      swap2\n      pop\n      pop\n      jump\t// out\n        /* \"#utility.yul\":2125:2278   */\n    tag_27:\n        /* \"#utility.yul\":2218:2271   */\n      tag_60\n        /* \"#utility.yul\":2265:2270   */\n      dup2\n        /* \"#utility.yul\":2218:2271   */\n      tag_61\n      jump\t// in\n    tag_60:\n        /* \"#utility.yul\":2213:2216   */\n      dup3\n        /* \"#utility.yul\":2206:2272   */\n      mstore\n        /* \"#utility.yul\":2125:2278   */\n      pop\n      pop\n      jump\t// out\n        /* \"#utility.yul\":2284:2429   */\n    tag_31:\n        /* \"#utility.yul\":2373:2422   */\n      tag_63\n        /* \"#utility.yul\":2416:2421   */\n      dup2\n        /* \"#utility.yul\":2373:2422   */\n      tag_64\n      jump\t// in\n    tag_63:\n        /* \"#utility.yul\":2368:2371   */\n      dup3\n        /* \"#utility.yul\":2361:2423   */\n      mstore\n        /* \"#utility.yul\":2284:2429   */\n      pop\n      pop\n      jump\t// out\n        /* \"#utility.yul\":2435:2840   */\n    tag_13:\n        /* \"#utility.yul\":2594:2598   */\n      0x00\n        /* \"#utility.yul\":2632:2634   */\n      0x20\n        /* \"#utility.yul\":2621:2630   */\n      dup3\n        /* \"#utility.yul\":2617:2635   */\n      add\n        /* \"#utility.yul\":2609:2635   */\n      swap1\n      pop\n        /* \"#utility.yul\":2681:2690   */\n      dup2\n        /* \"#utility.yul\":2675:2679   */\n      dup2\n        /* \"#utility.yul\":2671:2691   */\n      sub\n        /* \"#utility.yul\":2667:2668   */\n      0x00\n        /* \"#utility.yul\":2656:2665   */\n      dup4\n        /* \"#utility.yul\":2652:2669   */\n      add\n        /* \"#utility.yul\":2645:2692   */\n      mstore\n        /* \"#utility.yul\":2709:2833   */\n      tag_66\n        /* \"#utility.yul\":2828:2832   */\n      dup2\n        /* \"#utility.yul\":2819:2825   */\n      dup5\n        /* \"#utility.yul\":2709:2833   */\n      tag_32\n      jump\t// in\n    tag_66:\n        /* \"#utility.yul\":2701:2833   */\n      swap1\n      pop\n        /* \"#utility.yul\":2435:2840   */\n      swap3\n      swap2\n      pop\n      pop\n      jump\t// out\n        /* \"#utility.yul\":2846:3243   */\n    tag_9:\n        /* \"#utility.yul\":3001:3005   */\n      0x00\n        /* \"#utility.yul\":3039:3041   */\n      0x20\n        /* \"#utility.yul\":3028:3037   */\n      dup3\n        /* \"#utility.yul\":3024:3042   */\n      add\n        /* \"#utility.yul\":3016:3042   */\n      swap1\n      pop\n        /* \"#utility.yul\":3088:3097   */\n      dup2\n        /* \"#utility.yul\":3082:3086   */\n      dup2\n        /* \"#utility.yul\":3078:3098   */\n      sub\n        /* \"#utility.yul\":3074:3075   */\n      0x00\n        /* \"#utility.yul\":3063:3072   */\n      dup4\n        /* \"#utility.yul\":3059:3076   */\n      add\n        /* \"#utility.yul\":3052:3099   */\n      mstore\n        /* \"#utility.yul\":3116:3236   */\n      tag_68\n        /* \"#utility.yul\":3231:3235   */\n      dup2\n        /* \"#utility.yul\":3222:3228   */\n      dup5\n        /* \"#utility.yul\":3116:3236   */\n      tag_46\n      jump\t// in\n    tag_68:\n        /* \"#utility.yul\":3108:3236   */\n      swap1\n      pop\n        /* \"#utility.yul\":2846:3243   */\n      swap3\n      swap2\n      pop\n      pop\n      jump\t// out\n        /* \"#utility.yul\":3249:3397   */\n    tag_39:\n        /* \"#utility.yul\":3332:3336   */\n      0x00\n        /* \"#utility.yul\":3355:3358   */\n      dup2\n        /* \"#utility.yul\":3347:3358   */\n      swap1\n      pop\n        /* \"#utility.yul\":3385:3389   */\n      0x20\n        /* \"#utility.yul\":3380:3383   */\n      dup3\n        /* \"#utility.yul\":3376:3390   */\n      add\n        /* \"#utility.yul\":3368:3390   */\n      swap1\n      pop\n        /* \"#utility.yul\":3249:3397   */\n      swap2\n      swap1\n      pop\n      jump\t// out\n        /* \"#utility.yul\":3403:3547   */\n    tag_52:\n        /* \"#utility.yul\":3482:3486   */\n      0x00\n        /* \"#utility.yul\":3505:3508   */\n      dup2\n        /* \"#utility.yul\":3497:3508   */\n      swap1\n      pop\n        /* \"#utility.yul\":3535:3539   */\n      0x20\n        /* \"#utility.yul\":3530:3533   */\n      dup3\n        /* \"#utility.yul\":3526:3540   */\n      add\n        /* \"#utility.yul\":3518:3540   */\n      swap1\n      pop\n        /* \"#utility.yul\":3403:3547   */\n      swap2\n      swap1\n      pop\n      jump\t// out\n        /* \"#utility.yul\":3553:3683   */\n    tag_35:\n        /* \"#utility.yul\":3636:3642   */\n      0x00\n        /* \"#utility.yul\":3670:3675   */\n      dup2\n        /* \"#utility.yul\":3664:3676   */\n      mload\n        /* \"#utility.yul\":3654:3676   */\n      swap1\n      pop\n        /* \"#utility.yul\":3553:3683   */\n      swap2\n      swap1\n      pop\n      jump\t// out\n        /* \"#utility.yul\":3689:3815   */\n    tag_49:\n        /* \"#utility.yul\":3768:3774   */\n      0x00\n        /* \"#utility.yul\":3802:3807   */\n      dup2\n        /* \"#utility.yul\":3796:3808   */\n      mload\n        /* \"#utility.yul\":3786:3808   */\n      swap1\n      pop\n        /* \"#utility.yul\":3689:3815   */\n      swap2\n      swap1\n      pop\n      jump\t// out\n        /* \"#utility.yul\":3821:3950   */\n    tag_45:\n        /* \"#utility.yul\":3907:3911   */\n      0x00\n        /* \"#utility.yul\":3939:3943   */\n      0x20\n        /* \"#utility.yul\":3934:3937   */\n      dup3\n        /* \"#utility.yul\":3930:3944   */\n      add\n        /* \"#utility.yul\":3922:3944   */\n      swap1\n      pop\n        /* \"#utility.yul\":3821:3950   */\n      swap2\n      swap1\n      pop\n      jump\t// out\n        /* \"#utility.yul\":3956:4081   */\n    tag_58:\n        /* \"#utility.yul\":4038:4042   */\n      0x00\n        /* \"#utility.yul\":4070:4074   */\n      0x20\n        /* \"#utility.yul\":4065:4068   */\n      dup3\n        /* \"#utility.yul\":4061:4075   */\n      add\n        /* \"#utility.yul\":4053:4075   */\n      swap1\n      pop\n        /* \"#utility.yul\":3956:4081   */\n      swap2\n      swap1\n      pop\n      jump\t// out\n        /* \"#utility.yul\":4087:4271   */\n    tag_37:\n        /* \"#utility.yul\":4186:4197   */\n      0x00\n        /* \"#utility.yul\":4220:4226   */\n      dup3\n        /* \"#utility.yul\":4215:4218   */\n      dup3\n        /* \"#utility.yul\":4208:4227   */\n      mstore\n        /* \"#utility.yul\":4260:4264   */\n      0x20\n        /* \"#utility.yul\":4255:4258   */\n      dup3\n        /* \"#utility.yul\":4251:4265   */\n      add\n        /* \"#utility.yul\":4236:4265   */\n      swap1\n      pop\n        /* \"#utility.yul\":4087:4271   */\n      swap3\n      swap2\n      pop\n      pop\n      jump\t// out\n        /* \"#utility.yul\":4277:4403   */\n    tag_76:\n        /* \"#utility.yul\":4314:4321   */\n      0x00\n        /* \"#utility.yul\":4354:4396   */\n      0xffffffffffffffffffffffffffffffffffffffff\n        /* \"#utility.yul\":4347:4352   */\n      dup3\n        /* \"#utility.yul\":4343:4397   */\n      and\n        /* \"#utility.yul\":4332:4397   */\n      swap1\n      pop\n        /* \"#utility.yul\":4277:4403   */\n      swap2\n      swap1\n      pop\n      jump\t// out\n        /* \"#utility.yul\":4409:4551   */\n    tag_61:\n        /* \"#utility.yul\":4475:4484   */\n      0x00\n        /* \"#utility.yul\":4508:4545   */\n      tag_79\n        /* \"#utility.yul\":4539:4544   */\n      dup3\n        /* \"#utility.yul\":4508:4545   */\n      tag_80\n      jump\t// in\n    tag_79:\n        /* \"#utility.yul\":4495:4545   */\n      swap1\n      pop\n        /* \"#utility.yul\":4409:4551   */\n      swap2\n      swap1\n      pop\n      jump\t// out\n        /* \"#utility.yul\":4557:4695   */\n    tag_64:\n        /* \"#utility.yul\":4619:4628   */\n      0x00\n        /* \"#utility.yul\":4652:4689   */\n      tag_82\n        /* \"#utility.yul\":4683:4688   */\n      dup3\n        /* \"#utility.yul\":4652:4689   */\n      tag_80\n      jump\t// in\n    tag_82:\n        /* \"#utility.yul\":4639:4689   */\n      swap1\n      pop\n        /* \"#utility.yul\":4557:4695   */\n      swap2\n      swap1\n      pop\n      jump\t// out\n        /* \"#utility.yul\":4701:4827   */\n    tag_80:\n        /* \"#utility.yul\":4751:4760   */\n      0x00\n        /* \"#utility.yul\":4784:4821   */\n      tag_84\n        /* \"#utility.yul\":4815:4820   */\n      dup3\n        /* \"#utility.yul\":4784:4821   */\n      tag_85\n      jump\t// in\n    tag_84:\n        /* \"#utility.yul\":4771:4821   */\n      swap1\n      pop\n        /* \"#utility.yul\":4701:4827   */\n      swap2\n      swap1\n      pop\n      jump\t// out\n        /* \"#utility.yul\":4833:4946   */\n    tag_85:\n        /* \"#utility.yul\":4883:4892   */\n      0x00\n        /* \"#utility.yul\":4916:4940   */\n      tag_87\n        /* \"#utility.yul\":4934:4939   */\n      dup3\n        /* \"#utility.yul\":4916:4940   */\n      tag_76\n      jump\t// in\n    tag_87:\n        /* \"#utility.yul\":4903:4940   */\n      swap1\n      pop\n        /* \"#utility.yul\":4833:4946   */\n      swap2\n      swap1\n      pop\n      jump\t// out\n\n    auxdata: 0xa264697066735822122092e2846a8d7ff8b30c812cc167d34779a16c52fbadcea2c5da597e4e93f4556b64736f6c63430008070033\n}\n",
				"bytecode": {
					"linkReferences": {},
					"object": "608060405234801561001057600080fd5b5061043a806100206000396000f3fe608060405234801561001057600080fd5b50600436106100415760003560e01c8063170b5add146100465780637fd5f268146100645780639d97706214610082575b600080fd5b61004e61008c565b60405161005b9190610319565b60405180910390f35b61006c61015d565b60405161007991906102f7565b60405180910390f35b61008a6101eb565b005b60606000339050600160008273ffffffffffffffffffffffffffffffffffffffff1673ffffffffffffffffffffffffffffffffffffffff16815260200190815260200160002080548060200260200160405190810160405280929190818152602001828054801561015257602002820191906000526020600020905b8160009054906101000a900473ffffffffffffffffffffffffffffffffffffffff1673ffffffffffffffffffffffffffffffffffffffff1681526020019060010190808311610108575b505050505091505090565b606060008054806020026020016040519081016040528092919081815260200182805480156101e157602002820191906000526020600020905b8160009054906101000a900473ffffffffffffffffffffffffffffffffffffffff1673ffffffffffffffffffffffffffffffffffffffff1681526020019060010190808311610197575b5050505050905090565b565b60006101f983836102d9565b60208301905092915050565b600061021183836102e8565b60208301905092915050565b60006102288261035b565b610232818561038b565b935061023d8361033b565b8060005b8381101561026e57815161025588826101ed565b975061026083610371565b925050600181019050610241565b5085935050505092915050565b600061028682610366565b610290818561038b565b935061029b8361034b565b8060005b838110156102cc5781516102b38882610205565b97506102be8361037e565b92505060018101905061029f565b5085935050505092915050565b6102e2816103bc565b82525050565b6102f1816103ce565b82525050565b60006020820190508181036000830152610311818461021d565b905092915050565b60006020820190508181036000830152610333818461027b565b905092915050565b6000819050602082019050919050565b6000819050602082019050919050565b600081519050919050565b600081519050919050565b6000602082019050919050565b6000602082019050919050565b600082825260208201905092915050565b600073ffffffffffffffffffffffffffffffffffffffff82169050919050565b60006103c7826103e0565b9050919050565b60006103d9826103e0565b9050919050565b60006103eb826103f2565b9050919050565b60006103fd8261039c565b905091905056fea264697066735822122092e2846a8d7ff8b30c812cc167d34779a16c52fbadcea2c5da597e4e93f4556b64736f6c63430008070033",
					"opcodes": "PUSH1 0x80 PUSH1 0x40 MSTORE CALLVALUE DUP1 ISZERO PUSH2 0x10 JUMPI PUSH1 0x0 DUP1 REVERT JUMPDEST POP PUSH2 0x43A DUP1 PUSH2 0x20 PUSH1 0x0 CODECOPY PUSH1 0x0 RETURN INVALID PUSH1 0x80 PUSH1 0x40 MSTORE CALLVALUE DUP1 ISZERO PUSH2 0x10 JUMPI PUSH1 0x0 DUP1 REVERT JUMPDEST POP PUSH1 0x4 CALLDATASIZE LT PUSH2 0x41 JUMPI PUSH1 0x0 CALLDATALOAD PUSH1 0xE0 SHR DUP1 PUSH4 0x170B5ADD EQ PUSH2 0x46 JUMPI DUP1 PUSH4 0x7FD5F268 EQ PUSH2 0x64 JUMPI DUP1 PUSH4 0x9D977062 EQ PUSH2 0x82 JUMPI JUMPDEST PUSH1 0x0 DUP1 REVERT JUMPDEST PUSH2 0x4E PUSH2 0x8C JUMP JUMPDEST PUSH1 0x40 MLOAD PUSH2 0x5B SWAP2 SWAP1 PUSH2 0x319 JUMP JUMPDEST PUSH1 0x40 MLOAD DUP1 SWAP2 SUB SWAP1 RETURN JUMPDEST PUSH2 0x6C PUSH2 0x15D JUMP JUMPDEST PUSH1 0x40 MLOAD PUSH2 0x79 SWAP2 SWAP1 PUSH2 0x2F7 JUMP JUMPDEST PUSH1 0x40 MLOAD DUP1 SWAP2 SUB SWAP1 RETURN JUMPDEST PUSH2 0x8A PUSH2 0x1EB JUMP JUMPDEST STOP JUMPDEST PUSH1 0x60 PUSH1 0x0 CALLER SWAP1 POP PUSH1 0x1 PUSH1 0x0 DUP3 PUSH20 0xFFFFFFFFFFFFFFFFFFFFFFFFFFFFFFFFFFFFFFFF AND PUSH20 0xFFFFFFFFFFFFFFFFFFFFFFFFFFFFFFFFFFFFFFFF AND DUP2 MSTORE PUSH1 0x20 ADD SWAP1 DUP2 MSTORE PUSH1 0x20 ADD PUSH1 0x0 KECCAK256 DUP1 SLOAD DUP1 PUSH1 0x20 MUL PUSH1 0x20 ADD PUSH1 0x40 MLOAD SWAP1 DUP2 ADD PUSH1 0x40 MSTORE DUP1 SWAP3 SWAP2 SWAP1 DUP2 DUP2 MSTORE PUSH1 0x20 ADD DUP3 DUP1 SLOAD DUP1 ISZERO PUSH2 0x152 JUMPI PUSH1 0x20 MUL DUP3 ADD SWAP2 SWAP1 PUSH1 0x0 MSTORE PUSH1 0x20 PUSH1 0x0 KECCAK256 SWAP1 JUMPDEST DUP2 PUSH1 0x0 SWAP1 SLOAD SWAP1 PUSH2 0x100 EXP SWAP1 DIV PUSH20 0xFFFFFFFFFFFFFFFFFFFFFFFFFFFFFFFFFFFFFFFF AND PUSH20 0xFFFFFFFFFFFFFFFFFFFFFFFFFFFFFFFFFFFFFFFF AND DUP2 MSTORE PUSH1 0x20 ADD SWAP1 PUSH1 0x1 ADD SWAP1 DUP1 DUP4 GT PUSH2 0x108 JUMPI JUMPDEST POP POP POP POP POP SWAP2 POP POP SWAP1 JUMP JUMPDEST PUSH1 0x60 PUSH1 0x0 DUP1 SLOAD DUP1 PUSH1 0x20 MUL PUSH1 0x20 ADD PUSH1 0x40 MLOAD SWAP1 DUP2 ADD PUSH1 0x40 MSTORE DUP1 SWAP3 SWAP2 SWAP1 DUP2 DUP2 MSTORE PUSH1 0x20 ADD DUP3 DUP1 SLOAD DUP1 ISZERO PUSH2 0x1E1 JUMPI PUSH1 0x20 MUL DUP3 ADD SWAP2 SWAP1 PUSH1 0x0 MSTORE PUSH1 0x20 PUSH1 0x0 KECCAK256 SWAP1 JUMPDEST DUP2 PUSH1 0x0 SWAP1 SLOAD SWAP1 PUSH2 0x100 EXP SWAP1 DIV PUSH20 0xFFFFFFFFFFFFFFFFFFFFFFFFFFFFFFFFFFFFFFFF AND PUSH20 0xFFFFFFFFFFFFFFFFFFFFFFFFFFFFFFFFFFFFFFFF AND DUP2 MSTORE PUSH1 0x20 ADD SWAP1 PUSH1 0x1 ADD SWAP1 DUP1 DUP4 GT PUSH2 0x197 JUMPI JUMPDEST POP POP POP POP POP SWAP1 POP SWAP1 JUMP JUMPDEST JUMP JUMPDEST PUSH1 0x0 PUSH2 0x1F9 DUP4 DUP4 PUSH2 0x2D9 JUMP JUMPDEST PUSH1 0x20 DUP4 ADD SWAP1 POP SWAP3 SWAP2 POP POP JUMP JUMPDEST PUSH1 0x0 PUSH2 0x211 DUP4 DUP4 PUSH2 0x2E8 JUMP JUMPDEST PUSH1 0x20 DUP4 ADD SWAP1 POP SWAP3 SWAP2 POP POP JUMP JUMPDEST PUSH1 0x0 PUSH2 0x228 DUP3 PUSH2 0x35B JUMP JUMPDEST PUSH2 0x232 DUP2 DUP6 PUSH2 0x38B JUMP JUMPDEST SWAP4 POP PUSH2 0x23D DUP4 PUSH2 0x33B JUMP JUMPDEST DUP1 PUSH1 0x0 JUMPDEST DUP4 DUP2 LT ISZERO PUSH2 0x26E JUMPI DUP2 MLOAD PUSH2 0x255 DUP9 DUP3 PUSH2 0x1ED JUMP JUMPDEST SWAP8 POP PUSH2 0x260 DUP4 PUSH2 0x371 JUMP JUMPDEST SWAP3 POP POP PUSH1 0x1 DUP2 ADD SWAP1 POP PUSH2 0x241 JUMP JUMPDEST POP DUP6 SWAP4 POP POP POP POP SWAP3 SWAP2 POP POP JUMP JUMPDEST PUSH1 0x0 PUSH2 0x286 DUP3 PUSH2 0x366 JUMP JUMPDEST PUSH2 0x290 DUP2 DUP6 PUSH2 0x38B JUMP JUMPDEST SWAP4 POP PUSH2 0x29B DUP4 PUSH2 0x34B JUMP JUMPDEST DUP1 PUSH1 0x0 JUMPDEST DUP4 DUP2 LT ISZERO PUSH2 0x2CC JUMPI DUP2 MLOAD PUSH2 0x2B3 DUP9 DUP3 PUSH2 0x205 JUMP JUMPDEST SWAP8 POP PUSH2 0x2BE DUP4 PUSH2 0x37E JUMP JUMPDEST SWAP3 POP POP PUSH1 0x1 DUP2 ADD SWAP1 POP PUSH2 0x29F JUMP JUMPDEST POP DUP6 SWAP4 POP POP POP POP SWAP3 SWAP2 POP POP JUMP JUMPDEST PUSH2 0x2E2 DUP2 PUSH2 0x3BC JUMP JUMPDEST DUP3 MSTORE POP POP JUMP JUMPDEST PUSH2 0x2F1 DUP2 PUSH2 0x3CE JUMP JUMPDEST DUP3 MSTORE POP POP JUMP JUMPDEST PUSH1 0x0 PUSH1 0x20 DUP3 ADD SWAP1 POP DUP2 DUP2 SUB PUSH1 0x0 DUP4 ADD MSTORE PUSH2 0x311 DUP2 DUP5 PUSH2 0x21D JUMP JUMPDEST SWAP1 POP SWAP3 SWAP2 POP POP JUMP JUMPDEST PUSH1 0x0 PUSH1 0x20 DUP3 ADD SWAP1 POP DUP2 DUP2 SUB PUSH1 0x0 DUP4 ADD MSTORE PUSH2 0x333 DUP2 DUP5 PUSH2 0x27B JUMP JUMPDEST SWAP1 POP SWAP3 SWAP2 POP POP JUMP JUMPDEST PUSH1 0x0 DUP2 SWAP1 POP PUSH1 0x20 DUP3 ADD SWAP1 POP SWAP2 SWAP1 POP JUMP JUMPDEST PUSH1 0x0 DUP2 SWAP1 POP PUSH1 0x20 DUP3 ADD SWAP1 POP SWAP2 SWAP1 POP JUMP JUMPDEST PUSH1 0x0 DUP2 MLOAD SWAP1 POP SWAP2 SWAP1 POP JUMP JUMPDEST PUSH1 0x0 DUP2 MLOAD SWAP1 POP SWAP2 SWAP1 POP JUMP JUMPDEST PUSH1 0x0 PUSH1 0x20 DUP3 ADD SWAP1 POP SWAP2 SWAP1 POP JUMP JUMPDEST PUSH1 0x0 PUSH1 0x20 DUP3 ADD SWAP1 POP SWAP2 SWAP1 POP JUMP JUMPDEST PUSH1 0x0 DUP3 DUP3 MSTORE PUSH1 0x20 DUP3 ADD SWAP1 POP SWAP3 SWAP2 POP POP JUMP JUMPDEST PUSH1 0x0 PUSH20 0xFFFFFFFFFFFFFFFFFFFFFFFFFFFFFFFFFFFFFFFF DUP3 AND SWAP1 POP SWAP2 SWAP1 POP JUMP JUMPDEST PUSH1 0x0 PUSH2 0x3C7 DUP3 PUSH2 0x3E0 JUMP JUMPDEST SWAP1 POP SWAP2 SWAP1 POP JUMP JUMPDEST PUSH1 0x0 PUSH2 0x3D9 DUP3 PUSH2 0x3E0 JUMP JUMPDEST SWAP1 POP SWAP2 SWAP1 POP JUMP JUMPDEST PUSH1 0x0 PUSH2 0x3EB DUP3 PUSH2 0x3F2 JUMP JUMPDEST SWAP1 POP SWAP2 SWAP1 POP JUMP JUMPDEST PUSH1 0x0 PUSH2 0x3FD DUP3 PUSH2 0x39C JUMP JUMPDEST SWAP1 POP SWAP2 SWAP1 POP JUMP INVALID LOG2 PUSH5 0x6970667358 0x22 SLT KECCAK256 SWAP3 0xE2 DUP5 PUSH11 0x8D7FF8B30C812CC167D347 PUSH26 0xA16C52FBADCEA2C5DA597E4E93F4556B64736F6C634300080700 CALLER "
				},
				"gasEstimates": {
					"creation": {
						"codeDepositCost": "216400",
						"executionCost": "257",
						"totalCost": "216657"
					},
					"external": {
						"getAllElections()": "infinite",
						"getMyPolls()": "infinite",
						"getPollById()": "166"
					}
				},
				"methodIdentifiers": {
					"getAllElections()": "7fd5f268",
					"getMyPolls()": "170b5add",
					"getPollById()": "9d977062"
				}
			},
			"storageLayout": {
				"storage": [
					{
						"astId": 5,
						"contract": "Voting.sol:Platform",
						"label": "elections",
						"offset": 0,
						"slot": "0",
						"type": "t_array(t_contract(Election)226)dyn_storage"
					},
					{
						"astId": 11,
						"contract": "Voting.sol:Platform",
						"label": "polls",
						"offset": 0,
						"slot": "1",
						"type": "t_mapping(t_address,t_array(t_contract(Poll)227)dyn_storage)"
					}
				],
				"types": {
					"t_address": {
						"encoding": "inplace",
						"label": "address",
						"numberOfBytes": "20"
					},
					"t_array(t_contract(Election)226)dyn_storage": {
						"base": "t_contract(Election)226",
						"encoding": "dynamic_array",
						"label": "contract Election[]",
						"numberOfBytes": "32"
					},
					"t_array(t_contract(Poll)227)dyn_storage": {
						"base": "t_contract(Poll)227",
						"encoding": "dynamic_array",
						"label": "contract Poll[]",
						"numberOfBytes": "32"
					},
					"t_contract(Election)226": {
						"encoding": "inplace",
						"label": "contract Election",
						"numberOfBytes": "20"
					},
					"t_contract(Poll)227": {
						"encoding": "inplace",
						"label": "contract Poll",
						"numberOfBytes": "20"
					},
					"t_mapping(t_address,t_array(t_contract(Poll)227)dyn_storage)": {
						"encoding": "mapping",
						"key": "t_address",
						"label": "mapping(address => contract Poll[])",
						"numberOfBytes": "32",
						"value": "t_array(t_contract(Poll)227)dyn_storage"
					}
				}
			},
			"userdoc": {
				"kind": "user",
				"methods": {},
				"version": 1
			}
		}
	}
}